{
  "contracts/DonateOnDEX.sol": {
    "DonateOnDEX": {
      "abi": [
        {
          "inputs": [
            {
              "internalType": "address",
              "name": "poolAddress",
              "type": "address"
            }
          ],
          "stateMutability": "nonpayable",
          "type": "constructor"
        },
        {
          "inputs": [],
          "name": "pool",
          "outputs": [
            {
              "internalType": "address payable",
              "name": "",
              "type": "address"
            }
          ],
          "stateMutability": "view",
          "type": "function"
        },
        {
          "inputs": [
            {
              "internalType": "address",
              "name": "router",
              "type": "address"
            },
            {
              "internalType": "uint256",
              "name": "percent",
              "type": "uint256"
            },
            {
              "internalType": "uint256",
              "name": "amountOut",
              "type": "uint256"
            },
            {
              "internalType": "address[]",
              "name": "path",
              "type": "address[]"
            },
            {
              "internalType": "uint256",
              "name": "deadline",
              "type": "uint256"
            }
          ],
          "name": "swapETHForExactTokens",
          "outputs": [
            {
              "internalType": "uint256[]",
              "name": "amounts",
              "type": "uint256[]"
            }
          ],
          "stateMutability": "payable",
          "type": "function"
        },
        {
          "inputs": [
            {
              "internalType": "address",
              "name": "router",
              "type": "address"
            },
            {
              "internalType": "uint256",
              "name": "percent",
              "type": "uint256"
            },
            {
              "internalType": "uint256",
              "name": "amountOutMin",
              "type": "uint256"
            },
            {
              "internalType": "address[]",
              "name": "path",
              "type": "address[]"
            },
            {
              "internalType": "uint256",
              "name": "deadline",
              "type": "uint256"
            }
          ],
          "name": "swapExactETHForTokens",
          "outputs": [
            {
              "internalType": "uint256[]",
              "name": "amounts",
              "type": "uint256[]"
            }
          ],
          "stateMutability": "payable",
          "type": "function"
        },
        {
          "inputs": [
            {
              "internalType": "address",
              "name": "router",
              "type": "address"
            },
            {
              "internalType": "uint256",
              "name": "percent",
              "type": "uint256"
            },
            {
              "internalType": "uint256",
              "name": "amountIn",
              "type": "uint256"
            },
            {
              "internalType": "uint256",
              "name": "amountOutMin",
              "type": "uint256"
            },
            {
              "internalType": "address[]",
              "name": "path",
              "type": "address[]"
            },
            {
              "internalType": "uint256",
              "name": "deadline",
              "type": "uint256"
            }
          ],
          "name": "swapExactTokensForETH",
          "outputs": [
            {
              "internalType": "uint256[]",
              "name": "amounts",
              "type": "uint256[]"
            }
          ],
          "stateMutability": "nonpayable",
          "type": "function"
        },
        {
          "inputs": [
            {
              "internalType": "address",
              "name": "router",
              "type": "address"
            },
            {
              "internalType": "uint256",
              "name": "percent",
              "type": "uint256"
            },
            {
              "internalType": "uint256",
              "name": "amountOut",
              "type": "uint256"
            },
            {
              "internalType": "uint256",
              "name": "amountInMax",
              "type": "uint256"
            },
            {
              "internalType": "address[]",
              "name": "path",
              "type": "address[]"
            },
            {
              "internalType": "uint256",
              "name": "deadline",
              "type": "uint256"
            }
          ],
          "name": "swapTokensForExactETH",
          "outputs": [
            {
              "internalType": "uint256[]",
              "name": "amounts",
              "type": "uint256[]"
            }
          ],
          "stateMutability": "nonpayable",
          "type": "function"
        }
      ],
      "evm": {
        "bytecode": {
          "linkReferences": {},
          "object": "60806040523480156200001157600080fd5b5060405162002130380380620021308339818101604052810190620000379190620000e8565b806000806101000a81548173ffffffffffffffffffffffffffffffffffffffff021916908373ffffffffffffffffffffffffffffffffffffffff160217905550506200011a565b600080fd5b600073ffffffffffffffffffffffffffffffffffffffff82169050919050565b6000620000b08262000083565b9050919050565b620000c281620000a3565b8114620000ce57600080fd5b50565b600081519050620000e281620000b7565b92915050565b6000602082840312156200010157620001006200007e565b5b60006200011184828501620000d1565b91505092915050565b612006806200012a6000396000f3fe60806040526004361061004a5760003560e01c806316f0115b1461004f5780634daa13db1461007a578063648c2273146100b7578063651b100c146100f4578063fe78a2e214610124575b600080fd5b34801561005b57600080fd5b50610064610154565b60405161007191906112b5565b60405180910390f35b34801561008657600080fd5b506100a1600480360381019061009c91906113bd565b610178565b6040516100ae919061152a565b60405180910390f35b3480156100c357600080fd5b506100de60048036038101906100d991906113bd565b610433565b6040516100eb919061152a565b60405180910390f35b61010e6004803603810190610109919061154c565b6107df565b60405161011b919061152a565b60405180910390f35b61013e6004803603810190610139919061154c565b6109d4565b60405161014b919061152a565b60405180910390f35b60008054906101000a900473ffffffffffffffffffffffffffffffffffffffff1681565b60606101cf33308887876000818110610194576101936115e6565b5b90506020020160208101906101a99190611615565b73ffffffffffffffffffffffffffffffffffffffff16610c87909392919063ffffffff16565b6102228887868660008181106101e8576101e76115e6565b5b90506020020160208101906101fd9190611615565b73ffffffffffffffffffffffffffffffffffffffff16610d109092919063ffffffff16565b8773ffffffffffffffffffffffffffffffffffffffff166318cbafe58787878730886040518763ffffffff1660e01b815260040161026596959493929190611723565b6000604051808303816000875af1158015610284573d6000803e3d6000fd5b505050506040513d6000823e3d601f19601f820116820180604052508101906102ad91906118e3565b905060006127108883600185516102c4919061195b565b815181106102d5576102d46115e6565b5b60200260200101516102e7919061198f565b6102f19190611a18565b9050808260018451610303919061195b565b81518110610314576103136115e6565b5b6020026020010151610326919061195b565b8260018451610335919061195b565b81518110610346576103456115e6565b5b6020026020010181815250503373ffffffffffffffffffffffffffffffffffffffff166108fc836001855161037b919061195b565b8151811061038c5761038b6115e6565b5b60200260200101519081150290604051600060405180830381858888f193505050501580156103bf573d6000803e3d6000fd5b5060008054906101000a900473ffffffffffffffffffffffffffffffffffffffff1673ffffffffffffffffffffffffffffffffffffffff166108fc829081150290604051600060405180830381858888f19350505050158015610426573d6000803e3d6000fd5b5050979650505050505050565b606061052733308a73ffffffffffffffffffffffffffffffffffffffff16631f00ca748a89896040518463ffffffff1660e01b815260040161047793929190611a49565b600060405180830381865afa158015610494573d6000803e3d6000fd5b505050506040513d6000823e3d601f19601f820116820180604052508101906104bd91906118e3565b6000815181106104d0576104cf6115e6565b5b6020026020010151878760008181106104ec576104eb6115e6565b5b90506020020160208101906105019190611615565b73ffffffffffffffffffffffffffffffffffffffff16610c87909392919063ffffffff16565b61057a8886868660008181106105405761053f6115e6565b5b90506020020160208101906105559190611615565b73ffffffffffffffffffffffffffffffffffffffff16610d109092919063ffffffff16565b8773ffffffffffffffffffffffffffffffffffffffff16634a25d94a8787878730886040518763ffffffff1660e01b81526004016105bd96959493929190611723565b6000604051808303816000875af11580156105dc573d6000803e3d6000fd5b505050506040513d6000823e3d601f19601f8201168201806040525081019061060591906118e3565b905061065b88600086866000818110610621576106206115e6565b5b90506020020160208101906106369190611615565b73ffffffffffffffffffffffffffffffffffffffff16610e229092919063ffffffff16565b6000612710888360018551610670919061195b565b81518110610681576106806115e6565b5b6020026020010151610693919061198f565b61069d9190611a18565b90508082600184516106af919061195b565b815181106106c0576106bf6115e6565b5b60200260200101516106d2919061195b565b82600184516106e1919061195b565b815181106106f2576106f16115e6565b5b6020026020010181815250503373ffffffffffffffffffffffffffffffffffffffff166108fc8360018551610727919061195b565b81518110610738576107376115e6565b5b60200260200101519081150290604051600060405180830381858888f1935050505015801561076b573d6000803e3d6000fd5b5060008054906101000a900473ffffffffffffffffffffffffffffffffffffffff1673ffffffffffffffffffffffffffffffffffffffff166108fc829081150290604051600060405180830381858888f193505050501580156107d2573d6000803e3d6000fd5b5050979650505050505050565b606060003411610824576040517f08c379a000000000000000000000000000000000000000000000000000000000815260040161081b90611ad8565b60405180910390fd5b60006127108734610835919061198f565b61083f9190611a18565b90508773ffffffffffffffffffffffffffffffffffffffff16637ff36ab58234610869919061195b565b88888830896040518763ffffffff1660e01b815260040161088e959493929190611af8565b60006040518083038185885af11580156108ac573d6000803e3d6000fd5b50505050506040513d6000823e3d601f19601f820116820180604052508101906108d691906118e3565b915061096233836001888890506108ed919061195b565b815181106108fe576108fd6115e6565b5b6020026020010151878760018a8a9050610918919061195b565b818110610928576109276115e6565b5b905060200201602081019061093d9190611615565b73ffffffffffffffffffffffffffffffffffffffff16610f719092919063ffffffff16565b60008054906101000a900473ffffffffffffffffffffffffffffffffffffffff1673ffffffffffffffffffffffffffffffffffffffff166108fc829081150290604051600060405180830381858888f193505050501580156109c8573d6000803e3d6000fd5b50509695505050505050565b606060003411610a19576040517f08c379a0000000000000000000000000000000000000000000000000000000008152600401610a1090611ad8565b60405180910390fd5b60008773ffffffffffffffffffffffffffffffffffffffff16631f00ca748787876040518463ffffffff1660e01b8152600401610a5893929190611a49565b600060405180830381865afa158015610a75573d6000803e3d6000fd5b505050506040513d6000823e3d601f19601f82011682018060405250810190610a9e91906118e3565b600181518110610ab157610ab06115e6565b5b6020026020010151905060006127108883610acc919061198f565b610ad69190611a18565b90506127108888610ae7919061198f565b610af19190611a18565b96508873ffffffffffffffffffffffffffffffffffffffff1663fb3bdb418234610b1b919061195b565b898989308a6040518763ffffffff1660e01b8152600401610b40959493929190611af8565b60006040518083038185885af1158015610b5e573d6000803e3d6000fd5b50505050506040513d6000823e3d601f19601f82011682018060405250810190610b8891906118e3565b9250610c143384600189899050610b9f919061195b565b81518110610bb057610baf6115e6565b5b6020026020010151888860018b8b9050610bca919061195b565b818110610bda57610bd96115e6565b5b9050602002016020810190610bef9190611615565b73ffffffffffffffffffffffffffffffffffffffff16610f719092919063ffffffff16565b60008054906101000a900473ffffffffffffffffffffffffffffffffffffffff1673ffffffffffffffffffffffffffffffffffffffff166108fc829081150290604051600060405180830381858888f19350505050158015610c7a573d6000803e3d6000fd5b5050509695505050505050565b610d0a846323b872dd60e01b858585604051602401610ca893929190611b46565b604051602081830303815290604052907bffffffffffffffffffffffffffffffffffffffffffffffffffffffff19166020820180517bffffffffffffffffffffffffffffffffffffffffffffffffffffffff8381831617835250505050610ff7565b50505050565b6000818473ffffffffffffffffffffffffffffffffffffffff1663dd62ed3e30866040518363ffffffff1660e01b8152600401610d4e929190611b7d565b602060405180830381865afa158015610d6b573d6000803e3d6000fd5b505050506040513d601f19601f82011682018060405250810190610d8f9190611ba6565b610d999190611bd3565b9050610e1c8463095ea7b360e01b8584604051602401610dba929190611c29565b604051602081830303815290604052907bffffffffffffffffffffffffffffffffffffffffffffffffffffffff19166020820180517bffffffffffffffffffffffffffffffffffffffffffffffffffffffff8381831617835250505050610ff7565b50505050565b6000811480610eac575060008373ffffffffffffffffffffffffffffffffffffffff1663dd62ed3e30856040518363ffffffff1660e01b8152600401610e69929190611b7d565b602060405180830381865afa158015610e86573d6000803e3d6000fd5b505050506040513d601f19601f82011682018060405250810190610eaa9190611ba6565b145b610eeb576040517f08c379a0000000000000000000000000000000000000000000000000000000008152600401610ee290611cc4565b60405180910390fd5b610f6c8363095ea7b360e01b8484604051602401610f0a929190611c29565b604051602081830303815290604052907bffffffffffffffffffffffffffffffffffffffffffffffffffffffff19166020820180517bffffffffffffffffffffffffffffffffffffffffffffffffffffffff8381831617835250505050610ff7565b505050565b610ff28363a9059cbb60e01b8484604051602401610f90929190611c29565b604051602081830303815290604052907bffffffffffffffffffffffffffffffffffffffffffffffffffffffff19166020820180517bffffffffffffffffffffffffffffffffffffffffffffffffffffffff8381831617835250505050610ff7565b505050565b6000611059826040518060400160405280602081526020017f5361666545524332303a206c6f772d6c6576656c2063616c6c206661696c65648152508573ffffffffffffffffffffffffffffffffffffffff166110be9092919063ffffffff16565b90506000815111156110b957808060200190518101906110799190611d1c565b6110b8576040517f08c379a00000000000000000000000000000000000000000000000000000000081526004016110af90611dbb565b60405180910390fd5b5b505050565b60606110cd84846000856110d6565b90509392505050565b60608247101561111b576040517f08c379a000000000000000000000000000000000000000000000000000000000815260040161111290611e4d565b60405180910390fd5b611124856111ea565b611163576040517f08c379a000000000000000000000000000000000000000000000000000000000815260040161115a90611eb9565b60405180910390fd5b6000808673ffffffffffffffffffffffffffffffffffffffff16858760405161118c9190611f53565b60006040518083038185875af1925050503d80600081146111c9576040519150601f19603f3d011682016040523d82523d6000602084013e6111ce565b606091505b50915091506111de82828661120d565b92505050949350505050565b6000808273ffffffffffffffffffffffffffffffffffffffff163b119050919050565b6060831561121d5782905061126d565b6000835111156112305782518084602001fd5b816040517f08c379a00000000000000000000000000000000000000000000000000000000081526004016112649190611fae565b60405180910390fd5b9392505050565b600073ffffffffffffffffffffffffffffffffffffffff82169050919050565b600061129f82611274565b9050919050565b6112af81611294565b82525050565b60006020820190506112ca60008301846112a6565b92915050565b6000604051905090565b600080fd5b600080fd5b60006112ef82611274565b9050919050565b6112ff816112e4565b811461130a57600080fd5b50565b60008135905061131c816112f6565b92915050565b6000819050919050565b61133581611322565b811461134057600080fd5b50565b6000813590506113528161132c565b92915050565b600080fd5b600080fd5b600080fd5b60008083601f84011261137d5761137c611358565b5b8235905067ffffffffffffffff81111561139a5761139961135d565b5b6020830191508360208202830111156113b6576113b5611362565b5b9250929050565b600080600080600080600060c0888a0312156113dc576113db6112da565b5b60006113ea8a828b0161130d565b97505060206113fb8a828b01611343565b965050604061140c8a828b01611343565b955050606061141d8a828b01611343565b945050608088013567ffffffffffffffff81111561143e5761143d6112df565b5b61144a8a828b01611367565b935093505060a061145d8a828b01611343565b91505092959891949750929550565b600081519050919050565b600082825260208201905092915050565b6000819050602082019050919050565b6114a181611322565b82525050565b60006114b38383611498565b60208301905092915050565b6000602082019050919050565b60006114d78261146c565b6114e18185611477565b93506114ec83611488565b8060005b8381101561151d57815161150488826114a7565b975061150f836114bf565b9250506001810190506114f0565b5085935050505092915050565b6000602082019050818103600083015261154481846114cc565b905092915050565b60008060008060008060a08789031215611569576115686112da565b5b600061157789828a0161130d565b965050602061158889828a01611343565b955050604061159989828a01611343565b945050606087013567ffffffffffffffff8111156115ba576115b96112df565b5b6115c689828a01611367565b935093505060806115d989828a01611343565b9150509295509295509295565b7f4e487b7100000000000000000000000000000000000000000000000000000000600052603260045260246000fd5b60006020828403121561162b5761162a6112da565b5b60006116398482850161130d565b91505092915050565b61164b81611322565b82525050565b600082825260208201905092915050565b6000819050919050565b611675816112e4565b82525050565b6000611687838361166c565b60208301905092915050565b60006116a2602084018461130d565b905092915050565b6000602082019050919050565b60006116c38385611651565b93506116ce82611662565b8060005b85811015611707576116e48284611693565b6116ee888261167b565b97506116f9836116aa565b9250506001810190506116d2565b5085925050509392505050565b61171d816112e4565b82525050565b600060a0820190506117386000830189611642565b6117456020830188611642565b81810360408301526117588186886116b7565b90506117676060830185611714565b6117746080830184611642565b979650505050505050565b6000601f19601f8301169050919050565b7f4e487b7100000000000000000000000000000000000000000000000000000000600052604160045260246000fd5b6117c88261177f565b810181811067ffffffffffffffff821117156117e7576117e6611790565b5b80604052505050565b60006117fa6112d0565b905061180682826117bf565b919050565b600067ffffffffffffffff82111561182657611825611790565b5b602082029050602081019050919050565b6000815190506118468161132c565b92915050565b600061185f61185a8461180b565b6117f0565b9050808382526020820190506020840283018581111561188257611881611362565b5b835b818110156118ab57806118978882611837565b845260208401935050602081019050611884565b5050509392505050565b600082601f8301126118ca576118c9611358565b5b81516118da84826020860161184c565b91505092915050565b6000602082840312156118f9576118f86112da565b5b600082015167ffffffffffffffff811115611917576119166112df565b5b611923848285016118b5565b91505092915050565b7f4e487b7100000000000000000000000000000000000000000000000000000000600052601160045260246000fd5b600061196682611322565b915061197183611322565b9250828210156119845761198361192c565b5b828203905092915050565b600061199a82611322565b91506119a583611322565b9250817fffffffffffffffffffffffffffffffffffffffffffffffffffffffffffffffff04831182151516156119de576119dd61192c565b5b828202905092915050565b7f4e487b7100000000000000000000000000000000000000000000000000000000600052601260045260246000fd5b6000611a2382611322565b9150611a2e83611322565b925082611a3e57611a3d6119e9565b5b828204905092915050565b6000604082019050611a5e6000830186611642565b8181036020830152611a718184866116b7565b9050949350505050565b600082825260208201905092915050565b7f4e6f206d73672e76616c75652100000000000000000000000000000000000000600082015250565b6000611ac2600d83611a7b565b9150611acd82611a8c565b602082019050919050565b60006020820190508181036000830152611af181611ab5565b9050919050565b6000608082019050611b0d6000830188611642565b8181036020830152611b208186886116b7565b9050611b2f6040830185611714565b611b3c6060830184611642565b9695505050505050565b6000606082019050611b5b6000830186611714565b611b686020830185611714565b611b756040830184611642565b949350505050565b6000604082019050611b926000830185611714565b611b9f6020830184611714565b9392505050565b600060208284031215611bbc57611bbb6112da565b5b6000611bca84828501611837565b91505092915050565b6000611bde82611322565b9150611be983611322565b9250827fffffffffffffffffffffffffffffffffffffffffffffffffffffffffffffffff03821115611c1e57611c1d61192c565b5b828201905092915050565b6000604082019050611c3e6000830185611714565b611c4b6020830184611642565b9392505050565b7f5361666545524332303a20617070726f76652066726f6d206e6f6e2d7a65726f60008201527f20746f206e6f6e2d7a65726f20616c6c6f77616e636500000000000000000000602082015250565b6000611cae603683611a7b565b9150611cb982611c52565b604082019050919050565b60006020820190508181036000830152611cdd81611ca1565b9050919050565b60008115159050919050565b611cf981611ce4565b8114611d0457600080fd5b50565b600081519050611d1681611cf0565b92915050565b600060208284031215611d3257611d316112da565b5b6000611d4084828501611d07565b91505092915050565b7f5361666545524332303a204552433230206f7065726174696f6e20646964206e60008201527f6f74207375636365656400000000000000000000000000000000000000000000602082015250565b6000611da5602a83611a7b565b9150611db082611d49565b604082019050919050565b60006020820190508181036000830152611dd481611d98565b9050919050565b7f416464726573733a20696e73756666696369656e742062616c616e636520666f60008201527f722063616c6c0000000000000000000000000000000000000000000000000000602082015250565b6000611e37602683611a7b565b9150611e4282611ddb565b604082019050919050565b60006020820190508181036000830152611e6681611e2a565b9050919050565b7f416464726573733a2063616c6c20746f206e6f6e2d636f6e7472616374000000600082015250565b6000611ea3601d83611a7b565b9150611eae82611e6d565b602082019050919050565b60006020820190508181036000830152611ed281611e96565b9050919050565b600081519050919050565b600081905092915050565b60005b83811015611f0d578082015181840152602081019050611ef2565b83811115611f1c576000848401525b50505050565b6000611f2d82611ed9565b611f378185611ee4565b9350611f47818560208601611eef565b80840191505092915050565b6000611f5f8284611f22565b915081905092915050565b600081519050919050565b6000611f8082611f6a565b611f8a8185611a7b565b9350611f9a818560208601611eef565b611fa38161177f565b840191505092915050565b60006020820190508181036000830152611fc88184611f75565b90509291505056fea2646970667358221220364fa1ee26bf1186e4ef8b6d85900dc7583f76d947878ccf520a5c39f3b0384c64736f6c634300080d0033",
          "opcodes": "PUSH1 0x80 PUSH1 0x40 MSTORE CALLVALUE DUP1 ISZERO PUSH3 0x11 JUMPI PUSH1 0x0 DUP1 REVERT JUMPDEST POP PUSH1 0x40 MLOAD PUSH3 0x2130 CODESIZE SUB DUP1 PUSH3 0x2130 DUP4 CODECOPY DUP2 DUP2 ADD PUSH1 0x40 MSTORE DUP2 ADD SWAP1 PUSH3 0x37 SWAP2 SWAP1 PUSH3 0xE8 JUMP JUMPDEST DUP1 PUSH1 0x0 DUP1 PUSH2 0x100 EXP DUP2 SLOAD DUP2 PUSH20 0xFFFFFFFFFFFFFFFFFFFFFFFFFFFFFFFFFFFFFFFF MUL NOT AND SWAP1 DUP4 PUSH20 0xFFFFFFFFFFFFFFFFFFFFFFFFFFFFFFFFFFFFFFFF AND MUL OR SWAP1 SSTORE POP POP PUSH3 0x11A JUMP JUMPDEST PUSH1 0x0 DUP1 REVERT JUMPDEST PUSH1 0x0 PUSH20 0xFFFFFFFFFFFFFFFFFFFFFFFFFFFFFFFFFFFFFFFF DUP3 AND SWAP1 POP SWAP2 SWAP1 POP JUMP JUMPDEST PUSH1 0x0 PUSH3 0xB0 DUP3 PUSH3 0x83 JUMP JUMPDEST SWAP1 POP SWAP2 SWAP1 POP JUMP JUMPDEST PUSH3 0xC2 DUP2 PUSH3 0xA3 JUMP JUMPDEST DUP2 EQ PUSH3 0xCE JUMPI PUSH1 0x0 DUP1 REVERT JUMPDEST POP JUMP JUMPDEST PUSH1 0x0 DUP2 MLOAD SWAP1 POP PUSH3 0xE2 DUP2 PUSH3 0xB7 JUMP JUMPDEST SWAP3 SWAP2 POP POP JUMP JUMPDEST PUSH1 0x0 PUSH1 0x20 DUP3 DUP5 SUB SLT ISZERO PUSH3 0x101 JUMPI PUSH3 0x100 PUSH3 0x7E JUMP JUMPDEST JUMPDEST PUSH1 0x0 PUSH3 0x111 DUP5 DUP3 DUP6 ADD PUSH3 0xD1 JUMP JUMPDEST SWAP2 POP POP SWAP3 SWAP2 POP POP JUMP JUMPDEST PUSH2 0x2006 DUP1 PUSH3 0x12A PUSH1 0x0 CODECOPY PUSH1 0x0 RETURN INVALID PUSH1 0x80 PUSH1 0x40 MSTORE PUSH1 0x4 CALLDATASIZE LT PUSH2 0x4A JUMPI PUSH1 0x0 CALLDATALOAD PUSH1 0xE0 SHR DUP1 PUSH4 0x16F0115B EQ PUSH2 0x4F JUMPI DUP1 PUSH4 0x4DAA13DB EQ PUSH2 0x7A JUMPI DUP1 PUSH4 0x648C2273 EQ PUSH2 0xB7 JUMPI DUP1 PUSH4 0x651B100C EQ PUSH2 0xF4 JUMPI DUP1 PUSH4 0xFE78A2E2 EQ PUSH2 0x124 JUMPI JUMPDEST PUSH1 0x0 DUP1 REVERT JUMPDEST CALLVALUE DUP1 ISZERO PUSH2 0x5B JUMPI PUSH1 0x0 DUP1 REVERT JUMPDEST POP PUSH2 0x64 PUSH2 0x154 JUMP JUMPDEST PUSH1 0x40 MLOAD PUSH2 0x71 SWAP2 SWAP1 PUSH2 0x12B5 JUMP JUMPDEST PUSH1 0x40 MLOAD DUP1 SWAP2 SUB SWAP1 RETURN JUMPDEST CALLVALUE DUP1 ISZERO PUSH2 0x86 JUMPI PUSH1 0x0 DUP1 REVERT JUMPDEST POP PUSH2 0xA1 PUSH1 0x4 DUP1 CALLDATASIZE SUB DUP2 ADD SWAP1 PUSH2 0x9C SWAP2 SWAP1 PUSH2 0x13BD JUMP JUMPDEST PUSH2 0x178 JUMP JUMPDEST PUSH1 0x40 MLOAD PUSH2 0xAE SWAP2 SWAP1 PUSH2 0x152A JUMP JUMPDEST PUSH1 0x40 MLOAD DUP1 SWAP2 SUB SWAP1 RETURN JUMPDEST CALLVALUE DUP1 ISZERO PUSH2 0xC3 JUMPI PUSH1 0x0 DUP1 REVERT JUMPDEST POP PUSH2 0xDE PUSH1 0x4 DUP1 CALLDATASIZE SUB DUP2 ADD SWAP1 PUSH2 0xD9 SWAP2 SWAP1 PUSH2 0x13BD JUMP JUMPDEST PUSH2 0x433 JUMP JUMPDEST PUSH1 0x40 MLOAD PUSH2 0xEB SWAP2 SWAP1 PUSH2 0x152A JUMP JUMPDEST PUSH1 0x40 MLOAD DUP1 SWAP2 SUB SWAP1 RETURN JUMPDEST PUSH2 0x10E PUSH1 0x4 DUP1 CALLDATASIZE SUB DUP2 ADD SWAP1 PUSH2 0x109 SWAP2 SWAP1 PUSH2 0x154C JUMP JUMPDEST PUSH2 0x7DF JUMP JUMPDEST PUSH1 0x40 MLOAD PUSH2 0x11B SWAP2 SWAP1 PUSH2 0x152A JUMP JUMPDEST PUSH1 0x40 MLOAD DUP1 SWAP2 SUB SWAP1 RETURN JUMPDEST PUSH2 0x13E PUSH1 0x4 DUP1 CALLDATASIZE SUB DUP2 ADD SWAP1 PUSH2 0x139 SWAP2 SWAP1 PUSH2 0x154C JUMP JUMPDEST PUSH2 0x9D4 JUMP JUMPDEST PUSH1 0x40 MLOAD PUSH2 0x14B SWAP2 SWAP1 PUSH2 0x152A JUMP JUMPDEST PUSH1 0x40 MLOAD DUP1 SWAP2 SUB SWAP1 RETURN JUMPDEST PUSH1 0x0 DUP1 SLOAD SWAP1 PUSH2 0x100 EXP SWAP1 DIV PUSH20 0xFFFFFFFFFFFFFFFFFFFFFFFFFFFFFFFFFFFFFFFF AND DUP2 JUMP JUMPDEST PUSH1 0x60 PUSH2 0x1CF CALLER ADDRESS DUP9 DUP8 DUP8 PUSH1 0x0 DUP2 DUP2 LT PUSH2 0x194 JUMPI PUSH2 0x193 PUSH2 0x15E6 JUMP JUMPDEST JUMPDEST SWAP1 POP PUSH1 0x20 MUL ADD PUSH1 0x20 DUP2 ADD SWAP1 PUSH2 0x1A9 SWAP2 SWAP1 PUSH2 0x1615 JUMP JUMPDEST PUSH20 0xFFFFFFFFFFFFFFFFFFFFFFFFFFFFFFFFFFFFFFFF AND PUSH2 0xC87 SWAP1 SWAP4 SWAP3 SWAP2 SWAP1 PUSH4 0xFFFFFFFF AND JUMP JUMPDEST PUSH2 0x222 DUP9 DUP8 DUP7 DUP7 PUSH1 0x0 DUP2 DUP2 LT PUSH2 0x1E8 JUMPI PUSH2 0x1E7 PUSH2 0x15E6 JUMP JUMPDEST JUMPDEST SWAP1 POP PUSH1 0x20 MUL ADD PUSH1 0x20 DUP2 ADD SWAP1 PUSH2 0x1FD SWAP2 SWAP1 PUSH2 0x1615 JUMP JUMPDEST PUSH20 0xFFFFFFFFFFFFFFFFFFFFFFFFFFFFFFFFFFFFFFFF AND PUSH2 0xD10 SWAP1 SWAP3 SWAP2 SWAP1 PUSH4 0xFFFFFFFF AND JUMP JUMPDEST DUP8 PUSH20 0xFFFFFFFFFFFFFFFFFFFFFFFFFFFFFFFFFFFFFFFF AND PUSH4 0x18CBAFE5 DUP8 DUP8 DUP8 DUP8 ADDRESS DUP9 PUSH1 0x40 MLOAD DUP8 PUSH4 0xFFFFFFFF AND PUSH1 0xE0 SHL DUP2 MSTORE PUSH1 0x4 ADD PUSH2 0x265 SWAP7 SWAP6 SWAP5 SWAP4 SWAP3 SWAP2 SWAP1 PUSH2 0x1723 JUMP JUMPDEST PUSH1 0x0 PUSH1 0x40 MLOAD DUP1 DUP4 SUB DUP2 PUSH1 0x0 DUP8 GAS CALL ISZERO DUP1 ISZERO PUSH2 0x284 JUMPI RETURNDATASIZE PUSH1 0x0 DUP1 RETURNDATACOPY RETURNDATASIZE PUSH1 0x0 REVERT JUMPDEST POP POP POP POP PUSH1 0x40 MLOAD RETURNDATASIZE PUSH1 0x0 DUP3 RETURNDATACOPY RETURNDATASIZE PUSH1 0x1F NOT PUSH1 0x1F DUP3 ADD AND DUP3 ADD DUP1 PUSH1 0x40 MSTORE POP DUP2 ADD SWAP1 PUSH2 0x2AD SWAP2 SWAP1 PUSH2 0x18E3 JUMP JUMPDEST SWAP1 POP PUSH1 0x0 PUSH2 0x2710 DUP9 DUP4 PUSH1 0x1 DUP6 MLOAD PUSH2 0x2C4 SWAP2 SWAP1 PUSH2 0x195B JUMP JUMPDEST DUP2 MLOAD DUP2 LT PUSH2 0x2D5 JUMPI PUSH2 0x2D4 PUSH2 0x15E6 JUMP JUMPDEST JUMPDEST PUSH1 0x20 MUL PUSH1 0x20 ADD ADD MLOAD PUSH2 0x2E7 SWAP2 SWAP1 PUSH2 0x198F JUMP JUMPDEST PUSH2 0x2F1 SWAP2 SWAP1 PUSH2 0x1A18 JUMP JUMPDEST SWAP1 POP DUP1 DUP3 PUSH1 0x1 DUP5 MLOAD PUSH2 0x303 SWAP2 SWAP1 PUSH2 0x195B JUMP JUMPDEST DUP2 MLOAD DUP2 LT PUSH2 0x314 JUMPI PUSH2 0x313 PUSH2 0x15E6 JUMP JUMPDEST JUMPDEST PUSH1 0x20 MUL PUSH1 0x20 ADD ADD MLOAD PUSH2 0x326 SWAP2 SWAP1 PUSH2 0x195B JUMP JUMPDEST DUP3 PUSH1 0x1 DUP5 MLOAD PUSH2 0x335 SWAP2 SWAP1 PUSH2 0x195B JUMP JUMPDEST DUP2 MLOAD DUP2 LT PUSH2 0x346 JUMPI PUSH2 0x345 PUSH2 0x15E6 JUMP JUMPDEST JUMPDEST PUSH1 0x20 MUL PUSH1 0x20 ADD ADD DUP2 DUP2 MSTORE POP POP CALLER PUSH20 0xFFFFFFFFFFFFFFFFFFFFFFFFFFFFFFFFFFFFFFFF AND PUSH2 0x8FC DUP4 PUSH1 0x1 DUP6 MLOAD PUSH2 0x37B SWAP2 SWAP1 PUSH2 0x195B JUMP JUMPDEST DUP2 MLOAD DUP2 LT PUSH2 0x38C JUMPI PUSH2 0x38B PUSH2 0x15E6 JUMP JUMPDEST JUMPDEST PUSH1 0x20 MUL PUSH1 0x20 ADD ADD MLOAD SWAP1 DUP2 ISZERO MUL SWAP1 PUSH1 0x40 MLOAD PUSH1 0x0 PUSH1 0x40 MLOAD DUP1 DUP4 SUB DUP2 DUP6 DUP9 DUP9 CALL SWAP4 POP POP POP POP ISZERO DUP1 ISZERO PUSH2 0x3BF JUMPI RETURNDATASIZE PUSH1 0x0 DUP1 RETURNDATACOPY RETURNDATASIZE PUSH1 0x0 REVERT JUMPDEST POP PUSH1 0x0 DUP1 SLOAD SWAP1 PUSH2 0x100 EXP SWAP1 DIV PUSH20 0xFFFFFFFFFFFFFFFFFFFFFFFFFFFFFFFFFFFFFFFF AND PUSH20 0xFFFFFFFFFFFFFFFFFFFFFFFFFFFFFFFFFFFFFFFF AND PUSH2 0x8FC DUP3 SWAP1 DUP2 ISZERO MUL SWAP1 PUSH1 0x40 MLOAD PUSH1 0x0 PUSH1 0x40 MLOAD DUP1 DUP4 SUB DUP2 DUP6 DUP9 DUP9 CALL SWAP4 POP POP POP POP ISZERO DUP1 ISZERO PUSH2 0x426 JUMPI RETURNDATASIZE PUSH1 0x0 DUP1 RETURNDATACOPY RETURNDATASIZE PUSH1 0x0 REVERT JUMPDEST POP POP SWAP8 SWAP7 POP POP POP POP POP POP POP JUMP JUMPDEST PUSH1 0x60 PUSH2 0x527 CALLER ADDRESS DUP11 PUSH20 0xFFFFFFFFFFFFFFFFFFFFFFFFFFFFFFFFFFFFFFFF AND PUSH4 0x1F00CA74 DUP11 DUP10 DUP10 PUSH1 0x40 MLOAD DUP5 PUSH4 0xFFFFFFFF AND PUSH1 0xE0 SHL DUP2 MSTORE PUSH1 0x4 ADD PUSH2 0x477 SWAP4 SWAP3 SWAP2 SWAP1 PUSH2 0x1A49 JUMP JUMPDEST PUSH1 0x0 PUSH1 0x40 MLOAD DUP1 DUP4 SUB DUP2 DUP7 GAS STATICCALL ISZERO DUP1 ISZERO PUSH2 0x494 JUMPI RETURNDATASIZE PUSH1 0x0 DUP1 RETURNDATACOPY RETURNDATASIZE PUSH1 0x0 REVERT JUMPDEST POP POP POP POP PUSH1 0x40 MLOAD RETURNDATASIZE PUSH1 0x0 DUP3 RETURNDATACOPY RETURNDATASIZE PUSH1 0x1F NOT PUSH1 0x1F DUP3 ADD AND DUP3 ADD DUP1 PUSH1 0x40 MSTORE POP DUP2 ADD SWAP1 PUSH2 0x4BD SWAP2 SWAP1 PUSH2 0x18E3 JUMP JUMPDEST PUSH1 0x0 DUP2 MLOAD DUP2 LT PUSH2 0x4D0 JUMPI PUSH2 0x4CF PUSH2 0x15E6 JUMP JUMPDEST JUMPDEST PUSH1 0x20 MUL PUSH1 0x20 ADD ADD MLOAD DUP8 DUP8 PUSH1 0x0 DUP2 DUP2 LT PUSH2 0x4EC JUMPI PUSH2 0x4EB PUSH2 0x15E6 JUMP JUMPDEST JUMPDEST SWAP1 POP PUSH1 0x20 MUL ADD PUSH1 0x20 DUP2 ADD SWAP1 PUSH2 0x501 SWAP2 SWAP1 PUSH2 0x1615 JUMP JUMPDEST PUSH20 0xFFFFFFFFFFFFFFFFFFFFFFFFFFFFFFFFFFFFFFFF AND PUSH2 0xC87 SWAP1 SWAP4 SWAP3 SWAP2 SWAP1 PUSH4 0xFFFFFFFF AND JUMP JUMPDEST PUSH2 0x57A DUP9 DUP7 DUP7 DUP7 PUSH1 0x0 DUP2 DUP2 LT PUSH2 0x540 JUMPI PUSH2 0x53F PUSH2 0x15E6 JUMP JUMPDEST JUMPDEST SWAP1 POP PUSH1 0x20 MUL ADD PUSH1 0x20 DUP2 ADD SWAP1 PUSH2 0x555 SWAP2 SWAP1 PUSH2 0x1615 JUMP JUMPDEST PUSH20 0xFFFFFFFFFFFFFFFFFFFFFFFFFFFFFFFFFFFFFFFF AND PUSH2 0xD10 SWAP1 SWAP3 SWAP2 SWAP1 PUSH4 0xFFFFFFFF AND JUMP JUMPDEST DUP8 PUSH20 0xFFFFFFFFFFFFFFFFFFFFFFFFFFFFFFFFFFFFFFFF AND PUSH4 0x4A25D94A DUP8 DUP8 DUP8 DUP8 ADDRESS DUP9 PUSH1 0x40 MLOAD DUP8 PUSH4 0xFFFFFFFF AND PUSH1 0xE0 SHL DUP2 MSTORE PUSH1 0x4 ADD PUSH2 0x5BD SWAP7 SWAP6 SWAP5 SWAP4 SWAP3 SWAP2 SWAP1 PUSH2 0x1723 JUMP JUMPDEST PUSH1 0x0 PUSH1 0x40 MLOAD DUP1 DUP4 SUB DUP2 PUSH1 0x0 DUP8 GAS CALL ISZERO DUP1 ISZERO PUSH2 0x5DC JUMPI RETURNDATASIZE PUSH1 0x0 DUP1 RETURNDATACOPY RETURNDATASIZE PUSH1 0x0 REVERT JUMPDEST POP POP POP POP PUSH1 0x40 MLOAD RETURNDATASIZE PUSH1 0x0 DUP3 RETURNDATACOPY RETURNDATASIZE PUSH1 0x1F NOT PUSH1 0x1F DUP3 ADD AND DUP3 ADD DUP1 PUSH1 0x40 MSTORE POP DUP2 ADD SWAP1 PUSH2 0x605 SWAP2 SWAP1 PUSH2 0x18E3 JUMP JUMPDEST SWAP1 POP PUSH2 0x65B DUP9 PUSH1 0x0 DUP7 DUP7 PUSH1 0x0 DUP2 DUP2 LT PUSH2 0x621 JUMPI PUSH2 0x620 PUSH2 0x15E6 JUMP JUMPDEST JUMPDEST SWAP1 POP PUSH1 0x20 MUL ADD PUSH1 0x20 DUP2 ADD SWAP1 PUSH2 0x636 SWAP2 SWAP1 PUSH2 0x1615 JUMP JUMPDEST PUSH20 0xFFFFFFFFFFFFFFFFFFFFFFFFFFFFFFFFFFFFFFFF AND PUSH2 0xE22 SWAP1 SWAP3 SWAP2 SWAP1 PUSH4 0xFFFFFFFF AND JUMP JUMPDEST PUSH1 0x0 PUSH2 0x2710 DUP9 DUP4 PUSH1 0x1 DUP6 MLOAD PUSH2 0x670 SWAP2 SWAP1 PUSH2 0x195B JUMP JUMPDEST DUP2 MLOAD DUP2 LT PUSH2 0x681 JUMPI PUSH2 0x680 PUSH2 0x15E6 JUMP JUMPDEST JUMPDEST PUSH1 0x20 MUL PUSH1 0x20 ADD ADD MLOAD PUSH2 0x693 SWAP2 SWAP1 PUSH2 0x198F JUMP JUMPDEST PUSH2 0x69D SWAP2 SWAP1 PUSH2 0x1A18 JUMP JUMPDEST SWAP1 POP DUP1 DUP3 PUSH1 0x1 DUP5 MLOAD PUSH2 0x6AF SWAP2 SWAP1 PUSH2 0x195B JUMP JUMPDEST DUP2 MLOAD DUP2 LT PUSH2 0x6C0 JUMPI PUSH2 0x6BF PUSH2 0x15E6 JUMP JUMPDEST JUMPDEST PUSH1 0x20 MUL PUSH1 0x20 ADD ADD MLOAD PUSH2 0x6D2 SWAP2 SWAP1 PUSH2 0x195B JUMP JUMPDEST DUP3 PUSH1 0x1 DUP5 MLOAD PUSH2 0x6E1 SWAP2 SWAP1 PUSH2 0x195B JUMP JUMPDEST DUP2 MLOAD DUP2 LT PUSH2 0x6F2 JUMPI PUSH2 0x6F1 PUSH2 0x15E6 JUMP JUMPDEST JUMPDEST PUSH1 0x20 MUL PUSH1 0x20 ADD ADD DUP2 DUP2 MSTORE POP POP CALLER PUSH20 0xFFFFFFFFFFFFFFFFFFFFFFFFFFFFFFFFFFFFFFFF AND PUSH2 0x8FC DUP4 PUSH1 0x1 DUP6 MLOAD PUSH2 0x727 SWAP2 SWAP1 PUSH2 0x195B JUMP JUMPDEST DUP2 MLOAD DUP2 LT PUSH2 0x738 JUMPI PUSH2 0x737 PUSH2 0x15E6 JUMP JUMPDEST JUMPDEST PUSH1 0x20 MUL PUSH1 0x20 ADD ADD MLOAD SWAP1 DUP2 ISZERO MUL SWAP1 PUSH1 0x40 MLOAD PUSH1 0x0 PUSH1 0x40 MLOAD DUP1 DUP4 SUB DUP2 DUP6 DUP9 DUP9 CALL SWAP4 POP POP POP POP ISZERO DUP1 ISZERO PUSH2 0x76B JUMPI RETURNDATASIZE PUSH1 0x0 DUP1 RETURNDATACOPY RETURNDATASIZE PUSH1 0x0 REVERT JUMPDEST POP PUSH1 0x0 DUP1 SLOAD SWAP1 PUSH2 0x100 EXP SWAP1 DIV PUSH20 0xFFFFFFFFFFFFFFFFFFFFFFFFFFFFFFFFFFFFFFFF AND PUSH20 0xFFFFFFFFFFFFFFFFFFFFFFFFFFFFFFFFFFFFFFFF AND PUSH2 0x8FC DUP3 SWAP1 DUP2 ISZERO MUL SWAP1 PUSH1 0x40 MLOAD PUSH1 0x0 PUSH1 0x40 MLOAD DUP1 DUP4 SUB DUP2 DUP6 DUP9 DUP9 CALL SWAP4 POP POP POP POP ISZERO DUP1 ISZERO PUSH2 0x7D2 JUMPI RETURNDATASIZE PUSH1 0x0 DUP1 RETURNDATACOPY RETURNDATASIZE PUSH1 0x0 REVERT JUMPDEST POP POP SWAP8 SWAP7 POP POP POP POP POP POP POP JUMP JUMPDEST PUSH1 0x60 PUSH1 0x0 CALLVALUE GT PUSH2 0x824 JUMPI PUSH1 0x40 MLOAD PUSH32 0x8C379A000000000000000000000000000000000000000000000000000000000 DUP2 MSTORE PUSH1 0x4 ADD PUSH2 0x81B SWAP1 PUSH2 0x1AD8 JUMP JUMPDEST PUSH1 0x40 MLOAD DUP1 SWAP2 SUB SWAP1 REVERT JUMPDEST PUSH1 0x0 PUSH2 0x2710 DUP8 CALLVALUE PUSH2 0x835 SWAP2 SWAP1 PUSH2 0x198F JUMP JUMPDEST PUSH2 0x83F SWAP2 SWAP1 PUSH2 0x1A18 JUMP JUMPDEST SWAP1 POP DUP8 PUSH20 0xFFFFFFFFFFFFFFFFFFFFFFFFFFFFFFFFFFFFFFFF AND PUSH4 0x7FF36AB5 DUP3 CALLVALUE PUSH2 0x869 SWAP2 SWAP1 PUSH2 0x195B JUMP JUMPDEST DUP9 DUP9 DUP9 ADDRESS DUP10 PUSH1 0x40 MLOAD DUP8 PUSH4 0xFFFFFFFF AND PUSH1 0xE0 SHL DUP2 MSTORE PUSH1 0x4 ADD PUSH2 0x88E SWAP6 SWAP5 SWAP4 SWAP3 SWAP2 SWAP1 PUSH2 0x1AF8 JUMP JUMPDEST PUSH1 0x0 PUSH1 0x40 MLOAD DUP1 DUP4 SUB DUP2 DUP6 DUP9 GAS CALL ISZERO DUP1 ISZERO PUSH2 0x8AC JUMPI RETURNDATASIZE PUSH1 0x0 DUP1 RETURNDATACOPY RETURNDATASIZE PUSH1 0x0 REVERT JUMPDEST POP POP POP POP POP PUSH1 0x40 MLOAD RETURNDATASIZE PUSH1 0x0 DUP3 RETURNDATACOPY RETURNDATASIZE PUSH1 0x1F NOT PUSH1 0x1F DUP3 ADD AND DUP3 ADD DUP1 PUSH1 0x40 MSTORE POP DUP2 ADD SWAP1 PUSH2 0x8D6 SWAP2 SWAP1 PUSH2 0x18E3 JUMP JUMPDEST SWAP2 POP PUSH2 0x962 CALLER DUP4 PUSH1 0x1 DUP9 DUP9 SWAP1 POP PUSH2 0x8ED SWAP2 SWAP1 PUSH2 0x195B JUMP JUMPDEST DUP2 MLOAD DUP2 LT PUSH2 0x8FE JUMPI PUSH2 0x8FD PUSH2 0x15E6 JUMP JUMPDEST JUMPDEST PUSH1 0x20 MUL PUSH1 0x20 ADD ADD MLOAD DUP8 DUP8 PUSH1 0x1 DUP11 DUP11 SWAP1 POP PUSH2 0x918 SWAP2 SWAP1 PUSH2 0x195B JUMP JUMPDEST DUP2 DUP2 LT PUSH2 0x928 JUMPI PUSH2 0x927 PUSH2 0x15E6 JUMP JUMPDEST JUMPDEST SWAP1 POP PUSH1 0x20 MUL ADD PUSH1 0x20 DUP2 ADD SWAP1 PUSH2 0x93D SWAP2 SWAP1 PUSH2 0x1615 JUMP JUMPDEST PUSH20 0xFFFFFFFFFFFFFFFFFFFFFFFFFFFFFFFFFFFFFFFF AND PUSH2 0xF71 SWAP1 SWAP3 SWAP2 SWAP1 PUSH4 0xFFFFFFFF AND JUMP JUMPDEST PUSH1 0x0 DUP1 SLOAD SWAP1 PUSH2 0x100 EXP SWAP1 DIV PUSH20 0xFFFFFFFFFFFFFFFFFFFFFFFFFFFFFFFFFFFFFFFF AND PUSH20 0xFFFFFFFFFFFFFFFFFFFFFFFFFFFFFFFFFFFFFFFF AND PUSH2 0x8FC DUP3 SWAP1 DUP2 ISZERO MUL SWAP1 PUSH1 0x40 MLOAD PUSH1 0x0 PUSH1 0x40 MLOAD DUP1 DUP4 SUB DUP2 DUP6 DUP9 DUP9 CALL SWAP4 POP POP POP POP ISZERO DUP1 ISZERO PUSH2 0x9C8 JUMPI RETURNDATASIZE PUSH1 0x0 DUP1 RETURNDATACOPY RETURNDATASIZE PUSH1 0x0 REVERT JUMPDEST POP POP SWAP7 SWAP6 POP POP POP POP POP POP JUMP JUMPDEST PUSH1 0x60 PUSH1 0x0 CALLVALUE GT PUSH2 0xA19 JUMPI PUSH1 0x40 MLOAD PUSH32 0x8C379A000000000000000000000000000000000000000000000000000000000 DUP2 MSTORE PUSH1 0x4 ADD PUSH2 0xA10 SWAP1 PUSH2 0x1AD8 JUMP JUMPDEST PUSH1 0x40 MLOAD DUP1 SWAP2 SUB SWAP1 REVERT JUMPDEST PUSH1 0x0 DUP8 PUSH20 0xFFFFFFFFFFFFFFFFFFFFFFFFFFFFFFFFFFFFFFFF AND PUSH4 0x1F00CA74 DUP8 DUP8 DUP8 PUSH1 0x40 MLOAD DUP5 PUSH4 0xFFFFFFFF AND PUSH1 0xE0 SHL DUP2 MSTORE PUSH1 0x4 ADD PUSH2 0xA58 SWAP4 SWAP3 SWAP2 SWAP1 PUSH2 0x1A49 JUMP JUMPDEST PUSH1 0x0 PUSH1 0x40 MLOAD DUP1 DUP4 SUB DUP2 DUP7 GAS STATICCALL ISZERO DUP1 ISZERO PUSH2 0xA75 JUMPI RETURNDATASIZE PUSH1 0x0 DUP1 RETURNDATACOPY RETURNDATASIZE PUSH1 0x0 REVERT JUMPDEST POP POP POP POP PUSH1 0x40 MLOAD RETURNDATASIZE PUSH1 0x0 DUP3 RETURNDATACOPY RETURNDATASIZE PUSH1 0x1F NOT PUSH1 0x1F DUP3 ADD AND DUP3 ADD DUP1 PUSH1 0x40 MSTORE POP DUP2 ADD SWAP1 PUSH2 0xA9E SWAP2 SWAP1 PUSH2 0x18E3 JUMP JUMPDEST PUSH1 0x1 DUP2 MLOAD DUP2 LT PUSH2 0xAB1 JUMPI PUSH2 0xAB0 PUSH2 0x15E6 JUMP JUMPDEST JUMPDEST PUSH1 0x20 MUL PUSH1 0x20 ADD ADD MLOAD SWAP1 POP PUSH1 0x0 PUSH2 0x2710 DUP9 DUP4 PUSH2 0xACC SWAP2 SWAP1 PUSH2 0x198F JUMP JUMPDEST PUSH2 0xAD6 SWAP2 SWAP1 PUSH2 0x1A18 JUMP JUMPDEST SWAP1 POP PUSH2 0x2710 DUP9 DUP9 PUSH2 0xAE7 SWAP2 SWAP1 PUSH2 0x198F JUMP JUMPDEST PUSH2 0xAF1 SWAP2 SWAP1 PUSH2 0x1A18 JUMP JUMPDEST SWAP7 POP DUP9 PUSH20 0xFFFFFFFFFFFFFFFFFFFFFFFFFFFFFFFFFFFFFFFF AND PUSH4 0xFB3BDB41 DUP3 CALLVALUE PUSH2 0xB1B SWAP2 SWAP1 PUSH2 0x195B JUMP JUMPDEST DUP10 DUP10 DUP10 ADDRESS DUP11 PUSH1 0x40 MLOAD DUP8 PUSH4 0xFFFFFFFF AND PUSH1 0xE0 SHL DUP2 MSTORE PUSH1 0x4 ADD PUSH2 0xB40 SWAP6 SWAP5 SWAP4 SWAP3 SWAP2 SWAP1 PUSH2 0x1AF8 JUMP JUMPDEST PUSH1 0x0 PUSH1 0x40 MLOAD DUP1 DUP4 SUB DUP2 DUP6 DUP9 GAS CALL ISZERO DUP1 ISZERO PUSH2 0xB5E JUMPI RETURNDATASIZE PUSH1 0x0 DUP1 RETURNDATACOPY RETURNDATASIZE PUSH1 0x0 REVERT JUMPDEST POP POP POP POP POP PUSH1 0x40 MLOAD RETURNDATASIZE PUSH1 0x0 DUP3 RETURNDATACOPY RETURNDATASIZE PUSH1 0x1F NOT PUSH1 0x1F DUP3 ADD AND DUP3 ADD DUP1 PUSH1 0x40 MSTORE POP DUP2 ADD SWAP1 PUSH2 0xB88 SWAP2 SWAP1 PUSH2 0x18E3 JUMP JUMPDEST SWAP3 POP PUSH2 0xC14 CALLER DUP5 PUSH1 0x1 DUP10 DUP10 SWAP1 POP PUSH2 0xB9F SWAP2 SWAP1 PUSH2 0x195B JUMP JUMPDEST DUP2 MLOAD DUP2 LT PUSH2 0xBB0 JUMPI PUSH2 0xBAF PUSH2 0x15E6 JUMP JUMPDEST JUMPDEST PUSH1 0x20 MUL PUSH1 0x20 ADD ADD MLOAD DUP9 DUP9 PUSH1 0x1 DUP12 DUP12 SWAP1 POP PUSH2 0xBCA SWAP2 SWAP1 PUSH2 0x195B JUMP JUMPDEST DUP2 DUP2 LT PUSH2 0xBDA JUMPI PUSH2 0xBD9 PUSH2 0x15E6 JUMP JUMPDEST JUMPDEST SWAP1 POP PUSH1 0x20 MUL ADD PUSH1 0x20 DUP2 ADD SWAP1 PUSH2 0xBEF SWAP2 SWAP1 PUSH2 0x1615 JUMP JUMPDEST PUSH20 0xFFFFFFFFFFFFFFFFFFFFFFFFFFFFFFFFFFFFFFFF AND PUSH2 0xF71 SWAP1 SWAP3 SWAP2 SWAP1 PUSH4 0xFFFFFFFF AND JUMP JUMPDEST PUSH1 0x0 DUP1 SLOAD SWAP1 PUSH2 0x100 EXP SWAP1 DIV PUSH20 0xFFFFFFFFFFFFFFFFFFFFFFFFFFFFFFFFFFFFFFFF AND PUSH20 0xFFFFFFFFFFFFFFFFFFFFFFFFFFFFFFFFFFFFFFFF AND PUSH2 0x8FC DUP3 SWAP1 DUP2 ISZERO MUL SWAP1 PUSH1 0x40 MLOAD PUSH1 0x0 PUSH1 0x40 MLOAD DUP1 DUP4 SUB DUP2 DUP6 DUP9 DUP9 CALL SWAP4 POP POP POP POP ISZERO DUP1 ISZERO PUSH2 0xC7A JUMPI RETURNDATASIZE PUSH1 0x0 DUP1 RETURNDATACOPY RETURNDATASIZE PUSH1 0x0 REVERT JUMPDEST POP POP POP SWAP7 SWAP6 POP POP POP POP POP POP JUMP JUMPDEST PUSH2 0xD0A DUP5 PUSH4 0x23B872DD PUSH1 0xE0 SHL DUP6 DUP6 DUP6 PUSH1 0x40 MLOAD PUSH1 0x24 ADD PUSH2 0xCA8 SWAP4 SWAP3 SWAP2 SWAP1 PUSH2 0x1B46 JUMP JUMPDEST PUSH1 0x40 MLOAD PUSH1 0x20 DUP2 DUP4 SUB SUB DUP2 MSTORE SWAP1 PUSH1 0x40 MSTORE SWAP1 PUSH28 0xFFFFFFFFFFFFFFFFFFFFFFFFFFFFFFFFFFFFFFFFFFFFFFFFFFFFFFFF NOT AND PUSH1 0x20 DUP3 ADD DUP1 MLOAD PUSH28 0xFFFFFFFFFFFFFFFFFFFFFFFFFFFFFFFFFFFFFFFFFFFFFFFFFFFFFFFF DUP4 DUP2 DUP4 AND OR DUP4 MSTORE POP POP POP POP PUSH2 0xFF7 JUMP JUMPDEST POP POP POP POP JUMP JUMPDEST PUSH1 0x0 DUP2 DUP5 PUSH20 0xFFFFFFFFFFFFFFFFFFFFFFFFFFFFFFFFFFFFFFFF AND PUSH4 0xDD62ED3E ADDRESS DUP7 PUSH1 0x40 MLOAD DUP4 PUSH4 0xFFFFFFFF AND PUSH1 0xE0 SHL DUP2 MSTORE PUSH1 0x4 ADD PUSH2 0xD4E SWAP3 SWAP2 SWAP1 PUSH2 0x1B7D JUMP JUMPDEST PUSH1 0x20 PUSH1 0x40 MLOAD DUP1 DUP4 SUB DUP2 DUP7 GAS STATICCALL ISZERO DUP1 ISZERO PUSH2 0xD6B JUMPI RETURNDATASIZE PUSH1 0x0 DUP1 RETURNDATACOPY RETURNDATASIZE PUSH1 0x0 REVERT JUMPDEST POP POP POP POP PUSH1 0x40 MLOAD RETURNDATASIZE PUSH1 0x1F NOT PUSH1 0x1F DUP3 ADD AND DUP3 ADD DUP1 PUSH1 0x40 MSTORE POP DUP2 ADD SWAP1 PUSH2 0xD8F SWAP2 SWAP1 PUSH2 0x1BA6 JUMP JUMPDEST PUSH2 0xD99 SWAP2 SWAP1 PUSH2 0x1BD3 JUMP JUMPDEST SWAP1 POP PUSH2 0xE1C DUP5 PUSH4 0x95EA7B3 PUSH1 0xE0 SHL DUP6 DUP5 PUSH1 0x40 MLOAD PUSH1 0x24 ADD PUSH2 0xDBA SWAP3 SWAP2 SWAP1 PUSH2 0x1C29 JUMP JUMPDEST PUSH1 0x40 MLOAD PUSH1 0x20 DUP2 DUP4 SUB SUB DUP2 MSTORE SWAP1 PUSH1 0x40 MSTORE SWAP1 PUSH28 0xFFFFFFFFFFFFFFFFFFFFFFFFFFFFFFFFFFFFFFFFFFFFFFFFFFFFFFFF NOT AND PUSH1 0x20 DUP3 ADD DUP1 MLOAD PUSH28 0xFFFFFFFFFFFFFFFFFFFFFFFFFFFFFFFFFFFFFFFFFFFFFFFFFFFFFFFF DUP4 DUP2 DUP4 AND OR DUP4 MSTORE POP POP POP POP PUSH2 0xFF7 JUMP JUMPDEST POP POP POP POP JUMP JUMPDEST PUSH1 0x0 DUP2 EQ DUP1 PUSH2 0xEAC JUMPI POP PUSH1 0x0 DUP4 PUSH20 0xFFFFFFFFFFFFFFFFFFFFFFFFFFFFFFFFFFFFFFFF AND PUSH4 0xDD62ED3E ADDRESS DUP6 PUSH1 0x40 MLOAD DUP4 PUSH4 0xFFFFFFFF AND PUSH1 0xE0 SHL DUP2 MSTORE PUSH1 0x4 ADD PUSH2 0xE69 SWAP3 SWAP2 SWAP1 PUSH2 0x1B7D JUMP JUMPDEST PUSH1 0x20 PUSH1 0x40 MLOAD DUP1 DUP4 SUB DUP2 DUP7 GAS STATICCALL ISZERO DUP1 ISZERO PUSH2 0xE86 JUMPI RETURNDATASIZE PUSH1 0x0 DUP1 RETURNDATACOPY RETURNDATASIZE PUSH1 0x0 REVERT JUMPDEST POP POP POP POP PUSH1 0x40 MLOAD RETURNDATASIZE PUSH1 0x1F NOT PUSH1 0x1F DUP3 ADD AND DUP3 ADD DUP1 PUSH1 0x40 MSTORE POP DUP2 ADD SWAP1 PUSH2 0xEAA SWAP2 SWAP1 PUSH2 0x1BA6 JUMP JUMPDEST EQ JUMPDEST PUSH2 0xEEB JUMPI PUSH1 0x40 MLOAD PUSH32 0x8C379A000000000000000000000000000000000000000000000000000000000 DUP2 MSTORE PUSH1 0x4 ADD PUSH2 0xEE2 SWAP1 PUSH2 0x1CC4 JUMP JUMPDEST PUSH1 0x40 MLOAD DUP1 SWAP2 SUB SWAP1 REVERT JUMPDEST PUSH2 0xF6C DUP4 PUSH4 0x95EA7B3 PUSH1 0xE0 SHL DUP5 DUP5 PUSH1 0x40 MLOAD PUSH1 0x24 ADD PUSH2 0xF0A SWAP3 SWAP2 SWAP1 PUSH2 0x1C29 JUMP JUMPDEST PUSH1 0x40 MLOAD PUSH1 0x20 DUP2 DUP4 SUB SUB DUP2 MSTORE SWAP1 PUSH1 0x40 MSTORE SWAP1 PUSH28 0xFFFFFFFFFFFFFFFFFFFFFFFFFFFFFFFFFFFFFFFFFFFFFFFFFFFFFFFF NOT AND PUSH1 0x20 DUP3 ADD DUP1 MLOAD PUSH28 0xFFFFFFFFFFFFFFFFFFFFFFFFFFFFFFFFFFFFFFFFFFFFFFFFFFFFFFFF DUP4 DUP2 DUP4 AND OR DUP4 MSTORE POP POP POP POP PUSH2 0xFF7 JUMP JUMPDEST POP POP POP JUMP JUMPDEST PUSH2 0xFF2 DUP4 PUSH4 0xA9059CBB PUSH1 0xE0 SHL DUP5 DUP5 PUSH1 0x40 MLOAD PUSH1 0x24 ADD PUSH2 0xF90 SWAP3 SWAP2 SWAP1 PUSH2 0x1C29 JUMP JUMPDEST PUSH1 0x40 MLOAD PUSH1 0x20 DUP2 DUP4 SUB SUB DUP2 MSTORE SWAP1 PUSH1 0x40 MSTORE SWAP1 PUSH28 0xFFFFFFFFFFFFFFFFFFFFFFFFFFFFFFFFFFFFFFFFFFFFFFFFFFFFFFFF NOT AND PUSH1 0x20 DUP3 ADD DUP1 MLOAD PUSH28 0xFFFFFFFFFFFFFFFFFFFFFFFFFFFFFFFFFFFFFFFFFFFFFFFFFFFFFFFF DUP4 DUP2 DUP4 AND OR DUP4 MSTORE POP POP POP POP PUSH2 0xFF7 JUMP JUMPDEST POP POP POP JUMP JUMPDEST PUSH1 0x0 PUSH2 0x1059 DUP3 PUSH1 0x40 MLOAD DUP1 PUSH1 0x40 ADD PUSH1 0x40 MSTORE DUP1 PUSH1 0x20 DUP2 MSTORE PUSH1 0x20 ADD PUSH32 0x5361666545524332303A206C6F772D6C6576656C2063616C6C206661696C6564 DUP2 MSTORE POP DUP6 PUSH20 0xFFFFFFFFFFFFFFFFFFFFFFFFFFFFFFFFFFFFFFFF AND PUSH2 0x10BE SWAP1 SWAP3 SWAP2 SWAP1 PUSH4 0xFFFFFFFF AND JUMP JUMPDEST SWAP1 POP PUSH1 0x0 DUP2 MLOAD GT ISZERO PUSH2 0x10B9 JUMPI DUP1 DUP1 PUSH1 0x20 ADD SWAP1 MLOAD DUP2 ADD SWAP1 PUSH2 0x1079 SWAP2 SWAP1 PUSH2 0x1D1C JUMP JUMPDEST PUSH2 0x10B8 JUMPI PUSH1 0x40 MLOAD PUSH32 0x8C379A000000000000000000000000000000000000000000000000000000000 DUP2 MSTORE PUSH1 0x4 ADD PUSH2 0x10AF SWAP1 PUSH2 0x1DBB JUMP JUMPDEST PUSH1 0x40 MLOAD DUP1 SWAP2 SUB SWAP1 REVERT JUMPDEST JUMPDEST POP POP POP JUMP JUMPDEST PUSH1 0x60 PUSH2 0x10CD DUP5 DUP5 PUSH1 0x0 DUP6 PUSH2 0x10D6 JUMP JUMPDEST SWAP1 POP SWAP4 SWAP3 POP POP POP JUMP JUMPDEST PUSH1 0x60 DUP3 SELFBALANCE LT ISZERO PUSH2 0x111B JUMPI PUSH1 0x40 MLOAD PUSH32 0x8C379A000000000000000000000000000000000000000000000000000000000 DUP2 MSTORE PUSH1 0x4 ADD PUSH2 0x1112 SWAP1 PUSH2 0x1E4D JUMP JUMPDEST PUSH1 0x40 MLOAD DUP1 SWAP2 SUB SWAP1 REVERT JUMPDEST PUSH2 0x1124 DUP6 PUSH2 0x11EA JUMP JUMPDEST PUSH2 0x1163 JUMPI PUSH1 0x40 MLOAD PUSH32 0x8C379A000000000000000000000000000000000000000000000000000000000 DUP2 MSTORE PUSH1 0x4 ADD PUSH2 0x115A SWAP1 PUSH2 0x1EB9 JUMP JUMPDEST PUSH1 0x40 MLOAD DUP1 SWAP2 SUB SWAP1 REVERT JUMPDEST PUSH1 0x0 DUP1 DUP7 PUSH20 0xFFFFFFFFFFFFFFFFFFFFFFFFFFFFFFFFFFFFFFFF AND DUP6 DUP8 PUSH1 0x40 MLOAD PUSH2 0x118C SWAP2 SWAP1 PUSH2 0x1F53 JUMP JUMPDEST PUSH1 0x0 PUSH1 0x40 MLOAD DUP1 DUP4 SUB DUP2 DUP6 DUP8 GAS CALL SWAP3 POP POP POP RETURNDATASIZE DUP1 PUSH1 0x0 DUP2 EQ PUSH2 0x11C9 JUMPI PUSH1 0x40 MLOAD SWAP2 POP PUSH1 0x1F NOT PUSH1 0x3F RETURNDATASIZE ADD AND DUP3 ADD PUSH1 0x40 MSTORE RETURNDATASIZE DUP3 MSTORE RETURNDATASIZE PUSH1 0x0 PUSH1 0x20 DUP5 ADD RETURNDATACOPY PUSH2 0x11CE JUMP JUMPDEST PUSH1 0x60 SWAP2 POP JUMPDEST POP SWAP2 POP SWAP2 POP PUSH2 0x11DE DUP3 DUP3 DUP7 PUSH2 0x120D JUMP JUMPDEST SWAP3 POP POP POP SWAP5 SWAP4 POP POP POP POP JUMP JUMPDEST PUSH1 0x0 DUP1 DUP3 PUSH20 0xFFFFFFFFFFFFFFFFFFFFFFFFFFFFFFFFFFFFFFFF AND EXTCODESIZE GT SWAP1 POP SWAP2 SWAP1 POP JUMP JUMPDEST PUSH1 0x60 DUP4 ISZERO PUSH2 0x121D JUMPI DUP3 SWAP1 POP PUSH2 0x126D JUMP JUMPDEST PUSH1 0x0 DUP4 MLOAD GT ISZERO PUSH2 0x1230 JUMPI DUP3 MLOAD DUP1 DUP5 PUSH1 0x20 ADD REVERT JUMPDEST DUP2 PUSH1 0x40 MLOAD PUSH32 0x8C379A000000000000000000000000000000000000000000000000000000000 DUP2 MSTORE PUSH1 0x4 ADD PUSH2 0x1264 SWAP2 SWAP1 PUSH2 0x1FAE JUMP JUMPDEST PUSH1 0x40 MLOAD DUP1 SWAP2 SUB SWAP1 REVERT JUMPDEST SWAP4 SWAP3 POP POP POP JUMP JUMPDEST PUSH1 0x0 PUSH20 0xFFFFFFFFFFFFFFFFFFFFFFFFFFFFFFFFFFFFFFFF DUP3 AND SWAP1 POP SWAP2 SWAP1 POP JUMP JUMPDEST PUSH1 0x0 PUSH2 0x129F DUP3 PUSH2 0x1274 JUMP JUMPDEST SWAP1 POP SWAP2 SWAP1 POP JUMP JUMPDEST PUSH2 0x12AF DUP2 PUSH2 0x1294 JUMP JUMPDEST DUP3 MSTORE POP POP JUMP JUMPDEST PUSH1 0x0 PUSH1 0x20 DUP3 ADD SWAP1 POP PUSH2 0x12CA PUSH1 0x0 DUP4 ADD DUP5 PUSH2 0x12A6 JUMP JUMPDEST SWAP3 SWAP2 POP POP JUMP JUMPDEST PUSH1 0x0 PUSH1 0x40 MLOAD SWAP1 POP SWAP1 JUMP JUMPDEST PUSH1 0x0 DUP1 REVERT JUMPDEST PUSH1 0x0 DUP1 REVERT JUMPDEST PUSH1 0x0 PUSH2 0x12EF DUP3 PUSH2 0x1274 JUMP JUMPDEST SWAP1 POP SWAP2 SWAP1 POP JUMP JUMPDEST PUSH2 0x12FF DUP2 PUSH2 0x12E4 JUMP JUMPDEST DUP2 EQ PUSH2 0x130A JUMPI PUSH1 0x0 DUP1 REVERT JUMPDEST POP JUMP JUMPDEST PUSH1 0x0 DUP2 CALLDATALOAD SWAP1 POP PUSH2 0x131C DUP2 PUSH2 0x12F6 JUMP JUMPDEST SWAP3 SWAP2 POP POP JUMP JUMPDEST PUSH1 0x0 DUP2 SWAP1 POP SWAP2 SWAP1 POP JUMP JUMPDEST PUSH2 0x1335 DUP2 PUSH2 0x1322 JUMP JUMPDEST DUP2 EQ PUSH2 0x1340 JUMPI PUSH1 0x0 DUP1 REVERT JUMPDEST POP JUMP JUMPDEST PUSH1 0x0 DUP2 CALLDATALOAD SWAP1 POP PUSH2 0x1352 DUP2 PUSH2 0x132C JUMP JUMPDEST SWAP3 SWAP2 POP POP JUMP JUMPDEST PUSH1 0x0 DUP1 REVERT JUMPDEST PUSH1 0x0 DUP1 REVERT JUMPDEST PUSH1 0x0 DUP1 REVERT JUMPDEST PUSH1 0x0 DUP1 DUP4 PUSH1 0x1F DUP5 ADD SLT PUSH2 0x137D JUMPI PUSH2 0x137C PUSH2 0x1358 JUMP JUMPDEST JUMPDEST DUP3 CALLDATALOAD SWAP1 POP PUSH8 0xFFFFFFFFFFFFFFFF DUP2 GT ISZERO PUSH2 0x139A JUMPI PUSH2 0x1399 PUSH2 0x135D JUMP JUMPDEST JUMPDEST PUSH1 0x20 DUP4 ADD SWAP2 POP DUP4 PUSH1 0x20 DUP3 MUL DUP4 ADD GT ISZERO PUSH2 0x13B6 JUMPI PUSH2 0x13B5 PUSH2 0x1362 JUMP JUMPDEST JUMPDEST SWAP3 POP SWAP3 SWAP1 POP JUMP JUMPDEST PUSH1 0x0 DUP1 PUSH1 0x0 DUP1 PUSH1 0x0 DUP1 PUSH1 0x0 PUSH1 0xC0 DUP9 DUP11 SUB SLT ISZERO PUSH2 0x13DC JUMPI PUSH2 0x13DB PUSH2 0x12DA JUMP JUMPDEST JUMPDEST PUSH1 0x0 PUSH2 0x13EA DUP11 DUP3 DUP12 ADD PUSH2 0x130D JUMP JUMPDEST SWAP8 POP POP PUSH1 0x20 PUSH2 0x13FB DUP11 DUP3 DUP12 ADD PUSH2 0x1343 JUMP JUMPDEST SWAP7 POP POP PUSH1 0x40 PUSH2 0x140C DUP11 DUP3 DUP12 ADD PUSH2 0x1343 JUMP JUMPDEST SWAP6 POP POP PUSH1 0x60 PUSH2 0x141D DUP11 DUP3 DUP12 ADD PUSH2 0x1343 JUMP JUMPDEST SWAP5 POP POP PUSH1 0x80 DUP9 ADD CALLDATALOAD PUSH8 0xFFFFFFFFFFFFFFFF DUP2 GT ISZERO PUSH2 0x143E JUMPI PUSH2 0x143D PUSH2 0x12DF JUMP JUMPDEST JUMPDEST PUSH2 0x144A DUP11 DUP3 DUP12 ADD PUSH2 0x1367 JUMP JUMPDEST SWAP4 POP SWAP4 POP POP PUSH1 0xA0 PUSH2 0x145D DUP11 DUP3 DUP12 ADD PUSH2 0x1343 JUMP JUMPDEST SWAP2 POP POP SWAP3 SWAP6 SWAP9 SWAP2 SWAP5 SWAP8 POP SWAP3 SWAP6 POP JUMP JUMPDEST PUSH1 0x0 DUP2 MLOAD SWAP1 POP SWAP2 SWAP1 POP JUMP JUMPDEST PUSH1 0x0 DUP3 DUP3 MSTORE PUSH1 0x20 DUP3 ADD SWAP1 POP SWAP3 SWAP2 POP POP JUMP JUMPDEST PUSH1 0x0 DUP2 SWAP1 POP PUSH1 0x20 DUP3 ADD SWAP1 POP SWAP2 SWAP1 POP JUMP JUMPDEST PUSH2 0x14A1 DUP2 PUSH2 0x1322 JUMP JUMPDEST DUP3 MSTORE POP POP JUMP JUMPDEST PUSH1 0x0 PUSH2 0x14B3 DUP4 DUP4 PUSH2 0x1498 JUMP JUMPDEST PUSH1 0x20 DUP4 ADD SWAP1 POP SWAP3 SWAP2 POP POP JUMP JUMPDEST PUSH1 0x0 PUSH1 0x20 DUP3 ADD SWAP1 POP SWAP2 SWAP1 POP JUMP JUMPDEST PUSH1 0x0 PUSH2 0x14D7 DUP3 PUSH2 0x146C JUMP JUMPDEST PUSH2 0x14E1 DUP2 DUP6 PUSH2 0x1477 JUMP JUMPDEST SWAP4 POP PUSH2 0x14EC DUP4 PUSH2 0x1488 JUMP JUMPDEST DUP1 PUSH1 0x0 JUMPDEST DUP4 DUP2 LT ISZERO PUSH2 0x151D JUMPI DUP2 MLOAD PUSH2 0x1504 DUP9 DUP3 PUSH2 0x14A7 JUMP JUMPDEST SWAP8 POP PUSH2 0x150F DUP4 PUSH2 0x14BF JUMP JUMPDEST SWAP3 POP POP PUSH1 0x1 DUP2 ADD SWAP1 POP PUSH2 0x14F0 JUMP JUMPDEST POP DUP6 SWAP4 POP POP POP POP SWAP3 SWAP2 POP POP JUMP JUMPDEST PUSH1 0x0 PUSH1 0x20 DUP3 ADD SWAP1 POP DUP2 DUP2 SUB PUSH1 0x0 DUP4 ADD MSTORE PUSH2 0x1544 DUP2 DUP5 PUSH2 0x14CC JUMP JUMPDEST SWAP1 POP SWAP3 SWAP2 POP POP JUMP JUMPDEST PUSH1 0x0 DUP1 PUSH1 0x0 DUP1 PUSH1 0x0 DUP1 PUSH1 0xA0 DUP8 DUP10 SUB SLT ISZERO PUSH2 0x1569 JUMPI PUSH2 0x1568 PUSH2 0x12DA JUMP JUMPDEST JUMPDEST PUSH1 0x0 PUSH2 0x1577 DUP10 DUP3 DUP11 ADD PUSH2 0x130D JUMP JUMPDEST SWAP7 POP POP PUSH1 0x20 PUSH2 0x1588 DUP10 DUP3 DUP11 ADD PUSH2 0x1343 JUMP JUMPDEST SWAP6 POP POP PUSH1 0x40 PUSH2 0x1599 DUP10 DUP3 DUP11 ADD PUSH2 0x1343 JUMP JUMPDEST SWAP5 POP POP PUSH1 0x60 DUP8 ADD CALLDATALOAD PUSH8 0xFFFFFFFFFFFFFFFF DUP2 GT ISZERO PUSH2 0x15BA JUMPI PUSH2 0x15B9 PUSH2 0x12DF JUMP JUMPDEST JUMPDEST PUSH2 0x15C6 DUP10 DUP3 DUP11 ADD PUSH2 0x1367 JUMP JUMPDEST SWAP4 POP SWAP4 POP POP PUSH1 0x80 PUSH2 0x15D9 DUP10 DUP3 DUP11 ADD PUSH2 0x1343 JUMP JUMPDEST SWAP2 POP POP SWAP3 SWAP6 POP SWAP3 SWAP6 POP SWAP3 SWAP6 JUMP JUMPDEST PUSH32 0x4E487B7100000000000000000000000000000000000000000000000000000000 PUSH1 0x0 MSTORE PUSH1 0x32 PUSH1 0x4 MSTORE PUSH1 0x24 PUSH1 0x0 REVERT JUMPDEST PUSH1 0x0 PUSH1 0x20 DUP3 DUP5 SUB SLT ISZERO PUSH2 0x162B JUMPI PUSH2 0x162A PUSH2 0x12DA JUMP JUMPDEST JUMPDEST PUSH1 0x0 PUSH2 0x1639 DUP5 DUP3 DUP6 ADD PUSH2 0x130D JUMP JUMPDEST SWAP2 POP POP SWAP3 SWAP2 POP POP JUMP JUMPDEST PUSH2 0x164B DUP2 PUSH2 0x1322 JUMP JUMPDEST DUP3 MSTORE POP POP JUMP JUMPDEST PUSH1 0x0 DUP3 DUP3 MSTORE PUSH1 0x20 DUP3 ADD SWAP1 POP SWAP3 SWAP2 POP POP JUMP JUMPDEST PUSH1 0x0 DUP2 SWAP1 POP SWAP2 SWAP1 POP JUMP JUMPDEST PUSH2 0x1675 DUP2 PUSH2 0x12E4 JUMP JUMPDEST DUP3 MSTORE POP POP JUMP JUMPDEST PUSH1 0x0 PUSH2 0x1687 DUP4 DUP4 PUSH2 0x166C JUMP JUMPDEST PUSH1 0x20 DUP4 ADD SWAP1 POP SWAP3 SWAP2 POP POP JUMP JUMPDEST PUSH1 0x0 PUSH2 0x16A2 PUSH1 0x20 DUP5 ADD DUP5 PUSH2 0x130D JUMP JUMPDEST SWAP1 POP SWAP3 SWAP2 POP POP JUMP JUMPDEST PUSH1 0x0 PUSH1 0x20 DUP3 ADD SWAP1 POP SWAP2 SWAP1 POP JUMP JUMPDEST PUSH1 0x0 PUSH2 0x16C3 DUP4 DUP6 PUSH2 0x1651 JUMP JUMPDEST SWAP4 POP PUSH2 0x16CE DUP3 PUSH2 0x1662 JUMP JUMPDEST DUP1 PUSH1 0x0 JUMPDEST DUP6 DUP2 LT ISZERO PUSH2 0x1707 JUMPI PUSH2 0x16E4 DUP3 DUP5 PUSH2 0x1693 JUMP JUMPDEST PUSH2 0x16EE DUP9 DUP3 PUSH2 0x167B JUMP JUMPDEST SWAP8 POP PUSH2 0x16F9 DUP4 PUSH2 0x16AA JUMP JUMPDEST SWAP3 POP POP PUSH1 0x1 DUP2 ADD SWAP1 POP PUSH2 0x16D2 JUMP JUMPDEST POP DUP6 SWAP3 POP POP POP SWAP4 SWAP3 POP POP POP JUMP JUMPDEST PUSH2 0x171D DUP2 PUSH2 0x12E4 JUMP JUMPDEST DUP3 MSTORE POP POP JUMP JUMPDEST PUSH1 0x0 PUSH1 0xA0 DUP3 ADD SWAP1 POP PUSH2 0x1738 PUSH1 0x0 DUP4 ADD DUP10 PUSH2 0x1642 JUMP JUMPDEST PUSH2 0x1745 PUSH1 0x20 DUP4 ADD DUP9 PUSH2 0x1642 JUMP JUMPDEST DUP2 DUP2 SUB PUSH1 0x40 DUP4 ADD MSTORE PUSH2 0x1758 DUP2 DUP7 DUP9 PUSH2 0x16B7 JUMP JUMPDEST SWAP1 POP PUSH2 0x1767 PUSH1 0x60 DUP4 ADD DUP6 PUSH2 0x1714 JUMP JUMPDEST PUSH2 0x1774 PUSH1 0x80 DUP4 ADD DUP5 PUSH2 0x1642 JUMP JUMPDEST SWAP8 SWAP7 POP POP POP POP POP POP POP JUMP JUMPDEST PUSH1 0x0 PUSH1 0x1F NOT PUSH1 0x1F DUP4 ADD AND SWAP1 POP SWAP2 SWAP1 POP JUMP JUMPDEST PUSH32 0x4E487B7100000000000000000000000000000000000000000000000000000000 PUSH1 0x0 MSTORE PUSH1 0x41 PUSH1 0x4 MSTORE PUSH1 0x24 PUSH1 0x0 REVERT JUMPDEST PUSH2 0x17C8 DUP3 PUSH2 0x177F JUMP JUMPDEST DUP2 ADD DUP2 DUP2 LT PUSH8 0xFFFFFFFFFFFFFFFF DUP3 GT OR ISZERO PUSH2 0x17E7 JUMPI PUSH2 0x17E6 PUSH2 0x1790 JUMP JUMPDEST JUMPDEST DUP1 PUSH1 0x40 MSTORE POP POP POP JUMP JUMPDEST PUSH1 0x0 PUSH2 0x17FA PUSH2 0x12D0 JUMP JUMPDEST SWAP1 POP PUSH2 0x1806 DUP3 DUP3 PUSH2 0x17BF JUMP JUMPDEST SWAP2 SWAP1 POP JUMP JUMPDEST PUSH1 0x0 PUSH8 0xFFFFFFFFFFFFFFFF DUP3 GT ISZERO PUSH2 0x1826 JUMPI PUSH2 0x1825 PUSH2 0x1790 JUMP JUMPDEST JUMPDEST PUSH1 0x20 DUP3 MUL SWAP1 POP PUSH1 0x20 DUP2 ADD SWAP1 POP SWAP2 SWAP1 POP JUMP JUMPDEST PUSH1 0x0 DUP2 MLOAD SWAP1 POP PUSH2 0x1846 DUP2 PUSH2 0x132C JUMP JUMPDEST SWAP3 SWAP2 POP POP JUMP JUMPDEST PUSH1 0x0 PUSH2 0x185F PUSH2 0x185A DUP5 PUSH2 0x180B JUMP JUMPDEST PUSH2 0x17F0 JUMP JUMPDEST SWAP1 POP DUP1 DUP4 DUP3 MSTORE PUSH1 0x20 DUP3 ADD SWAP1 POP PUSH1 0x20 DUP5 MUL DUP4 ADD DUP6 DUP2 GT ISZERO PUSH2 0x1882 JUMPI PUSH2 0x1881 PUSH2 0x1362 JUMP JUMPDEST JUMPDEST DUP4 JUMPDEST DUP2 DUP2 LT ISZERO PUSH2 0x18AB JUMPI DUP1 PUSH2 0x1897 DUP9 DUP3 PUSH2 0x1837 JUMP JUMPDEST DUP5 MSTORE PUSH1 0x20 DUP5 ADD SWAP4 POP POP PUSH1 0x20 DUP2 ADD SWAP1 POP PUSH2 0x1884 JUMP JUMPDEST POP POP POP SWAP4 SWAP3 POP POP POP JUMP JUMPDEST PUSH1 0x0 DUP3 PUSH1 0x1F DUP4 ADD SLT PUSH2 0x18CA JUMPI PUSH2 0x18C9 PUSH2 0x1358 JUMP JUMPDEST JUMPDEST DUP2 MLOAD PUSH2 0x18DA DUP5 DUP3 PUSH1 0x20 DUP7 ADD PUSH2 0x184C JUMP JUMPDEST SWAP2 POP POP SWAP3 SWAP2 POP POP JUMP JUMPDEST PUSH1 0x0 PUSH1 0x20 DUP3 DUP5 SUB SLT ISZERO PUSH2 0x18F9 JUMPI PUSH2 0x18F8 PUSH2 0x12DA JUMP JUMPDEST JUMPDEST PUSH1 0x0 DUP3 ADD MLOAD PUSH8 0xFFFFFFFFFFFFFFFF DUP2 GT ISZERO PUSH2 0x1917 JUMPI PUSH2 0x1916 PUSH2 0x12DF JUMP JUMPDEST JUMPDEST PUSH2 0x1923 DUP5 DUP3 DUP6 ADD PUSH2 0x18B5 JUMP JUMPDEST SWAP2 POP POP SWAP3 SWAP2 POP POP JUMP JUMPDEST PUSH32 0x4E487B7100000000000000000000000000000000000000000000000000000000 PUSH1 0x0 MSTORE PUSH1 0x11 PUSH1 0x4 MSTORE PUSH1 0x24 PUSH1 0x0 REVERT JUMPDEST PUSH1 0x0 PUSH2 0x1966 DUP3 PUSH2 0x1322 JUMP JUMPDEST SWAP2 POP PUSH2 0x1971 DUP4 PUSH2 0x1322 JUMP JUMPDEST SWAP3 POP DUP3 DUP3 LT ISZERO PUSH2 0x1984 JUMPI PUSH2 0x1983 PUSH2 0x192C JUMP JUMPDEST JUMPDEST DUP3 DUP3 SUB SWAP1 POP SWAP3 SWAP2 POP POP JUMP JUMPDEST PUSH1 0x0 PUSH2 0x199A DUP3 PUSH2 0x1322 JUMP JUMPDEST SWAP2 POP PUSH2 0x19A5 DUP4 PUSH2 0x1322 JUMP JUMPDEST SWAP3 POP DUP2 PUSH32 0xFFFFFFFFFFFFFFFFFFFFFFFFFFFFFFFFFFFFFFFFFFFFFFFFFFFFFFFFFFFFFFFF DIV DUP4 GT DUP3 ISZERO ISZERO AND ISZERO PUSH2 0x19DE JUMPI PUSH2 0x19DD PUSH2 0x192C JUMP JUMPDEST JUMPDEST DUP3 DUP3 MUL SWAP1 POP SWAP3 SWAP2 POP POP JUMP JUMPDEST PUSH32 0x4E487B7100000000000000000000000000000000000000000000000000000000 PUSH1 0x0 MSTORE PUSH1 0x12 PUSH1 0x4 MSTORE PUSH1 0x24 PUSH1 0x0 REVERT JUMPDEST PUSH1 0x0 PUSH2 0x1A23 DUP3 PUSH2 0x1322 JUMP JUMPDEST SWAP2 POP PUSH2 0x1A2E DUP4 PUSH2 0x1322 JUMP JUMPDEST SWAP3 POP DUP3 PUSH2 0x1A3E JUMPI PUSH2 0x1A3D PUSH2 0x19E9 JUMP JUMPDEST JUMPDEST DUP3 DUP3 DIV SWAP1 POP SWAP3 SWAP2 POP POP JUMP JUMPDEST PUSH1 0x0 PUSH1 0x40 DUP3 ADD SWAP1 POP PUSH2 0x1A5E PUSH1 0x0 DUP4 ADD DUP7 PUSH2 0x1642 JUMP JUMPDEST DUP2 DUP2 SUB PUSH1 0x20 DUP4 ADD MSTORE PUSH2 0x1A71 DUP2 DUP5 DUP7 PUSH2 0x16B7 JUMP JUMPDEST SWAP1 POP SWAP5 SWAP4 POP POP POP POP JUMP JUMPDEST PUSH1 0x0 DUP3 DUP3 MSTORE PUSH1 0x20 DUP3 ADD SWAP1 POP SWAP3 SWAP2 POP POP JUMP JUMPDEST PUSH32 0x4E6F206D73672E76616C75652100000000000000000000000000000000000000 PUSH1 0x0 DUP3 ADD MSTORE POP JUMP JUMPDEST PUSH1 0x0 PUSH2 0x1AC2 PUSH1 0xD DUP4 PUSH2 0x1A7B JUMP JUMPDEST SWAP2 POP PUSH2 0x1ACD DUP3 PUSH2 0x1A8C JUMP JUMPDEST PUSH1 0x20 DUP3 ADD SWAP1 POP SWAP2 SWAP1 POP JUMP JUMPDEST PUSH1 0x0 PUSH1 0x20 DUP3 ADD SWAP1 POP DUP2 DUP2 SUB PUSH1 0x0 DUP4 ADD MSTORE PUSH2 0x1AF1 DUP2 PUSH2 0x1AB5 JUMP JUMPDEST SWAP1 POP SWAP2 SWAP1 POP JUMP JUMPDEST PUSH1 0x0 PUSH1 0x80 DUP3 ADD SWAP1 POP PUSH2 0x1B0D PUSH1 0x0 DUP4 ADD DUP9 PUSH2 0x1642 JUMP JUMPDEST DUP2 DUP2 SUB PUSH1 0x20 DUP4 ADD MSTORE PUSH2 0x1B20 DUP2 DUP7 DUP9 PUSH2 0x16B7 JUMP JUMPDEST SWAP1 POP PUSH2 0x1B2F PUSH1 0x40 DUP4 ADD DUP6 PUSH2 0x1714 JUMP JUMPDEST PUSH2 0x1B3C PUSH1 0x60 DUP4 ADD DUP5 PUSH2 0x1642 JUMP JUMPDEST SWAP7 SWAP6 POP POP POP POP POP POP JUMP JUMPDEST PUSH1 0x0 PUSH1 0x60 DUP3 ADD SWAP1 POP PUSH2 0x1B5B PUSH1 0x0 DUP4 ADD DUP7 PUSH2 0x1714 JUMP JUMPDEST PUSH2 0x1B68 PUSH1 0x20 DUP4 ADD DUP6 PUSH2 0x1714 JUMP JUMPDEST PUSH2 0x1B75 PUSH1 0x40 DUP4 ADD DUP5 PUSH2 0x1642 JUMP JUMPDEST SWAP5 SWAP4 POP POP POP POP JUMP JUMPDEST PUSH1 0x0 PUSH1 0x40 DUP3 ADD SWAP1 POP PUSH2 0x1B92 PUSH1 0x0 DUP4 ADD DUP6 PUSH2 0x1714 JUMP JUMPDEST PUSH2 0x1B9F PUSH1 0x20 DUP4 ADD DUP5 PUSH2 0x1714 JUMP JUMPDEST SWAP4 SWAP3 POP POP POP JUMP JUMPDEST PUSH1 0x0 PUSH1 0x20 DUP3 DUP5 SUB SLT ISZERO PUSH2 0x1BBC JUMPI PUSH2 0x1BBB PUSH2 0x12DA JUMP JUMPDEST JUMPDEST PUSH1 0x0 PUSH2 0x1BCA DUP5 DUP3 DUP6 ADD PUSH2 0x1837 JUMP JUMPDEST SWAP2 POP POP SWAP3 SWAP2 POP POP JUMP JUMPDEST PUSH1 0x0 PUSH2 0x1BDE DUP3 PUSH2 0x1322 JUMP JUMPDEST SWAP2 POP PUSH2 0x1BE9 DUP4 PUSH2 0x1322 JUMP JUMPDEST SWAP3 POP DUP3 PUSH32 0xFFFFFFFFFFFFFFFFFFFFFFFFFFFFFFFFFFFFFFFFFFFFFFFFFFFFFFFFFFFFFFFF SUB DUP3 GT ISZERO PUSH2 0x1C1E JUMPI PUSH2 0x1C1D PUSH2 0x192C JUMP JUMPDEST JUMPDEST DUP3 DUP3 ADD SWAP1 POP SWAP3 SWAP2 POP POP JUMP JUMPDEST PUSH1 0x0 PUSH1 0x40 DUP3 ADD SWAP1 POP PUSH2 0x1C3E PUSH1 0x0 DUP4 ADD DUP6 PUSH2 0x1714 JUMP JUMPDEST PUSH2 0x1C4B PUSH1 0x20 DUP4 ADD DUP5 PUSH2 0x1642 JUMP JUMPDEST SWAP4 SWAP3 POP POP POP JUMP JUMPDEST PUSH32 0x5361666545524332303A20617070726F76652066726F6D206E6F6E2D7A65726F PUSH1 0x0 DUP3 ADD MSTORE PUSH32 0x20746F206E6F6E2D7A65726F20616C6C6F77616E636500000000000000000000 PUSH1 0x20 DUP3 ADD MSTORE POP JUMP JUMPDEST PUSH1 0x0 PUSH2 0x1CAE PUSH1 0x36 DUP4 PUSH2 0x1A7B JUMP JUMPDEST SWAP2 POP PUSH2 0x1CB9 DUP3 PUSH2 0x1C52 JUMP JUMPDEST PUSH1 0x40 DUP3 ADD SWAP1 POP SWAP2 SWAP1 POP JUMP JUMPDEST PUSH1 0x0 PUSH1 0x20 DUP3 ADD SWAP1 POP DUP2 DUP2 SUB PUSH1 0x0 DUP4 ADD MSTORE PUSH2 0x1CDD DUP2 PUSH2 0x1CA1 JUMP JUMPDEST SWAP1 POP SWAP2 SWAP1 POP JUMP JUMPDEST PUSH1 0x0 DUP2 ISZERO ISZERO SWAP1 POP SWAP2 SWAP1 POP JUMP JUMPDEST PUSH2 0x1CF9 DUP2 PUSH2 0x1CE4 JUMP JUMPDEST DUP2 EQ PUSH2 0x1D04 JUMPI PUSH1 0x0 DUP1 REVERT JUMPDEST POP JUMP JUMPDEST PUSH1 0x0 DUP2 MLOAD SWAP1 POP PUSH2 0x1D16 DUP2 PUSH2 0x1CF0 JUMP JUMPDEST SWAP3 SWAP2 POP POP JUMP JUMPDEST PUSH1 0x0 PUSH1 0x20 DUP3 DUP5 SUB SLT ISZERO PUSH2 0x1D32 JUMPI PUSH2 0x1D31 PUSH2 0x12DA JUMP JUMPDEST JUMPDEST PUSH1 0x0 PUSH2 0x1D40 DUP5 DUP3 DUP6 ADD PUSH2 0x1D07 JUMP JUMPDEST SWAP2 POP POP SWAP3 SWAP2 POP POP JUMP JUMPDEST PUSH32 0x5361666545524332303A204552433230206F7065726174696F6E20646964206E PUSH1 0x0 DUP3 ADD MSTORE PUSH32 0x6F74207375636365656400000000000000000000000000000000000000000000 PUSH1 0x20 DUP3 ADD MSTORE POP JUMP JUMPDEST PUSH1 0x0 PUSH2 0x1DA5 PUSH1 0x2A DUP4 PUSH2 0x1A7B JUMP JUMPDEST SWAP2 POP PUSH2 0x1DB0 DUP3 PUSH2 0x1D49 JUMP JUMPDEST PUSH1 0x40 DUP3 ADD SWAP1 POP SWAP2 SWAP1 POP JUMP JUMPDEST PUSH1 0x0 PUSH1 0x20 DUP3 ADD SWAP1 POP DUP2 DUP2 SUB PUSH1 0x0 DUP4 ADD MSTORE PUSH2 0x1DD4 DUP2 PUSH2 0x1D98 JUMP JUMPDEST SWAP1 POP SWAP2 SWAP1 POP JUMP JUMPDEST PUSH32 0x416464726573733A20696E73756666696369656E742062616C616E636520666F PUSH1 0x0 DUP3 ADD MSTORE PUSH32 0x722063616C6C0000000000000000000000000000000000000000000000000000 PUSH1 0x20 DUP3 ADD MSTORE POP JUMP JUMPDEST PUSH1 0x0 PUSH2 0x1E37 PUSH1 0x26 DUP4 PUSH2 0x1A7B JUMP JUMPDEST SWAP2 POP PUSH2 0x1E42 DUP3 PUSH2 0x1DDB JUMP JUMPDEST PUSH1 0x40 DUP3 ADD SWAP1 POP SWAP2 SWAP1 POP JUMP JUMPDEST PUSH1 0x0 PUSH1 0x20 DUP3 ADD SWAP1 POP DUP2 DUP2 SUB PUSH1 0x0 DUP4 ADD MSTORE PUSH2 0x1E66 DUP2 PUSH2 0x1E2A JUMP JUMPDEST SWAP1 POP SWAP2 SWAP1 POP JUMP JUMPDEST PUSH32 0x416464726573733A2063616C6C20746F206E6F6E2D636F6E7472616374000000 PUSH1 0x0 DUP3 ADD MSTORE POP JUMP JUMPDEST PUSH1 0x0 PUSH2 0x1EA3 PUSH1 0x1D DUP4 PUSH2 0x1A7B JUMP JUMPDEST SWAP2 POP PUSH2 0x1EAE DUP3 PUSH2 0x1E6D JUMP JUMPDEST PUSH1 0x20 DUP3 ADD SWAP1 POP SWAP2 SWAP1 POP JUMP JUMPDEST PUSH1 0x0 PUSH1 0x20 DUP3 ADD SWAP1 POP DUP2 DUP2 SUB PUSH1 0x0 DUP4 ADD MSTORE PUSH2 0x1ED2 DUP2 PUSH2 0x1E96 JUMP JUMPDEST SWAP1 POP SWAP2 SWAP1 POP JUMP JUMPDEST PUSH1 0x0 DUP2 MLOAD SWAP1 POP SWAP2 SWAP1 POP JUMP JUMPDEST PUSH1 0x0 DUP2 SWAP1 POP SWAP3 SWAP2 POP POP JUMP JUMPDEST PUSH1 0x0 JUMPDEST DUP4 DUP2 LT ISZERO PUSH2 0x1F0D JUMPI DUP1 DUP3 ADD MLOAD DUP2 DUP5 ADD MSTORE PUSH1 0x20 DUP2 ADD SWAP1 POP PUSH2 0x1EF2 JUMP JUMPDEST DUP4 DUP2 GT ISZERO PUSH2 0x1F1C JUMPI PUSH1 0x0 DUP5 DUP5 ADD MSTORE JUMPDEST POP POP POP POP JUMP JUMPDEST PUSH1 0x0 PUSH2 0x1F2D DUP3 PUSH2 0x1ED9 JUMP JUMPDEST PUSH2 0x1F37 DUP2 DUP6 PUSH2 0x1EE4 JUMP JUMPDEST SWAP4 POP PUSH2 0x1F47 DUP2 DUP6 PUSH1 0x20 DUP7 ADD PUSH2 0x1EEF JUMP JUMPDEST DUP1 DUP5 ADD SWAP2 POP POP SWAP3 SWAP2 POP POP JUMP JUMPDEST PUSH1 0x0 PUSH2 0x1F5F DUP3 DUP5 PUSH2 0x1F22 JUMP JUMPDEST SWAP2 POP DUP2 SWAP1 POP SWAP3 SWAP2 POP POP JUMP JUMPDEST PUSH1 0x0 DUP2 MLOAD SWAP1 POP SWAP2 SWAP1 POP JUMP JUMPDEST PUSH1 0x0 PUSH2 0x1F80 DUP3 PUSH2 0x1F6A JUMP JUMPDEST PUSH2 0x1F8A DUP2 DUP6 PUSH2 0x1A7B JUMP JUMPDEST SWAP4 POP PUSH2 0x1F9A DUP2 DUP6 PUSH1 0x20 DUP7 ADD PUSH2 0x1EEF JUMP JUMPDEST PUSH2 0x1FA3 DUP2 PUSH2 0x177F JUMP JUMPDEST DUP5 ADD SWAP2 POP POP SWAP3 SWAP2 POP POP JUMP JUMPDEST PUSH1 0x0 PUSH1 0x20 DUP3 ADD SWAP1 POP DUP2 DUP2 SUB PUSH1 0x0 DUP4 ADD MSTORE PUSH2 0x1FC8 DUP2 DUP5 PUSH2 0x1F75 JUMP JUMPDEST SWAP1 POP SWAP3 SWAP2 POP POP JUMP INVALID LOG2 PUSH5 0x6970667358 0x22 SLT KECCAK256 CALLDATASIZE 0x4F LOG1 0xEE 0x26 0xBF GT DUP7 0xE4 0xEF DUP12 PUSH14 0x85900DC7583F76D947878CCF520A 0x5C CODECOPY RETURN 0xB0 CODESIZE 0x4C PUSH5 0x736F6C6343 STOP ADDMOD 0xD STOP CALLER "
        },
        "methodIdentifiers": {
          "pool()": "16f0115b",
          "swapETHForExactTokens(address,uint256,uint256,address[],uint256)": "fe78a2e2",
          "swapExactETHForTokens(address,uint256,uint256,address[],uint256)": "651b100c",
          "swapExactTokensForETH(address,uint256,uint256,uint256,address[],uint256)": "4daa13db",
          "swapTokensForExactETH(address,uint256,uint256,uint256,address[],uint256)": "648c2273"
        }
      }
    }
  }
}