{
	"contracts/DonateOnDEX.sol": {
		"DonateOnDEX": {
			"abi": [
				{
					"inputs": [
						{
							"internalType": "address",
							"name": "poolAddress",
							"type": "address"
						}
					],
					"stateMutability": "nonpayable",
					"type": "constructor"
				},
				{
					"inputs": [],
					"name": "pool",
					"outputs": [
						{
							"internalType": "address payable",
							"name": "",
							"type": "address"
						}
					],
					"stateMutability": "view",
					"type": "function"
				},
				{
					"inputs": [
						{
							"internalType": "address",
							"name": "router",
							"type": "address"
						},
						{
							"internalType": "uint256",
							"name": "percent",
							"type": "uint256"
						},
						{
							"internalType": "uint256",
							"name": "amountOut",
							"type": "uint256"
						},
						{
							"internalType": "address[]",
							"name": "path",
							"type": "address[]"
						},
						{
							"internalType": "uint256",
							"name": "deadline",
							"type": "uint256"
						}
					],
					"name": "swapETHForExactTokens",
					"outputs": [
						{
							"internalType": "uint256[]",
							"name": "amounts",
							"type": "uint256[]"
						}
					],
					"stateMutability": "payable",
					"type": "function"
				},
				{
					"inputs": [
						{
							"internalType": "address",
							"name": "router",
							"type": "address"
						},
						{
							"internalType": "uint256",
							"name": "percent",
							"type": "uint256"
						},
						{
							"internalType": "uint256",
							"name": "amountOutMin",
							"type": "uint256"
						},
						{
							"internalType": "address[]",
							"name": "path",
							"type": "address[]"
						},
						{
							"internalType": "uint256",
							"name": "deadline",
							"type": "uint256"
						}
					],
					"name": "swapExactETHForTokens",
					"outputs": [
						{
							"internalType": "uint256[]",
							"name": "amounts",
							"type": "uint256[]"
						}
					],
					"stateMutability": "payable",
					"type": "function"
				},
				{
					"inputs": [
						{
							"internalType": "address",
							"name": "router",
							"type": "address"
						},
						{
							"internalType": "uint256",
							"name": "percent",
							"type": "uint256"
						},
						{
							"internalType": "uint256",
							"name": "amountIn",
							"type": "uint256"
						},
						{
							"internalType": "uint256",
							"name": "amountOutMin",
							"type": "uint256"
						},
						{
							"internalType": "address[]",
							"name": "path",
							"type": "address[]"
						},
						{
							"internalType": "uint256",
							"name": "deadline",
							"type": "uint256"
						}
					],
					"name": "swapExactTokensForETH",
					"outputs": [
						{
							"internalType": "uint256[]",
							"name": "amounts",
							"type": "uint256[]"
						}
					],
					"stateMutability": "nonpayable",
					"type": "function"
				},
				{
					"inputs": [
						{
							"internalType": "address",
							"name": "router",
							"type": "address"
						},
						{
							"internalType": "uint256",
							"name": "percent",
							"type": "uint256"
						},
						{
							"internalType": "uint256",
							"name": "amountOut",
							"type": "uint256"
						},
						{
							"internalType": "uint256",
							"name": "amountInMax",
							"type": "uint256"
						},
						{
							"internalType": "address[]",
							"name": "path",
							"type": "address[]"
						},
						{
							"internalType": "uint256",
							"name": "deadline",
							"type": "uint256"
						}
					],
					"name": "swapTokensForExactETH",
					"outputs": [
						{
							"internalType": "uint256[]",
							"name": "amounts",
							"type": "uint256[]"
						}
					],
					"stateMutability": "nonpayable",
					"type": "function"
				}
			],
			"devdoc": {
				"kind": "dev",
				"methods": {},
				"version": 1
			},
			"evm": {
				"assembly": "    /* \"contracts/DonateOnDEX.sol\":170:3924  contract DonateOnDEX {... */\n  mstore(0x40, 0x80)\n    /* \"contracts/DonateOnDEX.sol\":264:341  constructor(address poolAddress) {... */\n  callvalue\n  dup1\n  iszero\n  tag_1\n  jumpi\n  0x00\n  dup1\n  revert\ntag_1:\n  pop\n  mload(0x40)\n  sub(codesize, bytecodeSize)\n  dup1\n  bytecodeSize\n  dup4\n  codecopy\n  dup2\n  dup2\n  add\n  0x40\n  mstore\n  dup2\n  add\n  swap1\n  tag_2\n  swap2\n  swap1\n  tag_3\n  jump\t// in\ntag_2:\n    /* \"contracts/DonateOnDEX.sol\":322:333  poolAddress */\n  dup1\n    /* \"contracts/DonateOnDEX.sol\":307:311  pool */\n  0x00\n  dup1\n    /* \"contracts/DonateOnDEX.sol\":307:334  pool = payable(poolAddress) */\n  0x0100\n  exp\n  dup2\n  sload\n  dup2\n  0xffffffffffffffffffffffffffffffffffffffff\n  mul\n  not\n  and\n  swap1\n  dup4\n  0xffffffffffffffffffffffffffffffffffffffff\n  and\n  mul\n  or\n  swap1\n  sstore\n  pop\n    /* \"contracts/DonateOnDEX.sol\":264:341  constructor(address poolAddress) {... */\n  pop\n    /* \"contracts/DonateOnDEX.sol\":170:3924  contract DonateOnDEX {... */\n  jump(tag_6)\n    /* \"#utility.yul\":88:205   */\ntag_8:\n    /* \"#utility.yul\":197:198   */\n  0x00\n    /* \"#utility.yul\":194:195   */\n  dup1\n    /* \"#utility.yul\":187:199   */\n  revert\n    /* \"#utility.yul\":334:460   */\ntag_10:\n    /* \"#utility.yul\":371:378   */\n  0x00\n    /* \"#utility.yul\":411:453   */\n  0xffffffffffffffffffffffffffffffffffffffff\n    /* \"#utility.yul\":404:409   */\n  dup3\n    /* \"#utility.yul\":400:454   */\n  and\n    /* \"#utility.yul\":389:454   */\n  swap1\n  pop\n    /* \"#utility.yul\":334:460   */\n  swap2\n  swap1\n  pop\n  jump\t// out\n    /* \"#utility.yul\":466:562   */\ntag_11:\n    /* \"#utility.yul\":503:510   */\n  0x00\n    /* \"#utility.yul\":532:556   */\n  tag_20\n    /* \"#utility.yul\":550:555   */\n  dup3\n    /* \"#utility.yul\":532:556   */\n  tag_10\n  jump\t// in\ntag_20:\n    /* \"#utility.yul\":521:556   */\n  swap1\n  pop\n    /* \"#utility.yul\":466:562   */\n  swap2\n  swap1\n  pop\n  jump\t// out\n    /* \"#utility.yul\":568:690   */\ntag_12:\n    /* \"#utility.yul\":641:665   */\n  tag_22\n    /* \"#utility.yul\":659:664   */\n  dup2\n    /* \"#utility.yul\":641:665   */\n  tag_11\n  jump\t// in\ntag_22:\n    /* \"#utility.yul\":634:639   */\n  dup2\n    /* \"#utility.yul\":631:666   */\n  eq\n    /* \"#utility.yul\":621:684   */\n  tag_23\n  jumpi\n    /* \"#utility.yul\":680:681   */\n  0x00\n    /* \"#utility.yul\":677:678   */\n  dup1\n    /* \"#utility.yul\":670:682   */\n  revert\n    /* \"#utility.yul\":621:684   */\ntag_23:\n    /* \"#utility.yul\":568:690   */\n  pop\n  jump\t// out\n    /* \"#utility.yul\":696:839   */\ntag_13:\n    /* \"#utility.yul\":753:758   */\n  0x00\n    /* \"#utility.yul\":784:790   */\n  dup2\n    /* \"#utility.yul\":778:791   */\n  mload\n    /* \"#utility.yul\":769:791   */\n  swap1\n  pop\n    /* \"#utility.yul\":800:833   */\n  tag_25\n    /* \"#utility.yul\":827:832   */\n  dup2\n    /* \"#utility.yul\":800:833   */\n  tag_12\n  jump\t// in\ntag_25:\n    /* \"#utility.yul\":696:839   */\n  swap3\n  swap2\n  pop\n  pop\n  jump\t// out\n    /* \"#utility.yul\":845:1196   */\ntag_3:\n    /* \"#utility.yul\":915:921   */\n  0x00\n    /* \"#utility.yul\":964:966   */\n  0x20\n    /* \"#utility.yul\":952:961   */\n  dup3\n    /* \"#utility.yul\":943:950   */\n  dup5\n    /* \"#utility.yul\":939:962   */\n  sub\n    /* \"#utility.yul\":935:967   */\n  slt\n    /* \"#utility.yul\":932:1051   */\n  iszero\n  tag_27\n  jumpi\n    /* \"#utility.yul\":970:1049   */\n  tag_28\n  tag_8\n  jump\t// in\ntag_28:\n    /* \"#utility.yul\":932:1051   */\ntag_27:\n    /* \"#utility.yul\":1090:1091   */\n  0x00\n    /* \"#utility.yul\":1115:1179   */\n  tag_29\n    /* \"#utility.yul\":1171:1178   */\n  dup5\n    /* \"#utility.yul\":1162:1168   */\n  dup3\n    /* \"#utility.yul\":1151:1160   */\n  dup6\n    /* \"#utility.yul\":1147:1169   */\n  add\n    /* \"#utility.yul\":1115:1179   */\n  tag_13\n  jump\t// in\ntag_29:\n    /* \"#utility.yul\":1105:1179   */\n  swap2\n  pop\n    /* \"#utility.yul\":1061:1189   */\n  pop\n    /* \"#utility.yul\":845:1196   */\n  swap3\n  swap2\n  pop\n  pop\n  jump\t// out\n    /* \"contracts/DonateOnDEX.sol\":170:3924  contract DonateOnDEX {... */\ntag_6:\n  dataSize(sub_0)\n  dup1\n  dataOffset(sub_0)\n  0x00\n  codecopy\n  0x00\n  return\nstop\n\nsub_0: assembly {\n        /* \"contracts/DonateOnDEX.sol\":170:3924  contract DonateOnDEX {... */\n      mstore(0x40, 0x80)\n      jumpi(tag_1, lt(calldatasize, 0x04))\n      shr(0xe0, calldataload(0x00))\n      dup1\n      0x16f0115b\n      eq\n      tag_2\n      jumpi\n      dup1\n      0x4daa13db\n      eq\n      tag_3\n      jumpi\n      dup1\n      0x648c2273\n      eq\n      tag_4\n      jumpi\n      dup1\n      0x651b100c\n      eq\n      tag_5\n      jumpi\n      dup1\n      0xfe78a2e2\n      eq\n      tag_6\n      jumpi\n    tag_1:\n      0x00\n      dup1\n      revert\n        /* \"contracts/DonateOnDEX.sol\":230:257  address payable public pool */\n    tag_2:\n      callvalue\n      dup1\n      iszero\n      tag_7\n      jumpi\n      0x00\n      dup1\n      revert\n    tag_7:\n      pop\n      tag_8\n      tag_9\n      jump\t// in\n    tag_8:\n      mload(0x40)\n      tag_10\n      swap2\n      swap1\n      tag_11\n      jump\t// in\n    tag_10:\n      mload(0x40)\n      dup1\n      swap2\n      sub\n      swap1\n      return\n        /* \"contracts/DonateOnDEX.sol\":2115:3044  function swapExactTokensForETH(... */\n    tag_3:\n      callvalue\n      dup1\n      iszero\n      tag_12\n      jumpi\n      0x00\n      dup1\n      revert\n    tag_12:\n      pop\n      tag_13\n      0x04\n      dup1\n      calldatasize\n      sub\n      dup2\n      add\n      swap1\n      tag_14\n      swap2\n      swap1\n      tag_15\n      jump\t// in\n    tag_14:\n      tag_16\n      jump\t// in\n    tag_13:\n      mload(0x40)\n      tag_17\n      swap2\n      swap1\n      tag_18\n      jump\t// in\n    tag_17:\n      mload(0x40)\n      dup1\n      swap2\n      sub\n      swap1\n      return\n        /* \"contracts/DonateOnDEX.sol\":1056:2109  function swapTokensForExactETH(... */\n    tag_4:\n      callvalue\n      dup1\n      iszero\n      tag_19\n      jumpi\n      0x00\n      dup1\n      revert\n    tag_19:\n      pop\n      tag_20\n      0x04\n      dup1\n      calldatasize\n      sub\n      dup2\n      add\n      swap1\n      tag_21\n      swap2\n      swap1\n      tag_15\n      jump\t// in\n    tag_21:\n      tag_22\n      jump\t// in\n    tag_20:\n      mload(0x40)\n      tag_23\n      swap2\n      swap1\n      tag_18\n      jump\t// in\n    tag_23:\n      mload(0x40)\n      dup1\n      swap2\n      sub\n      swap1\n      return\n        /* \"contracts/DonateOnDEX.sol\":347:1050  function swapExactETHForTokens(... */\n    tag_5:\n      tag_24\n      0x04\n      dup1\n      calldatasize\n      sub\n      dup2\n      add\n      swap1\n      tag_25\n      swap2\n      swap1\n      tag_26\n      jump\t// in\n    tag_25:\n      tag_27\n      jump\t// in\n    tag_24:\n      mload(0x40)\n      tag_28\n      swap2\n      swap1\n      tag_18\n      jump\t// in\n    tag_28:\n      mload(0x40)\n      dup1\n      swap2\n      sub\n      swap1\n      return\n        /* \"contracts/DonateOnDEX.sol\":3050:3922  function swapETHForExactTokens(... */\n    tag_6:\n      tag_29\n      0x04\n      dup1\n      calldatasize\n      sub\n      dup2\n      add\n      swap1\n      tag_30\n      swap2\n      swap1\n      tag_26\n      jump\t// in\n    tag_30:\n      tag_31\n      jump\t// in\n    tag_29:\n      mload(0x40)\n      tag_32\n      swap2\n      swap1\n      tag_18\n      jump\t// in\n    tag_32:\n      mload(0x40)\n      dup1\n      swap2\n      sub\n      swap1\n      return\n        /* \"contracts/DonateOnDEX.sol\":230:257  address payable public pool */\n    tag_9:\n      0x00\n      dup1\n      sload\n      swap1\n      0x0100\n      exp\n      swap1\n      div\n      0xffffffffffffffffffffffffffffffffffffffff\n      and\n      dup2\n      jump\t// out\n        /* \"contracts/DonateOnDEX.sol\":2115:3044  function swapExactTokensForETH(... */\n    tag_16:\n        /* \"contracts/DonateOnDEX.sol\":2348:2372  uint256[] memory amounts */\n      0x60\n        /* \"contracts/DonateOnDEX.sol\":2384:2453  IERC20(path[0]).safeTransferFrom(msg.sender, address(this), amountIn) */\n      tag_34\n        /* \"contracts/DonateOnDEX.sol\":2417:2427  msg.sender */\n      caller\n        /* \"contracts/DonateOnDEX.sol\":2437:2441  this */\n      address\n        /* \"contracts/DonateOnDEX.sol\":2444:2452  amountIn */\n      dup9\n        /* \"contracts/DonateOnDEX.sol\":2391:2395  path */\n      dup8\n      dup8\n        /* \"contracts/DonateOnDEX.sol\":2396:2397  0 */\n      0x00\n        /* \"contracts/DonateOnDEX.sol\":2391:2398  path[0] */\n      dup2\n      dup2\n      lt\n      tag_35\n      jumpi\n      tag_36\n      tag_37\n      jump\t// in\n    tag_36:\n    tag_35:\n      swap1\n      pop\n      0x20\n      mul\n      add\n      0x20\n      dup2\n      add\n      swap1\n      tag_38\n      swap2\n      swap1\n      tag_39\n      jump\t// in\n    tag_38:\n        /* \"contracts/DonateOnDEX.sol\":2384:2416  IERC20(path[0]).safeTransferFrom */\n      0xffffffffffffffffffffffffffffffffffffffff\n      and\n      tag_40\n      swap1\n        /* \"contracts/DonateOnDEX.sol\":2384:2453  IERC20(path[0]).safeTransferFrom(msg.sender, address(this), amountIn) */\n      swap4\n      swap3\n      swap2\n      swap1\n      0xffffffff\n      and\n      jump\t// in\n    tag_34:\n        /* \"contracts/DonateOnDEX.sol\":2464:2562  IERC20(path[0]).safeIncreaseAllowance(... */\n      tag_41\n        /* \"contracts/DonateOnDEX.sol\":2523:2529  router */\n      dup9\n        /* \"contracts/DonateOnDEX.sol\":2544:2552  amountIn */\n      dup8\n        /* \"contracts/DonateOnDEX.sol\":2471:2475  path */\n      dup7\n      dup7\n        /* \"contracts/DonateOnDEX.sol\":2476:2477  0 */\n      0x00\n        /* \"contracts/DonateOnDEX.sol\":2471:2478  path[0] */\n      dup2\n      dup2\n      lt\n      tag_42\n      jumpi\n      tag_43\n      tag_37\n      jump\t// in\n    tag_43:\n    tag_42:\n      swap1\n      pop\n      0x20\n      mul\n      add\n      0x20\n      dup2\n      add\n      swap1\n      tag_44\n      swap2\n      swap1\n      tag_39\n      jump\t// in\n    tag_44:\n        /* \"contracts/DonateOnDEX.sol\":2464:2501  IERC20(path[0]).safeIncreaseAllowance */\n      0xffffffffffffffffffffffffffffffffffffffff\n      and\n      tag_45\n      swap1\n        /* \"contracts/DonateOnDEX.sol\":2464:2562  IERC20(path[0]).safeIncreaseAllowance(... */\n      swap3\n      swap2\n      swap1\n      0xffffffff\n      and\n      jump\t// in\n    tag_41:\n        /* \"contracts/DonateOnDEX.sol\":2602:2608  router */\n      dup8\n        /* \"contracts/DonateOnDEX.sol\":2583:2631  IUniswapV2Router01(router).swapExactTokensForETH */\n      0xffffffffffffffffffffffffffffffffffffffff\n      and\n      0x18cbafe5\n        /* \"contracts/DonateOnDEX.sol\":2645:2653  amountIn */\n      dup8\n        /* \"contracts/DonateOnDEX.sol\":2667:2679  amountOutMin */\n      dup8\n        /* \"contracts/DonateOnDEX.sol\":2693:2697  path */\n      dup8\n      dup8\n        /* \"contracts/DonateOnDEX.sol\":2719:2723  this */\n      address\n        /* \"contracts/DonateOnDEX.sol\":2738:2746  deadline */\n      dup9\n        /* \"contracts/DonateOnDEX.sol\":2583:2756  IUniswapV2Router01(router).swapExactTokensForETH(... */\n      mload(0x40)\n      dup8\n      0xffffffff\n      and\n      0xe0\n      shl\n      dup2\n      mstore\n      0x04\n      add\n      tag_46\n      swap7\n      swap6\n      swap5\n      swap4\n      swap3\n      swap2\n      swap1\n      tag_47\n      jump\t// in\n    tag_46:\n      0x00\n      mload(0x40)\n      dup1\n      dup4\n      sub\n      dup2\n      0x00\n      dup8\n      gas\n      call\n      iszero\n      dup1\n      iszero\n      tag_49\n      jumpi\n      returndatasize\n      0x00\n      dup1\n      returndatacopy\n      revert(0x00, returndatasize)\n    tag_49:\n      pop\n      pop\n      pop\n      pop\n      mload(0x40)\n      returndatasize\n      0x00\n      dup3\n      returndatacopy\n      returndatasize\n      not(0x1f)\n      0x1f\n      dup3\n      add\n      and\n      dup3\n      add\n      dup1\n      0x40\n      mstore\n      pop\n      dup2\n      add\n      swap1\n      tag_50\n      swap2\n      swap1\n      tag_51\n      jump\t// in\n    tag_50:\n        /* \"contracts/DonateOnDEX.sol\":2573:2756  amounts = IUniswapV2Router01(router).swapExactTokensForETH(... */\n      swap1\n      pop\n        /* \"contracts/DonateOnDEX.sol\":2767:2783  uint256 donation */\n      0x00\n        /* \"contracts/DonateOnDEX.sol\":2828:2833  10000 */\n      0x2710\n        /* \"contracts/DonateOnDEX.sol\":2817:2824  percent */\n      dup9\n        /* \"contracts/DonateOnDEX.sol\":2787:2794  amounts */\n      dup4\n        /* \"contracts/DonateOnDEX.sol\":2812:2813  1 */\n      0x01\n        /* \"contracts/DonateOnDEX.sol\":2795:2802  amounts */\n      dup6\n        /* \"contracts/DonateOnDEX.sol\":2795:2809  amounts.length */\n      mload\n        /* \"contracts/DonateOnDEX.sol\":2795:2813  amounts.length - 1 */\n      tag_52\n      swap2\n      swap1\n      tag_53\n      jump\t// in\n    tag_52:\n        /* \"contracts/DonateOnDEX.sol\":2787:2814  amounts[amounts.length - 1] */\n      dup2\n      mload\n      dup2\n      lt\n      tag_54\n      jumpi\n      tag_55\n      tag_37\n      jump\t// in\n    tag_55:\n    tag_54:\n      0x20\n      mul\n      0x20\n      add\n      add\n      mload\n        /* \"contracts/DonateOnDEX.sol\":2787:2824  amounts[amounts.length - 1] * percent */\n      tag_56\n      swap2\n      swap1\n      tag_57\n      jump\t// in\n    tag_56:\n        /* \"contracts/DonateOnDEX.sol\":2786:2833  (amounts[amounts.length - 1] * percent) / 10000 */\n      tag_58\n      swap2\n      swap1\n      tag_59\n      jump\t// in\n    tag_58:\n        /* \"contracts/DonateOnDEX.sol\":2767:2833  uint256 donation = (amounts[amounts.length - 1] * percent) / 10000 */\n      swap1\n      pop\n        /* \"contracts/DonateOnDEX.sol\":2903:2911  donation */\n      dup1\n        /* \"contracts/DonateOnDEX.sol\":2873:2880  amounts */\n      dup3\n        /* \"contracts/DonateOnDEX.sol\":2898:2899  1 */\n      0x01\n        /* \"contracts/DonateOnDEX.sol\":2881:2888  amounts */\n      dup5\n        /* \"contracts/DonateOnDEX.sol\":2881:2895  amounts.length */\n      mload\n        /* \"contracts/DonateOnDEX.sol\":2881:2899  amounts.length - 1 */\n      tag_60\n      swap2\n      swap1\n      tag_53\n      jump\t// in\n    tag_60:\n        /* \"contracts/DonateOnDEX.sol\":2873:2900  amounts[amounts.length - 1] */\n      dup2\n      mload\n      dup2\n      lt\n      tag_61\n      jumpi\n      tag_62\n      tag_37\n      jump\t// in\n    tag_62:\n    tag_61:\n      0x20\n      mul\n      0x20\n      add\n      add\n      mload\n        /* \"contracts/DonateOnDEX.sol\":2873:2911  amounts[amounts.length - 1] - donation */\n      tag_63\n      swap2\n      swap1\n      tag_53\n      jump\t// in\n    tag_63:\n        /* \"contracts/DonateOnDEX.sol\":2843:2850  amounts */\n      dup3\n        /* \"contracts/DonateOnDEX.sol\":2868:2869  1 */\n      0x01\n        /* \"contracts/DonateOnDEX.sol\":2851:2858  amounts */\n      dup5\n        /* \"contracts/DonateOnDEX.sol\":2851:2865  amounts.length */\n      mload\n        /* \"contracts/DonateOnDEX.sol\":2851:2869  amounts.length - 1 */\n      tag_64\n      swap2\n      swap1\n      tag_53\n      jump\t// in\n    tag_64:\n        /* \"contracts/DonateOnDEX.sol\":2843:2870  amounts[amounts.length - 1] */\n      dup2\n      mload\n      dup2\n      lt\n      tag_65\n      jumpi\n      tag_66\n      tag_37\n      jump\t// in\n    tag_66:\n    tag_65:\n      0x20\n      mul\n      0x20\n      add\n      add\n        /* \"contracts/DonateOnDEX.sol\":2843:2911  amounts[amounts.length - 1] = amounts[amounts.length - 1] - donation */\n      dup2\n      dup2\n      mstore\n      pop\n      pop\n        /* \"contracts/DonateOnDEX.sol\":2930:2940  msg.sender */\n      caller\n        /* \"contracts/DonateOnDEX.sol\":2922:2950  payable(msg.sender).transfer */\n      0xffffffffffffffffffffffffffffffffffffffff\n      and\n        /* \"contracts/DonateOnDEX.sol\":2922:2979  payable(msg.sender).transfer(amounts[amounts.length - 1]) */\n      0x08fc\n        /* \"contracts/DonateOnDEX.sol\":2951:2958  amounts */\n      dup4\n        /* \"contracts/DonateOnDEX.sol\":2976:2977  1 */\n      0x01\n        /* \"contracts/DonateOnDEX.sol\":2959:2966  amounts */\n      dup6\n        /* \"contracts/DonateOnDEX.sol\":2959:2973  amounts.length */\n      mload\n        /* \"contracts/DonateOnDEX.sol\":2959:2977  amounts.length - 1 */\n      tag_67\n      swap2\n      swap1\n      tag_53\n      jump\t// in\n    tag_67:\n        /* \"contracts/DonateOnDEX.sol\":2951:2978  amounts[amounts.length - 1] */\n      dup2\n      mload\n      dup2\n      lt\n      tag_68\n      jumpi\n      tag_69\n      tag_37\n      jump\t// in\n    tag_69:\n    tag_68:\n      0x20\n      mul\n      0x20\n      add\n      add\n      mload\n        /* \"contracts/DonateOnDEX.sol\":2922:2979  payable(msg.sender).transfer(amounts[amounts.length - 1]) */\n      swap1\n      dup2\n      iszero\n      mul\n      swap1\n      mload(0x40)\n      0x00\n      mload(0x40)\n      dup1\n      dup4\n      sub\n      dup2\n      dup6\n      dup9\n      dup9\n      call\n      swap4\n      pop\n      pop\n      pop\n      pop\n      iszero\n      dup1\n      iszero\n      tag_71\n      jumpi\n      returndatasize\n      0x00\n      dup1\n      returndatacopy\n      revert(0x00, returndatasize)\n    tag_71:\n      pop\n        /* \"contracts/DonateOnDEX.sol\":2989:2993  pool */\n      0x00\n      dup1\n      sload\n      swap1\n      0x0100\n      exp\n      swap1\n      div\n      0xffffffffffffffffffffffffffffffffffffffff\n      and\n        /* \"contracts/DonateOnDEX.sol\":2989:3002  pool.transfer */\n      0xffffffffffffffffffffffffffffffffffffffff\n      and\n        /* \"contracts/DonateOnDEX.sol\":2989:3012  pool.transfer(donation) */\n      0x08fc\n        /* \"contracts/DonateOnDEX.sol\":3003:3011  donation */\n      dup3\n        /* \"contracts/DonateOnDEX.sol\":2989:3012  pool.transfer(donation) */\n      swap1\n      dup2\n      iszero\n      mul\n      swap1\n      mload(0x40)\n      0x00\n      mload(0x40)\n      dup1\n      dup4\n      sub\n      dup2\n      dup6\n      dup9\n      dup9\n      call\n      swap4\n      pop\n      pop\n      pop\n      pop\n      iszero\n      dup1\n      iszero\n      tag_73\n      jumpi\n      returndatasize\n      0x00\n      dup1\n      returndatacopy\n      revert(0x00, returndatasize)\n    tag_73:\n      pop\n        /* \"contracts/DonateOnDEX.sol\":3023:3037  return amounts */\n      pop\n        /* \"contracts/DonateOnDEX.sol\":2115:3044  function swapExactTokensForETH(... */\n      swap8\n      swap7\n      pop\n      pop\n      pop\n      pop\n      pop\n      pop\n      pop\n      jump\t// out\n        /* \"contracts/DonateOnDEX.sol\":1056:2109  function swapTokensForExactETH(... */\n    tag_22:\n        /* \"contracts/DonateOnDEX.sol\":1289:1313  uint256[] memory amounts */\n      0x60\n        /* \"contracts/DonateOnDEX.sol\":1325:1491  IERC20(path[0]).safeTransferFrom(... */\n      tag_75\n        /* \"contracts/DonateOnDEX.sol\":1371:1381  msg.sender */\n      caller\n        /* \"contracts/DonateOnDEX.sol\":1403:1407  this */\n      address\n        /* \"contracts/DonateOnDEX.sol\":1441:1447  router */\n      dup11\n        /* \"contracts/DonateOnDEX.sol\":1422:1461  IUniswapV2Router01(router).getAmountsIn */\n      0xffffffffffffffffffffffffffffffffffffffff\n      and\n      0x1f00ca74\n        /* \"contracts/DonateOnDEX.sol\":1462:1471  amountOut */\n      dup11\n        /* \"contracts/DonateOnDEX.sol\":1473:1477  path */\n      dup10\n      dup10\n        /* \"contracts/DonateOnDEX.sol\":1422:1478  IUniswapV2Router01(router).getAmountsIn(amountOut, path) */\n      mload(0x40)\n      dup5\n      0xffffffff\n      and\n      0xe0\n      shl\n      dup2\n      mstore\n      0x04\n      add\n      tag_76\n      swap4\n      swap3\n      swap2\n      swap1\n      tag_77\n      jump\t// in\n    tag_76:\n      0x00\n      mload(0x40)\n      dup1\n      dup4\n      sub\n      dup2\n      dup7\n      gas\n      staticcall\n      iszero\n      dup1\n      iszero\n      tag_79\n      jumpi\n      returndatasize\n      0x00\n      dup1\n      returndatacopy\n      revert(0x00, returndatasize)\n    tag_79:\n      pop\n      pop\n      pop\n      pop\n      mload(0x40)\n      returndatasize\n      0x00\n      dup3\n      returndatacopy\n      returndatasize\n      not(0x1f)\n      0x1f\n      dup3\n      add\n      and\n      dup3\n      add\n      dup1\n      0x40\n      mstore\n      pop\n      dup2\n      add\n      swap1\n      tag_80\n      swap2\n      swap1\n      tag_51\n      jump\t// in\n    tag_80:\n        /* \"contracts/DonateOnDEX.sol\":1479:1480  0 */\n      0x00\n        /* \"contracts/DonateOnDEX.sol\":1422:1481  IUniswapV2Router01(router).getAmountsIn(amountOut, path)[0] */\n      dup2\n      mload\n      dup2\n      lt\n      tag_81\n      jumpi\n      tag_82\n      tag_37\n      jump\t// in\n    tag_82:\n    tag_81:\n      0x20\n      mul\n      0x20\n      add\n      add\n      mload\n        /* \"contracts/DonateOnDEX.sol\":1332:1336  path */\n      dup8\n      dup8\n        /* \"contracts/DonateOnDEX.sol\":1337:1338  0 */\n      0x00\n        /* \"contracts/DonateOnDEX.sol\":1332:1339  path[0] */\n      dup2\n      dup2\n      lt\n      tag_83\n      jumpi\n      tag_84\n      tag_37\n      jump\t// in\n    tag_84:\n    tag_83:\n      swap1\n      pop\n      0x20\n      mul\n      add\n      0x20\n      dup2\n      add\n      swap1\n      tag_85\n      swap2\n      swap1\n      tag_39\n      jump\t// in\n    tag_85:\n        /* \"contracts/DonateOnDEX.sol\":1325:1357  IERC20(path[0]).safeTransferFrom */\n      0xffffffffffffffffffffffffffffffffffffffff\n      and\n      tag_40\n      swap1\n        /* \"contracts/DonateOnDEX.sol\":1325:1491  IERC20(path[0]).safeTransferFrom(... */\n      swap4\n      swap3\n      swap2\n      swap1\n      0xffffffff\n      and\n      jump\t// in\n    tag_75:\n        /* \"contracts/DonateOnDEX.sol\":1502:1569  IERC20(path[0]).safeIncreaseAllowance(address(router), amountInMax) */\n      tag_86\n        /* \"contracts/DonateOnDEX.sol\":1548:1554  router */\n      dup9\n        /* \"contracts/DonateOnDEX.sol\":1557:1568  amountInMax */\n      dup7\n        /* \"contracts/DonateOnDEX.sol\":1509:1513  path */\n      dup7\n      dup7\n        /* \"contracts/DonateOnDEX.sol\":1514:1515  0 */\n      0x00\n        /* \"contracts/DonateOnDEX.sol\":1509:1516  path[0] */\n      dup2\n      dup2\n      lt\n      tag_87\n      jumpi\n      tag_88\n      tag_37\n      jump\t// in\n    tag_88:\n    tag_87:\n      swap1\n      pop\n      0x20\n      mul\n      add\n      0x20\n      dup2\n      add\n      swap1\n      tag_89\n      swap2\n      swap1\n      tag_39\n      jump\t// in\n    tag_89:\n        /* \"contracts/DonateOnDEX.sol\":1502:1539  IERC20(path[0]).safeIncreaseAllowance */\n      0xffffffffffffffffffffffffffffffffffffffff\n      and\n      tag_45\n      swap1\n        /* \"contracts/DonateOnDEX.sol\":1502:1569  IERC20(path[0]).safeIncreaseAllowance(address(router), amountInMax) */\n      swap3\n      swap2\n      swap1\n      0xffffffff\n      and\n      jump\t// in\n    tag_86:\n        /* \"contracts/DonateOnDEX.sol\":1609:1615  router */\n      dup8\n        /* \"contracts/DonateOnDEX.sol\":1590:1638  IUniswapV2Router01(router).swapTokensForExactETH */\n      0xffffffffffffffffffffffffffffffffffffffff\n      and\n      0x4a25d94a\n        /* \"contracts/DonateOnDEX.sol\":1652:1661  amountOut */\n      dup8\n        /* \"contracts/DonateOnDEX.sol\":1675:1686  amountInMax */\n      dup8\n        /* \"contracts/DonateOnDEX.sol\":1700:1704  path */\n      dup8\n      dup8\n        /* \"contracts/DonateOnDEX.sol\":1726:1730  this */\n      address\n        /* \"contracts/DonateOnDEX.sol\":1745:1753  deadline */\n      dup9\n        /* \"contracts/DonateOnDEX.sol\":1590:1763  IUniswapV2Router01(router).swapTokensForExactETH(... */\n      mload(0x40)\n      dup8\n      0xffffffff\n      and\n      0xe0\n      shl\n      dup2\n      mstore\n      0x04\n      add\n      tag_90\n      swap7\n      swap6\n      swap5\n      swap4\n      swap3\n      swap2\n      swap1\n      tag_47\n      jump\t// in\n    tag_90:\n      0x00\n      mload(0x40)\n      dup1\n      dup4\n      sub\n      dup2\n      0x00\n      dup8\n      gas\n      call\n      iszero\n      dup1\n      iszero\n      tag_92\n      jumpi\n      returndatasize\n      0x00\n      dup1\n      returndatacopy\n      revert(0x00, returndatasize)\n    tag_92:\n      pop\n      pop\n      pop\n      pop\n      mload(0x40)\n      returndatasize\n      0x00\n      dup3\n      returndatacopy\n      returndatasize\n      not(0x1f)\n      0x1f\n      dup3\n      add\n      and\n      dup3\n      add\n      dup1\n      0x40\n      mstore\n      pop\n      dup2\n      add\n      swap1\n      tag_93\n      swap2\n      swap1\n      tag_51\n      jump\t// in\n    tag_93:\n        /* \"contracts/DonateOnDEX.sol\":1580:1763  amounts = IUniswapV2Router01(router).swapTokensForExactETH(... */\n      swap1\n      pop\n        /* \"contracts/DonateOnDEX.sol\":1774:1821  IERC20(path[0]).safeApprove(address(router), 0) */\n      tag_94\n        /* \"contracts/DonateOnDEX.sol\":1810:1816  router */\n      dup9\n        /* \"contracts/DonateOnDEX.sol\":1819:1820  0 */\n      0x00\n        /* \"contracts/DonateOnDEX.sol\":1781:1785  path */\n      dup7\n      dup7\n        /* \"contracts/DonateOnDEX.sol\":1786:1787  0 */\n      0x00\n        /* \"contracts/DonateOnDEX.sol\":1781:1788  path[0] */\n      dup2\n      dup2\n      lt\n      tag_95\n      jumpi\n      tag_96\n      tag_37\n      jump\t// in\n    tag_96:\n    tag_95:\n      swap1\n      pop\n      0x20\n      mul\n      add\n      0x20\n      dup2\n      add\n      swap1\n      tag_97\n      swap2\n      swap1\n      tag_39\n      jump\t// in\n    tag_97:\n        /* \"contracts/DonateOnDEX.sol\":1774:1801  IERC20(path[0]).safeApprove */\n      0xffffffffffffffffffffffffffffffffffffffff\n      and\n      tag_98\n      swap1\n        /* \"contracts/DonateOnDEX.sol\":1774:1821  IERC20(path[0]).safeApprove(address(router), 0) */\n      swap3\n      swap2\n      swap1\n      0xffffffff\n      and\n      jump\t// in\n    tag_94:\n        /* \"contracts/DonateOnDEX.sol\":1832:1848  uint256 donation */\n      0x00\n        /* \"contracts/DonateOnDEX.sol\":1893:1898  10000 */\n      0x2710\n        /* \"contracts/DonateOnDEX.sol\":1882:1889  percent */\n      dup9\n        /* \"contracts/DonateOnDEX.sol\":1852:1859  amounts */\n      dup4\n        /* \"contracts/DonateOnDEX.sol\":1877:1878  1 */\n      0x01\n        /* \"contracts/DonateOnDEX.sol\":1860:1867  amounts */\n      dup6\n        /* \"contracts/DonateOnDEX.sol\":1860:1874  amounts.length */\n      mload\n        /* \"contracts/DonateOnDEX.sol\":1860:1878  amounts.length - 1 */\n      tag_99\n      swap2\n      swap1\n      tag_53\n      jump\t// in\n    tag_99:\n        /* \"contracts/DonateOnDEX.sol\":1852:1879  amounts[amounts.length - 1] */\n      dup2\n      mload\n      dup2\n      lt\n      tag_100\n      jumpi\n      tag_101\n      tag_37\n      jump\t// in\n    tag_101:\n    tag_100:\n      0x20\n      mul\n      0x20\n      add\n      add\n      mload\n        /* \"contracts/DonateOnDEX.sol\":1852:1889  amounts[amounts.length - 1] * percent */\n      tag_102\n      swap2\n      swap1\n      tag_57\n      jump\t// in\n    tag_102:\n        /* \"contracts/DonateOnDEX.sol\":1851:1898  (amounts[amounts.length - 1] * percent) / 10000 */\n      tag_103\n      swap2\n      swap1\n      tag_59\n      jump\t// in\n    tag_103:\n        /* \"contracts/DonateOnDEX.sol\":1832:1898  uint256 donation = (amounts[amounts.length - 1] * percent) / 10000 */\n      swap1\n      pop\n        /* \"contracts/DonateOnDEX.sol\":1968:1976  donation */\n      dup1\n        /* \"contracts/DonateOnDEX.sol\":1938:1945  amounts */\n      dup3\n        /* \"contracts/DonateOnDEX.sol\":1963:1964  1 */\n      0x01\n        /* \"contracts/DonateOnDEX.sol\":1946:1953  amounts */\n      dup5\n        /* \"contracts/DonateOnDEX.sol\":1946:1960  amounts.length */\n      mload\n        /* \"contracts/DonateOnDEX.sol\":1946:1964  amounts.length - 1 */\n      tag_104\n      swap2\n      swap1\n      tag_53\n      jump\t// in\n    tag_104:\n        /* \"contracts/DonateOnDEX.sol\":1938:1965  amounts[amounts.length - 1] */\n      dup2\n      mload\n      dup2\n      lt\n      tag_105\n      jumpi\n      tag_106\n      tag_37\n      jump\t// in\n    tag_106:\n    tag_105:\n      0x20\n      mul\n      0x20\n      add\n      add\n      mload\n        /* \"contracts/DonateOnDEX.sol\":1938:1976  amounts[amounts.length - 1] - donation */\n      tag_107\n      swap2\n      swap1\n      tag_53\n      jump\t// in\n    tag_107:\n        /* \"contracts/DonateOnDEX.sol\":1908:1915  amounts */\n      dup3\n        /* \"contracts/DonateOnDEX.sol\":1933:1934  1 */\n      0x01\n        /* \"contracts/DonateOnDEX.sol\":1916:1923  amounts */\n      dup5\n        /* \"contracts/DonateOnDEX.sol\":1916:1930  amounts.length */\n      mload\n        /* \"contracts/DonateOnDEX.sol\":1916:1934  amounts.length - 1 */\n      tag_108\n      swap2\n      swap1\n      tag_53\n      jump\t// in\n    tag_108:\n        /* \"contracts/DonateOnDEX.sol\":1908:1935  amounts[amounts.length - 1] */\n      dup2\n      mload\n      dup2\n      lt\n      tag_109\n      jumpi\n      tag_110\n      tag_37\n      jump\t// in\n    tag_110:\n    tag_109:\n      0x20\n      mul\n      0x20\n      add\n      add\n        /* \"contracts/DonateOnDEX.sol\":1908:1976  amounts[amounts.length - 1] = amounts[amounts.length - 1] - donation */\n      dup2\n      dup2\n      mstore\n      pop\n      pop\n        /* \"contracts/DonateOnDEX.sol\":1995:2005  msg.sender */\n      caller\n        /* \"contracts/DonateOnDEX.sol\":1987:2015  payable(msg.sender).transfer */\n      0xffffffffffffffffffffffffffffffffffffffff\n      and\n        /* \"contracts/DonateOnDEX.sol\":1987:2044  payable(msg.sender).transfer(amounts[amounts.length - 1]) */\n      0x08fc\n        /* \"contracts/DonateOnDEX.sol\":2016:2023  amounts */\n      dup4\n        /* \"contracts/DonateOnDEX.sol\":2041:2042  1 */\n      0x01\n        /* \"contracts/DonateOnDEX.sol\":2024:2031  amounts */\n      dup6\n        /* \"contracts/DonateOnDEX.sol\":2024:2038  amounts.length */\n      mload\n        /* \"contracts/DonateOnDEX.sol\":2024:2042  amounts.length - 1 */\n      tag_111\n      swap2\n      swap1\n      tag_53\n      jump\t// in\n    tag_111:\n        /* \"contracts/DonateOnDEX.sol\":2016:2043  amounts[amounts.length - 1] */\n      dup2\n      mload\n      dup2\n      lt\n      tag_112\n      jumpi\n      tag_113\n      tag_37\n      jump\t// in\n    tag_113:\n    tag_112:\n      0x20\n      mul\n      0x20\n      add\n      add\n      mload\n        /* \"contracts/DonateOnDEX.sol\":1987:2044  payable(msg.sender).transfer(amounts[amounts.length - 1]) */\n      swap1\n      dup2\n      iszero\n      mul\n      swap1\n      mload(0x40)\n      0x00\n      mload(0x40)\n      dup1\n      dup4\n      sub\n      dup2\n      dup6\n      dup9\n      dup9\n      call\n      swap4\n      pop\n      pop\n      pop\n      pop\n      iszero\n      dup1\n      iszero\n      tag_115\n      jumpi\n      returndatasize\n      0x00\n      dup1\n      returndatacopy\n      revert(0x00, returndatasize)\n    tag_115:\n      pop\n        /* \"contracts/DonateOnDEX.sol\":2054:2058  pool */\n      0x00\n      dup1\n      sload\n      swap1\n      0x0100\n      exp\n      swap1\n      div\n      0xffffffffffffffffffffffffffffffffffffffff\n      and\n        /* \"contracts/DonateOnDEX.sol\":2054:2067  pool.transfer */\n      0xffffffffffffffffffffffffffffffffffffffff\n      and\n        /* \"contracts/DonateOnDEX.sol\":2054:2077  pool.transfer(donation) */\n      0x08fc\n        /* \"contracts/DonateOnDEX.sol\":2068:2076  donation */\n      dup3\n        /* \"contracts/DonateOnDEX.sol\":2054:2077  pool.transfer(donation) */\n      swap1\n      dup2\n      iszero\n      mul\n      swap1\n      mload(0x40)\n      0x00\n      mload(0x40)\n      dup1\n      dup4\n      sub\n      dup2\n      dup6\n      dup9\n      dup9\n      call\n      swap4\n      pop\n      pop\n      pop\n      pop\n      iszero\n      dup1\n      iszero\n      tag_117\n      jumpi\n      returndatasize\n      0x00\n      dup1\n      returndatacopy\n      revert(0x00, returndatasize)\n    tag_117:\n      pop\n        /* \"contracts/DonateOnDEX.sol\":2088:2102  return amounts */\n      pop\n        /* \"contracts/DonateOnDEX.sol\":1056:2109  function swapTokensForExactETH(... */\n      swap8\n      swap7\n      pop\n      pop\n      pop\n      pop\n      pop\n      pop\n      pop\n      jump\t// out\n        /* \"contracts/DonateOnDEX.sol\":347:1050  function swapExactETHForTokens(... */\n    tag_27:\n        /* \"contracts/DonateOnDEX.sol\":562:586  uint256[] memory amounts */\n      0x60\n        /* \"contracts/DonateOnDEX.sol\":618:619  0 */\n      0x00\n        /* \"contracts/DonateOnDEX.sol\":606:615  msg.value */\n      callvalue\n        /* \"contracts/DonateOnDEX.sol\":606:619  msg.value > 0 */\n      gt\n        /* \"contracts/DonateOnDEX.sol\":598:637  require(msg.value > 0, \"No msg.value!\") */\n      tag_119\n      jumpi\n      mload(0x40)\n      0x08c379a000000000000000000000000000000000000000000000000000000000\n      dup2\n      mstore\n      0x04\n      add\n      tag_120\n      swap1\n      tag_121\n      jump\t// in\n    tag_120:\n      mload(0x40)\n      dup1\n      swap2\n      sub\n      swap1\n      revert\n    tag_119:\n        /* \"contracts/DonateOnDEX.sol\":648:664  uint256 donation */\n      0x00\n        /* \"contracts/DonateOnDEX.sol\":691:696  10000 */\n      0x2710\n        /* \"contracts/DonateOnDEX.sol\":680:687  percent */\n      dup8\n        /* \"contracts/DonateOnDEX.sol\":668:677  msg.value */\n      callvalue\n        /* \"contracts/DonateOnDEX.sol\":668:687  msg.value * percent */\n      tag_122\n      swap2\n      swap1\n      tag_57\n      jump\t// in\n    tag_122:\n        /* \"contracts/DonateOnDEX.sol\":667:696  (msg.value * percent) / 10000 */\n      tag_123\n      swap2\n      swap1\n      tag_59\n      jump\t// in\n    tag_123:\n        /* \"contracts/DonateOnDEX.sol\":648:696  uint256 donation = (msg.value * percent) / 10000 */\n      swap1\n      pop\n        /* \"contracts/DonateOnDEX.sol\":736:742  router */\n      dup8\n        /* \"contracts/DonateOnDEX.sol\":717:765  IUniswapV2Router01(router).swapExactETHForTokens */\n      0xffffffffffffffffffffffffffffffffffffffff\n      and\n      0x7ff36ab5\n        /* \"contracts/DonateOnDEX.sol\":798:806  donation */\n      dup3\n        /* \"contracts/DonateOnDEX.sol\":786:795  msg.value */\n      callvalue\n        /* \"contracts/DonateOnDEX.sol\":786:806  msg.value - donation */\n      tag_124\n      swap2\n      swap1\n      tag_53\n      jump\t// in\n    tag_124:\n        /* \"contracts/DonateOnDEX.sol\":817:829  amountOutMin */\n      dup9\n        /* \"contracts/DonateOnDEX.sol\":831:835  path */\n      dup9\n      dup9\n        /* \"contracts/DonateOnDEX.sol\":845:849  this */\n      address\n        /* \"contracts/DonateOnDEX.sol\":852:860  deadline */\n      dup10\n        /* \"contracts/DonateOnDEX.sol\":717:861  IUniswapV2Router01(router).swapExactETHForTokens{... */\n      mload(0x40)\n      dup8\n      0xffffffff\n      and\n      0xe0\n      shl\n      dup2\n      mstore\n      0x04\n      add\n      tag_125\n      swap6\n      swap5\n      swap4\n      swap3\n      swap2\n      swap1\n      tag_126\n      jump\t// in\n    tag_125:\n      0x00\n      mload(0x40)\n      dup1\n      dup4\n      sub\n      dup2\n      dup6\n      dup9\n      gas\n      call\n      iszero\n      dup1\n      iszero\n      tag_128\n      jumpi\n      returndatasize\n      0x00\n      dup1\n      returndatacopy\n      revert(0x00, returndatasize)\n    tag_128:\n      pop\n      pop\n      pop\n      pop\n      pop\n      mload(0x40)\n      returndatasize\n      0x00\n      dup3\n      returndatacopy\n      returndatasize\n      not(0x1f)\n      0x1f\n      dup3\n      add\n      and\n      dup3\n      add\n      dup1\n      0x40\n      mstore\n      pop\n      dup2\n      add\n      swap1\n      tag_129\n      swap2\n      swap1\n      tag_51\n      jump\t// in\n    tag_129:\n        /* \"contracts/DonateOnDEX.sol\":707:861  amounts = IUniswapV2Router01(router).swapExactETHForTokens{... */\n      swap2\n      pop\n        /* \"contracts/DonateOnDEX.sol\":872:986  IERC20(path[path.length - 1]).safeTransfer(... */\n      tag_130\n        /* \"contracts/DonateOnDEX.sol\":928:938  msg.sender */\n      caller\n        /* \"contracts/DonateOnDEX.sol\":952:959  amounts */\n      dup4\n        /* \"contracts/DonateOnDEX.sol\":974:975  1 */\n      0x01\n        /* \"contracts/DonateOnDEX.sol\":960:964  path */\n      dup9\n      dup9\n        /* \"contracts/DonateOnDEX.sol\":960:971  path.length */\n      swap1\n      pop\n        /* \"contracts/DonateOnDEX.sol\":960:975  path.length - 1 */\n      tag_131\n      swap2\n      swap1\n      tag_53\n      jump\t// in\n    tag_131:\n        /* \"contracts/DonateOnDEX.sol\":952:976  amounts[path.length - 1] */\n      dup2\n      mload\n      dup2\n      lt\n      tag_132\n      jumpi\n      tag_133\n      tag_37\n      jump\t// in\n    tag_133:\n    tag_132:\n      0x20\n      mul\n      0x20\n      add\n      add\n      mload\n        /* \"contracts/DonateOnDEX.sol\":879:883  path */\n      dup8\n      dup8\n        /* \"contracts/DonateOnDEX.sol\":898:899  1 */\n      0x01\n        /* \"contracts/DonateOnDEX.sol\":884:888  path */\n      dup11\n      dup11\n        /* \"contracts/DonateOnDEX.sol\":884:895  path.length */\n      swap1\n      pop\n        /* \"contracts/DonateOnDEX.sol\":884:899  path.length - 1 */\n      tag_134\n      swap2\n      swap1\n      tag_53\n      jump\t// in\n    tag_134:\n        /* \"contracts/DonateOnDEX.sol\":879:900  path[path.length - 1] */\n      dup2\n      dup2\n      lt\n      tag_135\n      jumpi\n      tag_136\n      tag_37\n      jump\t// in\n    tag_136:\n    tag_135:\n      swap1\n      pop\n      0x20\n      mul\n      add\n      0x20\n      dup2\n      add\n      swap1\n      tag_137\n      swap2\n      swap1\n      tag_39\n      jump\t// in\n    tag_137:\n        /* \"contracts/DonateOnDEX.sol\":872:914  IERC20(path[path.length - 1]).safeTransfer */\n      0xffffffffffffffffffffffffffffffffffffffff\n      and\n      tag_138\n      swap1\n        /* \"contracts/DonateOnDEX.sol\":872:986  IERC20(path[path.length - 1]).safeTransfer(... */\n      swap3\n      swap2\n      swap1\n      0xffffffff\n      and\n      jump\t// in\n    tag_130:\n        /* \"contracts/DonateOnDEX.sol\":996:1000  pool */\n      0x00\n      dup1\n      sload\n      swap1\n      0x0100\n      exp\n      swap1\n      div\n      0xffffffffffffffffffffffffffffffffffffffff\n      and\n        /* \"contracts/DonateOnDEX.sol\":996:1009  pool.transfer */\n      0xffffffffffffffffffffffffffffffffffffffff\n      and\n        /* \"contracts/DonateOnDEX.sol\":996:1019  pool.transfer(donation) */\n      0x08fc\n        /* \"contracts/DonateOnDEX.sol\":1010:1018  donation */\n      dup3\n        /* \"contracts/DonateOnDEX.sol\":996:1019  pool.transfer(donation) */\n      swap1\n      dup2\n      iszero\n      mul\n      swap1\n      mload(0x40)\n      0x00\n      mload(0x40)\n      dup1\n      dup4\n      sub\n      dup2\n      dup6\n      dup9\n      dup9\n      call\n      swap4\n      pop\n      pop\n      pop\n      pop\n      iszero\n      dup1\n      iszero\n      tag_140\n      jumpi\n      returndatasize\n      0x00\n      dup1\n      returndatacopy\n      revert(0x00, returndatasize)\n    tag_140:\n      pop\n        /* \"contracts/DonateOnDEX.sol\":1029:1043  return amounts */\n      pop\n        /* \"contracts/DonateOnDEX.sol\":347:1050  function swapExactETHForTokens(... */\n      swap7\n      swap6\n      pop\n      pop\n      pop\n      pop\n      pop\n      pop\n      jump\t// out\n        /* \"contracts/DonateOnDEX.sol\":3050:3922  function swapETHForExactTokens(... */\n    tag_31:\n        /* \"contracts/DonateOnDEX.sol\":3262:3286  uint256[] memory amounts */\n      0x60\n        /* \"contracts/DonateOnDEX.sol\":3318:3319  0 */\n      0x00\n        /* \"contracts/DonateOnDEX.sol\":3306:3315  msg.value */\n      callvalue\n        /* \"contracts/DonateOnDEX.sol\":3306:3319  msg.value > 0 */\n      gt\n        /* \"contracts/DonateOnDEX.sol\":3298:3337  require(msg.value > 0, \"No msg.value!\") */\n      tag_142\n      jumpi\n      mload(0x40)\n      0x08c379a000000000000000000000000000000000000000000000000000000000\n      dup2\n      mstore\n      0x04\n      add\n      tag_143\n      swap1\n      tag_121\n      jump\t// in\n    tag_143:\n      mload(0x40)\n      dup1\n      swap2\n      sub\n      swap1\n      revert\n    tag_142:\n        /* \"contracts/DonateOnDEX.sol\":3347:3364  uint256 amountsIn */\n      0x00\n        /* \"contracts/DonateOnDEX.sol\":3386:3392  router */\n      dup8\n        /* \"contracts/DonateOnDEX.sol\":3367:3406  IUniswapV2Router01(router).getAmountsIn */\n      0xffffffffffffffffffffffffffffffffffffffff\n      and\n      0x1f00ca74\n        /* \"contracts/DonateOnDEX.sol\":3420:3429  amountOut */\n      dup8\n        /* \"contracts/DonateOnDEX.sol\":3443:3447  path */\n      dup8\n      dup8\n        /* \"contracts/DonateOnDEX.sol\":3367:3457  IUniswapV2Router01(router).getAmountsIn(... */\n      mload(0x40)\n      dup5\n      0xffffffff\n      and\n      0xe0\n      shl\n      dup2\n      mstore\n      0x04\n      add\n      tag_144\n      swap4\n      swap3\n      swap2\n      swap1\n      tag_77\n      jump\t// in\n    tag_144:\n      0x00\n      mload(0x40)\n      dup1\n      dup4\n      sub\n      dup2\n      dup7\n      gas\n      staticcall\n      iszero\n      dup1\n      iszero\n      tag_146\n      jumpi\n      returndatasize\n      0x00\n      dup1\n      returndatacopy\n      revert(0x00, returndatasize)\n    tag_146:\n      pop\n      pop\n      pop\n      pop\n      mload(0x40)\n      returndatasize\n      0x00\n      dup3\n      returndatacopy\n      returndatasize\n      not(0x1f)\n      0x1f\n      dup3\n      add\n      and\n      dup3\n      add\n      dup1\n      0x40\n      mstore\n      pop\n      dup2\n      add\n      swap1\n      tag_147\n      swap2\n      swap1\n      tag_51\n      jump\t// in\n    tag_147:\n        /* \"contracts/DonateOnDEX.sol\":3458:3459  1 */\n      0x01\n        /* \"contracts/DonateOnDEX.sol\":3367:3460  IUniswapV2Router01(router).getAmountsIn(... */\n      dup2\n      mload\n      dup2\n      lt\n      tag_148\n      jumpi\n      tag_149\n      tag_37\n      jump\t// in\n    tag_149:\n    tag_148:\n      0x20\n      mul\n      0x20\n      add\n      add\n      mload\n        /* \"contracts/DonateOnDEX.sol\":3347:3460  uint256 amountsIn = IUniswapV2Router01(router).getAmountsIn(... */\n      swap1\n      pop\n        /* \"contracts/DonateOnDEX.sol\":3471:3487  uint256 donation */\n      0x00\n        /* \"contracts/DonateOnDEX.sol\":3514:3519  10000 */\n      0x2710\n        /* \"contracts/DonateOnDEX.sol\":3503:3510  percent */\n      dup9\n        /* \"contracts/DonateOnDEX.sol\":3491:3500  amountsIn */\n      dup4\n        /* \"contracts/DonateOnDEX.sol\":3491:3510  amountsIn * percent */\n      tag_150\n      swap2\n      swap1\n      tag_57\n      jump\t// in\n    tag_150:\n        /* \"contracts/DonateOnDEX.sol\":3490:3519  (amountsIn * percent) / 10000 */\n      tag_151\n      swap2\n      swap1\n      tag_59\n      jump\t// in\n    tag_151:\n        /* \"contracts/DonateOnDEX.sol\":3471:3519  uint256 donation = (amountsIn * percent) / 10000 */\n      swap1\n      pop\n        /* \"contracts/DonateOnDEX.sol\":3566:3571  10000 */\n      0x2710\n        /* \"contracts/DonateOnDEX.sol\":3555:3562  percent */\n      dup9\n        /* \"contracts/DonateOnDEX.sol\":3543:3552  amountOut */\n      dup9\n        /* \"contracts/DonateOnDEX.sol\":3543:3562  amountOut * percent */\n      tag_152\n      swap2\n      swap1\n      tag_57\n      jump\t// in\n    tag_152:\n        /* \"contracts/DonateOnDEX.sol\":3542:3571  (amountOut * percent) / 10000 */\n      tag_153\n      swap2\n      swap1\n      tag_59\n      jump\t// in\n    tag_153:\n        /* \"contracts/DonateOnDEX.sol\":3530:3571  amountOut = (amountOut * percent) / 10000 */\n      swap7\n      pop\n        /* \"contracts/DonateOnDEX.sol\":3611:3617  router */\n      dup9\n        /* \"contracts/DonateOnDEX.sol\":3592:3640  IUniswapV2Router01(router).swapETHForExactTokens */\n      0xffffffffffffffffffffffffffffffffffffffff\n      and\n      0xfb3bdb41\n        /* \"contracts/DonateOnDEX.sol\":3673:3681  donation */\n      dup3\n        /* \"contracts/DonateOnDEX.sol\":3661:3670  msg.value */\n      callvalue\n        /* \"contracts/DonateOnDEX.sol\":3661:3681  msg.value - donation */\n      tag_154\n      swap2\n      swap1\n      tag_53\n      jump\t// in\n    tag_154:\n        /* \"contracts/DonateOnDEX.sol\":3692:3701  amountOut */\n      dup10\n        /* \"contracts/DonateOnDEX.sol\":3703:3707  path */\n      dup10\n      dup10\n        /* \"contracts/DonateOnDEX.sol\":3717:3721  this */\n      address\n        /* \"contracts/DonateOnDEX.sol\":3724:3732  deadline */\n      dup11\n        /* \"contracts/DonateOnDEX.sol\":3592:3733  IUniswapV2Router01(router).swapETHForExactTokens{... */\n      mload(0x40)\n      dup8\n      0xffffffff\n      and\n      0xe0\n      shl\n      dup2\n      mstore\n      0x04\n      add\n      tag_155\n      swap6\n      swap5\n      swap4\n      swap3\n      swap2\n      swap1\n      tag_126\n      jump\t// in\n    tag_155:\n      0x00\n      mload(0x40)\n      dup1\n      dup4\n      sub\n      dup2\n      dup6\n      dup9\n      gas\n      call\n      iszero\n      dup1\n      iszero\n      tag_157\n      jumpi\n      returndatasize\n      0x00\n      dup1\n      returndatacopy\n      revert(0x00, returndatasize)\n    tag_157:\n      pop\n      pop\n      pop\n      pop\n      pop\n      mload(0x40)\n      returndatasize\n      0x00\n      dup3\n      returndatacopy\n      returndatasize\n      not(0x1f)\n      0x1f\n      dup3\n      add\n      and\n      dup3\n      add\n      dup1\n      0x40\n      mstore\n      pop\n      dup2\n      add\n      swap1\n      tag_158\n      swap2\n      swap1\n      tag_51\n      jump\t// in\n    tag_158:\n        /* \"contracts/DonateOnDEX.sol\":3582:3733  amounts = IUniswapV2Router01(router).swapETHForExactTokens{... */\n      swap3\n      pop\n        /* \"contracts/DonateOnDEX.sol\":3744:3858  IERC20(path[path.length - 1]).safeTransfer(... */\n      tag_159\n        /* \"contracts/DonateOnDEX.sol\":3800:3810  msg.sender */\n      caller\n        /* \"contracts/DonateOnDEX.sol\":3824:3831  amounts */\n      dup5\n        /* \"contracts/DonateOnDEX.sol\":3846:3847  1 */\n      0x01\n        /* \"contracts/DonateOnDEX.sol\":3832:3836  path */\n      dup10\n      dup10\n        /* \"contracts/DonateOnDEX.sol\":3832:3843  path.length */\n      swap1\n      pop\n        /* \"contracts/DonateOnDEX.sol\":3832:3847  path.length - 1 */\n      tag_160\n      swap2\n      swap1\n      tag_53\n      jump\t// in\n    tag_160:\n        /* \"contracts/DonateOnDEX.sol\":3824:3848  amounts[path.length - 1] */\n      dup2\n      mload\n      dup2\n      lt\n      tag_161\n      jumpi\n      tag_162\n      tag_37\n      jump\t// in\n    tag_162:\n    tag_161:\n      0x20\n      mul\n      0x20\n      add\n      add\n      mload\n        /* \"contracts/DonateOnDEX.sol\":3751:3755  path */\n      dup9\n      dup9\n        /* \"contracts/DonateOnDEX.sol\":3770:3771  1 */\n      0x01\n        /* \"contracts/DonateOnDEX.sol\":3756:3760  path */\n      dup12\n      dup12\n        /* \"contracts/DonateOnDEX.sol\":3756:3767  path.length */\n      swap1\n      pop\n        /* \"contracts/DonateOnDEX.sol\":3756:3771  path.length - 1 */\n      tag_163\n      swap2\n      swap1\n      tag_53\n      jump\t// in\n    tag_163:\n        /* \"contracts/DonateOnDEX.sol\":3751:3772  path[path.length - 1] */\n      dup2\n      dup2\n      lt\n      tag_164\n      jumpi\n      tag_165\n      tag_37\n      jump\t// in\n    tag_165:\n    tag_164:\n      swap1\n      pop\n      0x20\n      mul\n      add\n      0x20\n      dup2\n      add\n      swap1\n      tag_166\n      swap2\n      swap1\n      tag_39\n      jump\t// in\n    tag_166:\n        /* \"contracts/DonateOnDEX.sol\":3744:3786  IERC20(path[path.length - 1]).safeTransfer */\n      0xffffffffffffffffffffffffffffffffffffffff\n      and\n      tag_138\n      swap1\n        /* \"contracts/DonateOnDEX.sol\":3744:3858  IERC20(path[path.length - 1]).safeTransfer(... */\n      swap3\n      swap2\n      swap1\n      0xffffffff\n      and\n      jump\t// in\n    tag_159:\n        /* \"contracts/DonateOnDEX.sol\":3868:3872  pool */\n      0x00\n      dup1\n      sload\n      swap1\n      0x0100\n      exp\n      swap1\n      div\n      0xffffffffffffffffffffffffffffffffffffffff\n      and\n        /* \"contracts/DonateOnDEX.sol\":3868:3881  pool.transfer */\n      0xffffffffffffffffffffffffffffffffffffffff\n      and\n        /* \"contracts/DonateOnDEX.sol\":3868:3891  pool.transfer(donation) */\n      0x08fc\n        /* \"contracts/DonateOnDEX.sol\":3882:3890  donation */\n      dup3\n        /* \"contracts/DonateOnDEX.sol\":3868:3891  pool.transfer(donation) */\n      swap1\n      dup2\n      iszero\n      mul\n      swap1\n      mload(0x40)\n      0x00\n      mload(0x40)\n      dup1\n      dup4\n      sub\n      dup2\n      dup6\n      dup9\n      dup9\n      call\n      swap4\n      pop\n      pop\n      pop\n      pop\n      iszero\n      dup1\n      iszero\n      tag_168\n      jumpi\n      returndatasize\n      0x00\n      dup1\n      returndatacopy\n      revert(0x00, returndatasize)\n    tag_168:\n      pop\n        /* \"contracts/DonateOnDEX.sol\":3901:3915  return amounts */\n      pop\n      pop\n        /* \"contracts/DonateOnDEX.sol\":3050:3922  function swapETHForExactTokens(... */\n      swap7\n      swap6\n      pop\n      pop\n      pop\n      pop\n      pop\n      pop\n      jump\t// out\n        /* \"@openzeppelin/contracts/token/ERC20/utils/SafeERC20.sol\":912:1153  function safeTransferFrom(... */\n    tag_40:\n        /* \"@openzeppelin/contracts/token/ERC20/utils/SafeERC20.sol\":1050:1146  _callOptionalReturn(token, abi.encodeWithSelector(token.transferFrom.selector, from, to, value)) */\n      tag_170\n        /* \"@openzeppelin/contracts/token/ERC20/utils/SafeERC20.sol\":1070:1075  token */\n      dup5\n        /* \"@openzeppelin/contracts/token/ERC20/utils/SafeERC20.sol\":1100:1127  token.transferFrom.selector */\n      shl(0xe0, 0x23b872dd)\n        /* \"@openzeppelin/contracts/token/ERC20/utils/SafeERC20.sol\":1129:1133  from */\n      dup6\n        /* \"@openzeppelin/contracts/token/ERC20/utils/SafeERC20.sol\":1135:1137  to */\n      dup6\n        /* \"@openzeppelin/contracts/token/ERC20/utils/SafeERC20.sol\":1139:1144  value */\n      dup6\n        /* \"@openzeppelin/contracts/token/ERC20/utils/SafeERC20.sol\":1077:1145  abi.encodeWithSelector(token.transferFrom.selector, from, to, value) */\n      add(0x24, mload(0x40))\n      tag_171\n      swap4\n      swap3\n      swap2\n      swap1\n      tag_172\n      jump\t// in\n    tag_171:\n      mload(0x40)\n      0x20\n      dup2\n      dup4\n      sub\n      sub\n      dup2\n      mstore\n      swap1\n      0x40\n      mstore\n      swap1\n      not(0xffffffffffffffffffffffffffffffffffffffffffffffffffffffff)\n      and\n      0x20\n      dup3\n      add\n      dup1\n      mload\n      0xffffffffffffffffffffffffffffffffffffffffffffffffffffffff\n      dup4\n      dup2\n      dup4\n      and\n      or\n      dup4\n      mstore\n      pop\n      pop\n      pop\n      pop\n        /* \"@openzeppelin/contracts/token/ERC20/utils/SafeERC20.sol\":1050:1069  _callOptionalReturn */\n      tag_173\n        /* \"@openzeppelin/contracts/token/ERC20/utils/SafeERC20.sol\":1050:1146  _callOptionalReturn(token, abi.encodeWithSelector(token.transferFrom.selector, from, to, value)) */\n      jump\t// in\n    tag_170:\n        /* \"@openzeppelin/contracts/token/ERC20/utils/SafeERC20.sol\":912:1153  function safeTransferFrom(... */\n      pop\n      pop\n      pop\n      pop\n      jump\t// out\n        /* \"@openzeppelin/contracts/token/ERC20/utils/SafeERC20.sol\":2022:2332  function safeIncreaseAllowance(... */\n    tag_45:\n        /* \"@openzeppelin/contracts/token/ERC20/utils/SafeERC20.sol\":2148:2168  uint256 newAllowance */\n      0x00\n        /* \"@openzeppelin/contracts/token/ERC20/utils/SafeERC20.sol\":2213:2218  value */\n      dup2\n        /* \"@openzeppelin/contracts/token/ERC20/utils/SafeERC20.sol\":2171:2176  token */\n      dup5\n        /* \"@openzeppelin/contracts/token/ERC20/utils/SafeERC20.sol\":2171:2186  token.allowance */\n      0xffffffffffffffffffffffffffffffffffffffff\n      and\n      0xdd62ed3e\n        /* \"@openzeppelin/contracts/token/ERC20/utils/SafeERC20.sol\":2195:2199  this */\n      address\n        /* \"@openzeppelin/contracts/token/ERC20/utils/SafeERC20.sol\":2202:2209  spender */\n      dup7\n        /* \"@openzeppelin/contracts/token/ERC20/utils/SafeERC20.sol\":2171:2210  token.allowance(address(this), spender) */\n      mload(0x40)\n      dup4\n      0xffffffff\n      and\n      0xe0\n      shl\n      dup2\n      mstore\n      0x04\n      add\n      tag_175\n      swap3\n      swap2\n      swap1\n      tag_176\n      jump\t// in\n    tag_175:\n      0x20\n      mload(0x40)\n      dup1\n      dup4\n      sub\n      dup2\n      dup7\n      gas\n      staticcall\n      iszero\n      dup1\n      iszero\n      tag_178\n      jumpi\n      returndatasize\n      0x00\n      dup1\n      returndatacopy\n      revert(0x00, returndatasize)\n    tag_178:\n      pop\n      pop\n      pop\n      pop\n      mload(0x40)\n      returndatasize\n      not(0x1f)\n      0x1f\n      dup3\n      add\n      and\n      dup3\n      add\n      dup1\n      0x40\n      mstore\n      pop\n      dup2\n      add\n      swap1\n      tag_179\n      swap2\n      swap1\n      tag_180\n      jump\t// in\n    tag_179:\n        /* \"@openzeppelin/contracts/token/ERC20/utils/SafeERC20.sol\":2171:2218  token.allowance(address(this), spender) + value */\n      tag_181\n      swap2\n      swap1\n      tag_182\n      jump\t// in\n    tag_181:\n        /* \"@openzeppelin/contracts/token/ERC20/utils/SafeERC20.sol\":2148:2218  uint256 newAllowance = token.allowance(address(this), spender) + value */\n      swap1\n      pop\n        /* \"@openzeppelin/contracts/token/ERC20/utils/SafeERC20.sol\":2228:2325  _callOptionalReturn(token, abi.encodeWithSelector(token.approve.selector, spender, newAllowance)) */\n      tag_183\n        /* \"@openzeppelin/contracts/token/ERC20/utils/SafeERC20.sol\":2248:2253  token */\n      dup5\n        /* \"@openzeppelin/contracts/token/ERC20/utils/SafeERC20.sol\":2278:2300  token.approve.selector */\n      shl(0xe0, 0x095ea7b3)\n        /* \"@openzeppelin/contracts/token/ERC20/utils/SafeERC20.sol\":2302:2309  spender */\n      dup6\n        /* \"@openzeppelin/contracts/token/ERC20/utils/SafeERC20.sol\":2311:2323  newAllowance */\n      dup5\n        /* \"@openzeppelin/contracts/token/ERC20/utils/SafeERC20.sol\":2255:2324  abi.encodeWithSelector(token.approve.selector, spender, newAllowance) */\n      add(0x24, mload(0x40))\n      tag_184\n      swap3\n      swap2\n      swap1\n      tag_185\n      jump\t// in\n    tag_184:\n      mload(0x40)\n      0x20\n      dup2\n      dup4\n      sub\n      sub\n      dup2\n      mstore\n      swap1\n      0x40\n      mstore\n      swap1\n      not(0xffffffffffffffffffffffffffffffffffffffffffffffffffffffff)\n      and\n      0x20\n      dup3\n      add\n      dup1\n      mload\n      0xffffffffffffffffffffffffffffffffffffffffffffffffffffffff\n      dup4\n      dup2\n      dup4\n      and\n      or\n      dup4\n      mstore\n      pop\n      pop\n      pop\n      pop\n        /* \"@openzeppelin/contracts/token/ERC20/utils/SafeERC20.sol\":2228:2247  _callOptionalReturn */\n      tag_173\n        /* \"@openzeppelin/contracts/token/ERC20/utils/SafeERC20.sol\":2228:2325  _callOptionalReturn(token, abi.encodeWithSelector(token.approve.selector, spender, newAllowance)) */\n      jump\t// in\n    tag_183:\n        /* \"@openzeppelin/contracts/token/ERC20/utils/SafeERC20.sol\":2138:2332  {... */\n      pop\n        /* \"@openzeppelin/contracts/token/ERC20/utils/SafeERC20.sol\":2022:2332  function safeIncreaseAllowance(... */\n      pop\n      pop\n      pop\n      jump\t// out\n        /* \"@openzeppelin/contracts/token/ERC20/utils/SafeERC20.sol\":1413:2016  function safeApprove(... */\n    tag_98:\n        /* \"@openzeppelin/contracts/token/ERC20/utils/SafeERC20.sol\":1777:1778  0 */\n      0x00\n        /* \"@openzeppelin/contracts/token/ERC20/utils/SafeERC20.sol\":1768:1773  value */\n      dup2\n        /* \"@openzeppelin/contracts/token/ERC20/utils/SafeERC20.sol\":1768:1778  value == 0 */\n      eq\n        /* \"@openzeppelin/contracts/token/ERC20/utils/SafeERC20.sol\":1767:1829  (value == 0) || (token.allowance(address(this), spender) == 0) */\n      dup1\n      tag_187\n      jumpi\n      pop\n        /* \"@openzeppelin/contracts/token/ERC20/utils/SafeERC20.sol\":1827:1828  0 */\n      0x00\n        /* \"@openzeppelin/contracts/token/ERC20/utils/SafeERC20.sol\":1784:1789  token */\n      dup4\n        /* \"@openzeppelin/contracts/token/ERC20/utils/SafeERC20.sol\":1784:1799  token.allowance */\n      0xffffffffffffffffffffffffffffffffffffffff\n      and\n      0xdd62ed3e\n        /* \"@openzeppelin/contracts/token/ERC20/utils/SafeERC20.sol\":1808:1812  this */\n      address\n        /* \"@openzeppelin/contracts/token/ERC20/utils/SafeERC20.sol\":1815:1822  spender */\n      dup6\n        /* \"@openzeppelin/contracts/token/ERC20/utils/SafeERC20.sol\":1784:1823  token.allowance(address(this), spender) */\n      mload(0x40)\n      dup4\n      0xffffffff\n      and\n      0xe0\n      shl\n      dup2\n      mstore\n      0x04\n      add\n      tag_188\n      swap3\n      swap2\n      swap1\n      tag_176\n      jump\t// in\n    tag_188:\n      0x20\n      mload(0x40)\n      dup1\n      dup4\n      sub\n      dup2\n      dup7\n      gas\n      staticcall\n      iszero\n      dup1\n      iszero\n      tag_190\n      jumpi\n      returndatasize\n      0x00\n      dup1\n      returndatacopy\n      revert(0x00, returndatasize)\n    tag_190:\n      pop\n      pop\n      pop\n      pop\n      mload(0x40)\n      returndatasize\n      not(0x1f)\n      0x1f\n      dup3\n      add\n      and\n      dup3\n      add\n      dup1\n      0x40\n      mstore\n      pop\n      dup2\n      add\n      swap1\n      tag_191\n      swap2\n      swap1\n      tag_180\n      jump\t// in\n    tag_191:\n        /* \"@openzeppelin/contracts/token/ERC20/utils/SafeERC20.sol\":1784:1828  token.allowance(address(this), spender) == 0 */\n      eq\n        /* \"@openzeppelin/contracts/token/ERC20/utils/SafeERC20.sol\":1767:1829  (value == 0) || (token.allowance(address(this), spender) == 0) */\n    tag_187:\n        /* \"@openzeppelin/contracts/token/ERC20/utils/SafeERC20.sol\":1746:1909  require(... */\n      tag_192\n      jumpi\n      mload(0x40)\n      0x08c379a000000000000000000000000000000000000000000000000000000000\n      dup2\n      mstore\n      0x04\n      add\n      tag_193\n      swap1\n      tag_194\n      jump\t// in\n    tag_193:\n      mload(0x40)\n      dup1\n      swap2\n      sub\n      swap1\n      revert\n    tag_192:\n        /* \"@openzeppelin/contracts/token/ERC20/utils/SafeERC20.sol\":1919:2009  _callOptionalReturn(token, abi.encodeWithSelector(token.approve.selector, spender, value)) */\n      tag_195\n        /* \"@openzeppelin/contracts/token/ERC20/utils/SafeERC20.sol\":1939:1944  token */\n      dup4\n        /* \"@openzeppelin/contracts/token/ERC20/utils/SafeERC20.sol\":1969:1991  token.approve.selector */\n      shl(0xe0, 0x095ea7b3)\n        /* \"@openzeppelin/contracts/token/ERC20/utils/SafeERC20.sol\":1993:2000  spender */\n      dup5\n        /* \"@openzeppelin/contracts/token/ERC20/utils/SafeERC20.sol\":2002:2007  value */\n      dup5\n        /* \"@openzeppelin/contracts/token/ERC20/utils/SafeERC20.sol\":1946:2008  abi.encodeWithSelector(token.approve.selector, spender, value) */\n      add(0x24, mload(0x40))\n      tag_196\n      swap3\n      swap2\n      swap1\n      tag_185\n      jump\t// in\n    tag_196:\n      mload(0x40)\n      0x20\n      dup2\n      dup4\n      sub\n      sub\n      dup2\n      mstore\n      swap1\n      0x40\n      mstore\n      swap1\n      not(0xffffffffffffffffffffffffffffffffffffffffffffffffffffffff)\n      and\n      0x20\n      dup3\n      add\n      dup1\n      mload\n      0xffffffffffffffffffffffffffffffffffffffffffffffffffffffff\n      dup4\n      dup2\n      dup4\n      and\n      or\n      dup4\n      mstore\n      pop\n      pop\n      pop\n      pop\n        /* \"@openzeppelin/contracts/token/ERC20/utils/SafeERC20.sol\":1919:1938  _callOptionalReturn */\n      tag_173\n        /* \"@openzeppelin/contracts/token/ERC20/utils/SafeERC20.sol\":1919:2009  _callOptionalReturn(token, abi.encodeWithSelector(token.approve.selector, spender, value)) */\n      jump\t// in\n    tag_195:\n        /* \"@openzeppelin/contracts/token/ERC20/utils/SafeERC20.sol\":1413:2016  function safeApprove(... */\n      pop\n      pop\n      pop\n      jump\t// out\n        /* \"@openzeppelin/contracts/token/ERC20/utils/SafeERC20.sol\":701:906  function safeTransfer(... */\n    tag_138:\n        /* \"@openzeppelin/contracts/token/ERC20/utils/SafeERC20.sol\":813:899  _callOptionalReturn(token, abi.encodeWithSelector(token.transfer.selector, to, value)) */\n      tag_198\n        /* \"@openzeppelin/contracts/token/ERC20/utils/SafeERC20.sol\":833:838  token */\n      dup4\n        /* \"@openzeppelin/contracts/token/ERC20/utils/SafeERC20.sol\":863:886  token.transfer.selector */\n      shl(0xe0, 0xa9059cbb)\n        /* \"@openzeppelin/contracts/token/ERC20/utils/SafeERC20.sol\":888:890  to */\n      dup5\n        /* \"@openzeppelin/contracts/token/ERC20/utils/SafeERC20.sol\":892:897  value */\n      dup5\n        /* \"@openzeppelin/contracts/token/ERC20/utils/SafeERC20.sol\":840:898  abi.encodeWithSelector(token.transfer.selector, to, value) */\n      add(0x24, mload(0x40))\n      tag_199\n      swap3\n      swap2\n      swap1\n      tag_185\n      jump\t// in\n    tag_199:\n      mload(0x40)\n      0x20\n      dup2\n      dup4\n      sub\n      sub\n      dup2\n      mstore\n      swap1\n      0x40\n      mstore\n      swap1\n      not(0xffffffffffffffffffffffffffffffffffffffffffffffffffffffff)\n      and\n      0x20\n      dup3\n      add\n      dup1\n      mload\n      0xffffffffffffffffffffffffffffffffffffffffffffffffffffffff\n      dup4\n      dup2\n      dup4\n      and\n      or\n      dup4\n      mstore\n      pop\n      pop\n      pop\n      pop\n        /* \"@openzeppelin/contracts/token/ERC20/utils/SafeERC20.sol\":813:832  _callOptionalReturn */\n      tag_173\n        /* \"@openzeppelin/contracts/token/ERC20/utils/SafeERC20.sol\":813:899  _callOptionalReturn(token, abi.encodeWithSelector(token.transfer.selector, to, value)) */\n      jump\t// in\n    tag_198:\n        /* \"@openzeppelin/contracts/token/ERC20/utils/SafeERC20.sol\":701:906  function safeTransfer(... */\n      pop\n      pop\n      pop\n      jump\t// out\n        /* \"@openzeppelin/contracts/token/ERC20/utils/SafeERC20.sol\":3207:3913  function _callOptionalReturn(IERC20 token, bytes memory data) private {... */\n    tag_173:\n        /* \"@openzeppelin/contracts/token/ERC20/utils/SafeERC20.sol\":3626:3649  bytes memory returndata */\n      0x00\n        /* \"@openzeppelin/contracts/token/ERC20/utils/SafeERC20.sol\":3652:3721  address(token).functionCall(data, \"SafeERC20: low-level call failed\") */\n      tag_201\n        /* \"@openzeppelin/contracts/token/ERC20/utils/SafeERC20.sol\":3680:3684  data */\n      dup3\n        /* \"@openzeppelin/contracts/token/ERC20/utils/SafeERC20.sol\":3652:3721  address(token).functionCall(data, \"SafeERC20: low-level call failed\") */\n      mload(0x40)\n      dup1\n      0x40\n      add\n      0x40\n      mstore\n      dup1\n      0x20\n      dup2\n      mstore\n      0x20\n      add\n      0x5361666545524332303a206c6f772d6c6576656c2063616c6c206661696c6564\n      dup2\n      mstore\n      pop\n        /* \"@openzeppelin/contracts/token/ERC20/utils/SafeERC20.sol\":3660:3665  token */\n      dup6\n        /* \"@openzeppelin/contracts/token/ERC20/utils/SafeERC20.sol\":3652:3679  address(token).functionCall */\n      0xffffffffffffffffffffffffffffffffffffffff\n      and\n      tag_202\n      swap1\n        /* \"@openzeppelin/contracts/token/ERC20/utils/SafeERC20.sol\":3652:3721  address(token).functionCall(data, \"SafeERC20: low-level call failed\") */\n      swap3\n      swap2\n      swap1\n      0xffffffff\n      and\n      jump\t// in\n    tag_201:\n        /* \"@openzeppelin/contracts/token/ERC20/utils/SafeERC20.sol\":3626:3721  bytes memory returndata = address(token).functionCall(data, \"SafeERC20: low-level call failed\") */\n      swap1\n      pop\n        /* \"@openzeppelin/contracts/token/ERC20/utils/SafeERC20.sol\":3755:3756  0 */\n      0x00\n        /* \"@openzeppelin/contracts/token/ERC20/utils/SafeERC20.sol\":3735:3745  returndata */\n      dup2\n        /* \"@openzeppelin/contracts/token/ERC20/utils/SafeERC20.sol\":3735:3752  returndata.length */\n      mload\n        /* \"@openzeppelin/contracts/token/ERC20/utils/SafeERC20.sol\":3735:3756  returndata.length > 0 */\n      gt\n        /* \"@openzeppelin/contracts/token/ERC20/utils/SafeERC20.sol\":3731:3907  if (returndata.length > 0) {... */\n      iszero\n      tag_203\n      jumpi\n        /* \"@openzeppelin/contracts/token/ERC20/utils/SafeERC20.sol\":3830:3840  returndata */\n      dup1\n        /* \"@openzeppelin/contracts/token/ERC20/utils/SafeERC20.sol\":3819:3849  abi.decode(returndata, (bool)) */\n      dup1\n      0x20\n      add\n      swap1\n      mload\n      dup2\n      add\n      swap1\n      tag_204\n      swap2\n      swap1\n      tag_205\n      jump\t// in\n    tag_204:\n        /* \"@openzeppelin/contracts/token/ERC20/utils/SafeERC20.sol\":3811:3896  require(abi.decode(returndata, (bool)), \"SafeERC20: ERC20 operation did not succeed\") */\n      tag_206\n      jumpi\n      mload(0x40)\n      0x08c379a000000000000000000000000000000000000000000000000000000000\n      dup2\n      mstore\n      0x04\n      add\n      tag_207\n      swap1\n      tag_208\n      jump\t// in\n    tag_207:\n      mload(0x40)\n      dup1\n      swap2\n      sub\n      swap1\n      revert\n    tag_206:\n        /* \"@openzeppelin/contracts/token/ERC20/utils/SafeERC20.sol\":3731:3907  if (returndata.length > 0) {... */\n    tag_203:\n        /* \"@openzeppelin/contracts/token/ERC20/utils/SafeERC20.sol\":3277:3913  {... */\n      pop\n        /* \"@openzeppelin/contracts/token/ERC20/utils/SafeERC20.sol\":3207:3913  function _callOptionalReturn(IERC20 token, bytes memory data) private {... */\n      pop\n      pop\n      jump\t// out\n        /* \"@openzeppelin/contracts/utils/Address.sol\":3861:4084  function functionCall(... */\n    tag_202:\n        /* \"@openzeppelin/contracts/utils/Address.sol\":3994:4006  bytes memory */\n      0x60\n        /* \"@openzeppelin/contracts/utils/Address.sol\":4025:4077  functionCallWithValue(target, data, 0, errorMessage) */\n      tag_210\n        /* \"@openzeppelin/contracts/utils/Address.sol\":4047:4053  target */\n      dup5\n        /* \"@openzeppelin/contracts/utils/Address.sol\":4055:4059  data */\n      dup5\n        /* \"@openzeppelin/contracts/utils/Address.sol\":4061:4062  0 */\n      0x00\n        /* \"@openzeppelin/contracts/utils/Address.sol\":4064:4076  errorMessage */\n      dup6\n        /* \"@openzeppelin/contracts/utils/Address.sol\":4025:4046  functionCallWithValue */\n      tag_211\n        /* \"@openzeppelin/contracts/utils/Address.sol\":4025:4077  functionCallWithValue(target, data, 0, errorMessage) */\n      jump\t// in\n    tag_210:\n        /* \"@openzeppelin/contracts/utils/Address.sol\":4018:4077  return functionCallWithValue(target, data, 0, errorMessage) */\n      swap1\n      pop\n        /* \"@openzeppelin/contracts/utils/Address.sol\":3861:4084  function functionCall(... */\n      swap4\n      swap3\n      pop\n      pop\n      pop\n      jump\t// out\n        /* \"@openzeppelin/contracts/utils/Address.sol\":4948:5447  function functionCallWithValue(... */\n    tag_211:\n        /* \"@openzeppelin/contracts/utils/Address.sol\":5113:5125  bytes memory */\n      0x60\n        /* \"@openzeppelin/contracts/utils/Address.sol\":5170:5175  value */\n      dup3\n        /* \"@openzeppelin/contracts/utils/Address.sol\":5145:5166  address(this).balance */\n      selfbalance\n        /* \"@openzeppelin/contracts/utils/Address.sol\":5145:5175  address(this).balance >= value */\n      lt\n      iszero\n        /* \"@openzeppelin/contracts/utils/Address.sol\":5137:5218  require(address(this).balance >= value, \"Address: insufficient balance for call\") */\n      tag_213\n      jumpi\n      mload(0x40)\n      0x08c379a000000000000000000000000000000000000000000000000000000000\n      dup2\n      mstore\n      0x04\n      add\n      tag_214\n      swap1\n      tag_215\n      jump\t// in\n    tag_214:\n      mload(0x40)\n      dup1\n      swap2\n      sub\n      swap1\n      revert\n    tag_213:\n        /* \"@openzeppelin/contracts/utils/Address.sol\":5236:5254  isContract(target) */\n      tag_216\n        /* \"@openzeppelin/contracts/utils/Address.sol\":5247:5253  target */\n      dup6\n        /* \"@openzeppelin/contracts/utils/Address.sol\":5236:5246  isContract */\n      tag_217\n        /* \"@openzeppelin/contracts/utils/Address.sol\":5236:5254  isContract(target) */\n      jump\t// in\n    tag_216:\n        /* \"@openzeppelin/contracts/utils/Address.sol\":5228:5288  require(isContract(target), \"Address: call to non-contract\") */\n      tag_218\n      jumpi\n      mload(0x40)\n      0x08c379a000000000000000000000000000000000000000000000000000000000\n      dup2\n      mstore\n      0x04\n      add\n      tag_219\n      swap1\n      tag_220\n      jump\t// in\n    tag_219:\n      mload(0x40)\n      dup1\n      swap2\n      sub\n      swap1\n      revert\n    tag_218:\n        /* \"@openzeppelin/contracts/utils/Address.sol\":5300:5312  bool success */\n      0x00\n        /* \"@openzeppelin/contracts/utils/Address.sol\":5314:5337  bytes memory returndata */\n      dup1\n        /* \"@openzeppelin/contracts/utils/Address.sol\":5341:5347  target */\n      dup7\n        /* \"@openzeppelin/contracts/utils/Address.sol\":5341:5352  target.call */\n      0xffffffffffffffffffffffffffffffffffffffff\n      and\n        /* \"@openzeppelin/contracts/utils/Address.sol\":5360:5365  value */\n      dup6\n        /* \"@openzeppelin/contracts/utils/Address.sol\":5367:5371  data */\n      dup8\n        /* \"@openzeppelin/contracts/utils/Address.sol\":5341:5372  target.call{value: value}(data) */\n      mload(0x40)\n      tag_221\n      swap2\n      swap1\n      tag_222\n      jump\t// in\n    tag_221:\n      0x00\n      mload(0x40)\n      dup1\n      dup4\n      sub\n      dup2\n      dup6\n      dup8\n      gas\n      call\n      swap3\n      pop\n      pop\n      pop\n      returndatasize\n      dup1\n      0x00\n      dup2\n      eq\n      tag_225\n      jumpi\n      mload(0x40)\n      swap2\n      pop\n      and(add(returndatasize, 0x3f), not(0x1f))\n      dup3\n      add\n      0x40\n      mstore\n      returndatasize\n      dup3\n      mstore\n      returndatasize\n      0x00\n      0x20\n      dup5\n      add\n      returndatacopy\n      jump(tag_224)\n    tag_225:\n      0x60\n      swap2\n      pop\n    tag_224:\n      pop\n        /* \"@openzeppelin/contracts/utils/Address.sol\":5299:5372  (bool success, bytes memory returndata) = target.call{value: value}(data) */\n      swap2\n      pop\n      swap2\n      pop\n        /* \"@openzeppelin/contracts/utils/Address.sol\":5389:5440  verifyCallResult(success, returndata, errorMessage) */\n      tag_226\n        /* \"@openzeppelin/contracts/utils/Address.sol\":5406:5413  success */\n      dup3\n        /* \"@openzeppelin/contracts/utils/Address.sol\":5415:5425  returndata */\n      dup3\n        /* \"@openzeppelin/contracts/utils/Address.sol\":5427:5439  errorMessage */\n      dup7\n        /* \"@openzeppelin/contracts/utils/Address.sol\":5389:5405  verifyCallResult */\n      tag_227\n        /* \"@openzeppelin/contracts/utils/Address.sol\":5389:5440  verifyCallResult(success, returndata, errorMessage) */\n      jump\t// in\n    tag_226:\n        /* \"@openzeppelin/contracts/utils/Address.sol\":5382:5440  return verifyCallResult(success, returndata, errorMessage) */\n      swap3\n      pop\n      pop\n      pop\n        /* \"@openzeppelin/contracts/utils/Address.sol\":4948:5447  function functionCallWithValue(... */\n      swap5\n      swap4\n      pop\n      pop\n      pop\n      pop\n      jump\t// out\n        /* \"@openzeppelin/contracts/utils/Address.sol\":1175:1495  function isContract(address account) internal view returns (bool) {... */\n    tag_217:\n        /* \"@openzeppelin/contracts/utils/Address.sol\":1235:1239  bool */\n      0x00\n        /* \"@openzeppelin/contracts/utils/Address.sol\":1487:1488  0 */\n      dup1\n        /* \"@openzeppelin/contracts/utils/Address.sol\":1465:1472  account */\n      dup3\n        /* \"@openzeppelin/contracts/utils/Address.sol\":1465:1484  account.code.length */\n      0xffffffffffffffffffffffffffffffffffffffff\n      and\n      extcodesize\n        /* \"@openzeppelin/contracts/utils/Address.sol\":1465:1488  account.code.length > 0 */\n      gt\n        /* \"@openzeppelin/contracts/utils/Address.sol\":1458:1488  return account.code.length > 0 */\n      swap1\n      pop\n        /* \"@openzeppelin/contracts/utils/Address.sol\":1175:1495  function isContract(address account) internal view returns (bool) {... */\n      swap2\n      swap1\n      pop\n      jump\t// out\n        /* \"@openzeppelin/contracts/utils/Address.sol\":7561:8253  function verifyCallResult(... */\n    tag_227:\n        /* \"@openzeppelin/contracts/utils/Address.sol\":7707:7719  bytes memory */\n      0x60\n        /* \"@openzeppelin/contracts/utils/Address.sol\":7735:7742  success */\n      dup4\n        /* \"@openzeppelin/contracts/utils/Address.sol\":7731:8247  if (success) {... */\n      iszero\n      tag_230\n      jumpi\n        /* \"@openzeppelin/contracts/utils/Address.sol\":7765:7775  returndata */\n      dup3\n        /* \"@openzeppelin/contracts/utils/Address.sol\":7758:7775  return returndata */\n      swap1\n      pop\n      jump(tag_229)\n        /* \"@openzeppelin/contracts/utils/Address.sol\":7731:8247  if (success) {... */\n    tag_230:\n        /* \"@openzeppelin/contracts/utils/Address.sol\":7896:7897  0 */\n      0x00\n        /* \"@openzeppelin/contracts/utils/Address.sol\":7876:7886  returndata */\n      dup4\n        /* \"@openzeppelin/contracts/utils/Address.sol\":7876:7893  returndata.length */\n      mload\n        /* \"@openzeppelin/contracts/utils/Address.sol\":7876:7897  returndata.length > 0 */\n      gt\n        /* \"@openzeppelin/contracts/utils/Address.sol\":7872:8237  if (returndata.length > 0) {... */\n      iszero\n      tag_232\n      jumpi\n        /* \"@openzeppelin/contracts/utils/Address.sol\":8070:8080  returndata */\n      dup3\n        /* \"@openzeppelin/contracts/utils/Address.sol\":8064:8081  mload(returndata) */\n      mload\n        /* \"@openzeppelin/contracts/utils/Address.sol\":8130:8145  returndata_size */\n      dup1\n        /* \"@openzeppelin/contracts/utils/Address.sol\":8117:8127  returndata */\n      dup5\n        /* \"@openzeppelin/contracts/utils/Address.sol\":8113:8115  32 */\n      0x20\n        /* \"@openzeppelin/contracts/utils/Address.sol\":8109:8128  add(32, returndata) */\n      add\n        /* \"@openzeppelin/contracts/utils/Address.sol\":8102:8146  revert(add(32, returndata), returndata_size) */\n      revert\n        /* \"@openzeppelin/contracts/utils/Address.sol\":7872:8237  if (returndata.length > 0) {... */\n    tag_232:\n        /* \"@openzeppelin/contracts/utils/Address.sol\":8209:8221  errorMessage */\n      dup2\n        /* \"@openzeppelin/contracts/utils/Address.sol\":8202:8222  revert(errorMessage) */\n      mload(0x40)\n      0x08c379a000000000000000000000000000000000000000000000000000000000\n      dup2\n      mstore\n      0x04\n      add\n      tag_234\n      swap2\n      swap1\n      tag_235\n      jump\t// in\n    tag_234:\n      mload(0x40)\n      dup1\n      swap2\n      sub\n      swap1\n      revert\n        /* \"@openzeppelin/contracts/utils/Address.sol\":7561:8253  function verifyCallResult(... */\n    tag_229:\n      swap4\n      swap3\n      pop\n      pop\n      pop\n      jump\t// out\n        /* \"#utility.yul\":7:133   */\n    tag_236:\n        /* \"#utility.yul\":44:51   */\n      0x00\n        /* \"#utility.yul\":84:126   */\n      0xffffffffffffffffffffffffffffffffffffffff\n        /* \"#utility.yul\":77:82   */\n      dup3\n        /* \"#utility.yul\":73:127   */\n      and\n        /* \"#utility.yul\":62:127   */\n      swap1\n      pop\n        /* \"#utility.yul\":7:133   */\n      swap2\n      swap1\n      pop\n      jump\t// out\n        /* \"#utility.yul\":139:243   */\n    tag_237:\n        /* \"#utility.yul\":184:191   */\n      0x00\n        /* \"#utility.yul\":213:237   */\n      tag_301\n        /* \"#utility.yul\":231:236   */\n      dup3\n        /* \"#utility.yul\":213:237   */\n      tag_236\n      jump\t// in\n    tag_301:\n        /* \"#utility.yul\":202:237   */\n      swap1\n      pop\n        /* \"#utility.yul\":139:243   */\n      swap2\n      swap1\n      pop\n      jump\t// out\n        /* \"#utility.yul\":249:391   */\n    tag_238:\n        /* \"#utility.yul\":352:384   */\n      tag_303\n        /* \"#utility.yul\":378:383   */\n      dup2\n        /* \"#utility.yul\":352:384   */\n      tag_237\n      jump\t// in\n    tag_303:\n        /* \"#utility.yul\":347:350   */\n      dup3\n        /* \"#utility.yul\":340:385   */\n      mstore\n        /* \"#utility.yul\":249:391   */\n      pop\n      pop\n      jump\t// out\n        /* \"#utility.yul\":397:651   */\n    tag_11:\n        /* \"#utility.yul\":506:510   */\n      0x00\n        /* \"#utility.yul\":544:546   */\n      0x20\n        /* \"#utility.yul\":533:542   */\n      dup3\n        /* \"#utility.yul\":529:547   */\n      add\n        /* \"#utility.yul\":521:547   */\n      swap1\n      pop\n        /* \"#utility.yul\":557:644   */\n      tag_305\n        /* \"#utility.yul\":641:642   */\n      0x00\n        /* \"#utility.yul\":630:639   */\n      dup4\n        /* \"#utility.yul\":626:643   */\n      add\n        /* \"#utility.yul\":617:623   */\n      dup5\n        /* \"#utility.yul\":557:644   */\n      tag_238\n      jump\t// in\n    tag_305:\n        /* \"#utility.yul\":397:651   */\n      swap3\n      swap2\n      pop\n      pop\n      jump\t// out\n        /* \"#utility.yul\":657:732   */\n    tag_239:\n        /* \"#utility.yul\":690:696   */\n      0x00\n        /* \"#utility.yul\":723:725   */\n      0x40\n        /* \"#utility.yul\":717:726   */\n      mload\n        /* \"#utility.yul\":707:726   */\n      swap1\n      pop\n        /* \"#utility.yul\":657:732   */\n      swap1\n      jump\t// out\n        /* \"#utility.yul\":738:855   */\n    tag_240:\n        /* \"#utility.yul\":847:848   */\n      0x00\n        /* \"#utility.yul\":844:845   */\n      dup1\n        /* \"#utility.yul\":837:849   */\n      revert\n        /* \"#utility.yul\":861:978   */\n    tag_241:\n        /* \"#utility.yul\":970:971   */\n      0x00\n        /* \"#utility.yul\":967:968   */\n      dup1\n        /* \"#utility.yul\":960:972   */\n      revert\n        /* \"#utility.yul\":984:1080   */\n    tag_242:\n        /* \"#utility.yul\":1021:1028   */\n      0x00\n        /* \"#utility.yul\":1050:1074   */\n      tag_310\n        /* \"#utility.yul\":1068:1073   */\n      dup3\n        /* \"#utility.yul\":1050:1074   */\n      tag_236\n      jump\t// in\n    tag_310:\n        /* \"#utility.yul\":1039:1074   */\n      swap1\n      pop\n        /* \"#utility.yul\":984:1080   */\n      swap2\n      swap1\n      pop\n      jump\t// out\n        /* \"#utility.yul\":1086:1208   */\n    tag_243:\n        /* \"#utility.yul\":1159:1183   */\n      tag_312\n        /* \"#utility.yul\":1177:1182   */\n      dup2\n        /* \"#utility.yul\":1159:1183   */\n      tag_242\n      jump\t// in\n    tag_312:\n        /* \"#utility.yul\":1152:1157   */\n      dup2\n        /* \"#utility.yul\":1149:1184   */\n      eq\n        /* \"#utility.yul\":1139:1202   */\n      tag_313\n      jumpi\n        /* \"#utility.yul\":1198:1199   */\n      0x00\n        /* \"#utility.yul\":1195:1196   */\n      dup1\n        /* \"#utility.yul\":1188:1200   */\n      revert\n        /* \"#utility.yul\":1139:1202   */\n    tag_313:\n        /* \"#utility.yul\":1086:1208   */\n      pop\n      jump\t// out\n        /* \"#utility.yul\":1214:1353   */\n    tag_244:\n        /* \"#utility.yul\":1260:1265   */\n      0x00\n        /* \"#utility.yul\":1298:1304   */\n      dup2\n        /* \"#utility.yul\":1285:1305   */\n      calldataload\n        /* \"#utility.yul\":1276:1305   */\n      swap1\n      pop\n        /* \"#utility.yul\":1314:1347   */\n      tag_315\n        /* \"#utility.yul\":1341:1346   */\n      dup2\n        /* \"#utility.yul\":1314:1347   */\n      tag_243\n      jump\t// in\n    tag_315:\n        /* \"#utility.yul\":1214:1353   */\n      swap3\n      swap2\n      pop\n      pop\n      jump\t// out\n        /* \"#utility.yul\":1359:1436   */\n    tag_245:\n        /* \"#utility.yul\":1396:1403   */\n      0x00\n        /* \"#utility.yul\":1425:1430   */\n      dup2\n        /* \"#utility.yul\":1414:1430   */\n      swap1\n      pop\n        /* \"#utility.yul\":1359:1436   */\n      swap2\n      swap1\n      pop\n      jump\t// out\n        /* \"#utility.yul\":1442:1564   */\n    tag_246:\n        /* \"#utility.yul\":1515:1539   */\n      tag_318\n        /* \"#utility.yul\":1533:1538   */\n      dup2\n        /* \"#utility.yul\":1515:1539   */\n      tag_245\n      jump\t// in\n    tag_318:\n        /* \"#utility.yul\":1508:1513   */\n      dup2\n        /* \"#utility.yul\":1505:1540   */\n      eq\n        /* \"#utility.yul\":1495:1558   */\n      tag_319\n      jumpi\n        /* \"#utility.yul\":1554:1555   */\n      0x00\n        /* \"#utility.yul\":1551:1552   */\n      dup1\n        /* \"#utility.yul\":1544:1556   */\n      revert\n        /* \"#utility.yul\":1495:1558   */\n    tag_319:\n        /* \"#utility.yul\":1442:1564   */\n      pop\n      jump\t// out\n        /* \"#utility.yul\":1570:1709   */\n    tag_247:\n        /* \"#utility.yul\":1616:1621   */\n      0x00\n        /* \"#utility.yul\":1654:1660   */\n      dup2\n        /* \"#utility.yul\":1641:1661   */\n      calldataload\n        /* \"#utility.yul\":1632:1661   */\n      swap1\n      pop\n        /* \"#utility.yul\":1670:1703   */\n      tag_321\n        /* \"#utility.yul\":1697:1702   */\n      dup2\n        /* \"#utility.yul\":1670:1703   */\n      tag_246\n      jump\t// in\n    tag_321:\n        /* \"#utility.yul\":1570:1709   */\n      swap3\n      swap2\n      pop\n      pop\n      jump\t// out\n        /* \"#utility.yul\":1715:1832   */\n    tag_248:\n        /* \"#utility.yul\":1824:1825   */\n      0x00\n        /* \"#utility.yul\":1821:1822   */\n      dup1\n        /* \"#utility.yul\":1814:1826   */\n      revert\n        /* \"#utility.yul\":1838:1955   */\n    tag_249:\n        /* \"#utility.yul\":1947:1948   */\n      0x00\n        /* \"#utility.yul\":1944:1945   */\n      dup1\n        /* \"#utility.yul\":1937:1949   */\n      revert\n        /* \"#utility.yul\":1961:2078   */\n    tag_250:\n        /* \"#utility.yul\":2070:2071   */\n      0x00\n        /* \"#utility.yul\":2067:2068   */\n      dup1\n        /* \"#utility.yul\":2060:2072   */\n      revert\n        /* \"#utility.yul\":2101:2669   */\n    tag_251:\n        /* \"#utility.yul\":2174:2182   */\n      0x00\n        /* \"#utility.yul\":2184:2190   */\n      dup1\n        /* \"#utility.yul\":2234:2237   */\n      dup4\n        /* \"#utility.yul\":2227:2231   */\n      0x1f\n        /* \"#utility.yul\":2219:2225   */\n      dup5\n        /* \"#utility.yul\":2215:2232   */\n      add\n        /* \"#utility.yul\":2211:2238   */\n      slt\n        /* \"#utility.yul\":2201:2323   */\n      tag_326\n      jumpi\n        /* \"#utility.yul\":2242:2321   */\n      tag_327\n      tag_248\n      jump\t// in\n    tag_327:\n        /* \"#utility.yul\":2201:2323   */\n    tag_326:\n        /* \"#utility.yul\":2355:2361   */\n      dup3\n        /* \"#utility.yul\":2342:2362   */\n      calldataload\n        /* \"#utility.yul\":2332:2362   */\n      swap1\n      pop\n        /* \"#utility.yul\":2385:2403   */\n      0xffffffffffffffff\n        /* \"#utility.yul\":2377:2383   */\n      dup2\n        /* \"#utility.yul\":2374:2404   */\n      gt\n        /* \"#utility.yul\":2371:2488   */\n      iszero\n      tag_328\n      jumpi\n        /* \"#utility.yul\":2407:2486   */\n      tag_329\n      tag_249\n      jump\t// in\n    tag_329:\n        /* \"#utility.yul\":2371:2488   */\n    tag_328:\n        /* \"#utility.yul\":2521:2525   */\n      0x20\n        /* \"#utility.yul\":2513:2519   */\n      dup4\n        /* \"#utility.yul\":2509:2526   */\n      add\n        /* \"#utility.yul\":2497:2526   */\n      swap2\n      pop\n        /* \"#utility.yul\":2575:2578   */\n      dup4\n        /* \"#utility.yul\":2567:2571   */\n      0x20\n        /* \"#utility.yul\":2559:2565   */\n      dup3\n        /* \"#utility.yul\":2555:2572   */\n      mul\n        /* \"#utility.yul\":2545:2553   */\n      dup4\n        /* \"#utility.yul\":2541:2573   */\n      add\n        /* \"#utility.yul\":2538:2579   */\n      gt\n        /* \"#utility.yul\":2535:2663   */\n      iszero\n      tag_330\n      jumpi\n        /* \"#utility.yul\":2582:2661   */\n      tag_331\n      tag_250\n      jump\t// in\n    tag_331:\n        /* \"#utility.yul\":2535:2663   */\n    tag_330:\n        /* \"#utility.yul\":2101:2669   */\n      swap3\n      pop\n      swap3\n      swap1\n      pop\n      jump\t// out\n        /* \"#utility.yul\":2675:3962   */\n    tag_15:\n        /* \"#utility.yul\":2806:2812   */\n      0x00\n        /* \"#utility.yul\":2814:2820   */\n      dup1\n        /* \"#utility.yul\":2822:2828   */\n      0x00\n        /* \"#utility.yul\":2830:2836   */\n      dup1\n        /* \"#utility.yul\":2838:2844   */\n      0x00\n        /* \"#utility.yul\":2846:2852   */\n      dup1\n        /* \"#utility.yul\":2854:2860   */\n      0x00\n        /* \"#utility.yul\":2903:2906   */\n      0xc0\n        /* \"#utility.yul\":2891:2900   */\n      dup9\n        /* \"#utility.yul\":2882:2889   */\n      dup11\n        /* \"#utility.yul\":2878:2901   */\n      sub\n        /* \"#utility.yul\":2874:2907   */\n      slt\n        /* \"#utility.yul\":2871:2991   */\n      iszero\n      tag_333\n      jumpi\n        /* \"#utility.yul\":2910:2989   */\n      tag_334\n      tag_240\n      jump\t// in\n    tag_334:\n        /* \"#utility.yul\":2871:2991   */\n    tag_333:\n        /* \"#utility.yul\":3030:3031   */\n      0x00\n        /* \"#utility.yul\":3055:3108   */\n      tag_335\n        /* \"#utility.yul\":3100:3107   */\n      dup11\n        /* \"#utility.yul\":3091:3097   */\n      dup3\n        /* \"#utility.yul\":3080:3089   */\n      dup12\n        /* \"#utility.yul\":3076:3098   */\n      add\n        /* \"#utility.yul\":3055:3108   */\n      tag_244\n      jump\t// in\n    tag_335:\n        /* \"#utility.yul\":3045:3108   */\n      swap8\n      pop\n        /* \"#utility.yul\":3001:3118   */\n      pop\n        /* \"#utility.yul\":3157:3159   */\n      0x20\n        /* \"#utility.yul\":3183:3236   */\n      tag_336\n        /* \"#utility.yul\":3228:3235   */\n      dup11\n        /* \"#utility.yul\":3219:3225   */\n      dup3\n        /* \"#utility.yul\":3208:3217   */\n      dup12\n        /* \"#utility.yul\":3204:3226   */\n      add\n        /* \"#utility.yul\":3183:3236   */\n      tag_247\n      jump\t// in\n    tag_336:\n        /* \"#utility.yul\":3173:3236   */\n      swap7\n      pop\n        /* \"#utility.yul\":3128:3246   */\n      pop\n        /* \"#utility.yul\":3285:3287   */\n      0x40\n        /* \"#utility.yul\":3311:3364   */\n      tag_337\n        /* \"#utility.yul\":3356:3363   */\n      dup11\n        /* \"#utility.yul\":3347:3353   */\n      dup3\n        /* \"#utility.yul\":3336:3345   */\n      dup12\n        /* \"#utility.yul\":3332:3354   */\n      add\n        /* \"#utility.yul\":3311:3364   */\n      tag_247\n      jump\t// in\n    tag_337:\n        /* \"#utility.yul\":3301:3364   */\n      swap6\n      pop\n        /* \"#utility.yul\":3256:3374   */\n      pop\n        /* \"#utility.yul\":3413:3415   */\n      0x60\n        /* \"#utility.yul\":3439:3492   */\n      tag_338\n        /* \"#utility.yul\":3484:3491   */\n      dup11\n        /* \"#utility.yul\":3475:3481   */\n      dup3\n        /* \"#utility.yul\":3464:3473   */\n      dup12\n        /* \"#utility.yul\":3460:3482   */\n      add\n        /* \"#utility.yul\":3439:3492   */\n      tag_247\n      jump\t// in\n    tag_338:\n        /* \"#utility.yul\":3429:3492   */\n      swap5\n      pop\n        /* \"#utility.yul\":3384:3502   */\n      pop\n        /* \"#utility.yul\":3569:3572   */\n      0x80\n        /* \"#utility.yul\":3558:3567   */\n      dup9\n        /* \"#utility.yul\":3554:3573   */\n      add\n        /* \"#utility.yul\":3541:3574   */\n      calldataload\n        /* \"#utility.yul\":3601:3619   */\n      0xffffffffffffffff\n        /* \"#utility.yul\":3593:3599   */\n      dup2\n        /* \"#utility.yul\":3590:3620   */\n      gt\n        /* \"#utility.yul\":3587:3704   */\n      iszero\n      tag_339\n      jumpi\n        /* \"#utility.yul\":3623:3702   */\n      tag_340\n      tag_241\n      jump\t// in\n    tag_340:\n        /* \"#utility.yul\":3587:3704   */\n    tag_339:\n        /* \"#utility.yul\":3736:3816   */\n      tag_341\n        /* \"#utility.yul\":3808:3815   */\n      dup11\n        /* \"#utility.yul\":3799:3805   */\n      dup3\n        /* \"#utility.yul\":3788:3797   */\n      dup12\n        /* \"#utility.yul\":3784:3806   */\n      add\n        /* \"#utility.yul\":3736:3816   */\n      tag_251\n      jump\t// in\n    tag_341:\n        /* \"#utility.yul\":3718:3816   */\n      swap4\n      pop\n      swap4\n      pop\n        /* \"#utility.yul\":3512:3826   */\n      pop\n        /* \"#utility.yul\":3865:3868   */\n      0xa0\n        /* \"#utility.yul\":3892:3945   */\n      tag_342\n        /* \"#utility.yul\":3937:3944   */\n      dup11\n        /* \"#utility.yul\":3928:3934   */\n      dup3\n        /* \"#utility.yul\":3917:3926   */\n      dup12\n        /* \"#utility.yul\":3913:3935   */\n      add\n        /* \"#utility.yul\":3892:3945   */\n      tag_247\n      jump\t// in\n    tag_342:\n        /* \"#utility.yul\":3882:3945   */\n      swap2\n      pop\n        /* \"#utility.yul\":3836:3955   */\n      pop\n        /* \"#utility.yul\":2675:3962   */\n      swap3\n      swap6\n      swap9\n      swap2\n      swap5\n      swap8\n      pop\n      swap3\n      swap6\n      pop\n      jump\t// out\n        /* \"#utility.yul\":3968:4082   */\n    tag_252:\n        /* \"#utility.yul\":4035:4041   */\n      0x00\n        /* \"#utility.yul\":4069:4074   */\n      dup2\n        /* \"#utility.yul\":4063:4075   */\n      mload\n        /* \"#utility.yul\":4053:4075   */\n      swap1\n      pop\n        /* \"#utility.yul\":3968:4082   */\n      swap2\n      swap1\n      pop\n      jump\t// out\n        /* \"#utility.yul\":4088:4272   */\n    tag_253:\n        /* \"#utility.yul\":4187:4198   */\n      0x00\n        /* \"#utility.yul\":4221:4227   */\n      dup3\n        /* \"#utility.yul\":4216:4219   */\n      dup3\n        /* \"#utility.yul\":4209:4228   */\n      mstore\n        /* \"#utility.yul\":4261:4265   */\n      0x20\n        /* \"#utility.yul\":4256:4259   */\n      dup3\n        /* \"#utility.yul\":4252:4266   */\n      add\n        /* \"#utility.yul\":4237:4266   */\n      swap1\n      pop\n        /* \"#utility.yul\":4088:4272   */\n      swap3\n      swap2\n      pop\n      pop\n      jump\t// out\n        /* \"#utility.yul\":4278:4410   */\n    tag_254:\n        /* \"#utility.yul\":4345:4349   */\n      0x00\n        /* \"#utility.yul\":4368:4371   */\n      dup2\n        /* \"#utility.yul\":4360:4371   */\n      swap1\n      pop\n        /* \"#utility.yul\":4398:4402   */\n      0x20\n        /* \"#utility.yul\":4393:4396   */\n      dup3\n        /* \"#utility.yul\":4389:4403   */\n      add\n        /* \"#utility.yul\":4381:4403   */\n      swap1\n      pop\n        /* \"#utility.yul\":4278:4410   */\n      swap2\n      swap1\n      pop\n      jump\t// out\n        /* \"#utility.yul\":4416:4524   */\n    tag_255:\n        /* \"#utility.yul\":4493:4517   */\n      tag_347\n        /* \"#utility.yul\":4511:4516   */\n      dup2\n        /* \"#utility.yul\":4493:4517   */\n      tag_245\n      jump\t// in\n    tag_347:\n        /* \"#utility.yul\":4488:4491   */\n      dup3\n        /* \"#utility.yul\":4481:4518   */\n      mstore\n        /* \"#utility.yul\":4416:4524   */\n      pop\n      pop\n      jump\t// out\n        /* \"#utility.yul\":4530:4709   */\n    tag_256:\n        /* \"#utility.yul\":4599:4609   */\n      0x00\n        /* \"#utility.yul\":4620:4666   */\n      tag_349\n        /* \"#utility.yul\":4662:4665   */\n      dup4\n        /* \"#utility.yul\":4654:4660   */\n      dup4\n        /* \"#utility.yul\":4620:4666   */\n      tag_255\n      jump\t// in\n    tag_349:\n        /* \"#utility.yul\":4698:4702   */\n      0x20\n        /* \"#utility.yul\":4693:4696   */\n      dup4\n        /* \"#utility.yul\":4689:4703   */\n      add\n        /* \"#utility.yul\":4675:4703   */\n      swap1\n      pop\n        /* \"#utility.yul\":4530:4709   */\n      swap3\n      swap2\n      pop\n      pop\n      jump\t// out\n        /* \"#utility.yul\":4715:4828   */\n    tag_257:\n        /* \"#utility.yul\":4785:4789   */\n      0x00\n        /* \"#utility.yul\":4817:4821   */\n      0x20\n        /* \"#utility.yul\":4812:4815   */\n      dup3\n        /* \"#utility.yul\":4808:4822   */\n      add\n        /* \"#utility.yul\":4800:4822   */\n      swap1\n      pop\n        /* \"#utility.yul\":4715:4828   */\n      swap2\n      swap1\n      pop\n      jump\t// out\n        /* \"#utility.yul\":4864:5596   */\n    tag_258:\n        /* \"#utility.yul\":4983:4986   */\n      0x00\n        /* \"#utility.yul\":5012:5066   */\n      tag_352\n        /* \"#utility.yul\":5060:5065   */\n      dup3\n        /* \"#utility.yul\":5012:5066   */\n      tag_252\n      jump\t// in\n    tag_352:\n        /* \"#utility.yul\":5082:5168   */\n      tag_353\n        /* \"#utility.yul\":5161:5167   */\n      dup2\n        /* \"#utility.yul\":5156:5159   */\n      dup6\n        /* \"#utility.yul\":5082:5168   */\n      tag_253\n      jump\t// in\n    tag_353:\n        /* \"#utility.yul\":5075:5168   */\n      swap4\n      pop\n        /* \"#utility.yul\":5192:5248   */\n      tag_354\n        /* \"#utility.yul\":5242:5247   */\n      dup4\n        /* \"#utility.yul\":5192:5248   */\n      tag_254\n      jump\t// in\n    tag_354:\n        /* \"#utility.yul\":5271:5278   */\n      dup1\n        /* \"#utility.yul\":5302:5303   */\n      0x00\n        /* \"#utility.yul\":5287:5571   */\n    tag_355:\n        /* \"#utility.yul\":5312:5318   */\n      dup4\n        /* \"#utility.yul\":5309:5310   */\n      dup2\n        /* \"#utility.yul\":5306:5319   */\n      lt\n        /* \"#utility.yul\":5287:5571   */\n      iszero\n      tag_357\n      jumpi\n        /* \"#utility.yul\":5388:5394   */\n      dup2\n        /* \"#utility.yul\":5382:5395   */\n      mload\n        /* \"#utility.yul\":5415:5478   */\n      tag_358\n        /* \"#utility.yul\":5474:5477   */\n      dup9\n        /* \"#utility.yul\":5459:5472   */\n      dup3\n        /* \"#utility.yul\":5415:5478   */\n      tag_256\n      jump\t// in\n    tag_358:\n        /* \"#utility.yul\":5408:5478   */\n      swap8\n      pop\n        /* \"#utility.yul\":5501:5561   */\n      tag_359\n        /* \"#utility.yul\":5554:5560   */\n      dup4\n        /* \"#utility.yul\":5501:5561   */\n      tag_257\n      jump\t// in\n    tag_359:\n        /* \"#utility.yul\":5491:5561   */\n      swap3\n      pop\n        /* \"#utility.yul\":5347:5571   */\n      pop\n        /* \"#utility.yul\":5334:5335   */\n      0x01\n        /* \"#utility.yul\":5331:5332   */\n      dup2\n        /* \"#utility.yul\":5327:5336   */\n      add\n        /* \"#utility.yul\":5322:5336   */\n      swap1\n      pop\n        /* \"#utility.yul\":5287:5571   */\n      jump(tag_355)\n    tag_357:\n        /* \"#utility.yul\":5291:5305   */\n      pop\n        /* \"#utility.yul\":5587:5590   */\n      dup6\n        /* \"#utility.yul\":5580:5590   */\n      swap4\n      pop\n        /* \"#utility.yul\":4988:5596   */\n      pop\n      pop\n      pop\n        /* \"#utility.yul\":4864:5596   */\n      swap3\n      swap2\n      pop\n      pop\n      jump\t// out\n        /* \"#utility.yul\":5602:5975   */\n    tag_18:\n        /* \"#utility.yul\":5745:5749   */\n      0x00\n        /* \"#utility.yul\":5783:5785   */\n      0x20\n        /* \"#utility.yul\":5772:5781   */\n      dup3\n        /* \"#utility.yul\":5768:5786   */\n      add\n        /* \"#utility.yul\":5760:5786   */\n      swap1\n      pop\n        /* \"#utility.yul\":5832:5841   */\n      dup2\n        /* \"#utility.yul\":5826:5830   */\n      dup2\n        /* \"#utility.yul\":5822:5842   */\n      sub\n        /* \"#utility.yul\":5818:5819   */\n      0x00\n        /* \"#utility.yul\":5807:5816   */\n      dup4\n        /* \"#utility.yul\":5803:5820   */\n      add\n        /* \"#utility.yul\":5796:5843   */\n      mstore\n        /* \"#utility.yul\":5860:5968   */\n      tag_361\n        /* \"#utility.yul\":5963:5967   */\n      dup2\n        /* \"#utility.yul\":5954:5960   */\n      dup5\n        /* \"#utility.yul\":5860:5968   */\n      tag_258\n      jump\t// in\n    tag_361:\n        /* \"#utility.yul\":5852:5968   */\n      swap1\n      pop\n        /* \"#utility.yul\":5602:5975   */\n      swap3\n      swap2\n      pop\n      pop\n      jump\t// out\n        /* \"#utility.yul\":5981:7122   */\n    tag_26:\n        /* \"#utility.yul\":6103:6109   */\n      0x00\n        /* \"#utility.yul\":6111:6117   */\n      dup1\n        /* \"#utility.yul\":6119:6125   */\n      0x00\n        /* \"#utility.yul\":6127:6133   */\n      dup1\n        /* \"#utility.yul\":6135:6141   */\n      0x00\n        /* \"#utility.yul\":6143:6149   */\n      dup1\n        /* \"#utility.yul\":6192:6195   */\n      0xa0\n        /* \"#utility.yul\":6180:6189   */\n      dup8\n        /* \"#utility.yul\":6171:6178   */\n      dup10\n        /* \"#utility.yul\":6167:6190   */\n      sub\n        /* \"#utility.yul\":6163:6196   */\n      slt\n        /* \"#utility.yul\":6160:6280   */\n      iszero\n      tag_363\n      jumpi\n        /* \"#utility.yul\":6199:6278   */\n      tag_364\n      tag_240\n      jump\t// in\n    tag_364:\n        /* \"#utility.yul\":6160:6280   */\n    tag_363:\n        /* \"#utility.yul\":6319:6320   */\n      0x00\n        /* \"#utility.yul\":6344:6397   */\n      tag_365\n        /* \"#utility.yul\":6389:6396   */\n      dup10\n        /* \"#utility.yul\":6380:6386   */\n      dup3\n        /* \"#utility.yul\":6369:6378   */\n      dup11\n        /* \"#utility.yul\":6365:6387   */\n      add\n        /* \"#utility.yul\":6344:6397   */\n      tag_244\n      jump\t// in\n    tag_365:\n        /* \"#utility.yul\":6334:6397   */\n      swap7\n      pop\n        /* \"#utility.yul\":6290:6407   */\n      pop\n        /* \"#utility.yul\":6446:6448   */\n      0x20\n        /* \"#utility.yul\":6472:6525   */\n      tag_366\n        /* \"#utility.yul\":6517:6524   */\n      dup10\n        /* \"#utility.yul\":6508:6514   */\n      dup3\n        /* \"#utility.yul\":6497:6506   */\n      dup11\n        /* \"#utility.yul\":6493:6515   */\n      add\n        /* \"#utility.yul\":6472:6525   */\n      tag_247\n      jump\t// in\n    tag_366:\n        /* \"#utility.yul\":6462:6525   */\n      swap6\n      pop\n        /* \"#utility.yul\":6417:6535   */\n      pop\n        /* \"#utility.yul\":6574:6576   */\n      0x40\n        /* \"#utility.yul\":6600:6653   */\n      tag_367\n        /* \"#utility.yul\":6645:6652   */\n      dup10\n        /* \"#utility.yul\":6636:6642   */\n      dup3\n        /* \"#utility.yul\":6625:6634   */\n      dup11\n        /* \"#utility.yul\":6621:6643   */\n      add\n        /* \"#utility.yul\":6600:6653   */\n      tag_247\n      jump\t// in\n    tag_367:\n        /* \"#utility.yul\":6590:6653   */\n      swap5\n      pop\n        /* \"#utility.yul\":6545:6663   */\n      pop\n        /* \"#utility.yul\":6730:6732   */\n      0x60\n        /* \"#utility.yul\":6719:6728   */\n      dup8\n        /* \"#utility.yul\":6715:6733   */\n      add\n        /* \"#utility.yul\":6702:6734   */\n      calldataload\n        /* \"#utility.yul\":6761:6779   */\n      0xffffffffffffffff\n        /* \"#utility.yul\":6753:6759   */\n      dup2\n        /* \"#utility.yul\":6750:6780   */\n      gt\n        /* \"#utility.yul\":6747:6864   */\n      iszero\n      tag_368\n      jumpi\n        /* \"#utility.yul\":6783:6862   */\n      tag_369\n      tag_241\n      jump\t// in\n    tag_369:\n        /* \"#utility.yul\":6747:6864   */\n    tag_368:\n        /* \"#utility.yul\":6896:6976   */\n      tag_370\n        /* \"#utility.yul\":6968:6975   */\n      dup10\n        /* \"#utility.yul\":6959:6965   */\n      dup3\n        /* \"#utility.yul\":6948:6957   */\n      dup11\n        /* \"#utility.yul\":6944:6966   */\n      add\n        /* \"#utility.yul\":6896:6976   */\n      tag_251\n      jump\t// in\n    tag_370:\n        /* \"#utility.yul\":6878:6976   */\n      swap4\n      pop\n      swap4\n      pop\n        /* \"#utility.yul\":6673:6986   */\n      pop\n        /* \"#utility.yul\":7025:7028   */\n      0x80\n        /* \"#utility.yul\":7052:7105   */\n      tag_371\n        /* \"#utility.yul\":7097:7104   */\n      dup10\n        /* \"#utility.yul\":7088:7094   */\n      dup3\n        /* \"#utility.yul\":7077:7086   */\n      dup11\n        /* \"#utility.yul\":7073:7095   */\n      add\n        /* \"#utility.yul\":7052:7105   */\n      tag_247\n      jump\t// in\n    tag_371:\n        /* \"#utility.yul\":7042:7105   */\n      swap2\n      pop\n        /* \"#utility.yul\":6996:7115   */\n      pop\n        /* \"#utility.yul\":5981:7122   */\n      swap3\n      swap6\n      pop\n      swap3\n      swap6\n      pop\n      swap3\n      swap6\n      jump\t// out\n        /* \"#utility.yul\":7128:7308   */\n    tag_37:\n        /* \"#utility.yul\":7176:7253   */\n      0x4e487b7100000000000000000000000000000000000000000000000000000000\n        /* \"#utility.yul\":7173:7174   */\n      0x00\n        /* \"#utility.yul\":7166:7254   */\n      mstore\n        /* \"#utility.yul\":7273:7277   */\n      0x32\n        /* \"#utility.yul\":7270:7271   */\n      0x04\n        /* \"#utility.yul\":7263:7278   */\n      mstore\n        /* \"#utility.yul\":7297:7301   */\n      0x24\n        /* \"#utility.yul\":7294:7295   */\n      0x00\n        /* \"#utility.yul\":7287:7302   */\n      revert\n        /* \"#utility.yul\":7314:7643   */\n    tag_39:\n        /* \"#utility.yul\":7373:7379   */\n      0x00\n        /* \"#utility.yul\":7422:7424   */\n      0x20\n        /* \"#utility.yul\":7410:7419   */\n      dup3\n        /* \"#utility.yul\":7401:7408   */\n      dup5\n        /* \"#utility.yul\":7397:7420   */\n      sub\n        /* \"#utility.yul\":7393:7425   */\n      slt\n        /* \"#utility.yul\":7390:7509   */\n      iszero\n      tag_374\n      jumpi\n        /* \"#utility.yul\":7428:7507   */\n      tag_375\n      tag_240\n      jump\t// in\n    tag_375:\n        /* \"#utility.yul\":7390:7509   */\n    tag_374:\n        /* \"#utility.yul\":7548:7549   */\n      0x00\n        /* \"#utility.yul\":7573:7626   */\n      tag_376\n        /* \"#utility.yul\":7618:7625   */\n      dup5\n        /* \"#utility.yul\":7609:7615   */\n      dup3\n        /* \"#utility.yul\":7598:7607   */\n      dup6\n        /* \"#utility.yul\":7594:7616   */\n      add\n        /* \"#utility.yul\":7573:7626   */\n      tag_244\n      jump\t// in\n    tag_376:\n        /* \"#utility.yul\":7563:7626   */\n      swap2\n      pop\n        /* \"#utility.yul\":7519:7636   */\n      pop\n        /* \"#utility.yul\":7314:7643   */\n      swap3\n      swap2\n      pop\n      pop\n      jump\t// out\n        /* \"#utility.yul\":7649:7767   */\n    tag_259:\n        /* \"#utility.yul\":7736:7760   */\n      tag_378\n        /* \"#utility.yul\":7754:7759   */\n      dup2\n        /* \"#utility.yul\":7736:7760   */\n      tag_245\n      jump\t// in\n    tag_378:\n        /* \"#utility.yul\":7731:7734   */\n      dup3\n        /* \"#utility.yul\":7724:7761   */\n      mstore\n        /* \"#utility.yul\":7649:7767   */\n      pop\n      pop\n      jump\t// out\n        /* \"#utility.yul\":7773:7957   */\n    tag_260:\n        /* \"#utility.yul\":7872:7883   */\n      0x00\n        /* \"#utility.yul\":7906:7912   */\n      dup3\n        /* \"#utility.yul\":7901:7904   */\n      dup3\n        /* \"#utility.yul\":7894:7913   */\n      mstore\n        /* \"#utility.yul\":7946:7950   */\n      0x20\n        /* \"#utility.yul\":7941:7944   */\n      dup3\n        /* \"#utility.yul\":7937:7951   */\n      add\n        /* \"#utility.yul\":7922:7951   */\n      swap1\n      pop\n        /* \"#utility.yul\":7773:7957   */\n      swap3\n      swap2\n      pop\n      pop\n      jump\t// out\n        /* \"#utility.yul\":7963:8065   */\n    tag_261:\n        /* \"#utility.yul\":8032:8036   */\n      0x00\n        /* \"#utility.yul\":8055:8058   */\n      dup2\n        /* \"#utility.yul\":8047:8058   */\n      swap1\n      pop\n        /* \"#utility.yul\":7963:8065   */\n      swap2\n      swap1\n      pop\n      jump\t// out\n        /* \"#utility.yul\":8071:8179   */\n    tag_262:\n        /* \"#utility.yul\":8148:8172   */\n      tag_382\n        /* \"#utility.yul\":8166:8171   */\n      dup2\n        /* \"#utility.yul\":8148:8172   */\n      tag_242\n      jump\t// in\n    tag_382:\n        /* \"#utility.yul\":8143:8146   */\n      dup3\n        /* \"#utility.yul\":8136:8173   */\n      mstore\n        /* \"#utility.yul\":8071:8179   */\n      pop\n      pop\n      jump\t// out\n        /* \"#utility.yul\":8185:8364   */\n    tag_263:\n        /* \"#utility.yul\":8254:8264   */\n      0x00\n        /* \"#utility.yul\":8275:8321   */\n      tag_384\n        /* \"#utility.yul\":8317:8320   */\n      dup4\n        /* \"#utility.yul\":8309:8315   */\n      dup4\n        /* \"#utility.yul\":8275:8321   */\n      tag_262\n      jump\t// in\n    tag_384:\n        /* \"#utility.yul\":8353:8357   */\n      0x20\n        /* \"#utility.yul\":8348:8351   */\n      dup4\n        /* \"#utility.yul\":8344:8358   */\n      add\n        /* \"#utility.yul\":8330:8358   */\n      swap1\n      pop\n        /* \"#utility.yul\":8185:8364   */\n      swap3\n      swap2\n      pop\n      pop\n      jump\t// out\n        /* \"#utility.yul\":8370:8492   */\n    tag_264:\n        /* \"#utility.yul\":8422:8427   */\n      0x00\n        /* \"#utility.yul\":8447:8486   */\n      tag_386\n        /* \"#utility.yul\":8482:8484   */\n      0x20\n        /* \"#utility.yul\":8477:8480   */\n      dup5\n        /* \"#utility.yul\":8473:8485   */\n      add\n        /* \"#utility.yul\":8468:8471   */\n      dup5\n        /* \"#utility.yul\":8447:8486   */\n      tag_244\n      jump\t// in\n    tag_386:\n        /* \"#utility.yul\":8438:8486   */\n      swap1\n      pop\n        /* \"#utility.yul\":8370:8492   */\n      swap3\n      swap2\n      pop\n      pop\n      jump\t// out\n        /* \"#utility.yul\":8498:8613   */\n    tag_265:\n        /* \"#utility.yul\":8570:8574   */\n      0x00\n        /* \"#utility.yul\":8602:8606   */\n      0x20\n        /* \"#utility.yul\":8597:8600   */\n      dup3\n        /* \"#utility.yul\":8593:8607   */\n      add\n        /* \"#utility.yul\":8585:8607   */\n      swap1\n      pop\n        /* \"#utility.yul\":8498:8613   */\n      swap2\n      swap1\n      pop\n      jump\t// out\n        /* \"#utility.yul\":8649:9348   */\n    tag_266:\n        /* \"#utility.yul\":8778:8781   */\n      0x00\n        /* \"#utility.yul\":8801:8887   */\n      tag_389\n        /* \"#utility.yul\":8880:8886   */\n      dup4\n        /* \"#utility.yul\":8875:8878   */\n      dup6\n        /* \"#utility.yul\":8801:8887   */\n      tag_260\n      jump\t// in\n    tag_389:\n        /* \"#utility.yul\":8794:8887   */\n      swap4\n      pop\n        /* \"#utility.yul\":8911:8969   */\n      tag_390\n        /* \"#utility.yul\":8963:8968   */\n      dup3\n        /* \"#utility.yul\":8911:8969   */\n      tag_261\n      jump\t// in\n    tag_390:\n        /* \"#utility.yul\":8992:8999   */\n      dup1\n        /* \"#utility.yul\":9023:9024   */\n      0x00\n        /* \"#utility.yul\":9008:9323   */\n    tag_391:\n        /* \"#utility.yul\":9033:9039   */\n      dup6\n        /* \"#utility.yul\":9030:9031   */\n      dup2\n        /* \"#utility.yul\":9027:9040   */\n      lt\n        /* \"#utility.yul\":9008:9323   */\n      iszero\n      tag_393\n      jumpi\n        /* \"#utility.yul\":9103:9145   */\n      tag_394\n        /* \"#utility.yul\":9138:9144   */\n      dup3\n        /* \"#utility.yul\":9129:9136   */\n      dup5\n        /* \"#utility.yul\":9103:9145   */\n      tag_264\n      jump\t// in\n    tag_394:\n        /* \"#utility.yul\":9165:9228   */\n      tag_395\n        /* \"#utility.yul\":9224:9227   */\n      dup9\n        /* \"#utility.yul\":9209:9222   */\n      dup3\n        /* \"#utility.yul\":9165:9228   */\n      tag_263\n      jump\t// in\n    tag_395:\n        /* \"#utility.yul\":9158:9228   */\n      swap8\n      pop\n        /* \"#utility.yul\":9251:9313   */\n      tag_396\n        /* \"#utility.yul\":9306:9312   */\n      dup4\n        /* \"#utility.yul\":9251:9313   */\n      tag_265\n      jump\t// in\n    tag_396:\n        /* \"#utility.yul\":9241:9313   */\n      swap3\n      pop\n        /* \"#utility.yul\":9068:9323   */\n      pop\n        /* \"#utility.yul\":9055:9056   */\n      0x01\n        /* \"#utility.yul\":9052:9053   */\n      dup2\n        /* \"#utility.yul\":9048:9057   */\n      add\n        /* \"#utility.yul\":9043:9057   */\n      swap1\n      pop\n        /* \"#utility.yul\":9008:9323   */\n      jump(tag_391)\n    tag_393:\n        /* \"#utility.yul\":9012:9026   */\n      pop\n        /* \"#utility.yul\":9339:9342   */\n      dup6\n        /* \"#utility.yul\":9332:9342   */\n      swap3\n      pop\n        /* \"#utility.yul\":8783:9348   */\n      pop\n      pop\n        /* \"#utility.yul\":8649:9348   */\n      swap4\n      swap3\n      pop\n      pop\n      pop\n      jump\t// out\n        /* \"#utility.yul\":9354:9472   */\n    tag_267:\n        /* \"#utility.yul\":9441:9465   */\n      tag_398\n        /* \"#utility.yul\":9459:9464   */\n      dup2\n        /* \"#utility.yul\":9441:9465   */\n      tag_242\n      jump\t// in\n    tag_398:\n        /* \"#utility.yul\":9436:9439   */\n      dup3\n        /* \"#utility.yul\":9429:9466   */\n      mstore\n        /* \"#utility.yul\":9354:9472   */\n      pop\n      pop\n      jump\t// out\n        /* \"#utility.yul\":9478:10313   */\n    tag_47:\n        /* \"#utility.yul\":9743:9747   */\n      0x00\n        /* \"#utility.yul\":9781:9784   */\n      0xa0\n        /* \"#utility.yul\":9770:9779   */\n      dup3\n        /* \"#utility.yul\":9766:9785   */\n      add\n        /* \"#utility.yul\":9758:9785   */\n      swap1\n      pop\n        /* \"#utility.yul\":9795:9866   */\n      tag_400\n        /* \"#utility.yul\":9863:9864   */\n      0x00\n        /* \"#utility.yul\":9852:9861   */\n      dup4\n        /* \"#utility.yul\":9848:9865   */\n      add\n        /* \"#utility.yul\":9839:9845   */\n      dup10\n        /* \"#utility.yul\":9795:9866   */\n      tag_259\n      jump\t// in\n    tag_400:\n        /* \"#utility.yul\":9876:9948   */\n      tag_401\n        /* \"#utility.yul\":9944:9946   */\n      0x20\n        /* \"#utility.yul\":9933:9942   */\n      dup4\n        /* \"#utility.yul\":9929:9947   */\n      add\n        /* \"#utility.yul\":9920:9926   */\n      dup9\n        /* \"#utility.yul\":9876:9948   */\n      tag_259\n      jump\t// in\n    tag_401:\n        /* \"#utility.yul\":9995:10004   */\n      dup2\n        /* \"#utility.yul\":9989:9993   */\n      dup2\n        /* \"#utility.yul\":9985:10005   */\n      sub\n        /* \"#utility.yul\":9980:9982   */\n      0x40\n        /* \"#utility.yul\":9969:9978   */\n      dup4\n        /* \"#utility.yul\":9965:9983   */\n      add\n        /* \"#utility.yul\":9958:10006   */\n      mstore\n        /* \"#utility.yul\":10023:10141   */\n      tag_402\n        /* \"#utility.yul\":10136:10140   */\n      dup2\n        /* \"#utility.yul\":10127:10133   */\n      dup7\n        /* \"#utility.yul\":10119:10125   */\n      dup9\n        /* \"#utility.yul\":10023:10141   */\n      tag_266\n      jump\t// in\n    tag_402:\n        /* \"#utility.yul\":10015:10141   */\n      swap1\n      pop\n        /* \"#utility.yul\":10151:10223   */\n      tag_403\n        /* \"#utility.yul\":10219:10221   */\n      0x60\n        /* \"#utility.yul\":10208:10217   */\n      dup4\n        /* \"#utility.yul\":10204:10222   */\n      add\n        /* \"#utility.yul\":10195:10201   */\n      dup6\n        /* \"#utility.yul\":10151:10223   */\n      tag_267\n      jump\t// in\n    tag_403:\n        /* \"#utility.yul\":10233:10306   */\n      tag_404\n        /* \"#utility.yul\":10301:10304   */\n      0x80\n        /* \"#utility.yul\":10290:10299   */\n      dup4\n        /* \"#utility.yul\":10286:10305   */\n      add\n        /* \"#utility.yul\":10277:10283   */\n      dup5\n        /* \"#utility.yul\":10233:10306   */\n      tag_259\n      jump\t// in\n    tag_404:\n        /* \"#utility.yul\":9478:10313   */\n      swap8\n      swap7\n      pop\n      pop\n      pop\n      pop\n      pop\n      pop\n      pop\n      jump\t// out\n        /* \"#utility.yul\":10319:10421   */\n    tag_268:\n        /* \"#utility.yul\":10360:10366   */\n      0x00\n        /* \"#utility.yul\":10411:10413   */\n      0x1f\n        /* \"#utility.yul\":10407:10414   */\n      not\n        /* \"#utility.yul\":10402:10404   */\n      0x1f\n        /* \"#utility.yul\":10395:10400   */\n      dup4\n        /* \"#utility.yul\":10391:10405   */\n      add\n        /* \"#utility.yul\":10387:10415   */\n      and\n        /* \"#utility.yul\":10377:10415   */\n      swap1\n      pop\n        /* \"#utility.yul\":10319:10421   */\n      swap2\n      swap1\n      pop\n      jump\t// out\n        /* \"#utility.yul\":10427:10607   */\n    tag_269:\n        /* \"#utility.yul\":10475:10552   */\n      0x4e487b7100000000000000000000000000000000000000000000000000000000\n        /* \"#utility.yul\":10472:10473   */\n      0x00\n        /* \"#utility.yul\":10465:10553   */\n      mstore\n        /* \"#utility.yul\":10572:10576   */\n      0x41\n        /* \"#utility.yul\":10569:10570   */\n      0x04\n        /* \"#utility.yul\":10562:10577   */\n      mstore\n        /* \"#utility.yul\":10596:10600   */\n      0x24\n        /* \"#utility.yul\":10593:10594   */\n      0x00\n        /* \"#utility.yul\":10586:10601   */\n      revert\n        /* \"#utility.yul\":10613:10894   */\n    tag_270:\n        /* \"#utility.yul\":10696:10723   */\n      tag_408\n        /* \"#utility.yul\":10718:10722   */\n      dup3\n        /* \"#utility.yul\":10696:10723   */\n      tag_268\n      jump\t// in\n    tag_408:\n        /* \"#utility.yul\":10688:10694   */\n      dup2\n        /* \"#utility.yul\":10684:10724   */\n      add\n        /* \"#utility.yul\":10826:10832   */\n      dup2\n        /* \"#utility.yul\":10814:10824   */\n      dup2\n        /* \"#utility.yul\":10811:10833   */\n      lt\n        /* \"#utility.yul\":10790:10808   */\n      0xffffffffffffffff\n        /* \"#utility.yul\":10778:10788   */\n      dup3\n        /* \"#utility.yul\":10775:10809   */\n      gt\n        /* \"#utility.yul\":10772:10834   */\n      or\n        /* \"#utility.yul\":10769:10857   */\n      iszero\n      tag_409\n      jumpi\n        /* \"#utility.yul\":10837:10855   */\n      tag_410\n      tag_269\n      jump\t// in\n    tag_410:\n        /* \"#utility.yul\":10769:10857   */\n    tag_409:\n        /* \"#utility.yul\":10877:10887   */\n      dup1\n        /* \"#utility.yul\":10873:10875   */\n      0x40\n        /* \"#utility.yul\":10866:10888   */\n      mstore\n        /* \"#utility.yul\":10656:10894   */\n      pop\n        /* \"#utility.yul\":10613:10894   */\n      pop\n      pop\n      jump\t// out\n        /* \"#utility.yul\":10900:11029   */\n    tag_271:\n        /* \"#utility.yul\":10934:10940   */\n      0x00\n        /* \"#utility.yul\":10961:10981   */\n      tag_412\n      tag_239\n      jump\t// in\n    tag_412:\n        /* \"#utility.yul\":10951:10981   */\n      swap1\n      pop\n        /* \"#utility.yul\":10990:11023   */\n      tag_413\n        /* \"#utility.yul\":11018:11022   */\n      dup3\n        /* \"#utility.yul\":11010:11016   */\n      dup3\n        /* \"#utility.yul\":10990:11023   */\n      tag_270\n      jump\t// in\n    tag_413:\n        /* \"#utility.yul\":10900:11029   */\n      swap2\n      swap1\n      pop\n      jump\t// out\n        /* \"#utility.yul\":11035:11346   */\n    tag_272:\n        /* \"#utility.yul\":11112:11116   */\n      0x00\n        /* \"#utility.yul\":11202:11220   */\n      0xffffffffffffffff\n        /* \"#utility.yul\":11194:11200   */\n      dup3\n        /* \"#utility.yul\":11191:11221   */\n      gt\n        /* \"#utility.yul\":11188:11244   */\n      iszero\n      tag_415\n      jumpi\n        /* \"#utility.yul\":11224:11242   */\n      tag_416\n      tag_269\n      jump\t// in\n    tag_416:\n        /* \"#utility.yul\":11188:11244   */\n    tag_415:\n        /* \"#utility.yul\":11274:11278   */\n      0x20\n        /* \"#utility.yul\":11266:11272   */\n      dup3\n        /* \"#utility.yul\":11262:11279   */\n      mul\n        /* \"#utility.yul\":11254:11279   */\n      swap1\n      pop\n        /* \"#utility.yul\":11334:11338   */\n      0x20\n        /* \"#utility.yul\":11328:11332   */\n      dup2\n        /* \"#utility.yul\":11324:11339   */\n      add\n        /* \"#utility.yul\":11316:11339   */\n      swap1\n      pop\n        /* \"#utility.yul\":11035:11346   */\n      swap2\n      swap1\n      pop\n      jump\t// out\n        /* \"#utility.yul\":11352:11495   */\n    tag_273:\n        /* \"#utility.yul\":11409:11414   */\n      0x00\n        /* \"#utility.yul\":11440:11446   */\n      dup2\n        /* \"#utility.yul\":11434:11447   */\n      mload\n        /* \"#utility.yul\":11425:11447   */\n      swap1\n      pop\n        /* \"#utility.yul\":11456:11489   */\n      tag_418\n        /* \"#utility.yul\":11483:11488   */\n      dup2\n        /* \"#utility.yul\":11456:11489   */\n      tag_246\n      jump\t// in\n    tag_418:\n        /* \"#utility.yul\":11352:11495   */\n      swap3\n      swap2\n      pop\n      pop\n      jump\t// out\n        /* \"#utility.yul\":11518:12250   */\n    tag_274:\n        /* \"#utility.yul\":11625:11630   */\n      0x00\n        /* \"#utility.yul\":11650:11731   */\n      tag_420\n        /* \"#utility.yul\":11666:11730   */\n      tag_421\n        /* \"#utility.yul\":11723:11729   */\n      dup5\n        /* \"#utility.yul\":11666:11730   */\n      tag_272\n      jump\t// in\n    tag_421:\n        /* \"#utility.yul\":11650:11731   */\n      tag_271\n      jump\t// in\n    tag_420:\n        /* \"#utility.yul\":11641:11731   */\n      swap1\n      pop\n        /* \"#utility.yul\":11751:11756   */\n      dup1\n        /* \"#utility.yul\":11780:11786   */\n      dup4\n        /* \"#utility.yul\":11773:11778   */\n      dup3\n        /* \"#utility.yul\":11766:11787   */\n      mstore\n        /* \"#utility.yul\":11814:11818   */\n      0x20\n        /* \"#utility.yul\":11807:11812   */\n      dup3\n        /* \"#utility.yul\":11803:11819   */\n      add\n        /* \"#utility.yul\":11796:11819   */\n      swap1\n      pop\n        /* \"#utility.yul\":11867:11871   */\n      0x20\n        /* \"#utility.yul\":11859:11865   */\n      dup5\n        /* \"#utility.yul\":11855:11872   */\n      mul\n        /* \"#utility.yul\":11847:11853   */\n      dup4\n        /* \"#utility.yul\":11843:11873   */\n      add\n        /* \"#utility.yul\":11896:11899   */\n      dup6\n        /* \"#utility.yul\":11888:11894   */\n      dup2\n        /* \"#utility.yul\":11885:11900   */\n      gt\n        /* \"#utility.yul\":11882:12004   */\n      iszero\n      tag_422\n      jumpi\n        /* \"#utility.yul\":11915:11994   */\n      tag_423\n      tag_250\n      jump\t// in\n    tag_423:\n        /* \"#utility.yul\":11882:12004   */\n    tag_422:\n        /* \"#utility.yul\":12030:12036   */\n      dup4\n        /* \"#utility.yul\":12013:12244   */\n    tag_424:\n        /* \"#utility.yul\":12047:12053   */\n      dup2\n        /* \"#utility.yul\":12042:12045   */\n      dup2\n        /* \"#utility.yul\":12039:12054   */\n      lt\n        /* \"#utility.yul\":12013:12244   */\n      iszero\n      tag_426\n      jumpi\n        /* \"#utility.yul\":12122:12125   */\n      dup1\n        /* \"#utility.yul\":12151:12199   */\n      tag_427\n        /* \"#utility.yul\":12195:12198   */\n      dup9\n        /* \"#utility.yul\":12183:12193   */\n      dup3\n        /* \"#utility.yul\":12151:12199   */\n      tag_273\n      jump\t// in\n    tag_427:\n        /* \"#utility.yul\":12146:12149   */\n      dup5\n        /* \"#utility.yul\":12139:12200   */\n      mstore\n        /* \"#utility.yul\":12229:12233   */\n      0x20\n        /* \"#utility.yul\":12224:12227   */\n      dup5\n        /* \"#utility.yul\":12220:12234   */\n      add\n        /* \"#utility.yul\":12213:12234   */\n      swap4\n      pop\n        /* \"#utility.yul\":12089:12244   */\n      pop\n        /* \"#utility.yul\":12073:12077   */\n      0x20\n        /* \"#utility.yul\":12068:12071   */\n      dup2\n        /* \"#utility.yul\":12064:12078   */\n      add\n        /* \"#utility.yul\":12057:12078   */\n      swap1\n      pop\n        /* \"#utility.yul\":12013:12244   */\n      jump(tag_424)\n    tag_426:\n        /* \"#utility.yul\":12017:12038   */\n      pop\n        /* \"#utility.yul\":11631:12250   */\n      pop\n      pop\n        /* \"#utility.yul\":11518:12250   */\n      swap4\n      swap3\n      pop\n      pop\n      pop\n      jump\t// out\n        /* \"#utility.yul\":12273:12658   */\n    tag_275:\n        /* \"#utility.yul\":12355:12360   */\n      0x00\n        /* \"#utility.yul\":12404:12407   */\n      dup3\n        /* \"#utility.yul\":12397:12401   */\n      0x1f\n        /* \"#utility.yul\":12389:12395   */\n      dup4\n        /* \"#utility.yul\":12385:12402   */\n      add\n        /* \"#utility.yul\":12381:12408   */\n      slt\n        /* \"#utility.yul\":12371:12493   */\n      tag_429\n      jumpi\n        /* \"#utility.yul\":12412:12491   */\n      tag_430\n      tag_248\n      jump\t// in\n    tag_430:\n        /* \"#utility.yul\":12371:12493   */\n    tag_429:\n        /* \"#utility.yul\":12522:12528   */\n      dup2\n        /* \"#utility.yul\":12516:12529   */\n      mload\n        /* \"#utility.yul\":12547:12652   */\n      tag_431\n        /* \"#utility.yul\":12648:12651   */\n      dup5\n        /* \"#utility.yul\":12640:12646   */\n      dup3\n        /* \"#utility.yul\":12633:12637   */\n      0x20\n        /* \"#utility.yul\":12625:12631   */\n      dup7\n        /* \"#utility.yul\":12621:12638   */\n      add\n        /* \"#utility.yul\":12547:12652   */\n      tag_274\n      jump\t// in\n    tag_431:\n        /* \"#utility.yul\":12538:12652   */\n      swap2\n      pop\n        /* \"#utility.yul\":12361:12658   */\n      pop\n        /* \"#utility.yul\":12273:12658   */\n      swap3\n      swap2\n      pop\n      pop\n      jump\t// out\n        /* \"#utility.yul\":12664:13218   */\n    tag_51:\n        /* \"#utility.yul\":12759:12765   */\n      0x00\n        /* \"#utility.yul\":12808:12810   */\n      0x20\n        /* \"#utility.yul\":12796:12805   */\n      dup3\n        /* \"#utility.yul\":12787:12794   */\n      dup5\n        /* \"#utility.yul\":12783:12806   */\n      sub\n        /* \"#utility.yul\":12779:12811   */\n      slt\n        /* \"#utility.yul\":12776:12895   */\n      iszero\n      tag_433\n      jumpi\n        /* \"#utility.yul\":12814:12893   */\n      tag_434\n      tag_240\n      jump\t// in\n    tag_434:\n        /* \"#utility.yul\":12776:12895   */\n    tag_433:\n        /* \"#utility.yul\":12955:12956   */\n      0x00\n        /* \"#utility.yul\":12944:12953   */\n      dup3\n        /* \"#utility.yul\":12940:12957   */\n      add\n        /* \"#utility.yul\":12934:12958   */\n      mload\n        /* \"#utility.yul\":12985:13003   */\n      0xffffffffffffffff\n        /* \"#utility.yul\":12977:12983   */\n      dup2\n        /* \"#utility.yul\":12974:13004   */\n      gt\n        /* \"#utility.yul\":12971:13088   */\n      iszero\n      tag_435\n      jumpi\n        /* \"#utility.yul\":13007:13086   */\n      tag_436\n      tag_241\n      jump\t// in\n    tag_436:\n        /* \"#utility.yul\":12971:13088   */\n    tag_435:\n        /* \"#utility.yul\":13112:13201   */\n      tag_437\n        /* \"#utility.yul\":13193:13200   */\n      dup5\n        /* \"#utility.yul\":13184:13190   */\n      dup3\n        /* \"#utility.yul\":13173:13182   */\n      dup6\n        /* \"#utility.yul\":13169:13191   */\n      add\n        /* \"#utility.yul\":13112:13201   */\n      tag_275\n      jump\t// in\n    tag_437:\n        /* \"#utility.yul\":13102:13201   */\n      swap2\n      pop\n        /* \"#utility.yul\":12905:13211   */\n      pop\n        /* \"#utility.yul\":12664:13218   */\n      swap3\n      swap2\n      pop\n      pop\n      jump\t// out\n        /* \"#utility.yul\":13224:13404   */\n    tag_276:\n        /* \"#utility.yul\":13272:13349   */\n      0x4e487b7100000000000000000000000000000000000000000000000000000000\n        /* \"#utility.yul\":13269:13270   */\n      0x00\n        /* \"#utility.yul\":13262:13350   */\n      mstore\n        /* \"#utility.yul\":13369:13373   */\n      0x11\n        /* \"#utility.yul\":13366:13367   */\n      0x04\n        /* \"#utility.yul\":13359:13374   */\n      mstore\n        /* \"#utility.yul\":13393:13397   */\n      0x24\n        /* \"#utility.yul\":13390:13391   */\n      0x00\n        /* \"#utility.yul\":13383:13398   */\n      revert\n        /* \"#utility.yul\":13410:13601   */\n    tag_53:\n        /* \"#utility.yul\":13450:13454   */\n      0x00\n        /* \"#utility.yul\":13470:13490   */\n      tag_440\n        /* \"#utility.yul\":13488:13489   */\n      dup3\n        /* \"#utility.yul\":13470:13490   */\n      tag_245\n      jump\t// in\n    tag_440:\n        /* \"#utility.yul\":13465:13490   */\n      swap2\n      pop\n        /* \"#utility.yul\":13504:13524   */\n      tag_441\n        /* \"#utility.yul\":13522:13523   */\n      dup4\n        /* \"#utility.yul\":13504:13524   */\n      tag_245\n      jump\t// in\n    tag_441:\n        /* \"#utility.yul\":13499:13524   */\n      swap3\n      pop\n        /* \"#utility.yul\":13543:13544   */\n      dup3\n        /* \"#utility.yul\":13540:13541   */\n      dup3\n        /* \"#utility.yul\":13537:13545   */\n      lt\n        /* \"#utility.yul\":13534:13568   */\n      iszero\n      tag_442\n      jumpi\n        /* \"#utility.yul\":13548:13566   */\n      tag_443\n      tag_276\n      jump\t// in\n    tag_443:\n        /* \"#utility.yul\":13534:13568   */\n    tag_442:\n        /* \"#utility.yul\":13593:13594   */\n      dup3\n        /* \"#utility.yul\":13590:13591   */\n      dup3\n        /* \"#utility.yul\":13586:13595   */\n      sub\n        /* \"#utility.yul\":13578:13595   */\n      swap1\n      pop\n        /* \"#utility.yul\":13410:13601   */\n      swap3\n      swap2\n      pop\n      pop\n      jump\t// out\n        /* \"#utility.yul\":13607:13955   */\n    tag_57:\n        /* \"#utility.yul\":13647:13654   */\n      0x00\n        /* \"#utility.yul\":13670:13690   */\n      tag_445\n        /* \"#utility.yul\":13688:13689   */\n      dup3\n        /* \"#utility.yul\":13670:13690   */\n      tag_245\n      jump\t// in\n    tag_445:\n        /* \"#utility.yul\":13665:13690   */\n      swap2\n      pop\n        /* \"#utility.yul\":13704:13724   */\n      tag_446\n        /* \"#utility.yul\":13722:13723   */\n      dup4\n        /* \"#utility.yul\":13704:13724   */\n      tag_245\n      jump\t// in\n    tag_446:\n        /* \"#utility.yul\":13699:13724   */\n      swap3\n      pop\n        /* \"#utility.yul\":13892:13893   */\n      dup2\n        /* \"#utility.yul\":13824:13890   */\n      0xffffffffffffffffffffffffffffffffffffffffffffffffffffffffffffffff\n        /* \"#utility.yul\":13820:13894   */\n      div\n        /* \"#utility.yul\":13817:13818   */\n      dup4\n        /* \"#utility.yul\":13814:13895   */\n      gt\n        /* \"#utility.yul\":13809:13810   */\n      dup3\n        /* \"#utility.yul\":13802:13811   */\n      iszero\n        /* \"#utility.yul\":13795:13812   */\n      iszero\n        /* \"#utility.yul\":13791:13896   */\n      and\n        /* \"#utility.yul\":13788:13919   */\n      iszero\n      tag_447\n      jumpi\n        /* \"#utility.yul\":13899:13917   */\n      tag_448\n      tag_276\n      jump\t// in\n    tag_448:\n        /* \"#utility.yul\":13788:13919   */\n    tag_447:\n        /* \"#utility.yul\":13947:13948   */\n      dup3\n        /* \"#utility.yul\":13944:13945   */\n      dup3\n        /* \"#utility.yul\":13940:13949   */\n      mul\n        /* \"#utility.yul\":13929:13949   */\n      swap1\n      pop\n        /* \"#utility.yul\":13607:13955   */\n      swap3\n      swap2\n      pop\n      pop\n      jump\t// out\n        /* \"#utility.yul\":13961:14141   */\n    tag_277:\n        /* \"#utility.yul\":14009:14086   */\n      0x4e487b7100000000000000000000000000000000000000000000000000000000\n        /* \"#utility.yul\":14006:14007   */\n      0x00\n        /* \"#utility.yul\":13999:14087   */\n      mstore\n        /* \"#utility.yul\":14106:14110   */\n      0x12\n        /* \"#utility.yul\":14103:14104   */\n      0x04\n        /* \"#utility.yul\":14096:14111   */\n      mstore\n        /* \"#utility.yul\":14130:14134   */\n      0x24\n        /* \"#utility.yul\":14127:14128   */\n      0x00\n        /* \"#utility.yul\":14120:14135   */\n      revert\n        /* \"#utility.yul\":14147:14332   */\n    tag_59:\n        /* \"#utility.yul\":14187:14188   */\n      0x00\n        /* \"#utility.yul\":14204:14224   */\n      tag_451\n        /* \"#utility.yul\":14222:14223   */\n      dup3\n        /* \"#utility.yul\":14204:14224   */\n      tag_245\n      jump\t// in\n    tag_451:\n        /* \"#utility.yul\":14199:14224   */\n      swap2\n      pop\n        /* \"#utility.yul\":14238:14258   */\n      tag_452\n        /* \"#utility.yul\":14256:14257   */\n      dup4\n        /* \"#utility.yul\":14238:14258   */\n      tag_245\n      jump\t// in\n    tag_452:\n        /* \"#utility.yul\":14233:14258   */\n      swap3\n      pop\n        /* \"#utility.yul\":14277:14278   */\n      dup3\n        /* \"#utility.yul\":14267:14302   */\n      tag_453\n      jumpi\n        /* \"#utility.yul\":14282:14300   */\n      tag_454\n      tag_277\n      jump\t// in\n    tag_454:\n        /* \"#utility.yul\":14267:14302   */\n    tag_453:\n        /* \"#utility.yul\":14324:14325   */\n      dup3\n        /* \"#utility.yul\":14321:14322   */\n      dup3\n        /* \"#utility.yul\":14317:14326   */\n      div\n        /* \"#utility.yul\":14312:14326   */\n      swap1\n      pop\n        /* \"#utility.yul\":14147:14332   */\n      swap3\n      swap2\n      pop\n      pop\n      jump\t// out\n        /* \"#utility.yul\":14338:14841   */\n    tag_77:\n        /* \"#utility.yul\":14519:14523   */\n      0x00\n        /* \"#utility.yul\":14557:14559   */\n      0x40\n        /* \"#utility.yul\":14546:14555   */\n      dup3\n        /* \"#utility.yul\":14542:14560   */\n      add\n        /* \"#utility.yul\":14534:14560   */\n      swap1\n      pop\n        /* \"#utility.yul\":14570:14641   */\n      tag_456\n        /* \"#utility.yul\":14638:14639   */\n      0x00\n        /* \"#utility.yul\":14627:14636   */\n      dup4\n        /* \"#utility.yul\":14623:14640   */\n      add\n        /* \"#utility.yul\":14614:14620   */\n      dup7\n        /* \"#utility.yul\":14570:14641   */\n      tag_259\n      jump\t// in\n    tag_456:\n        /* \"#utility.yul\":14688:14697   */\n      dup2\n        /* \"#utility.yul\":14682:14686   */\n      dup2\n        /* \"#utility.yul\":14678:14698   */\n      sub\n        /* \"#utility.yul\":14673:14675   */\n      0x20\n        /* \"#utility.yul\":14662:14671   */\n      dup4\n        /* \"#utility.yul\":14658:14676   */\n      add\n        /* \"#utility.yul\":14651:14699   */\n      mstore\n        /* \"#utility.yul\":14716:14834   */\n      tag_457\n        /* \"#utility.yul\":14829:14833   */\n      dup2\n        /* \"#utility.yul\":14820:14826   */\n      dup5\n        /* \"#utility.yul\":14812:14818   */\n      dup7\n        /* \"#utility.yul\":14716:14834   */\n      tag_266\n      jump\t// in\n    tag_457:\n        /* \"#utility.yul\":14708:14834   */\n      swap1\n      pop\n        /* \"#utility.yul\":14338:14841   */\n      swap5\n      swap4\n      pop\n      pop\n      pop\n      pop\n      jump\t// out\n        /* \"#utility.yul\":14847:15016   */\n    tag_278:\n        /* \"#utility.yul\":14931:14942   */\n      0x00\n        /* \"#utility.yul\":14965:14971   */\n      dup3\n        /* \"#utility.yul\":14960:14963   */\n      dup3\n        /* \"#utility.yul\":14953:14972   */\n      mstore\n        /* \"#utility.yul\":15005:15009   */\n      0x20\n        /* \"#utility.yul\":15000:15003   */\n      dup3\n        /* \"#utility.yul\":14996:15010   */\n      add\n        /* \"#utility.yul\":14981:15010   */\n      swap1\n      pop\n        /* \"#utility.yul\":14847:15016   */\n      swap3\n      swap2\n      pop\n      pop\n      jump\t// out\n        /* \"#utility.yul\":15022:15185   */\n    tag_279:\n        /* \"#utility.yul\":15162:15177   */\n      0x4e6f206d73672e76616c75652100000000000000000000000000000000000000\n        /* \"#utility.yul\":15158:15159   */\n      0x00\n        /* \"#utility.yul\":15150:15156   */\n      dup3\n        /* \"#utility.yul\":15146:15160   */\n      add\n        /* \"#utility.yul\":15139:15178   */\n      mstore\n        /* \"#utility.yul\":15022:15185   */\n      pop\n      jump\t// out\n        /* \"#utility.yul\":15191:15557   */\n    tag_280:\n        /* \"#utility.yul\":15333:15336   */\n      0x00\n        /* \"#utility.yul\":15354:15421   */\n      tag_461\n        /* \"#utility.yul\":15418:15420   */\n      0x0d\n        /* \"#utility.yul\":15413:15416   */\n      dup4\n        /* \"#utility.yul\":15354:15421   */\n      tag_278\n      jump\t// in\n    tag_461:\n        /* \"#utility.yul\":15347:15421   */\n      swap2\n      pop\n        /* \"#utility.yul\":15430:15523   */\n      tag_462\n        /* \"#utility.yul\":15519:15522   */\n      dup3\n        /* \"#utility.yul\":15430:15523   */\n      tag_279\n      jump\t// in\n    tag_462:\n        /* \"#utility.yul\":15548:15550   */\n      0x20\n        /* \"#utility.yul\":15543:15546   */\n      dup3\n        /* \"#utility.yul\":15539:15551   */\n      add\n        /* \"#utility.yul\":15532:15551   */\n      swap1\n      pop\n        /* \"#utility.yul\":15191:15557   */\n      swap2\n      swap1\n      pop\n      jump\t// out\n        /* \"#utility.yul\":15563:15982   */\n    tag_121:\n        /* \"#utility.yul\":15729:15733   */\n      0x00\n        /* \"#utility.yul\":15767:15769   */\n      0x20\n        /* \"#utility.yul\":15756:15765   */\n      dup3\n        /* \"#utility.yul\":15752:15770   */\n      add\n        /* \"#utility.yul\":15744:15770   */\n      swap1\n      pop\n        /* \"#utility.yul\":15816:15825   */\n      dup2\n        /* \"#utility.yul\":15810:15814   */\n      dup2\n        /* \"#utility.yul\":15806:15826   */\n      sub\n        /* \"#utility.yul\":15802:15803   */\n      0x00\n        /* \"#utility.yul\":15791:15800   */\n      dup4\n        /* \"#utility.yul\":15787:15804   */\n      add\n        /* \"#utility.yul\":15780:15827   */\n      mstore\n        /* \"#utility.yul\":15844:15975   */\n      tag_464\n        /* \"#utility.yul\":15970:15974   */\n      dup2\n        /* \"#utility.yul\":15844:15975   */\n      tag_280\n      jump\t// in\n    tag_464:\n        /* \"#utility.yul\":15836:15975   */\n      swap1\n      pop\n        /* \"#utility.yul\":15563:15982   */\n      swap2\n      swap1\n      pop\n      jump\t// out\n        /* \"#utility.yul\":15988:16712   */\n    tag_126:\n        /* \"#utility.yul\":16225:16229   */\n      0x00\n        /* \"#utility.yul\":16263:16266   */\n      0x80\n        /* \"#utility.yul\":16252:16261   */\n      dup3\n        /* \"#utility.yul\":16248:16267   */\n      add\n        /* \"#utility.yul\":16240:16267   */\n      swap1\n      pop\n        /* \"#utility.yul\":16277:16348   */\n      tag_466\n        /* \"#utility.yul\":16345:16346   */\n      0x00\n        /* \"#utility.yul\":16334:16343   */\n      dup4\n        /* \"#utility.yul\":16330:16347   */\n      add\n        /* \"#utility.yul\":16321:16327   */\n      dup9\n        /* \"#utility.yul\":16277:16348   */\n      tag_259\n      jump\t// in\n    tag_466:\n        /* \"#utility.yul\":16395:16404   */\n      dup2\n        /* \"#utility.yul\":16389:16393   */\n      dup2\n        /* \"#utility.yul\":16385:16405   */\n      sub\n        /* \"#utility.yul\":16380:16382   */\n      0x20\n        /* \"#utility.yul\":16369:16378   */\n      dup4\n        /* \"#utility.yul\":16365:16383   */\n      add\n        /* \"#utility.yul\":16358:16406   */\n      mstore\n        /* \"#utility.yul\":16423:16541   */\n      tag_467\n        /* \"#utility.yul\":16536:16540   */\n      dup2\n        /* \"#utility.yul\":16527:16533   */\n      dup7\n        /* \"#utility.yul\":16519:16525   */\n      dup9\n        /* \"#utility.yul\":16423:16541   */\n      tag_266\n      jump\t// in\n    tag_467:\n        /* \"#utility.yul\":16415:16541   */\n      swap1\n      pop\n        /* \"#utility.yul\":16551:16623   */\n      tag_468\n        /* \"#utility.yul\":16619:16621   */\n      0x40\n        /* \"#utility.yul\":16608:16617   */\n      dup4\n        /* \"#utility.yul\":16604:16622   */\n      add\n        /* \"#utility.yul\":16595:16601   */\n      dup6\n        /* \"#utility.yul\":16551:16623   */\n      tag_267\n      jump\t// in\n    tag_468:\n        /* \"#utility.yul\":16633:16705   */\n      tag_469\n        /* \"#utility.yul\":16701:16703   */\n      0x60\n        /* \"#utility.yul\":16690:16699   */\n      dup4\n        /* \"#utility.yul\":16686:16704   */\n      add\n        /* \"#utility.yul\":16677:16683   */\n      dup5\n        /* \"#utility.yul\":16633:16705   */\n      tag_259\n      jump\t// in\n    tag_469:\n        /* \"#utility.yul\":15988:16712   */\n      swap7\n      swap6\n      pop\n      pop\n      pop\n      pop\n      pop\n      pop\n      jump\t// out\n        /* \"#utility.yul\":16718:17160   */\n    tag_172:\n        /* \"#utility.yul\":16867:16871   */\n      0x00\n        /* \"#utility.yul\":16905:16907   */\n      0x60\n        /* \"#utility.yul\":16894:16903   */\n      dup3\n        /* \"#utility.yul\":16890:16908   */\n      add\n        /* \"#utility.yul\":16882:16908   */\n      swap1\n      pop\n        /* \"#utility.yul\":16918:16989   */\n      tag_471\n        /* \"#utility.yul\":16986:16987   */\n      0x00\n        /* \"#utility.yul\":16975:16984   */\n      dup4\n        /* \"#utility.yul\":16971:16988   */\n      add\n        /* \"#utility.yul\":16962:16968   */\n      dup7\n        /* \"#utility.yul\":16918:16989   */\n      tag_267\n      jump\t// in\n    tag_471:\n        /* \"#utility.yul\":16999:17071   */\n      tag_472\n        /* \"#utility.yul\":17067:17069   */\n      0x20\n        /* \"#utility.yul\":17056:17065   */\n      dup4\n        /* \"#utility.yul\":17052:17070   */\n      add\n        /* \"#utility.yul\":17043:17049   */\n      dup6\n        /* \"#utility.yul\":16999:17071   */\n      tag_267\n      jump\t// in\n    tag_472:\n        /* \"#utility.yul\":17081:17153   */\n      tag_473\n        /* \"#utility.yul\":17149:17151   */\n      0x40\n        /* \"#utility.yul\":17138:17147   */\n      dup4\n        /* \"#utility.yul\":17134:17152   */\n      add\n        /* \"#utility.yul\":17125:17131   */\n      dup5\n        /* \"#utility.yul\":17081:17153   */\n      tag_259\n      jump\t// in\n    tag_473:\n        /* \"#utility.yul\":16718:17160   */\n      swap5\n      swap4\n      pop\n      pop\n      pop\n      pop\n      jump\t// out\n        /* \"#utility.yul\":17166:17498   */\n    tag_176:\n        /* \"#utility.yul\":17287:17291   */\n      0x00\n        /* \"#utility.yul\":17325:17327   */\n      0x40\n        /* \"#utility.yul\":17314:17323   */\n      dup3\n        /* \"#utility.yul\":17310:17328   */\n      add\n        /* \"#utility.yul\":17302:17328   */\n      swap1\n      pop\n        /* \"#utility.yul\":17338:17409   */\n      tag_475\n        /* \"#utility.yul\":17406:17407   */\n      0x00\n        /* \"#utility.yul\":17395:17404   */\n      dup4\n        /* \"#utility.yul\":17391:17408   */\n      add\n        /* \"#utility.yul\":17382:17388   */\n      dup6\n        /* \"#utility.yul\":17338:17409   */\n      tag_267\n      jump\t// in\n    tag_475:\n        /* \"#utility.yul\":17419:17491   */\n      tag_476\n        /* \"#utility.yul\":17487:17489   */\n      0x20\n        /* \"#utility.yul\":17476:17485   */\n      dup4\n        /* \"#utility.yul\":17472:17490   */\n      add\n        /* \"#utility.yul\":17463:17469   */\n      dup5\n        /* \"#utility.yul\":17419:17491   */\n      tag_267\n      jump\t// in\n    tag_476:\n        /* \"#utility.yul\":17166:17498   */\n      swap4\n      swap3\n      pop\n      pop\n      pop\n      jump\t// out\n        /* \"#utility.yul\":17504:17855   */\n    tag_180:\n        /* \"#utility.yul\":17574:17580   */\n      0x00\n        /* \"#utility.yul\":17623:17625   */\n      0x20\n        /* \"#utility.yul\":17611:17620   */\n      dup3\n        /* \"#utility.yul\":17602:17609   */\n      dup5\n        /* \"#utility.yul\":17598:17621   */\n      sub\n        /* \"#utility.yul\":17594:17626   */\n      slt\n        /* \"#utility.yul\":17591:17710   */\n      iszero\n      tag_478\n      jumpi\n        /* \"#utility.yul\":17629:17708   */\n      tag_479\n      tag_240\n      jump\t// in\n    tag_479:\n        /* \"#utility.yul\":17591:17710   */\n    tag_478:\n        /* \"#utility.yul\":17749:17750   */\n      0x00\n        /* \"#utility.yul\":17774:17838   */\n      tag_480\n        /* \"#utility.yul\":17830:17837   */\n      dup5\n        /* \"#utility.yul\":17821:17827   */\n      dup3\n        /* \"#utility.yul\":17810:17819   */\n      dup6\n        /* \"#utility.yul\":17806:17828   */\n      add\n        /* \"#utility.yul\":17774:17838   */\n      tag_273\n      jump\t// in\n    tag_480:\n        /* \"#utility.yul\":17764:17838   */\n      swap2\n      pop\n        /* \"#utility.yul\":17720:17848   */\n      pop\n        /* \"#utility.yul\":17504:17855   */\n      swap3\n      swap2\n      pop\n      pop\n      jump\t// out\n        /* \"#utility.yul\":17861:18166   */\n    tag_182:\n        /* \"#utility.yul\":17901:17904   */\n      0x00\n        /* \"#utility.yul\":17920:17940   */\n      tag_482\n        /* \"#utility.yul\":17938:17939   */\n      dup3\n        /* \"#utility.yul\":17920:17940   */\n      tag_245\n      jump\t// in\n    tag_482:\n        /* \"#utility.yul\":17915:17940   */\n      swap2\n      pop\n        /* \"#utility.yul\":17954:17974   */\n      tag_483\n        /* \"#utility.yul\":17972:17973   */\n      dup4\n        /* \"#utility.yul\":17954:17974   */\n      tag_245\n      jump\t// in\n    tag_483:\n        /* \"#utility.yul\":17949:17974   */\n      swap3\n      pop\n        /* \"#utility.yul\":18108:18109   */\n      dup3\n        /* \"#utility.yul\":18040:18106   */\n      0xffffffffffffffffffffffffffffffffffffffffffffffffffffffffffffffff\n        /* \"#utility.yul\":18036:18110   */\n      sub\n        /* \"#utility.yul\":18033:18034   */\n      dup3\n        /* \"#utility.yul\":18030:18111   */\n      gt\n        /* \"#utility.yul\":18027:18134   */\n      iszero\n      tag_484\n      jumpi\n        /* \"#utility.yul\":18114:18132   */\n      tag_485\n      tag_276\n      jump\t// in\n    tag_485:\n        /* \"#utility.yul\":18027:18134   */\n    tag_484:\n        /* \"#utility.yul\":18158:18159   */\n      dup3\n        /* \"#utility.yul\":18155:18156   */\n      dup3\n        /* \"#utility.yul\":18151:18160   */\n      add\n        /* \"#utility.yul\":18144:18160   */\n      swap1\n      pop\n        /* \"#utility.yul\":17861:18166   */\n      swap3\n      swap2\n      pop\n      pop\n      jump\t// out\n        /* \"#utility.yul\":18172:18504   */\n    tag_185:\n        /* \"#utility.yul\":18293:18297   */\n      0x00\n        /* \"#utility.yul\":18331:18333   */\n      0x40\n        /* \"#utility.yul\":18320:18329   */\n      dup3\n        /* \"#utility.yul\":18316:18334   */\n      add\n        /* \"#utility.yul\":18308:18334   */\n      swap1\n      pop\n        /* \"#utility.yul\":18344:18415   */\n      tag_487\n        /* \"#utility.yul\":18412:18413   */\n      0x00\n        /* \"#utility.yul\":18401:18410   */\n      dup4\n        /* \"#utility.yul\":18397:18414   */\n      add\n        /* \"#utility.yul\":18388:18394   */\n      dup6\n        /* \"#utility.yul\":18344:18415   */\n      tag_267\n      jump\t// in\n    tag_487:\n        /* \"#utility.yul\":18425:18497   */\n      tag_488\n        /* \"#utility.yul\":18493:18495   */\n      0x20\n        /* \"#utility.yul\":18482:18491   */\n      dup4\n        /* \"#utility.yul\":18478:18496   */\n      add\n        /* \"#utility.yul\":18469:18475   */\n      dup5\n        /* \"#utility.yul\":18425:18497   */\n      tag_259\n      jump\t// in\n    tag_488:\n        /* \"#utility.yul\":18172:18504   */\n      swap4\n      swap3\n      pop\n      pop\n      pop\n      jump\t// out\n        /* \"#utility.yul\":18510:18751   */\n    tag_281:\n        /* \"#utility.yul\":18650:18684   */\n      0x5361666545524332303a20617070726f76652066726f6d206e6f6e2d7a65726f\n        /* \"#utility.yul\":18646:18647   */\n      0x00\n        /* \"#utility.yul\":18638:18644   */\n      dup3\n        /* \"#utility.yul\":18634:18648   */\n      add\n        /* \"#utility.yul\":18627:18685   */\n      mstore\n        /* \"#utility.yul\":18719:18743   */\n      0x20746f206e6f6e2d7a65726f20616c6c6f77616e636500000000000000000000\n        /* \"#utility.yul\":18714:18716   */\n      0x20\n        /* \"#utility.yul\":18706:18712   */\n      dup3\n        /* \"#utility.yul\":18702:18717   */\n      add\n        /* \"#utility.yul\":18695:18744   */\n      mstore\n        /* \"#utility.yul\":18510:18751   */\n      pop\n      jump\t// out\n        /* \"#utility.yul\":18757:19123   */\n    tag_282:\n        /* \"#utility.yul\":18899:18902   */\n      0x00\n        /* \"#utility.yul\":18920:18987   */\n      tag_491\n        /* \"#utility.yul\":18984:18986   */\n      0x36\n        /* \"#utility.yul\":18979:18982   */\n      dup4\n        /* \"#utility.yul\":18920:18987   */\n      tag_278\n      jump\t// in\n    tag_491:\n        /* \"#utility.yul\":18913:18987   */\n      swap2\n      pop\n        /* \"#utility.yul\":18996:19089   */\n      tag_492\n        /* \"#utility.yul\":19085:19088   */\n      dup3\n        /* \"#utility.yul\":18996:19089   */\n      tag_281\n      jump\t// in\n    tag_492:\n        /* \"#utility.yul\":19114:19116   */\n      0x40\n        /* \"#utility.yul\":19109:19112   */\n      dup3\n        /* \"#utility.yul\":19105:19117   */\n      add\n        /* \"#utility.yul\":19098:19117   */\n      swap1\n      pop\n        /* \"#utility.yul\":18757:19123   */\n      swap2\n      swap1\n      pop\n      jump\t// out\n        /* \"#utility.yul\":19129:19548   */\n    tag_194:\n        /* \"#utility.yul\":19295:19299   */\n      0x00\n        /* \"#utility.yul\":19333:19335   */\n      0x20\n        /* \"#utility.yul\":19322:19331   */\n      dup3\n        /* \"#utility.yul\":19318:19336   */\n      add\n        /* \"#utility.yul\":19310:19336   */\n      swap1\n      pop\n        /* \"#utility.yul\":19382:19391   */\n      dup2\n        /* \"#utility.yul\":19376:19380   */\n      dup2\n        /* \"#utility.yul\":19372:19392   */\n      sub\n        /* \"#utility.yul\":19368:19369   */\n      0x00\n        /* \"#utility.yul\":19357:19366   */\n      dup4\n        /* \"#utility.yul\":19353:19370   */\n      add\n        /* \"#utility.yul\":19346:19393   */\n      mstore\n        /* \"#utility.yul\":19410:19541   */\n      tag_494\n        /* \"#utility.yul\":19536:19540   */\n      dup2\n        /* \"#utility.yul\":19410:19541   */\n      tag_282\n      jump\t// in\n    tag_494:\n        /* \"#utility.yul\":19402:19541   */\n      swap1\n      pop\n        /* \"#utility.yul\":19129:19548   */\n      swap2\n      swap1\n      pop\n      jump\t// out\n        /* \"#utility.yul\":19554:19644   */\n    tag_283:\n        /* \"#utility.yul\":19588:19595   */\n      0x00\n        /* \"#utility.yul\":19631:19636   */\n      dup2\n        /* \"#utility.yul\":19624:19637   */\n      iszero\n        /* \"#utility.yul\":19617:19638   */\n      iszero\n        /* \"#utility.yul\":19606:19638   */\n      swap1\n      pop\n        /* \"#utility.yul\":19554:19644   */\n      swap2\n      swap1\n      pop\n      jump\t// out\n        /* \"#utility.yul\":19650:19766   */\n    tag_284:\n        /* \"#utility.yul\":19720:19741   */\n      tag_497\n        /* \"#utility.yul\":19735:19740   */\n      dup2\n        /* \"#utility.yul\":19720:19741   */\n      tag_283\n      jump\t// in\n    tag_497:\n        /* \"#utility.yul\":19713:19718   */\n      dup2\n        /* \"#utility.yul\":19710:19742   */\n      eq\n        /* \"#utility.yul\":19700:19760   */\n      tag_498\n      jumpi\n        /* \"#utility.yul\":19756:19757   */\n      0x00\n        /* \"#utility.yul\":19753:19754   */\n      dup1\n        /* \"#utility.yul\":19746:19758   */\n      revert\n        /* \"#utility.yul\":19700:19760   */\n    tag_498:\n        /* \"#utility.yul\":19650:19766   */\n      pop\n      jump\t// out\n        /* \"#utility.yul\":19772:19909   */\n    tag_285:\n        /* \"#utility.yul\":19826:19831   */\n      0x00\n        /* \"#utility.yul\":19857:19863   */\n      dup2\n        /* \"#utility.yul\":19851:19864   */\n      mload\n        /* \"#utility.yul\":19842:19864   */\n      swap1\n      pop\n        /* \"#utility.yul\":19873:19903   */\n      tag_500\n        /* \"#utility.yul\":19897:19902   */\n      dup2\n        /* \"#utility.yul\":19873:19903   */\n      tag_284\n      jump\t// in\n    tag_500:\n        /* \"#utility.yul\":19772:19909   */\n      swap3\n      swap2\n      pop\n      pop\n      jump\t// out\n        /* \"#utility.yul\":19915:20260   */\n    tag_205:\n        /* \"#utility.yul\":19982:19988   */\n      0x00\n        /* \"#utility.yul\":20031:20033   */\n      0x20\n        /* \"#utility.yul\":20019:20028   */\n      dup3\n        /* \"#utility.yul\":20010:20017   */\n      dup5\n        /* \"#utility.yul\":20006:20029   */\n      sub\n        /* \"#utility.yul\":20002:20034   */\n      slt\n        /* \"#utility.yul\":19999:20118   */\n      iszero\n      tag_502\n      jumpi\n        /* \"#utility.yul\":20037:20116   */\n      tag_503\n      tag_240\n      jump\t// in\n    tag_503:\n        /* \"#utility.yul\":19999:20118   */\n    tag_502:\n        /* \"#utility.yul\":20157:20158   */\n      0x00\n        /* \"#utility.yul\":20182:20243   */\n      tag_504\n        /* \"#utility.yul\":20235:20242   */\n      dup5\n        /* \"#utility.yul\":20226:20232   */\n      dup3\n        /* \"#utility.yul\":20215:20224   */\n      dup6\n        /* \"#utility.yul\":20211:20233   */\n      add\n        /* \"#utility.yul\":20182:20243   */\n      tag_285\n      jump\t// in\n    tag_504:\n        /* \"#utility.yul\":20172:20243   */\n      swap2\n      pop\n        /* \"#utility.yul\":20128:20253   */\n      pop\n        /* \"#utility.yul\":19915:20260   */\n      swap3\n      swap2\n      pop\n      pop\n      jump\t// out\n        /* \"#utility.yul\":20266:20495   */\n    tag_286:\n        /* \"#utility.yul\":20406:20440   */\n      0x5361666545524332303a204552433230206f7065726174696f6e20646964206e\n        /* \"#utility.yul\":20402:20403   */\n      0x00\n        /* \"#utility.yul\":20394:20400   */\n      dup3\n        /* \"#utility.yul\":20390:20404   */\n      add\n        /* \"#utility.yul\":20383:20441   */\n      mstore\n        /* \"#utility.yul\":20475:20487   */\n      0x6f74207375636365656400000000000000000000000000000000000000000000\n        /* \"#utility.yul\":20470:20472   */\n      0x20\n        /* \"#utility.yul\":20462:20468   */\n      dup3\n        /* \"#utility.yul\":20458:20473   */\n      add\n        /* \"#utility.yul\":20451:20488   */\n      mstore\n        /* \"#utility.yul\":20266:20495   */\n      pop\n      jump\t// out\n        /* \"#utility.yul\":20501:20867   */\n    tag_287:\n        /* \"#utility.yul\":20643:20646   */\n      0x00\n        /* \"#utility.yul\":20664:20731   */\n      tag_507\n        /* \"#utility.yul\":20728:20730   */\n      0x2a\n        /* \"#utility.yul\":20723:20726   */\n      dup4\n        /* \"#utility.yul\":20664:20731   */\n      tag_278\n      jump\t// in\n    tag_507:\n        /* \"#utility.yul\":20657:20731   */\n      swap2\n      pop\n        /* \"#utility.yul\":20740:20833   */\n      tag_508\n        /* \"#utility.yul\":20829:20832   */\n      dup3\n        /* \"#utility.yul\":20740:20833   */\n      tag_286\n      jump\t// in\n    tag_508:\n        /* \"#utility.yul\":20858:20860   */\n      0x40\n        /* \"#utility.yul\":20853:20856   */\n      dup3\n        /* \"#utility.yul\":20849:20861   */\n      add\n        /* \"#utility.yul\":20842:20861   */\n      swap1\n      pop\n        /* \"#utility.yul\":20501:20867   */\n      swap2\n      swap1\n      pop\n      jump\t// out\n        /* \"#utility.yul\":20873:21292   */\n    tag_208:\n        /* \"#utility.yul\":21039:21043   */\n      0x00\n        /* \"#utility.yul\":21077:21079   */\n      0x20\n        /* \"#utility.yul\":21066:21075   */\n      dup3\n        /* \"#utility.yul\":21062:21080   */\n      add\n        /* \"#utility.yul\":21054:21080   */\n      swap1\n      pop\n        /* \"#utility.yul\":21126:21135   */\n      dup2\n        /* \"#utility.yul\":21120:21124   */\n      dup2\n        /* \"#utility.yul\":21116:21136   */\n      sub\n        /* \"#utility.yul\":21112:21113   */\n      0x00\n        /* \"#utility.yul\":21101:21110   */\n      dup4\n        /* \"#utility.yul\":21097:21114   */\n      add\n        /* \"#utility.yul\":21090:21137   */\n      mstore\n        /* \"#utility.yul\":21154:21285   */\n      tag_510\n        /* \"#utility.yul\":21280:21284   */\n      dup2\n        /* \"#utility.yul\":21154:21285   */\n      tag_287\n      jump\t// in\n    tag_510:\n        /* \"#utility.yul\":21146:21285   */\n      swap1\n      pop\n        /* \"#utility.yul\":20873:21292   */\n      swap2\n      swap1\n      pop\n      jump\t// out\n        /* \"#utility.yul\":21298:21523   */\n    tag_288:\n        /* \"#utility.yul\":21438:21472   */\n      0x416464726573733a20696e73756666696369656e742062616c616e636520666f\n        /* \"#utility.yul\":21434:21435   */\n      0x00\n        /* \"#utility.yul\":21426:21432   */\n      dup3\n        /* \"#utility.yul\":21422:21436   */\n      add\n        /* \"#utility.yul\":21415:21473   */\n      mstore\n        /* \"#utility.yul\":21507:21515   */\n      0x722063616c6c0000000000000000000000000000000000000000000000000000\n        /* \"#utility.yul\":21502:21504   */\n      0x20\n        /* \"#utility.yul\":21494:21500   */\n      dup3\n        /* \"#utility.yul\":21490:21505   */\n      add\n        /* \"#utility.yul\":21483:21516   */\n      mstore\n        /* \"#utility.yul\":21298:21523   */\n      pop\n      jump\t// out\n        /* \"#utility.yul\":21529:21895   */\n    tag_289:\n        /* \"#utility.yul\":21671:21674   */\n      0x00\n        /* \"#utility.yul\":21692:21759   */\n      tag_513\n        /* \"#utility.yul\":21756:21758   */\n      0x26\n        /* \"#utility.yul\":21751:21754   */\n      dup4\n        /* \"#utility.yul\":21692:21759   */\n      tag_278\n      jump\t// in\n    tag_513:\n        /* \"#utility.yul\":21685:21759   */\n      swap2\n      pop\n        /* \"#utility.yul\":21768:21861   */\n      tag_514\n        /* \"#utility.yul\":21857:21860   */\n      dup3\n        /* \"#utility.yul\":21768:21861   */\n      tag_288\n      jump\t// in\n    tag_514:\n        /* \"#utility.yul\":21886:21888   */\n      0x40\n        /* \"#utility.yul\":21881:21884   */\n      dup3\n        /* \"#utility.yul\":21877:21889   */\n      add\n        /* \"#utility.yul\":21870:21889   */\n      swap1\n      pop\n        /* \"#utility.yul\":21529:21895   */\n      swap2\n      swap1\n      pop\n      jump\t// out\n        /* \"#utility.yul\":21901:22320   */\n    tag_215:\n        /* \"#utility.yul\":22067:22071   */\n      0x00\n        /* \"#utility.yul\":22105:22107   */\n      0x20\n        /* \"#utility.yul\":22094:22103   */\n      dup3\n        /* \"#utility.yul\":22090:22108   */\n      add\n        /* \"#utility.yul\":22082:22108   */\n      swap1\n      pop\n        /* \"#utility.yul\":22154:22163   */\n      dup2\n        /* \"#utility.yul\":22148:22152   */\n      dup2\n        /* \"#utility.yul\":22144:22164   */\n      sub\n        /* \"#utility.yul\":22140:22141   */\n      0x00\n        /* \"#utility.yul\":22129:22138   */\n      dup4\n        /* \"#utility.yul\":22125:22142   */\n      add\n        /* \"#utility.yul\":22118:22165   */\n      mstore\n        /* \"#utility.yul\":22182:22313   */\n      tag_516\n        /* \"#utility.yul\":22308:22312   */\n      dup2\n        /* \"#utility.yul\":22182:22313   */\n      tag_289\n      jump\t// in\n    tag_516:\n        /* \"#utility.yul\":22174:22313   */\n      swap1\n      pop\n        /* \"#utility.yul\":21901:22320   */\n      swap2\n      swap1\n      pop\n      jump\t// out\n        /* \"#utility.yul\":22326:22505   */\n    tag_290:\n        /* \"#utility.yul\":22466:22497   */\n      0x416464726573733a2063616c6c20746f206e6f6e2d636f6e7472616374000000\n        /* \"#utility.yul\":22462:22463   */\n      0x00\n        /* \"#utility.yul\":22454:22460   */\n      dup3\n        /* \"#utility.yul\":22450:22464   */\n      add\n        /* \"#utility.yul\":22443:22498   */\n      mstore\n        /* \"#utility.yul\":22326:22505   */\n      pop\n      jump\t// out\n        /* \"#utility.yul\":22511:22877   */\n    tag_291:\n        /* \"#utility.yul\":22653:22656   */\n      0x00\n        /* \"#utility.yul\":22674:22741   */\n      tag_519\n        /* \"#utility.yul\":22738:22740   */\n      0x1d\n        /* \"#utility.yul\":22733:22736   */\n      dup4\n        /* \"#utility.yul\":22674:22741   */\n      tag_278\n      jump\t// in\n    tag_519:\n        /* \"#utility.yul\":22667:22741   */\n      swap2\n      pop\n        /* \"#utility.yul\":22750:22843   */\n      tag_520\n        /* \"#utility.yul\":22839:22842   */\n      dup3\n        /* \"#utility.yul\":22750:22843   */\n      tag_290\n      jump\t// in\n    tag_520:\n        /* \"#utility.yul\":22868:22870   */\n      0x20\n        /* \"#utility.yul\":22863:22866   */\n      dup3\n        /* \"#utility.yul\":22859:22871   */\n      add\n        /* \"#utility.yul\":22852:22871   */\n      swap1\n      pop\n        /* \"#utility.yul\":22511:22877   */\n      swap2\n      swap1\n      pop\n      jump\t// out\n        /* \"#utility.yul\":22883:23302   */\n    tag_220:\n        /* \"#utility.yul\":23049:23053   */\n      0x00\n        /* \"#utility.yul\":23087:23089   */\n      0x20\n        /* \"#utility.yul\":23076:23085   */\n      dup3\n        /* \"#utility.yul\":23072:23090   */\n      add\n        /* \"#utility.yul\":23064:23090   */\n      swap1\n      pop\n        /* \"#utility.yul\":23136:23145   */\n      dup2\n        /* \"#utility.yul\":23130:23134   */\n      dup2\n        /* \"#utility.yul\":23126:23146   */\n      sub\n        /* \"#utility.yul\":23122:23123   */\n      0x00\n        /* \"#utility.yul\":23111:23120   */\n      dup4\n        /* \"#utility.yul\":23107:23124   */\n      add\n        /* \"#utility.yul\":23100:23147   */\n      mstore\n        /* \"#utility.yul\":23164:23295   */\n      tag_522\n        /* \"#utility.yul\":23290:23294   */\n      dup2\n        /* \"#utility.yul\":23164:23295   */\n      tag_291\n      jump\t// in\n    tag_522:\n        /* \"#utility.yul\":23156:23295   */\n      swap1\n      pop\n        /* \"#utility.yul\":22883:23302   */\n      swap2\n      swap1\n      pop\n      jump\t// out\n        /* \"#utility.yul\":23308:23406   */\n    tag_292:\n        /* \"#utility.yul\":23359:23365   */\n      0x00\n        /* \"#utility.yul\":23393:23398   */\n      dup2\n        /* \"#utility.yul\":23387:23399   */\n      mload\n        /* \"#utility.yul\":23377:23399   */\n      swap1\n      pop\n        /* \"#utility.yul\":23308:23406   */\n      swap2\n      swap1\n      pop\n      jump\t// out\n        /* \"#utility.yul\":23412:23559   */\n    tag_293:\n        /* \"#utility.yul\":23513:23524   */\n      0x00\n        /* \"#utility.yul\":23550:23553   */\n      dup2\n        /* \"#utility.yul\":23535:23553   */\n      swap1\n      pop\n        /* \"#utility.yul\":23412:23559   */\n      swap3\n      swap2\n      pop\n      pop\n      jump\t// out\n        /* \"#utility.yul\":23565:23872   */\n    tag_294:\n        /* \"#utility.yul\":23633:23634   */\n      0x00\n        /* \"#utility.yul\":23643:23756   */\n    tag_526:\n        /* \"#utility.yul\":23657:23663   */\n      dup4\n        /* \"#utility.yul\":23654:23655   */\n      dup2\n        /* \"#utility.yul\":23651:23664   */\n      lt\n        /* \"#utility.yul\":23643:23756   */\n      iszero\n      tag_528\n      jumpi\n        /* \"#utility.yul\":23742:23743   */\n      dup1\n        /* \"#utility.yul\":23737:23740   */\n      dup3\n        /* \"#utility.yul\":23733:23744   */\n      add\n        /* \"#utility.yul\":23727:23745   */\n      mload\n        /* \"#utility.yul\":23723:23724   */\n      dup2\n        /* \"#utility.yul\":23718:23721   */\n      dup5\n        /* \"#utility.yul\":23714:23725   */\n      add\n        /* \"#utility.yul\":23707:23746   */\n      mstore\n        /* \"#utility.yul\":23679:23681   */\n      0x20\n        /* \"#utility.yul\":23676:23677   */\n      dup2\n        /* \"#utility.yul\":23672:23682   */\n      add\n        /* \"#utility.yul\":23667:23682   */\n      swap1\n      pop\n        /* \"#utility.yul\":23643:23756   */\n      jump(tag_526)\n    tag_528:\n        /* \"#utility.yul\":23774:23780   */\n      dup4\n        /* \"#utility.yul\":23771:23772   */\n      dup2\n        /* \"#utility.yul\":23768:23781   */\n      gt\n        /* \"#utility.yul\":23765:23866   */\n      iszero\n      tag_529\n      jumpi\n        /* \"#utility.yul\":23854:23855   */\n      0x00\n        /* \"#utility.yul\":23845:23851   */\n      dup5\n        /* \"#utility.yul\":23840:23843   */\n      dup5\n        /* \"#utility.yul\":23836:23852   */\n      add\n        /* \"#utility.yul\":23829:23856   */\n      mstore\n        /* \"#utility.yul\":23765:23866   */\n    tag_529:\n        /* \"#utility.yul\":23614:23872   */\n      pop\n        /* \"#utility.yul\":23565:23872   */\n      pop\n      pop\n      pop\n      jump\t// out\n        /* \"#utility.yul\":23878:24251   */\n    tag_295:\n        /* \"#utility.yul\":23982:23985   */\n      0x00\n        /* \"#utility.yul\":24010:24048   */\n      tag_531\n        /* \"#utility.yul\":24042:24047   */\n      dup3\n        /* \"#utility.yul\":24010:24048   */\n      tag_292\n      jump\t// in\n    tag_531:\n        /* \"#utility.yul\":24064:24152   */\n      tag_532\n        /* \"#utility.yul\":24145:24151   */\n      dup2\n        /* \"#utility.yul\":24140:24143   */\n      dup6\n        /* \"#utility.yul\":24064:24152   */\n      tag_293\n      jump\t// in\n    tag_532:\n        /* \"#utility.yul\":24057:24152   */\n      swap4\n      pop\n        /* \"#utility.yul\":24161:24213   */\n      tag_533\n        /* \"#utility.yul\":24206:24212   */\n      dup2\n        /* \"#utility.yul\":24201:24204   */\n      dup6\n        /* \"#utility.yul\":24194:24198   */\n      0x20\n        /* \"#utility.yul\":24187:24192   */\n      dup7\n        /* \"#utility.yul\":24183:24199   */\n      add\n        /* \"#utility.yul\":24161:24213   */\n      tag_294\n      jump\t// in\n    tag_533:\n        /* \"#utility.yul\":24238:24244   */\n      dup1\n        /* \"#utility.yul\":24233:24236   */\n      dup5\n        /* \"#utility.yul\":24229:24245   */\n      add\n        /* \"#utility.yul\":24222:24245   */\n      swap2\n      pop\n        /* \"#utility.yul\":23986:24251   */\n      pop\n        /* \"#utility.yul\":23878:24251   */\n      swap3\n      swap2\n      pop\n      pop\n      jump\t// out\n        /* \"#utility.yul\":24257:24528   */\n    tag_222:\n        /* \"#utility.yul\":24387:24390   */\n      0x00\n        /* \"#utility.yul\":24409:24502   */\n      tag_535\n        /* \"#utility.yul\":24498:24501   */\n      dup3\n        /* \"#utility.yul\":24489:24495   */\n      dup5\n        /* \"#utility.yul\":24409:24502   */\n      tag_295\n      jump\t// in\n    tag_535:\n        /* \"#utility.yul\":24402:24502   */\n      swap2\n      pop\n        /* \"#utility.yul\":24519:24522   */\n      dup2\n        /* \"#utility.yul\":24512:24522   */\n      swap1\n      pop\n        /* \"#utility.yul\":24257:24528   */\n      swap3\n      swap2\n      pop\n      pop\n      jump\t// out\n        /* \"#utility.yul\":24534:24633   */\n    tag_296:\n        /* \"#utility.yul\":24586:24592   */\n      0x00\n        /* \"#utility.yul\":24620:24625   */\n      dup2\n        /* \"#utility.yul\":24614:24626   */\n      mload\n        /* \"#utility.yul\":24604:24626   */\n      swap1\n      pop\n        /* \"#utility.yul\":24534:24633   */\n      swap2\n      swap1\n      pop\n      jump\t// out\n        /* \"#utility.yul\":24639:25003   */\n    tag_297:\n        /* \"#utility.yul\":24727:24730   */\n      0x00\n        /* \"#utility.yul\":24755:24794   */\n      tag_538\n        /* \"#utility.yul\":24788:24793   */\n      dup3\n        /* \"#utility.yul\":24755:24794   */\n      tag_296\n      jump\t// in\n    tag_538:\n        /* \"#utility.yul\":24810:24881   */\n      tag_539\n        /* \"#utility.yul\":24874:24880   */\n      dup2\n        /* \"#utility.yul\":24869:24872   */\n      dup6\n        /* \"#utility.yul\":24810:24881   */\n      tag_278\n      jump\t// in\n    tag_539:\n        /* \"#utility.yul\":24803:24881   */\n      swap4\n      pop\n        /* \"#utility.yul\":24890:24942   */\n      tag_540\n        /* \"#utility.yul\":24935:24941   */\n      dup2\n        /* \"#utility.yul\":24930:24933   */\n      dup6\n        /* \"#utility.yul\":24923:24927   */\n      0x20\n        /* \"#utility.yul\":24916:24921   */\n      dup7\n        /* \"#utility.yul\":24912:24928   */\n      add\n        /* \"#utility.yul\":24890:24942   */\n      tag_294\n      jump\t// in\n    tag_540:\n        /* \"#utility.yul\":24967:24996   */\n      tag_541\n        /* \"#utility.yul\":24989:24995   */\n      dup2\n        /* \"#utility.yul\":24967:24996   */\n      tag_268\n      jump\t// in\n    tag_541:\n        /* \"#utility.yul\":24962:24965   */\n      dup5\n        /* \"#utility.yul\":24958:24997   */\n      add\n        /* \"#utility.yul\":24951:24997   */\n      swap2\n      pop\n        /* \"#utility.yul\":24731:25003   */\n      pop\n        /* \"#utility.yul\":24639:25003   */\n      swap3\n      swap2\n      pop\n      pop\n      jump\t// out\n        /* \"#utility.yul\":25009:25322   */\n    tag_235:\n        /* \"#utility.yul\":25122:25126   */\n      0x00\n        /* \"#utility.yul\":25160:25162   */\n      0x20\n        /* \"#utility.yul\":25149:25158   */\n      dup3\n        /* \"#utility.yul\":25145:25163   */\n      add\n        /* \"#utility.yul\":25137:25163   */\n      swap1\n      pop\n        /* \"#utility.yul\":25209:25218   */\n      dup2\n        /* \"#utility.yul\":25203:25207   */\n      dup2\n        /* \"#utility.yul\":25199:25219   */\n      sub\n        /* \"#utility.yul\":25195:25196   */\n      0x00\n        /* \"#utility.yul\":25184:25193   */\n      dup4\n        /* \"#utility.yul\":25180:25197   */\n      add\n        /* \"#utility.yul\":25173:25220   */\n      mstore\n        /* \"#utility.yul\":25237:25315   */\n      tag_543\n        /* \"#utility.yul\":25310:25314   */\n      dup2\n        /* \"#utility.yul\":25301:25307   */\n      dup5\n        /* \"#utility.yul\":25237:25315   */\n      tag_297\n      jump\t// in\n    tag_543:\n        /* \"#utility.yul\":25229:25315   */\n      swap1\n      pop\n        /* \"#utility.yul\":25009:25322   */\n      swap3\n      swap2\n      pop\n      pop\n      jump\t// out\n\n    auxdata: 0xa2646970667358221220f7a16c048ea61e16d39792ee5b1bdd46d8a7a6bc252e927109fd9c6ee58e2f1564736f6c634300080d0033\n}\n",
				"bytecode": {
					"linkReferences": {},
					"object": "60806040523480156200001157600080fd5b5060405162002130380380620021308339818101604052810190620000379190620000e8565b806000806101000a81548173ffffffffffffffffffffffffffffffffffffffff021916908373ffffffffffffffffffffffffffffffffffffffff160217905550506200011a565b600080fd5b600073ffffffffffffffffffffffffffffffffffffffff82169050919050565b6000620000b08262000083565b9050919050565b620000c281620000a3565b8114620000ce57600080fd5b50565b600081519050620000e281620000b7565b92915050565b6000602082840312156200010157620001006200007e565b5b60006200011184828501620000d1565b91505092915050565b612006806200012a6000396000f3fe60806040526004361061004a5760003560e01c806316f0115b1461004f5780634daa13db1461007a578063648c2273146100b7578063651b100c146100f4578063fe78a2e214610124575b600080fd5b34801561005b57600080fd5b50610064610154565b60405161007191906112b5565b60405180910390f35b34801561008657600080fd5b506100a1600480360381019061009c91906113bd565b610178565b6040516100ae919061152a565b60405180910390f35b3480156100c357600080fd5b506100de60048036038101906100d991906113bd565b610433565b6040516100eb919061152a565b60405180910390f35b61010e6004803603810190610109919061154c565b6107df565b60405161011b919061152a565b60405180910390f35b61013e6004803603810190610139919061154c565b6109d4565b60405161014b919061152a565b60405180910390f35b60008054906101000a900473ffffffffffffffffffffffffffffffffffffffff1681565b60606101cf33308887876000818110610194576101936115e6565b5b90506020020160208101906101a99190611615565b73ffffffffffffffffffffffffffffffffffffffff16610c87909392919063ffffffff16565b6102228887868660008181106101e8576101e76115e6565b5b90506020020160208101906101fd9190611615565b73ffffffffffffffffffffffffffffffffffffffff16610d109092919063ffffffff16565b8773ffffffffffffffffffffffffffffffffffffffff166318cbafe58787878730886040518763ffffffff1660e01b815260040161026596959493929190611723565b6000604051808303816000875af1158015610284573d6000803e3d6000fd5b505050506040513d6000823e3d601f19601f820116820180604052508101906102ad91906118e3565b905060006127108883600185516102c4919061195b565b815181106102d5576102d46115e6565b5b60200260200101516102e7919061198f565b6102f19190611a18565b9050808260018451610303919061195b565b81518110610314576103136115e6565b5b6020026020010151610326919061195b565b8260018451610335919061195b565b81518110610346576103456115e6565b5b6020026020010181815250503373ffffffffffffffffffffffffffffffffffffffff166108fc836001855161037b919061195b565b8151811061038c5761038b6115e6565b5b60200260200101519081150290604051600060405180830381858888f193505050501580156103bf573d6000803e3d6000fd5b5060008054906101000a900473ffffffffffffffffffffffffffffffffffffffff1673ffffffffffffffffffffffffffffffffffffffff166108fc829081150290604051600060405180830381858888f19350505050158015610426573d6000803e3d6000fd5b5050979650505050505050565b606061052733308a73ffffffffffffffffffffffffffffffffffffffff16631f00ca748a89896040518463ffffffff1660e01b815260040161047793929190611a49565b600060405180830381865afa158015610494573d6000803e3d6000fd5b505050506040513d6000823e3d601f19601f820116820180604052508101906104bd91906118e3565b6000815181106104d0576104cf6115e6565b5b6020026020010151878760008181106104ec576104eb6115e6565b5b90506020020160208101906105019190611615565b73ffffffffffffffffffffffffffffffffffffffff16610c87909392919063ffffffff16565b61057a8886868660008181106105405761053f6115e6565b5b90506020020160208101906105559190611615565b73ffffffffffffffffffffffffffffffffffffffff16610d109092919063ffffffff16565b8773ffffffffffffffffffffffffffffffffffffffff16634a25d94a8787878730886040518763ffffffff1660e01b81526004016105bd96959493929190611723565b6000604051808303816000875af11580156105dc573d6000803e3d6000fd5b505050506040513d6000823e3d601f19601f8201168201806040525081019061060591906118e3565b905061065b88600086866000818110610621576106206115e6565b5b90506020020160208101906106369190611615565b73ffffffffffffffffffffffffffffffffffffffff16610e229092919063ffffffff16565b6000612710888360018551610670919061195b565b81518110610681576106806115e6565b5b6020026020010151610693919061198f565b61069d9190611a18565b90508082600184516106af919061195b565b815181106106c0576106bf6115e6565b5b60200260200101516106d2919061195b565b82600184516106e1919061195b565b815181106106f2576106f16115e6565b5b6020026020010181815250503373ffffffffffffffffffffffffffffffffffffffff166108fc8360018551610727919061195b565b81518110610738576107376115e6565b5b60200260200101519081150290604051600060405180830381858888f1935050505015801561076b573d6000803e3d6000fd5b5060008054906101000a900473ffffffffffffffffffffffffffffffffffffffff1673ffffffffffffffffffffffffffffffffffffffff166108fc829081150290604051600060405180830381858888f193505050501580156107d2573d6000803e3d6000fd5b5050979650505050505050565b606060003411610824576040517f08c379a000000000000000000000000000000000000000000000000000000000815260040161081b90611ad8565b60405180910390fd5b60006127108734610835919061198f565b61083f9190611a18565b90508773ffffffffffffffffffffffffffffffffffffffff16637ff36ab58234610869919061195b565b88888830896040518763ffffffff1660e01b815260040161088e959493929190611af8565b60006040518083038185885af11580156108ac573d6000803e3d6000fd5b50505050506040513d6000823e3d601f19601f820116820180604052508101906108d691906118e3565b915061096233836001888890506108ed919061195b565b815181106108fe576108fd6115e6565b5b6020026020010151878760018a8a9050610918919061195b565b818110610928576109276115e6565b5b905060200201602081019061093d9190611615565b73ffffffffffffffffffffffffffffffffffffffff16610f719092919063ffffffff16565b60008054906101000a900473ffffffffffffffffffffffffffffffffffffffff1673ffffffffffffffffffffffffffffffffffffffff166108fc829081150290604051600060405180830381858888f193505050501580156109c8573d6000803e3d6000fd5b50509695505050505050565b606060003411610a19576040517f08c379a0000000000000000000000000000000000000000000000000000000008152600401610a1090611ad8565b60405180910390fd5b60008773ffffffffffffffffffffffffffffffffffffffff16631f00ca748787876040518463ffffffff1660e01b8152600401610a5893929190611a49565b600060405180830381865afa158015610a75573d6000803e3d6000fd5b505050506040513d6000823e3d601f19601f82011682018060405250810190610a9e91906118e3565b600181518110610ab157610ab06115e6565b5b6020026020010151905060006127108883610acc919061198f565b610ad69190611a18565b90506127108888610ae7919061198f565b610af19190611a18565b96508873ffffffffffffffffffffffffffffffffffffffff1663fb3bdb418234610b1b919061195b565b898989308a6040518763ffffffff1660e01b8152600401610b40959493929190611af8565b60006040518083038185885af1158015610b5e573d6000803e3d6000fd5b50505050506040513d6000823e3d601f19601f82011682018060405250810190610b8891906118e3565b9250610c143384600189899050610b9f919061195b565b81518110610bb057610baf6115e6565b5b6020026020010151888860018b8b9050610bca919061195b565b818110610bda57610bd96115e6565b5b9050602002016020810190610bef9190611615565b73ffffffffffffffffffffffffffffffffffffffff16610f719092919063ffffffff16565b60008054906101000a900473ffffffffffffffffffffffffffffffffffffffff1673ffffffffffffffffffffffffffffffffffffffff166108fc829081150290604051600060405180830381858888f19350505050158015610c7a573d6000803e3d6000fd5b5050509695505050505050565b610d0a846323b872dd60e01b858585604051602401610ca893929190611b46565b604051602081830303815290604052907bffffffffffffffffffffffffffffffffffffffffffffffffffffffff19166020820180517bffffffffffffffffffffffffffffffffffffffffffffffffffffffff8381831617835250505050610ff7565b50505050565b6000818473ffffffffffffffffffffffffffffffffffffffff1663dd62ed3e30866040518363ffffffff1660e01b8152600401610d4e929190611b7d565b602060405180830381865afa158015610d6b573d6000803e3d6000fd5b505050506040513d601f19601f82011682018060405250810190610d8f9190611ba6565b610d999190611bd3565b9050610e1c8463095ea7b360e01b8584604051602401610dba929190611c29565b604051602081830303815290604052907bffffffffffffffffffffffffffffffffffffffffffffffffffffffff19166020820180517bffffffffffffffffffffffffffffffffffffffffffffffffffffffff8381831617835250505050610ff7565b50505050565b6000811480610eac575060008373ffffffffffffffffffffffffffffffffffffffff1663dd62ed3e30856040518363ffffffff1660e01b8152600401610e69929190611b7d565b602060405180830381865afa158015610e86573d6000803e3d6000fd5b505050506040513d601f19601f82011682018060405250810190610eaa9190611ba6565b145b610eeb576040517f08c379a0000000000000000000000000000000000000000000000000000000008152600401610ee290611cc4565b60405180910390fd5b610f6c8363095ea7b360e01b8484604051602401610f0a929190611c29565b604051602081830303815290604052907bffffffffffffffffffffffffffffffffffffffffffffffffffffffff19166020820180517bffffffffffffffffffffffffffffffffffffffffffffffffffffffff8381831617835250505050610ff7565b505050565b610ff28363a9059cbb60e01b8484604051602401610f90929190611c29565b604051602081830303815290604052907bffffffffffffffffffffffffffffffffffffffffffffffffffffffff19166020820180517bffffffffffffffffffffffffffffffffffffffffffffffffffffffff8381831617835250505050610ff7565b505050565b6000611059826040518060400160405280602081526020017f5361666545524332303a206c6f772d6c6576656c2063616c6c206661696c65648152508573ffffffffffffffffffffffffffffffffffffffff166110be9092919063ffffffff16565b90506000815111156110b957808060200190518101906110799190611d1c565b6110b8576040517f08c379a00000000000000000000000000000000000000000000000000000000081526004016110af90611dbb565b60405180910390fd5b5b505050565b60606110cd84846000856110d6565b90509392505050565b60608247101561111b576040517f08c379a000000000000000000000000000000000000000000000000000000000815260040161111290611e4d565b60405180910390fd5b611124856111ea565b611163576040517f08c379a000000000000000000000000000000000000000000000000000000000815260040161115a90611eb9565b60405180910390fd5b6000808673ffffffffffffffffffffffffffffffffffffffff16858760405161118c9190611f53565b60006040518083038185875af1925050503d80600081146111c9576040519150601f19603f3d011682016040523d82523d6000602084013e6111ce565b606091505b50915091506111de82828661120d565b92505050949350505050565b6000808273ffffffffffffffffffffffffffffffffffffffff163b119050919050565b6060831561121d5782905061126d565b6000835111156112305782518084602001fd5b816040517f08c379a00000000000000000000000000000000000000000000000000000000081526004016112649190611fae565b60405180910390fd5b9392505050565b600073ffffffffffffffffffffffffffffffffffffffff82169050919050565b600061129f82611274565b9050919050565b6112af81611294565b82525050565b60006020820190506112ca60008301846112a6565b92915050565b6000604051905090565b600080fd5b600080fd5b60006112ef82611274565b9050919050565b6112ff816112e4565b811461130a57600080fd5b50565b60008135905061131c816112f6565b92915050565b6000819050919050565b61133581611322565b811461134057600080fd5b50565b6000813590506113528161132c565b92915050565b600080fd5b600080fd5b600080fd5b60008083601f84011261137d5761137c611358565b5b8235905067ffffffffffffffff81111561139a5761139961135d565b5b6020830191508360208202830111156113b6576113b5611362565b5b9250929050565b600080600080600080600060c0888a0312156113dc576113db6112da565b5b60006113ea8a828b0161130d565b97505060206113fb8a828b01611343565b965050604061140c8a828b01611343565b955050606061141d8a828b01611343565b945050608088013567ffffffffffffffff81111561143e5761143d6112df565b5b61144a8a828b01611367565b935093505060a061145d8a828b01611343565b91505092959891949750929550565b600081519050919050565b600082825260208201905092915050565b6000819050602082019050919050565b6114a181611322565b82525050565b60006114b38383611498565b60208301905092915050565b6000602082019050919050565b60006114d78261146c565b6114e18185611477565b93506114ec83611488565b8060005b8381101561151d57815161150488826114a7565b975061150f836114bf565b9250506001810190506114f0565b5085935050505092915050565b6000602082019050818103600083015261154481846114cc565b905092915050565b60008060008060008060a08789031215611569576115686112da565b5b600061157789828a0161130d565b965050602061158889828a01611343565b955050604061159989828a01611343565b945050606087013567ffffffffffffffff8111156115ba576115b96112df565b5b6115c689828a01611367565b935093505060806115d989828a01611343565b9150509295509295509295565b7f4e487b7100000000000000000000000000000000000000000000000000000000600052603260045260246000fd5b60006020828403121561162b5761162a6112da565b5b60006116398482850161130d565b91505092915050565b61164b81611322565b82525050565b600082825260208201905092915050565b6000819050919050565b611675816112e4565b82525050565b6000611687838361166c565b60208301905092915050565b60006116a2602084018461130d565b905092915050565b6000602082019050919050565b60006116c38385611651565b93506116ce82611662565b8060005b85811015611707576116e48284611693565b6116ee888261167b565b97506116f9836116aa565b9250506001810190506116d2565b5085925050509392505050565b61171d816112e4565b82525050565b600060a0820190506117386000830189611642565b6117456020830188611642565b81810360408301526117588186886116b7565b90506117676060830185611714565b6117746080830184611642565b979650505050505050565b6000601f19601f8301169050919050565b7f4e487b7100000000000000000000000000000000000000000000000000000000600052604160045260246000fd5b6117c88261177f565b810181811067ffffffffffffffff821117156117e7576117e6611790565b5b80604052505050565b60006117fa6112d0565b905061180682826117bf565b919050565b600067ffffffffffffffff82111561182657611825611790565b5b602082029050602081019050919050565b6000815190506118468161132c565b92915050565b600061185f61185a8461180b565b6117f0565b9050808382526020820190506020840283018581111561188257611881611362565b5b835b818110156118ab57806118978882611837565b845260208401935050602081019050611884565b5050509392505050565b600082601f8301126118ca576118c9611358565b5b81516118da84826020860161184c565b91505092915050565b6000602082840312156118f9576118f86112da565b5b600082015167ffffffffffffffff811115611917576119166112df565b5b611923848285016118b5565b91505092915050565b7f4e487b7100000000000000000000000000000000000000000000000000000000600052601160045260246000fd5b600061196682611322565b915061197183611322565b9250828210156119845761198361192c565b5b828203905092915050565b600061199a82611322565b91506119a583611322565b9250817fffffffffffffffffffffffffffffffffffffffffffffffffffffffffffffffff04831182151516156119de576119dd61192c565b5b828202905092915050565b7f4e487b7100000000000000000000000000000000000000000000000000000000600052601260045260246000fd5b6000611a2382611322565b9150611a2e83611322565b925082611a3e57611a3d6119e9565b5b828204905092915050565b6000604082019050611a5e6000830186611642565b8181036020830152611a718184866116b7565b9050949350505050565b600082825260208201905092915050565b7f4e6f206d73672e76616c75652100000000000000000000000000000000000000600082015250565b6000611ac2600d83611a7b565b9150611acd82611a8c565b602082019050919050565b60006020820190508181036000830152611af181611ab5565b9050919050565b6000608082019050611b0d6000830188611642565b8181036020830152611b208186886116b7565b9050611b2f6040830185611714565b611b3c6060830184611642565b9695505050505050565b6000606082019050611b5b6000830186611714565b611b686020830185611714565b611b756040830184611642565b949350505050565b6000604082019050611b926000830185611714565b611b9f6020830184611714565b9392505050565b600060208284031215611bbc57611bbb6112da565b5b6000611bca84828501611837565b91505092915050565b6000611bde82611322565b9150611be983611322565b9250827fffffffffffffffffffffffffffffffffffffffffffffffffffffffffffffffff03821115611c1e57611c1d61192c565b5b828201905092915050565b6000604082019050611c3e6000830185611714565b611c4b6020830184611642565b9392505050565b7f5361666545524332303a20617070726f76652066726f6d206e6f6e2d7a65726f60008201527f20746f206e6f6e2d7a65726f20616c6c6f77616e636500000000000000000000602082015250565b6000611cae603683611a7b565b9150611cb982611c52565b604082019050919050565b60006020820190508181036000830152611cdd81611ca1565b9050919050565b60008115159050919050565b611cf981611ce4565b8114611d0457600080fd5b50565b600081519050611d1681611cf0565b92915050565b600060208284031215611d3257611d316112da565b5b6000611d4084828501611d07565b91505092915050565b7f5361666545524332303a204552433230206f7065726174696f6e20646964206e60008201527f6f74207375636365656400000000000000000000000000000000000000000000602082015250565b6000611da5602a83611a7b565b9150611db082611d49565b604082019050919050565b60006020820190508181036000830152611dd481611d98565b9050919050565b7f416464726573733a20696e73756666696369656e742062616c616e636520666f60008201527f722063616c6c0000000000000000000000000000000000000000000000000000602082015250565b6000611e37602683611a7b565b9150611e4282611ddb565b604082019050919050565b60006020820190508181036000830152611e6681611e2a565b9050919050565b7f416464726573733a2063616c6c20746f206e6f6e2d636f6e7472616374000000600082015250565b6000611ea3601d83611a7b565b9150611eae82611e6d565b602082019050919050565b60006020820190508181036000830152611ed281611e96565b9050919050565b600081519050919050565b600081905092915050565b60005b83811015611f0d578082015181840152602081019050611ef2565b83811115611f1c576000848401525b50505050565b6000611f2d82611ed9565b611f378185611ee4565b9350611f47818560208601611eef565b80840191505092915050565b6000611f5f8284611f22565b915081905092915050565b600081519050919050565b6000611f8082611f6a565b611f8a8185611a7b565b9350611f9a818560208601611eef565b611fa38161177f565b840191505092915050565b60006020820190508181036000830152611fc88184611f75565b90509291505056fea2646970667358221220f7a16c048ea61e16d39792ee5b1bdd46d8a7a6bc252e927109fd9c6ee58e2f1564736f6c634300080d0033",
					"opcodes": "PUSH1 0x80 PUSH1 0x40 MSTORE CALLVALUE DUP1 ISZERO PUSH3 0x11 JUMPI PUSH1 0x0 DUP1 REVERT JUMPDEST POP PUSH1 0x40 MLOAD PUSH3 0x2130 CODESIZE SUB DUP1 PUSH3 0x2130 DUP4 CODECOPY DUP2 DUP2 ADD PUSH1 0x40 MSTORE DUP2 ADD SWAP1 PUSH3 0x37 SWAP2 SWAP1 PUSH3 0xE8 JUMP JUMPDEST DUP1 PUSH1 0x0 DUP1 PUSH2 0x100 EXP DUP2 SLOAD DUP2 PUSH20 0xFFFFFFFFFFFFFFFFFFFFFFFFFFFFFFFFFFFFFFFF MUL NOT AND SWAP1 DUP4 PUSH20 0xFFFFFFFFFFFFFFFFFFFFFFFFFFFFFFFFFFFFFFFF AND MUL OR SWAP1 SSTORE POP POP PUSH3 0x11A JUMP JUMPDEST PUSH1 0x0 DUP1 REVERT JUMPDEST PUSH1 0x0 PUSH20 0xFFFFFFFFFFFFFFFFFFFFFFFFFFFFFFFFFFFFFFFF DUP3 AND SWAP1 POP SWAP2 SWAP1 POP JUMP JUMPDEST PUSH1 0x0 PUSH3 0xB0 DUP3 PUSH3 0x83 JUMP JUMPDEST SWAP1 POP SWAP2 SWAP1 POP JUMP JUMPDEST PUSH3 0xC2 DUP2 PUSH3 0xA3 JUMP JUMPDEST DUP2 EQ PUSH3 0xCE JUMPI PUSH1 0x0 DUP1 REVERT JUMPDEST POP JUMP JUMPDEST PUSH1 0x0 DUP2 MLOAD SWAP1 POP PUSH3 0xE2 DUP2 PUSH3 0xB7 JUMP JUMPDEST SWAP3 SWAP2 POP POP JUMP JUMPDEST PUSH1 0x0 PUSH1 0x20 DUP3 DUP5 SUB SLT ISZERO PUSH3 0x101 JUMPI PUSH3 0x100 PUSH3 0x7E JUMP JUMPDEST JUMPDEST PUSH1 0x0 PUSH3 0x111 DUP5 DUP3 DUP6 ADD PUSH3 0xD1 JUMP JUMPDEST SWAP2 POP POP SWAP3 SWAP2 POP POP JUMP JUMPDEST PUSH2 0x2006 DUP1 PUSH3 0x12A PUSH1 0x0 CODECOPY PUSH1 0x0 RETURN INVALID PUSH1 0x80 PUSH1 0x40 MSTORE PUSH1 0x4 CALLDATASIZE LT PUSH2 0x4A JUMPI PUSH1 0x0 CALLDATALOAD PUSH1 0xE0 SHR DUP1 PUSH4 0x16F0115B EQ PUSH2 0x4F JUMPI DUP1 PUSH4 0x4DAA13DB EQ PUSH2 0x7A JUMPI DUP1 PUSH4 0x648C2273 EQ PUSH2 0xB7 JUMPI DUP1 PUSH4 0x651B100C EQ PUSH2 0xF4 JUMPI DUP1 PUSH4 0xFE78A2E2 EQ PUSH2 0x124 JUMPI JUMPDEST PUSH1 0x0 DUP1 REVERT JUMPDEST CALLVALUE DUP1 ISZERO PUSH2 0x5B JUMPI PUSH1 0x0 DUP1 REVERT JUMPDEST POP PUSH2 0x64 PUSH2 0x154 JUMP JUMPDEST PUSH1 0x40 MLOAD PUSH2 0x71 SWAP2 SWAP1 PUSH2 0x12B5 JUMP JUMPDEST PUSH1 0x40 MLOAD DUP1 SWAP2 SUB SWAP1 RETURN JUMPDEST CALLVALUE DUP1 ISZERO PUSH2 0x86 JUMPI PUSH1 0x0 DUP1 REVERT JUMPDEST POP PUSH2 0xA1 PUSH1 0x4 DUP1 CALLDATASIZE SUB DUP2 ADD SWAP1 PUSH2 0x9C SWAP2 SWAP1 PUSH2 0x13BD JUMP JUMPDEST PUSH2 0x178 JUMP JUMPDEST PUSH1 0x40 MLOAD PUSH2 0xAE SWAP2 SWAP1 PUSH2 0x152A JUMP JUMPDEST PUSH1 0x40 MLOAD DUP1 SWAP2 SUB SWAP1 RETURN JUMPDEST CALLVALUE DUP1 ISZERO PUSH2 0xC3 JUMPI PUSH1 0x0 DUP1 REVERT JUMPDEST POP PUSH2 0xDE PUSH1 0x4 DUP1 CALLDATASIZE SUB DUP2 ADD SWAP1 PUSH2 0xD9 SWAP2 SWAP1 PUSH2 0x13BD JUMP JUMPDEST PUSH2 0x433 JUMP JUMPDEST PUSH1 0x40 MLOAD PUSH2 0xEB SWAP2 SWAP1 PUSH2 0x152A JUMP JUMPDEST PUSH1 0x40 MLOAD DUP1 SWAP2 SUB SWAP1 RETURN JUMPDEST PUSH2 0x10E PUSH1 0x4 DUP1 CALLDATASIZE SUB DUP2 ADD SWAP1 PUSH2 0x109 SWAP2 SWAP1 PUSH2 0x154C JUMP JUMPDEST PUSH2 0x7DF JUMP JUMPDEST PUSH1 0x40 MLOAD PUSH2 0x11B SWAP2 SWAP1 PUSH2 0x152A JUMP JUMPDEST PUSH1 0x40 MLOAD DUP1 SWAP2 SUB SWAP1 RETURN JUMPDEST PUSH2 0x13E PUSH1 0x4 DUP1 CALLDATASIZE SUB DUP2 ADD SWAP1 PUSH2 0x139 SWAP2 SWAP1 PUSH2 0x154C JUMP JUMPDEST PUSH2 0x9D4 JUMP JUMPDEST PUSH1 0x40 MLOAD PUSH2 0x14B SWAP2 SWAP1 PUSH2 0x152A JUMP JUMPDEST PUSH1 0x40 MLOAD DUP1 SWAP2 SUB SWAP1 RETURN JUMPDEST PUSH1 0x0 DUP1 SLOAD SWAP1 PUSH2 0x100 EXP SWAP1 DIV PUSH20 0xFFFFFFFFFFFFFFFFFFFFFFFFFFFFFFFFFFFFFFFF AND DUP2 JUMP JUMPDEST PUSH1 0x60 PUSH2 0x1CF CALLER ADDRESS DUP9 DUP8 DUP8 PUSH1 0x0 DUP2 DUP2 LT PUSH2 0x194 JUMPI PUSH2 0x193 PUSH2 0x15E6 JUMP JUMPDEST JUMPDEST SWAP1 POP PUSH1 0x20 MUL ADD PUSH1 0x20 DUP2 ADD SWAP1 PUSH2 0x1A9 SWAP2 SWAP1 PUSH2 0x1615 JUMP JUMPDEST PUSH20 0xFFFFFFFFFFFFFFFFFFFFFFFFFFFFFFFFFFFFFFFF AND PUSH2 0xC87 SWAP1 SWAP4 SWAP3 SWAP2 SWAP1 PUSH4 0xFFFFFFFF AND JUMP JUMPDEST PUSH2 0x222 DUP9 DUP8 DUP7 DUP7 PUSH1 0x0 DUP2 DUP2 LT PUSH2 0x1E8 JUMPI PUSH2 0x1E7 PUSH2 0x15E6 JUMP JUMPDEST JUMPDEST SWAP1 POP PUSH1 0x20 MUL ADD PUSH1 0x20 DUP2 ADD SWAP1 PUSH2 0x1FD SWAP2 SWAP1 PUSH2 0x1615 JUMP JUMPDEST PUSH20 0xFFFFFFFFFFFFFFFFFFFFFFFFFFFFFFFFFFFFFFFF AND PUSH2 0xD10 SWAP1 SWAP3 SWAP2 SWAP1 PUSH4 0xFFFFFFFF AND JUMP JUMPDEST DUP8 PUSH20 0xFFFFFFFFFFFFFFFFFFFFFFFFFFFFFFFFFFFFFFFF AND PUSH4 0x18CBAFE5 DUP8 DUP8 DUP8 DUP8 ADDRESS DUP9 PUSH1 0x40 MLOAD DUP8 PUSH4 0xFFFFFFFF AND PUSH1 0xE0 SHL DUP2 MSTORE PUSH1 0x4 ADD PUSH2 0x265 SWAP7 SWAP6 SWAP5 SWAP4 SWAP3 SWAP2 SWAP1 PUSH2 0x1723 JUMP JUMPDEST PUSH1 0x0 PUSH1 0x40 MLOAD DUP1 DUP4 SUB DUP2 PUSH1 0x0 DUP8 GAS CALL ISZERO DUP1 ISZERO PUSH2 0x284 JUMPI RETURNDATASIZE PUSH1 0x0 DUP1 RETURNDATACOPY RETURNDATASIZE PUSH1 0x0 REVERT JUMPDEST POP POP POP POP PUSH1 0x40 MLOAD RETURNDATASIZE PUSH1 0x0 DUP3 RETURNDATACOPY RETURNDATASIZE PUSH1 0x1F NOT PUSH1 0x1F DUP3 ADD AND DUP3 ADD DUP1 PUSH1 0x40 MSTORE POP DUP2 ADD SWAP1 PUSH2 0x2AD SWAP2 SWAP1 PUSH2 0x18E3 JUMP JUMPDEST SWAP1 POP PUSH1 0x0 PUSH2 0x2710 DUP9 DUP4 PUSH1 0x1 DUP6 MLOAD PUSH2 0x2C4 SWAP2 SWAP1 PUSH2 0x195B JUMP JUMPDEST DUP2 MLOAD DUP2 LT PUSH2 0x2D5 JUMPI PUSH2 0x2D4 PUSH2 0x15E6 JUMP JUMPDEST JUMPDEST PUSH1 0x20 MUL PUSH1 0x20 ADD ADD MLOAD PUSH2 0x2E7 SWAP2 SWAP1 PUSH2 0x198F JUMP JUMPDEST PUSH2 0x2F1 SWAP2 SWAP1 PUSH2 0x1A18 JUMP JUMPDEST SWAP1 POP DUP1 DUP3 PUSH1 0x1 DUP5 MLOAD PUSH2 0x303 SWAP2 SWAP1 PUSH2 0x195B JUMP JUMPDEST DUP2 MLOAD DUP2 LT PUSH2 0x314 JUMPI PUSH2 0x313 PUSH2 0x15E6 JUMP JUMPDEST JUMPDEST PUSH1 0x20 MUL PUSH1 0x20 ADD ADD MLOAD PUSH2 0x326 SWAP2 SWAP1 PUSH2 0x195B JUMP JUMPDEST DUP3 PUSH1 0x1 DUP5 MLOAD PUSH2 0x335 SWAP2 SWAP1 PUSH2 0x195B JUMP JUMPDEST DUP2 MLOAD DUP2 LT PUSH2 0x346 JUMPI PUSH2 0x345 PUSH2 0x15E6 JUMP JUMPDEST JUMPDEST PUSH1 0x20 MUL PUSH1 0x20 ADD ADD DUP2 DUP2 MSTORE POP POP CALLER PUSH20 0xFFFFFFFFFFFFFFFFFFFFFFFFFFFFFFFFFFFFFFFF AND PUSH2 0x8FC DUP4 PUSH1 0x1 DUP6 MLOAD PUSH2 0x37B SWAP2 SWAP1 PUSH2 0x195B JUMP JUMPDEST DUP2 MLOAD DUP2 LT PUSH2 0x38C JUMPI PUSH2 0x38B PUSH2 0x15E6 JUMP JUMPDEST JUMPDEST PUSH1 0x20 MUL PUSH1 0x20 ADD ADD MLOAD SWAP1 DUP2 ISZERO MUL SWAP1 PUSH1 0x40 MLOAD PUSH1 0x0 PUSH1 0x40 MLOAD DUP1 DUP4 SUB DUP2 DUP6 DUP9 DUP9 CALL SWAP4 POP POP POP POP ISZERO DUP1 ISZERO PUSH2 0x3BF JUMPI RETURNDATASIZE PUSH1 0x0 DUP1 RETURNDATACOPY RETURNDATASIZE PUSH1 0x0 REVERT JUMPDEST POP PUSH1 0x0 DUP1 SLOAD SWAP1 PUSH2 0x100 EXP SWAP1 DIV PUSH20 0xFFFFFFFFFFFFFFFFFFFFFFFFFFFFFFFFFFFFFFFF AND PUSH20 0xFFFFFFFFFFFFFFFFFFFFFFFFFFFFFFFFFFFFFFFF AND PUSH2 0x8FC DUP3 SWAP1 DUP2 ISZERO MUL SWAP1 PUSH1 0x40 MLOAD PUSH1 0x0 PUSH1 0x40 MLOAD DUP1 DUP4 SUB DUP2 DUP6 DUP9 DUP9 CALL SWAP4 POP POP POP POP ISZERO DUP1 ISZERO PUSH2 0x426 JUMPI RETURNDATASIZE PUSH1 0x0 DUP1 RETURNDATACOPY RETURNDATASIZE PUSH1 0x0 REVERT JUMPDEST POP POP SWAP8 SWAP7 POP POP POP POP POP POP POP JUMP JUMPDEST PUSH1 0x60 PUSH2 0x527 CALLER ADDRESS DUP11 PUSH20 0xFFFFFFFFFFFFFFFFFFFFFFFFFFFFFFFFFFFFFFFF AND PUSH4 0x1F00CA74 DUP11 DUP10 DUP10 PUSH1 0x40 MLOAD DUP5 PUSH4 0xFFFFFFFF AND PUSH1 0xE0 SHL DUP2 MSTORE PUSH1 0x4 ADD PUSH2 0x477 SWAP4 SWAP3 SWAP2 SWAP1 PUSH2 0x1A49 JUMP JUMPDEST PUSH1 0x0 PUSH1 0x40 MLOAD DUP1 DUP4 SUB DUP2 DUP7 GAS STATICCALL ISZERO DUP1 ISZERO PUSH2 0x494 JUMPI RETURNDATASIZE PUSH1 0x0 DUP1 RETURNDATACOPY RETURNDATASIZE PUSH1 0x0 REVERT JUMPDEST POP POP POP POP PUSH1 0x40 MLOAD RETURNDATASIZE PUSH1 0x0 DUP3 RETURNDATACOPY RETURNDATASIZE PUSH1 0x1F NOT PUSH1 0x1F DUP3 ADD AND DUP3 ADD DUP1 PUSH1 0x40 MSTORE POP DUP2 ADD SWAP1 PUSH2 0x4BD SWAP2 SWAP1 PUSH2 0x18E3 JUMP JUMPDEST PUSH1 0x0 DUP2 MLOAD DUP2 LT PUSH2 0x4D0 JUMPI PUSH2 0x4CF PUSH2 0x15E6 JUMP JUMPDEST JUMPDEST PUSH1 0x20 MUL PUSH1 0x20 ADD ADD MLOAD DUP8 DUP8 PUSH1 0x0 DUP2 DUP2 LT PUSH2 0x4EC JUMPI PUSH2 0x4EB PUSH2 0x15E6 JUMP JUMPDEST JUMPDEST SWAP1 POP PUSH1 0x20 MUL ADD PUSH1 0x20 DUP2 ADD SWAP1 PUSH2 0x501 SWAP2 SWAP1 PUSH2 0x1615 JUMP JUMPDEST PUSH20 0xFFFFFFFFFFFFFFFFFFFFFFFFFFFFFFFFFFFFFFFF AND PUSH2 0xC87 SWAP1 SWAP4 SWAP3 SWAP2 SWAP1 PUSH4 0xFFFFFFFF AND JUMP JUMPDEST PUSH2 0x57A DUP9 DUP7 DUP7 DUP7 PUSH1 0x0 DUP2 DUP2 LT PUSH2 0x540 JUMPI PUSH2 0x53F PUSH2 0x15E6 JUMP JUMPDEST JUMPDEST SWAP1 POP PUSH1 0x20 MUL ADD PUSH1 0x20 DUP2 ADD SWAP1 PUSH2 0x555 SWAP2 SWAP1 PUSH2 0x1615 JUMP JUMPDEST PUSH20 0xFFFFFFFFFFFFFFFFFFFFFFFFFFFFFFFFFFFFFFFF AND PUSH2 0xD10 SWAP1 SWAP3 SWAP2 SWAP1 PUSH4 0xFFFFFFFF AND JUMP JUMPDEST DUP8 PUSH20 0xFFFFFFFFFFFFFFFFFFFFFFFFFFFFFFFFFFFFFFFF AND PUSH4 0x4A25D94A DUP8 DUP8 DUP8 DUP8 ADDRESS DUP9 PUSH1 0x40 MLOAD DUP8 PUSH4 0xFFFFFFFF AND PUSH1 0xE0 SHL DUP2 MSTORE PUSH1 0x4 ADD PUSH2 0x5BD SWAP7 SWAP6 SWAP5 SWAP4 SWAP3 SWAP2 SWAP1 PUSH2 0x1723 JUMP JUMPDEST PUSH1 0x0 PUSH1 0x40 MLOAD DUP1 DUP4 SUB DUP2 PUSH1 0x0 DUP8 GAS CALL ISZERO DUP1 ISZERO PUSH2 0x5DC JUMPI RETURNDATASIZE PUSH1 0x0 DUP1 RETURNDATACOPY RETURNDATASIZE PUSH1 0x0 REVERT JUMPDEST POP POP POP POP PUSH1 0x40 MLOAD RETURNDATASIZE PUSH1 0x0 DUP3 RETURNDATACOPY RETURNDATASIZE PUSH1 0x1F NOT PUSH1 0x1F DUP3 ADD AND DUP3 ADD DUP1 PUSH1 0x40 MSTORE POP DUP2 ADD SWAP1 PUSH2 0x605 SWAP2 SWAP1 PUSH2 0x18E3 JUMP JUMPDEST SWAP1 POP PUSH2 0x65B DUP9 PUSH1 0x0 DUP7 DUP7 PUSH1 0x0 DUP2 DUP2 LT PUSH2 0x621 JUMPI PUSH2 0x620 PUSH2 0x15E6 JUMP JUMPDEST JUMPDEST SWAP1 POP PUSH1 0x20 MUL ADD PUSH1 0x20 DUP2 ADD SWAP1 PUSH2 0x636 SWAP2 SWAP1 PUSH2 0x1615 JUMP JUMPDEST PUSH20 0xFFFFFFFFFFFFFFFFFFFFFFFFFFFFFFFFFFFFFFFF AND PUSH2 0xE22 SWAP1 SWAP3 SWAP2 SWAP1 PUSH4 0xFFFFFFFF AND JUMP JUMPDEST PUSH1 0x0 PUSH2 0x2710 DUP9 DUP4 PUSH1 0x1 DUP6 MLOAD PUSH2 0x670 SWAP2 SWAP1 PUSH2 0x195B JUMP JUMPDEST DUP2 MLOAD DUP2 LT PUSH2 0x681 JUMPI PUSH2 0x680 PUSH2 0x15E6 JUMP JUMPDEST JUMPDEST PUSH1 0x20 MUL PUSH1 0x20 ADD ADD MLOAD PUSH2 0x693 SWAP2 SWAP1 PUSH2 0x198F JUMP JUMPDEST PUSH2 0x69D SWAP2 SWAP1 PUSH2 0x1A18 JUMP JUMPDEST SWAP1 POP DUP1 DUP3 PUSH1 0x1 DUP5 MLOAD PUSH2 0x6AF SWAP2 SWAP1 PUSH2 0x195B JUMP JUMPDEST DUP2 MLOAD DUP2 LT PUSH2 0x6C0 JUMPI PUSH2 0x6BF PUSH2 0x15E6 JUMP JUMPDEST JUMPDEST PUSH1 0x20 MUL PUSH1 0x20 ADD ADD MLOAD PUSH2 0x6D2 SWAP2 SWAP1 PUSH2 0x195B JUMP JUMPDEST DUP3 PUSH1 0x1 DUP5 MLOAD PUSH2 0x6E1 SWAP2 SWAP1 PUSH2 0x195B JUMP JUMPDEST DUP2 MLOAD DUP2 LT PUSH2 0x6F2 JUMPI PUSH2 0x6F1 PUSH2 0x15E6 JUMP JUMPDEST JUMPDEST PUSH1 0x20 MUL PUSH1 0x20 ADD ADD DUP2 DUP2 MSTORE POP POP CALLER PUSH20 0xFFFFFFFFFFFFFFFFFFFFFFFFFFFFFFFFFFFFFFFF AND PUSH2 0x8FC DUP4 PUSH1 0x1 DUP6 MLOAD PUSH2 0x727 SWAP2 SWAP1 PUSH2 0x195B JUMP JUMPDEST DUP2 MLOAD DUP2 LT PUSH2 0x738 JUMPI PUSH2 0x737 PUSH2 0x15E6 JUMP JUMPDEST JUMPDEST PUSH1 0x20 MUL PUSH1 0x20 ADD ADD MLOAD SWAP1 DUP2 ISZERO MUL SWAP1 PUSH1 0x40 MLOAD PUSH1 0x0 PUSH1 0x40 MLOAD DUP1 DUP4 SUB DUP2 DUP6 DUP9 DUP9 CALL SWAP4 POP POP POP POP ISZERO DUP1 ISZERO PUSH2 0x76B JUMPI RETURNDATASIZE PUSH1 0x0 DUP1 RETURNDATACOPY RETURNDATASIZE PUSH1 0x0 REVERT JUMPDEST POP PUSH1 0x0 DUP1 SLOAD SWAP1 PUSH2 0x100 EXP SWAP1 DIV PUSH20 0xFFFFFFFFFFFFFFFFFFFFFFFFFFFFFFFFFFFFFFFF AND PUSH20 0xFFFFFFFFFFFFFFFFFFFFFFFFFFFFFFFFFFFFFFFF AND PUSH2 0x8FC DUP3 SWAP1 DUP2 ISZERO MUL SWAP1 PUSH1 0x40 MLOAD PUSH1 0x0 PUSH1 0x40 MLOAD DUP1 DUP4 SUB DUP2 DUP6 DUP9 DUP9 CALL SWAP4 POP POP POP POP ISZERO DUP1 ISZERO PUSH2 0x7D2 JUMPI RETURNDATASIZE PUSH1 0x0 DUP1 RETURNDATACOPY RETURNDATASIZE PUSH1 0x0 REVERT JUMPDEST POP POP SWAP8 SWAP7 POP POP POP POP POP POP POP JUMP JUMPDEST PUSH1 0x60 PUSH1 0x0 CALLVALUE GT PUSH2 0x824 JUMPI PUSH1 0x40 MLOAD PUSH32 0x8C379A000000000000000000000000000000000000000000000000000000000 DUP2 MSTORE PUSH1 0x4 ADD PUSH2 0x81B SWAP1 PUSH2 0x1AD8 JUMP JUMPDEST PUSH1 0x40 MLOAD DUP1 SWAP2 SUB SWAP1 REVERT JUMPDEST PUSH1 0x0 PUSH2 0x2710 DUP8 CALLVALUE PUSH2 0x835 SWAP2 SWAP1 PUSH2 0x198F JUMP JUMPDEST PUSH2 0x83F SWAP2 SWAP1 PUSH2 0x1A18 JUMP JUMPDEST SWAP1 POP DUP8 PUSH20 0xFFFFFFFFFFFFFFFFFFFFFFFFFFFFFFFFFFFFFFFF AND PUSH4 0x7FF36AB5 DUP3 CALLVALUE PUSH2 0x869 SWAP2 SWAP1 PUSH2 0x195B JUMP JUMPDEST DUP9 DUP9 DUP9 ADDRESS DUP10 PUSH1 0x40 MLOAD DUP8 PUSH4 0xFFFFFFFF AND PUSH1 0xE0 SHL DUP2 MSTORE PUSH1 0x4 ADD PUSH2 0x88E SWAP6 SWAP5 SWAP4 SWAP3 SWAP2 SWAP1 PUSH2 0x1AF8 JUMP JUMPDEST PUSH1 0x0 PUSH1 0x40 MLOAD DUP1 DUP4 SUB DUP2 DUP6 DUP9 GAS CALL ISZERO DUP1 ISZERO PUSH2 0x8AC JUMPI RETURNDATASIZE PUSH1 0x0 DUP1 RETURNDATACOPY RETURNDATASIZE PUSH1 0x0 REVERT JUMPDEST POP POP POP POP POP PUSH1 0x40 MLOAD RETURNDATASIZE PUSH1 0x0 DUP3 RETURNDATACOPY RETURNDATASIZE PUSH1 0x1F NOT PUSH1 0x1F DUP3 ADD AND DUP3 ADD DUP1 PUSH1 0x40 MSTORE POP DUP2 ADD SWAP1 PUSH2 0x8D6 SWAP2 SWAP1 PUSH2 0x18E3 JUMP JUMPDEST SWAP2 POP PUSH2 0x962 CALLER DUP4 PUSH1 0x1 DUP9 DUP9 SWAP1 POP PUSH2 0x8ED SWAP2 SWAP1 PUSH2 0x195B JUMP JUMPDEST DUP2 MLOAD DUP2 LT PUSH2 0x8FE JUMPI PUSH2 0x8FD PUSH2 0x15E6 JUMP JUMPDEST JUMPDEST PUSH1 0x20 MUL PUSH1 0x20 ADD ADD MLOAD DUP8 DUP8 PUSH1 0x1 DUP11 DUP11 SWAP1 POP PUSH2 0x918 SWAP2 SWAP1 PUSH2 0x195B JUMP JUMPDEST DUP2 DUP2 LT PUSH2 0x928 JUMPI PUSH2 0x927 PUSH2 0x15E6 JUMP JUMPDEST JUMPDEST SWAP1 POP PUSH1 0x20 MUL ADD PUSH1 0x20 DUP2 ADD SWAP1 PUSH2 0x93D SWAP2 SWAP1 PUSH2 0x1615 JUMP JUMPDEST PUSH20 0xFFFFFFFFFFFFFFFFFFFFFFFFFFFFFFFFFFFFFFFF AND PUSH2 0xF71 SWAP1 SWAP3 SWAP2 SWAP1 PUSH4 0xFFFFFFFF AND JUMP JUMPDEST PUSH1 0x0 DUP1 SLOAD SWAP1 PUSH2 0x100 EXP SWAP1 DIV PUSH20 0xFFFFFFFFFFFFFFFFFFFFFFFFFFFFFFFFFFFFFFFF AND PUSH20 0xFFFFFFFFFFFFFFFFFFFFFFFFFFFFFFFFFFFFFFFF AND PUSH2 0x8FC DUP3 SWAP1 DUP2 ISZERO MUL SWAP1 PUSH1 0x40 MLOAD PUSH1 0x0 PUSH1 0x40 MLOAD DUP1 DUP4 SUB DUP2 DUP6 DUP9 DUP9 CALL SWAP4 POP POP POP POP ISZERO DUP1 ISZERO PUSH2 0x9C8 JUMPI RETURNDATASIZE PUSH1 0x0 DUP1 RETURNDATACOPY RETURNDATASIZE PUSH1 0x0 REVERT JUMPDEST POP POP SWAP7 SWAP6 POP POP POP POP POP POP JUMP JUMPDEST PUSH1 0x60 PUSH1 0x0 CALLVALUE GT PUSH2 0xA19 JUMPI PUSH1 0x40 MLOAD PUSH32 0x8C379A000000000000000000000000000000000000000000000000000000000 DUP2 MSTORE PUSH1 0x4 ADD PUSH2 0xA10 SWAP1 PUSH2 0x1AD8 JUMP JUMPDEST PUSH1 0x40 MLOAD DUP1 SWAP2 SUB SWAP1 REVERT JUMPDEST PUSH1 0x0 DUP8 PUSH20 0xFFFFFFFFFFFFFFFFFFFFFFFFFFFFFFFFFFFFFFFF AND PUSH4 0x1F00CA74 DUP8 DUP8 DUP8 PUSH1 0x40 MLOAD DUP5 PUSH4 0xFFFFFFFF AND PUSH1 0xE0 SHL DUP2 MSTORE PUSH1 0x4 ADD PUSH2 0xA58 SWAP4 SWAP3 SWAP2 SWAP1 PUSH2 0x1A49 JUMP JUMPDEST PUSH1 0x0 PUSH1 0x40 MLOAD DUP1 DUP4 SUB DUP2 DUP7 GAS STATICCALL ISZERO DUP1 ISZERO PUSH2 0xA75 JUMPI RETURNDATASIZE PUSH1 0x0 DUP1 RETURNDATACOPY RETURNDATASIZE PUSH1 0x0 REVERT JUMPDEST POP POP POP POP PUSH1 0x40 MLOAD RETURNDATASIZE PUSH1 0x0 DUP3 RETURNDATACOPY RETURNDATASIZE PUSH1 0x1F NOT PUSH1 0x1F DUP3 ADD AND DUP3 ADD DUP1 PUSH1 0x40 MSTORE POP DUP2 ADD SWAP1 PUSH2 0xA9E SWAP2 SWAP1 PUSH2 0x18E3 JUMP JUMPDEST PUSH1 0x1 DUP2 MLOAD DUP2 LT PUSH2 0xAB1 JUMPI PUSH2 0xAB0 PUSH2 0x15E6 JUMP JUMPDEST JUMPDEST PUSH1 0x20 MUL PUSH1 0x20 ADD ADD MLOAD SWAP1 POP PUSH1 0x0 PUSH2 0x2710 DUP9 DUP4 PUSH2 0xACC SWAP2 SWAP1 PUSH2 0x198F JUMP JUMPDEST PUSH2 0xAD6 SWAP2 SWAP1 PUSH2 0x1A18 JUMP JUMPDEST SWAP1 POP PUSH2 0x2710 DUP9 DUP9 PUSH2 0xAE7 SWAP2 SWAP1 PUSH2 0x198F JUMP JUMPDEST PUSH2 0xAF1 SWAP2 SWAP1 PUSH2 0x1A18 JUMP JUMPDEST SWAP7 POP DUP9 PUSH20 0xFFFFFFFFFFFFFFFFFFFFFFFFFFFFFFFFFFFFFFFF AND PUSH4 0xFB3BDB41 DUP3 CALLVALUE PUSH2 0xB1B SWAP2 SWAP1 PUSH2 0x195B JUMP JUMPDEST DUP10 DUP10 DUP10 ADDRESS DUP11 PUSH1 0x40 MLOAD DUP8 PUSH4 0xFFFFFFFF AND PUSH1 0xE0 SHL DUP2 MSTORE PUSH1 0x4 ADD PUSH2 0xB40 SWAP6 SWAP5 SWAP4 SWAP3 SWAP2 SWAP1 PUSH2 0x1AF8 JUMP JUMPDEST PUSH1 0x0 PUSH1 0x40 MLOAD DUP1 DUP4 SUB DUP2 DUP6 DUP9 GAS CALL ISZERO DUP1 ISZERO PUSH2 0xB5E JUMPI RETURNDATASIZE PUSH1 0x0 DUP1 RETURNDATACOPY RETURNDATASIZE PUSH1 0x0 REVERT JUMPDEST POP POP POP POP POP PUSH1 0x40 MLOAD RETURNDATASIZE PUSH1 0x0 DUP3 RETURNDATACOPY RETURNDATASIZE PUSH1 0x1F NOT PUSH1 0x1F DUP3 ADD AND DUP3 ADD DUP1 PUSH1 0x40 MSTORE POP DUP2 ADD SWAP1 PUSH2 0xB88 SWAP2 SWAP1 PUSH2 0x18E3 JUMP JUMPDEST SWAP3 POP PUSH2 0xC14 CALLER DUP5 PUSH1 0x1 DUP10 DUP10 SWAP1 POP PUSH2 0xB9F SWAP2 SWAP1 PUSH2 0x195B JUMP JUMPDEST DUP2 MLOAD DUP2 LT PUSH2 0xBB0 JUMPI PUSH2 0xBAF PUSH2 0x15E6 JUMP JUMPDEST JUMPDEST PUSH1 0x20 MUL PUSH1 0x20 ADD ADD MLOAD DUP9 DUP9 PUSH1 0x1 DUP12 DUP12 SWAP1 POP PUSH2 0xBCA SWAP2 SWAP1 PUSH2 0x195B JUMP JUMPDEST DUP2 DUP2 LT PUSH2 0xBDA JUMPI PUSH2 0xBD9 PUSH2 0x15E6 JUMP JUMPDEST JUMPDEST SWAP1 POP PUSH1 0x20 MUL ADD PUSH1 0x20 DUP2 ADD SWAP1 PUSH2 0xBEF SWAP2 SWAP1 PUSH2 0x1615 JUMP JUMPDEST PUSH20 0xFFFFFFFFFFFFFFFFFFFFFFFFFFFFFFFFFFFFFFFF AND PUSH2 0xF71 SWAP1 SWAP3 SWAP2 SWAP1 PUSH4 0xFFFFFFFF AND JUMP JUMPDEST PUSH1 0x0 DUP1 SLOAD SWAP1 PUSH2 0x100 EXP SWAP1 DIV PUSH20 0xFFFFFFFFFFFFFFFFFFFFFFFFFFFFFFFFFFFFFFFF AND PUSH20 0xFFFFFFFFFFFFFFFFFFFFFFFFFFFFFFFFFFFFFFFF AND PUSH2 0x8FC DUP3 SWAP1 DUP2 ISZERO MUL SWAP1 PUSH1 0x40 MLOAD PUSH1 0x0 PUSH1 0x40 MLOAD DUP1 DUP4 SUB DUP2 DUP6 DUP9 DUP9 CALL SWAP4 POP POP POP POP ISZERO DUP1 ISZERO PUSH2 0xC7A JUMPI RETURNDATASIZE PUSH1 0x0 DUP1 RETURNDATACOPY RETURNDATASIZE PUSH1 0x0 REVERT JUMPDEST POP POP POP SWAP7 SWAP6 POP POP POP POP POP POP JUMP JUMPDEST PUSH2 0xD0A DUP5 PUSH4 0x23B872DD PUSH1 0xE0 SHL DUP6 DUP6 DUP6 PUSH1 0x40 MLOAD PUSH1 0x24 ADD PUSH2 0xCA8 SWAP4 SWAP3 SWAP2 SWAP1 PUSH2 0x1B46 JUMP JUMPDEST PUSH1 0x40 MLOAD PUSH1 0x20 DUP2 DUP4 SUB SUB DUP2 MSTORE SWAP1 PUSH1 0x40 MSTORE SWAP1 PUSH28 0xFFFFFFFFFFFFFFFFFFFFFFFFFFFFFFFFFFFFFFFFFFFFFFFFFFFFFFFF NOT AND PUSH1 0x20 DUP3 ADD DUP1 MLOAD PUSH28 0xFFFFFFFFFFFFFFFFFFFFFFFFFFFFFFFFFFFFFFFFFFFFFFFFFFFFFFFF DUP4 DUP2 DUP4 AND OR DUP4 MSTORE POP POP POP POP PUSH2 0xFF7 JUMP JUMPDEST POP POP POP POP JUMP JUMPDEST PUSH1 0x0 DUP2 DUP5 PUSH20 0xFFFFFFFFFFFFFFFFFFFFFFFFFFFFFFFFFFFFFFFF AND PUSH4 0xDD62ED3E ADDRESS DUP7 PUSH1 0x40 MLOAD DUP4 PUSH4 0xFFFFFFFF AND PUSH1 0xE0 SHL DUP2 MSTORE PUSH1 0x4 ADD PUSH2 0xD4E SWAP3 SWAP2 SWAP1 PUSH2 0x1B7D JUMP JUMPDEST PUSH1 0x20 PUSH1 0x40 MLOAD DUP1 DUP4 SUB DUP2 DUP7 GAS STATICCALL ISZERO DUP1 ISZERO PUSH2 0xD6B JUMPI RETURNDATASIZE PUSH1 0x0 DUP1 RETURNDATACOPY RETURNDATASIZE PUSH1 0x0 REVERT JUMPDEST POP POP POP POP PUSH1 0x40 MLOAD RETURNDATASIZE PUSH1 0x1F NOT PUSH1 0x1F DUP3 ADD AND DUP3 ADD DUP1 PUSH1 0x40 MSTORE POP DUP2 ADD SWAP1 PUSH2 0xD8F SWAP2 SWAP1 PUSH2 0x1BA6 JUMP JUMPDEST PUSH2 0xD99 SWAP2 SWAP1 PUSH2 0x1BD3 JUMP JUMPDEST SWAP1 POP PUSH2 0xE1C DUP5 PUSH4 0x95EA7B3 PUSH1 0xE0 SHL DUP6 DUP5 PUSH1 0x40 MLOAD PUSH1 0x24 ADD PUSH2 0xDBA SWAP3 SWAP2 SWAP1 PUSH2 0x1C29 JUMP JUMPDEST PUSH1 0x40 MLOAD PUSH1 0x20 DUP2 DUP4 SUB SUB DUP2 MSTORE SWAP1 PUSH1 0x40 MSTORE SWAP1 PUSH28 0xFFFFFFFFFFFFFFFFFFFFFFFFFFFFFFFFFFFFFFFFFFFFFFFFFFFFFFFF NOT AND PUSH1 0x20 DUP3 ADD DUP1 MLOAD PUSH28 0xFFFFFFFFFFFFFFFFFFFFFFFFFFFFFFFFFFFFFFFFFFFFFFFFFFFFFFFF DUP4 DUP2 DUP4 AND OR DUP4 MSTORE POP POP POP POP PUSH2 0xFF7 JUMP JUMPDEST POP POP POP POP JUMP JUMPDEST PUSH1 0x0 DUP2 EQ DUP1 PUSH2 0xEAC JUMPI POP PUSH1 0x0 DUP4 PUSH20 0xFFFFFFFFFFFFFFFFFFFFFFFFFFFFFFFFFFFFFFFF AND PUSH4 0xDD62ED3E ADDRESS DUP6 PUSH1 0x40 MLOAD DUP4 PUSH4 0xFFFFFFFF AND PUSH1 0xE0 SHL DUP2 MSTORE PUSH1 0x4 ADD PUSH2 0xE69 SWAP3 SWAP2 SWAP1 PUSH2 0x1B7D JUMP JUMPDEST PUSH1 0x20 PUSH1 0x40 MLOAD DUP1 DUP4 SUB DUP2 DUP7 GAS STATICCALL ISZERO DUP1 ISZERO PUSH2 0xE86 JUMPI RETURNDATASIZE PUSH1 0x0 DUP1 RETURNDATACOPY RETURNDATASIZE PUSH1 0x0 REVERT JUMPDEST POP POP POP POP PUSH1 0x40 MLOAD RETURNDATASIZE PUSH1 0x1F NOT PUSH1 0x1F DUP3 ADD AND DUP3 ADD DUP1 PUSH1 0x40 MSTORE POP DUP2 ADD SWAP1 PUSH2 0xEAA SWAP2 SWAP1 PUSH2 0x1BA6 JUMP JUMPDEST EQ JUMPDEST PUSH2 0xEEB JUMPI PUSH1 0x40 MLOAD PUSH32 0x8C379A000000000000000000000000000000000000000000000000000000000 DUP2 MSTORE PUSH1 0x4 ADD PUSH2 0xEE2 SWAP1 PUSH2 0x1CC4 JUMP JUMPDEST PUSH1 0x40 MLOAD DUP1 SWAP2 SUB SWAP1 REVERT JUMPDEST PUSH2 0xF6C DUP4 PUSH4 0x95EA7B3 PUSH1 0xE0 SHL DUP5 DUP5 PUSH1 0x40 MLOAD PUSH1 0x24 ADD PUSH2 0xF0A SWAP3 SWAP2 SWAP1 PUSH2 0x1C29 JUMP JUMPDEST PUSH1 0x40 MLOAD PUSH1 0x20 DUP2 DUP4 SUB SUB DUP2 MSTORE SWAP1 PUSH1 0x40 MSTORE SWAP1 PUSH28 0xFFFFFFFFFFFFFFFFFFFFFFFFFFFFFFFFFFFFFFFFFFFFFFFFFFFFFFFF NOT AND PUSH1 0x20 DUP3 ADD DUP1 MLOAD PUSH28 0xFFFFFFFFFFFFFFFFFFFFFFFFFFFFFFFFFFFFFFFFFFFFFFFFFFFFFFFF DUP4 DUP2 DUP4 AND OR DUP4 MSTORE POP POP POP POP PUSH2 0xFF7 JUMP JUMPDEST POP POP POP JUMP JUMPDEST PUSH2 0xFF2 DUP4 PUSH4 0xA9059CBB PUSH1 0xE0 SHL DUP5 DUP5 PUSH1 0x40 MLOAD PUSH1 0x24 ADD PUSH2 0xF90 SWAP3 SWAP2 SWAP1 PUSH2 0x1C29 JUMP JUMPDEST PUSH1 0x40 MLOAD PUSH1 0x20 DUP2 DUP4 SUB SUB DUP2 MSTORE SWAP1 PUSH1 0x40 MSTORE SWAP1 PUSH28 0xFFFFFFFFFFFFFFFFFFFFFFFFFFFFFFFFFFFFFFFFFFFFFFFFFFFFFFFF NOT AND PUSH1 0x20 DUP3 ADD DUP1 MLOAD PUSH28 0xFFFFFFFFFFFFFFFFFFFFFFFFFFFFFFFFFFFFFFFFFFFFFFFFFFFFFFFF DUP4 DUP2 DUP4 AND OR DUP4 MSTORE POP POP POP POP PUSH2 0xFF7 JUMP JUMPDEST POP POP POP JUMP JUMPDEST PUSH1 0x0 PUSH2 0x1059 DUP3 PUSH1 0x40 MLOAD DUP1 PUSH1 0x40 ADD PUSH1 0x40 MSTORE DUP1 PUSH1 0x20 DUP2 MSTORE PUSH1 0x20 ADD PUSH32 0x5361666545524332303A206C6F772D6C6576656C2063616C6C206661696C6564 DUP2 MSTORE POP DUP6 PUSH20 0xFFFFFFFFFFFFFFFFFFFFFFFFFFFFFFFFFFFFFFFF AND PUSH2 0x10BE SWAP1 SWAP3 SWAP2 SWAP1 PUSH4 0xFFFFFFFF AND JUMP JUMPDEST SWAP1 POP PUSH1 0x0 DUP2 MLOAD GT ISZERO PUSH2 0x10B9 JUMPI DUP1 DUP1 PUSH1 0x20 ADD SWAP1 MLOAD DUP2 ADD SWAP1 PUSH2 0x1079 SWAP2 SWAP1 PUSH2 0x1D1C JUMP JUMPDEST PUSH2 0x10B8 JUMPI PUSH1 0x40 MLOAD PUSH32 0x8C379A000000000000000000000000000000000000000000000000000000000 DUP2 MSTORE PUSH1 0x4 ADD PUSH2 0x10AF SWAP1 PUSH2 0x1DBB JUMP JUMPDEST PUSH1 0x40 MLOAD DUP1 SWAP2 SUB SWAP1 REVERT JUMPDEST JUMPDEST POP POP POP JUMP JUMPDEST PUSH1 0x60 PUSH2 0x10CD DUP5 DUP5 PUSH1 0x0 DUP6 PUSH2 0x10D6 JUMP JUMPDEST SWAP1 POP SWAP4 SWAP3 POP POP POP JUMP JUMPDEST PUSH1 0x60 DUP3 SELFBALANCE LT ISZERO PUSH2 0x111B JUMPI PUSH1 0x40 MLOAD PUSH32 0x8C379A000000000000000000000000000000000000000000000000000000000 DUP2 MSTORE PUSH1 0x4 ADD PUSH2 0x1112 SWAP1 PUSH2 0x1E4D JUMP JUMPDEST PUSH1 0x40 MLOAD DUP1 SWAP2 SUB SWAP1 REVERT JUMPDEST PUSH2 0x1124 DUP6 PUSH2 0x11EA JUMP JUMPDEST PUSH2 0x1163 JUMPI PUSH1 0x40 MLOAD PUSH32 0x8C379A000000000000000000000000000000000000000000000000000000000 DUP2 MSTORE PUSH1 0x4 ADD PUSH2 0x115A SWAP1 PUSH2 0x1EB9 JUMP JUMPDEST PUSH1 0x40 MLOAD DUP1 SWAP2 SUB SWAP1 REVERT JUMPDEST PUSH1 0x0 DUP1 DUP7 PUSH20 0xFFFFFFFFFFFFFFFFFFFFFFFFFFFFFFFFFFFFFFFF AND DUP6 DUP8 PUSH1 0x40 MLOAD PUSH2 0x118C SWAP2 SWAP1 PUSH2 0x1F53 JUMP JUMPDEST PUSH1 0x0 PUSH1 0x40 MLOAD DUP1 DUP4 SUB DUP2 DUP6 DUP8 GAS CALL SWAP3 POP POP POP RETURNDATASIZE DUP1 PUSH1 0x0 DUP2 EQ PUSH2 0x11C9 JUMPI PUSH1 0x40 MLOAD SWAP2 POP PUSH1 0x1F NOT PUSH1 0x3F RETURNDATASIZE ADD AND DUP3 ADD PUSH1 0x40 MSTORE RETURNDATASIZE DUP3 MSTORE RETURNDATASIZE PUSH1 0x0 PUSH1 0x20 DUP5 ADD RETURNDATACOPY PUSH2 0x11CE JUMP JUMPDEST PUSH1 0x60 SWAP2 POP JUMPDEST POP SWAP2 POP SWAP2 POP PUSH2 0x11DE DUP3 DUP3 DUP7 PUSH2 0x120D JUMP JUMPDEST SWAP3 POP POP POP SWAP5 SWAP4 POP POP POP POP JUMP JUMPDEST PUSH1 0x0 DUP1 DUP3 PUSH20 0xFFFFFFFFFFFFFFFFFFFFFFFFFFFFFFFFFFFFFFFF AND EXTCODESIZE GT SWAP1 POP SWAP2 SWAP1 POP JUMP JUMPDEST PUSH1 0x60 DUP4 ISZERO PUSH2 0x121D JUMPI DUP3 SWAP1 POP PUSH2 0x126D JUMP JUMPDEST PUSH1 0x0 DUP4 MLOAD GT ISZERO PUSH2 0x1230 JUMPI DUP3 MLOAD DUP1 DUP5 PUSH1 0x20 ADD REVERT JUMPDEST DUP2 PUSH1 0x40 MLOAD PUSH32 0x8C379A000000000000000000000000000000000000000000000000000000000 DUP2 MSTORE PUSH1 0x4 ADD PUSH2 0x1264 SWAP2 SWAP1 PUSH2 0x1FAE JUMP JUMPDEST PUSH1 0x40 MLOAD DUP1 SWAP2 SUB SWAP1 REVERT JUMPDEST SWAP4 SWAP3 POP POP POP JUMP JUMPDEST PUSH1 0x0 PUSH20 0xFFFFFFFFFFFFFFFFFFFFFFFFFFFFFFFFFFFFFFFF DUP3 AND SWAP1 POP SWAP2 SWAP1 POP JUMP JUMPDEST PUSH1 0x0 PUSH2 0x129F DUP3 PUSH2 0x1274 JUMP JUMPDEST SWAP1 POP SWAP2 SWAP1 POP JUMP JUMPDEST PUSH2 0x12AF DUP2 PUSH2 0x1294 JUMP JUMPDEST DUP3 MSTORE POP POP JUMP JUMPDEST PUSH1 0x0 PUSH1 0x20 DUP3 ADD SWAP1 POP PUSH2 0x12CA PUSH1 0x0 DUP4 ADD DUP5 PUSH2 0x12A6 JUMP JUMPDEST SWAP3 SWAP2 POP POP JUMP JUMPDEST PUSH1 0x0 PUSH1 0x40 MLOAD SWAP1 POP SWAP1 JUMP JUMPDEST PUSH1 0x0 DUP1 REVERT JUMPDEST PUSH1 0x0 DUP1 REVERT JUMPDEST PUSH1 0x0 PUSH2 0x12EF DUP3 PUSH2 0x1274 JUMP JUMPDEST SWAP1 POP SWAP2 SWAP1 POP JUMP JUMPDEST PUSH2 0x12FF DUP2 PUSH2 0x12E4 JUMP JUMPDEST DUP2 EQ PUSH2 0x130A JUMPI PUSH1 0x0 DUP1 REVERT JUMPDEST POP JUMP JUMPDEST PUSH1 0x0 DUP2 CALLDATALOAD SWAP1 POP PUSH2 0x131C DUP2 PUSH2 0x12F6 JUMP JUMPDEST SWAP3 SWAP2 POP POP JUMP JUMPDEST PUSH1 0x0 DUP2 SWAP1 POP SWAP2 SWAP1 POP JUMP JUMPDEST PUSH2 0x1335 DUP2 PUSH2 0x1322 JUMP JUMPDEST DUP2 EQ PUSH2 0x1340 JUMPI PUSH1 0x0 DUP1 REVERT JUMPDEST POP JUMP JUMPDEST PUSH1 0x0 DUP2 CALLDATALOAD SWAP1 POP PUSH2 0x1352 DUP2 PUSH2 0x132C JUMP JUMPDEST SWAP3 SWAP2 POP POP JUMP JUMPDEST PUSH1 0x0 DUP1 REVERT JUMPDEST PUSH1 0x0 DUP1 REVERT JUMPDEST PUSH1 0x0 DUP1 REVERT JUMPDEST PUSH1 0x0 DUP1 DUP4 PUSH1 0x1F DUP5 ADD SLT PUSH2 0x137D JUMPI PUSH2 0x137C PUSH2 0x1358 JUMP JUMPDEST JUMPDEST DUP3 CALLDATALOAD SWAP1 POP PUSH8 0xFFFFFFFFFFFFFFFF DUP2 GT ISZERO PUSH2 0x139A JUMPI PUSH2 0x1399 PUSH2 0x135D JUMP JUMPDEST JUMPDEST PUSH1 0x20 DUP4 ADD SWAP2 POP DUP4 PUSH1 0x20 DUP3 MUL DUP4 ADD GT ISZERO PUSH2 0x13B6 JUMPI PUSH2 0x13B5 PUSH2 0x1362 JUMP JUMPDEST JUMPDEST SWAP3 POP SWAP3 SWAP1 POP JUMP JUMPDEST PUSH1 0x0 DUP1 PUSH1 0x0 DUP1 PUSH1 0x0 DUP1 PUSH1 0x0 PUSH1 0xC0 DUP9 DUP11 SUB SLT ISZERO PUSH2 0x13DC JUMPI PUSH2 0x13DB PUSH2 0x12DA JUMP JUMPDEST JUMPDEST PUSH1 0x0 PUSH2 0x13EA DUP11 DUP3 DUP12 ADD PUSH2 0x130D JUMP JUMPDEST SWAP8 POP POP PUSH1 0x20 PUSH2 0x13FB DUP11 DUP3 DUP12 ADD PUSH2 0x1343 JUMP JUMPDEST SWAP7 POP POP PUSH1 0x40 PUSH2 0x140C DUP11 DUP3 DUP12 ADD PUSH2 0x1343 JUMP JUMPDEST SWAP6 POP POP PUSH1 0x60 PUSH2 0x141D DUP11 DUP3 DUP12 ADD PUSH2 0x1343 JUMP JUMPDEST SWAP5 POP POP PUSH1 0x80 DUP9 ADD CALLDATALOAD PUSH8 0xFFFFFFFFFFFFFFFF DUP2 GT ISZERO PUSH2 0x143E JUMPI PUSH2 0x143D PUSH2 0x12DF JUMP JUMPDEST JUMPDEST PUSH2 0x144A DUP11 DUP3 DUP12 ADD PUSH2 0x1367 JUMP JUMPDEST SWAP4 POP SWAP4 POP POP PUSH1 0xA0 PUSH2 0x145D DUP11 DUP3 DUP12 ADD PUSH2 0x1343 JUMP JUMPDEST SWAP2 POP POP SWAP3 SWAP6 SWAP9 SWAP2 SWAP5 SWAP8 POP SWAP3 SWAP6 POP JUMP JUMPDEST PUSH1 0x0 DUP2 MLOAD SWAP1 POP SWAP2 SWAP1 POP JUMP JUMPDEST PUSH1 0x0 DUP3 DUP3 MSTORE PUSH1 0x20 DUP3 ADD SWAP1 POP SWAP3 SWAP2 POP POP JUMP JUMPDEST PUSH1 0x0 DUP2 SWAP1 POP PUSH1 0x20 DUP3 ADD SWAP1 POP SWAP2 SWAP1 POP JUMP JUMPDEST PUSH2 0x14A1 DUP2 PUSH2 0x1322 JUMP JUMPDEST DUP3 MSTORE POP POP JUMP JUMPDEST PUSH1 0x0 PUSH2 0x14B3 DUP4 DUP4 PUSH2 0x1498 JUMP JUMPDEST PUSH1 0x20 DUP4 ADD SWAP1 POP SWAP3 SWAP2 POP POP JUMP JUMPDEST PUSH1 0x0 PUSH1 0x20 DUP3 ADD SWAP1 POP SWAP2 SWAP1 POP JUMP JUMPDEST PUSH1 0x0 PUSH2 0x14D7 DUP3 PUSH2 0x146C JUMP JUMPDEST PUSH2 0x14E1 DUP2 DUP6 PUSH2 0x1477 JUMP JUMPDEST SWAP4 POP PUSH2 0x14EC DUP4 PUSH2 0x1488 JUMP JUMPDEST DUP1 PUSH1 0x0 JUMPDEST DUP4 DUP2 LT ISZERO PUSH2 0x151D JUMPI DUP2 MLOAD PUSH2 0x1504 DUP9 DUP3 PUSH2 0x14A7 JUMP JUMPDEST SWAP8 POP PUSH2 0x150F DUP4 PUSH2 0x14BF JUMP JUMPDEST SWAP3 POP POP PUSH1 0x1 DUP2 ADD SWAP1 POP PUSH2 0x14F0 JUMP JUMPDEST POP DUP6 SWAP4 POP POP POP POP SWAP3 SWAP2 POP POP JUMP JUMPDEST PUSH1 0x0 PUSH1 0x20 DUP3 ADD SWAP1 POP DUP2 DUP2 SUB PUSH1 0x0 DUP4 ADD MSTORE PUSH2 0x1544 DUP2 DUP5 PUSH2 0x14CC JUMP JUMPDEST SWAP1 POP SWAP3 SWAP2 POP POP JUMP JUMPDEST PUSH1 0x0 DUP1 PUSH1 0x0 DUP1 PUSH1 0x0 DUP1 PUSH1 0xA0 DUP8 DUP10 SUB SLT ISZERO PUSH2 0x1569 JUMPI PUSH2 0x1568 PUSH2 0x12DA JUMP JUMPDEST JUMPDEST PUSH1 0x0 PUSH2 0x1577 DUP10 DUP3 DUP11 ADD PUSH2 0x130D JUMP JUMPDEST SWAP7 POP POP PUSH1 0x20 PUSH2 0x1588 DUP10 DUP3 DUP11 ADD PUSH2 0x1343 JUMP JUMPDEST SWAP6 POP POP PUSH1 0x40 PUSH2 0x1599 DUP10 DUP3 DUP11 ADD PUSH2 0x1343 JUMP JUMPDEST SWAP5 POP POP PUSH1 0x60 DUP8 ADD CALLDATALOAD PUSH8 0xFFFFFFFFFFFFFFFF DUP2 GT ISZERO PUSH2 0x15BA JUMPI PUSH2 0x15B9 PUSH2 0x12DF JUMP JUMPDEST JUMPDEST PUSH2 0x15C6 DUP10 DUP3 DUP11 ADD PUSH2 0x1367 JUMP JUMPDEST SWAP4 POP SWAP4 POP POP PUSH1 0x80 PUSH2 0x15D9 DUP10 DUP3 DUP11 ADD PUSH2 0x1343 JUMP JUMPDEST SWAP2 POP POP SWAP3 SWAP6 POP SWAP3 SWAP6 POP SWAP3 SWAP6 JUMP JUMPDEST PUSH32 0x4E487B7100000000000000000000000000000000000000000000000000000000 PUSH1 0x0 MSTORE PUSH1 0x32 PUSH1 0x4 MSTORE PUSH1 0x24 PUSH1 0x0 REVERT JUMPDEST PUSH1 0x0 PUSH1 0x20 DUP3 DUP5 SUB SLT ISZERO PUSH2 0x162B JUMPI PUSH2 0x162A PUSH2 0x12DA JUMP JUMPDEST JUMPDEST PUSH1 0x0 PUSH2 0x1639 DUP5 DUP3 DUP6 ADD PUSH2 0x130D JUMP JUMPDEST SWAP2 POP POP SWAP3 SWAP2 POP POP JUMP JUMPDEST PUSH2 0x164B DUP2 PUSH2 0x1322 JUMP JUMPDEST DUP3 MSTORE POP POP JUMP JUMPDEST PUSH1 0x0 DUP3 DUP3 MSTORE PUSH1 0x20 DUP3 ADD SWAP1 POP SWAP3 SWAP2 POP POP JUMP JUMPDEST PUSH1 0x0 DUP2 SWAP1 POP SWAP2 SWAP1 POP JUMP JUMPDEST PUSH2 0x1675 DUP2 PUSH2 0x12E4 JUMP JUMPDEST DUP3 MSTORE POP POP JUMP JUMPDEST PUSH1 0x0 PUSH2 0x1687 DUP4 DUP4 PUSH2 0x166C JUMP JUMPDEST PUSH1 0x20 DUP4 ADD SWAP1 POP SWAP3 SWAP2 POP POP JUMP JUMPDEST PUSH1 0x0 PUSH2 0x16A2 PUSH1 0x20 DUP5 ADD DUP5 PUSH2 0x130D JUMP JUMPDEST SWAP1 POP SWAP3 SWAP2 POP POP JUMP JUMPDEST PUSH1 0x0 PUSH1 0x20 DUP3 ADD SWAP1 POP SWAP2 SWAP1 POP JUMP JUMPDEST PUSH1 0x0 PUSH2 0x16C3 DUP4 DUP6 PUSH2 0x1651 JUMP JUMPDEST SWAP4 POP PUSH2 0x16CE DUP3 PUSH2 0x1662 JUMP JUMPDEST DUP1 PUSH1 0x0 JUMPDEST DUP6 DUP2 LT ISZERO PUSH2 0x1707 JUMPI PUSH2 0x16E4 DUP3 DUP5 PUSH2 0x1693 JUMP JUMPDEST PUSH2 0x16EE DUP9 DUP3 PUSH2 0x167B JUMP JUMPDEST SWAP8 POP PUSH2 0x16F9 DUP4 PUSH2 0x16AA JUMP JUMPDEST SWAP3 POP POP PUSH1 0x1 DUP2 ADD SWAP1 POP PUSH2 0x16D2 JUMP JUMPDEST POP DUP6 SWAP3 POP POP POP SWAP4 SWAP3 POP POP POP JUMP JUMPDEST PUSH2 0x171D DUP2 PUSH2 0x12E4 JUMP JUMPDEST DUP3 MSTORE POP POP JUMP JUMPDEST PUSH1 0x0 PUSH1 0xA0 DUP3 ADD SWAP1 POP PUSH2 0x1738 PUSH1 0x0 DUP4 ADD DUP10 PUSH2 0x1642 JUMP JUMPDEST PUSH2 0x1745 PUSH1 0x20 DUP4 ADD DUP9 PUSH2 0x1642 JUMP JUMPDEST DUP2 DUP2 SUB PUSH1 0x40 DUP4 ADD MSTORE PUSH2 0x1758 DUP2 DUP7 DUP9 PUSH2 0x16B7 JUMP JUMPDEST SWAP1 POP PUSH2 0x1767 PUSH1 0x60 DUP4 ADD DUP6 PUSH2 0x1714 JUMP JUMPDEST PUSH2 0x1774 PUSH1 0x80 DUP4 ADD DUP5 PUSH2 0x1642 JUMP JUMPDEST SWAP8 SWAP7 POP POP POP POP POP POP POP JUMP JUMPDEST PUSH1 0x0 PUSH1 0x1F NOT PUSH1 0x1F DUP4 ADD AND SWAP1 POP SWAP2 SWAP1 POP JUMP JUMPDEST PUSH32 0x4E487B7100000000000000000000000000000000000000000000000000000000 PUSH1 0x0 MSTORE PUSH1 0x41 PUSH1 0x4 MSTORE PUSH1 0x24 PUSH1 0x0 REVERT JUMPDEST PUSH2 0x17C8 DUP3 PUSH2 0x177F JUMP JUMPDEST DUP2 ADD DUP2 DUP2 LT PUSH8 0xFFFFFFFFFFFFFFFF DUP3 GT OR ISZERO PUSH2 0x17E7 JUMPI PUSH2 0x17E6 PUSH2 0x1790 JUMP JUMPDEST JUMPDEST DUP1 PUSH1 0x40 MSTORE POP POP POP JUMP JUMPDEST PUSH1 0x0 PUSH2 0x17FA PUSH2 0x12D0 JUMP JUMPDEST SWAP1 POP PUSH2 0x1806 DUP3 DUP3 PUSH2 0x17BF JUMP JUMPDEST SWAP2 SWAP1 POP JUMP JUMPDEST PUSH1 0x0 PUSH8 0xFFFFFFFFFFFFFFFF DUP3 GT ISZERO PUSH2 0x1826 JUMPI PUSH2 0x1825 PUSH2 0x1790 JUMP JUMPDEST JUMPDEST PUSH1 0x20 DUP3 MUL SWAP1 POP PUSH1 0x20 DUP2 ADD SWAP1 POP SWAP2 SWAP1 POP JUMP JUMPDEST PUSH1 0x0 DUP2 MLOAD SWAP1 POP PUSH2 0x1846 DUP2 PUSH2 0x132C JUMP JUMPDEST SWAP3 SWAP2 POP POP JUMP JUMPDEST PUSH1 0x0 PUSH2 0x185F PUSH2 0x185A DUP5 PUSH2 0x180B JUMP JUMPDEST PUSH2 0x17F0 JUMP JUMPDEST SWAP1 POP DUP1 DUP4 DUP3 MSTORE PUSH1 0x20 DUP3 ADD SWAP1 POP PUSH1 0x20 DUP5 MUL DUP4 ADD DUP6 DUP2 GT ISZERO PUSH2 0x1882 JUMPI PUSH2 0x1881 PUSH2 0x1362 JUMP JUMPDEST JUMPDEST DUP4 JUMPDEST DUP2 DUP2 LT ISZERO PUSH2 0x18AB JUMPI DUP1 PUSH2 0x1897 DUP9 DUP3 PUSH2 0x1837 JUMP JUMPDEST DUP5 MSTORE PUSH1 0x20 DUP5 ADD SWAP4 POP POP PUSH1 0x20 DUP2 ADD SWAP1 POP PUSH2 0x1884 JUMP JUMPDEST POP POP POP SWAP4 SWAP3 POP POP POP JUMP JUMPDEST PUSH1 0x0 DUP3 PUSH1 0x1F DUP4 ADD SLT PUSH2 0x18CA JUMPI PUSH2 0x18C9 PUSH2 0x1358 JUMP JUMPDEST JUMPDEST DUP2 MLOAD PUSH2 0x18DA DUP5 DUP3 PUSH1 0x20 DUP7 ADD PUSH2 0x184C JUMP JUMPDEST SWAP2 POP POP SWAP3 SWAP2 POP POP JUMP JUMPDEST PUSH1 0x0 PUSH1 0x20 DUP3 DUP5 SUB SLT ISZERO PUSH2 0x18F9 JUMPI PUSH2 0x18F8 PUSH2 0x12DA JUMP JUMPDEST JUMPDEST PUSH1 0x0 DUP3 ADD MLOAD PUSH8 0xFFFFFFFFFFFFFFFF DUP2 GT ISZERO PUSH2 0x1917 JUMPI PUSH2 0x1916 PUSH2 0x12DF JUMP JUMPDEST JUMPDEST PUSH2 0x1923 DUP5 DUP3 DUP6 ADD PUSH2 0x18B5 JUMP JUMPDEST SWAP2 POP POP SWAP3 SWAP2 POP POP JUMP JUMPDEST PUSH32 0x4E487B7100000000000000000000000000000000000000000000000000000000 PUSH1 0x0 MSTORE PUSH1 0x11 PUSH1 0x4 MSTORE PUSH1 0x24 PUSH1 0x0 REVERT JUMPDEST PUSH1 0x0 PUSH2 0x1966 DUP3 PUSH2 0x1322 JUMP JUMPDEST SWAP2 POP PUSH2 0x1971 DUP4 PUSH2 0x1322 JUMP JUMPDEST SWAP3 POP DUP3 DUP3 LT ISZERO PUSH2 0x1984 JUMPI PUSH2 0x1983 PUSH2 0x192C JUMP JUMPDEST JUMPDEST DUP3 DUP3 SUB SWAP1 POP SWAP3 SWAP2 POP POP JUMP JUMPDEST PUSH1 0x0 PUSH2 0x199A DUP3 PUSH2 0x1322 JUMP JUMPDEST SWAP2 POP PUSH2 0x19A5 DUP4 PUSH2 0x1322 JUMP JUMPDEST SWAP3 POP DUP2 PUSH32 0xFFFFFFFFFFFFFFFFFFFFFFFFFFFFFFFFFFFFFFFFFFFFFFFFFFFFFFFFFFFFFFFF DIV DUP4 GT DUP3 ISZERO ISZERO AND ISZERO PUSH2 0x19DE JUMPI PUSH2 0x19DD PUSH2 0x192C JUMP JUMPDEST JUMPDEST DUP3 DUP3 MUL SWAP1 POP SWAP3 SWAP2 POP POP JUMP JUMPDEST PUSH32 0x4E487B7100000000000000000000000000000000000000000000000000000000 PUSH1 0x0 MSTORE PUSH1 0x12 PUSH1 0x4 MSTORE PUSH1 0x24 PUSH1 0x0 REVERT JUMPDEST PUSH1 0x0 PUSH2 0x1A23 DUP3 PUSH2 0x1322 JUMP JUMPDEST SWAP2 POP PUSH2 0x1A2E DUP4 PUSH2 0x1322 JUMP JUMPDEST SWAP3 POP DUP3 PUSH2 0x1A3E JUMPI PUSH2 0x1A3D PUSH2 0x19E9 JUMP JUMPDEST JUMPDEST DUP3 DUP3 DIV SWAP1 POP SWAP3 SWAP2 POP POP JUMP JUMPDEST PUSH1 0x0 PUSH1 0x40 DUP3 ADD SWAP1 POP PUSH2 0x1A5E PUSH1 0x0 DUP4 ADD DUP7 PUSH2 0x1642 JUMP JUMPDEST DUP2 DUP2 SUB PUSH1 0x20 DUP4 ADD MSTORE PUSH2 0x1A71 DUP2 DUP5 DUP7 PUSH2 0x16B7 JUMP JUMPDEST SWAP1 POP SWAP5 SWAP4 POP POP POP POP JUMP JUMPDEST PUSH1 0x0 DUP3 DUP3 MSTORE PUSH1 0x20 DUP3 ADD SWAP1 POP SWAP3 SWAP2 POP POP JUMP JUMPDEST PUSH32 0x4E6F206D73672E76616C75652100000000000000000000000000000000000000 PUSH1 0x0 DUP3 ADD MSTORE POP JUMP JUMPDEST PUSH1 0x0 PUSH2 0x1AC2 PUSH1 0xD DUP4 PUSH2 0x1A7B JUMP JUMPDEST SWAP2 POP PUSH2 0x1ACD DUP3 PUSH2 0x1A8C JUMP JUMPDEST PUSH1 0x20 DUP3 ADD SWAP1 POP SWAP2 SWAP1 POP JUMP JUMPDEST PUSH1 0x0 PUSH1 0x20 DUP3 ADD SWAP1 POP DUP2 DUP2 SUB PUSH1 0x0 DUP4 ADD MSTORE PUSH2 0x1AF1 DUP2 PUSH2 0x1AB5 JUMP JUMPDEST SWAP1 POP SWAP2 SWAP1 POP JUMP JUMPDEST PUSH1 0x0 PUSH1 0x80 DUP3 ADD SWAP1 POP PUSH2 0x1B0D PUSH1 0x0 DUP4 ADD DUP9 PUSH2 0x1642 JUMP JUMPDEST DUP2 DUP2 SUB PUSH1 0x20 DUP4 ADD MSTORE PUSH2 0x1B20 DUP2 DUP7 DUP9 PUSH2 0x16B7 JUMP JUMPDEST SWAP1 POP PUSH2 0x1B2F PUSH1 0x40 DUP4 ADD DUP6 PUSH2 0x1714 JUMP JUMPDEST PUSH2 0x1B3C PUSH1 0x60 DUP4 ADD DUP5 PUSH2 0x1642 JUMP JUMPDEST SWAP7 SWAP6 POP POP POP POP POP POP JUMP JUMPDEST PUSH1 0x0 PUSH1 0x60 DUP3 ADD SWAP1 POP PUSH2 0x1B5B PUSH1 0x0 DUP4 ADD DUP7 PUSH2 0x1714 JUMP JUMPDEST PUSH2 0x1B68 PUSH1 0x20 DUP4 ADD DUP6 PUSH2 0x1714 JUMP JUMPDEST PUSH2 0x1B75 PUSH1 0x40 DUP4 ADD DUP5 PUSH2 0x1642 JUMP JUMPDEST SWAP5 SWAP4 POP POP POP POP JUMP JUMPDEST PUSH1 0x0 PUSH1 0x40 DUP3 ADD SWAP1 POP PUSH2 0x1B92 PUSH1 0x0 DUP4 ADD DUP6 PUSH2 0x1714 JUMP JUMPDEST PUSH2 0x1B9F PUSH1 0x20 DUP4 ADD DUP5 PUSH2 0x1714 JUMP JUMPDEST SWAP4 SWAP3 POP POP POP JUMP JUMPDEST PUSH1 0x0 PUSH1 0x20 DUP3 DUP5 SUB SLT ISZERO PUSH2 0x1BBC JUMPI PUSH2 0x1BBB PUSH2 0x12DA JUMP JUMPDEST JUMPDEST PUSH1 0x0 PUSH2 0x1BCA DUP5 DUP3 DUP6 ADD PUSH2 0x1837 JUMP JUMPDEST SWAP2 POP POP SWAP3 SWAP2 POP POP JUMP JUMPDEST PUSH1 0x0 PUSH2 0x1BDE DUP3 PUSH2 0x1322 JUMP JUMPDEST SWAP2 POP PUSH2 0x1BE9 DUP4 PUSH2 0x1322 JUMP JUMPDEST SWAP3 POP DUP3 PUSH32 0xFFFFFFFFFFFFFFFFFFFFFFFFFFFFFFFFFFFFFFFFFFFFFFFFFFFFFFFFFFFFFFFF SUB DUP3 GT ISZERO PUSH2 0x1C1E JUMPI PUSH2 0x1C1D PUSH2 0x192C JUMP JUMPDEST JUMPDEST DUP3 DUP3 ADD SWAP1 POP SWAP3 SWAP2 POP POP JUMP JUMPDEST PUSH1 0x0 PUSH1 0x40 DUP3 ADD SWAP1 POP PUSH2 0x1C3E PUSH1 0x0 DUP4 ADD DUP6 PUSH2 0x1714 JUMP JUMPDEST PUSH2 0x1C4B PUSH1 0x20 DUP4 ADD DUP5 PUSH2 0x1642 JUMP JUMPDEST SWAP4 SWAP3 POP POP POP JUMP JUMPDEST PUSH32 0x5361666545524332303A20617070726F76652066726F6D206E6F6E2D7A65726F PUSH1 0x0 DUP3 ADD MSTORE PUSH32 0x20746F206E6F6E2D7A65726F20616C6C6F77616E636500000000000000000000 PUSH1 0x20 DUP3 ADD MSTORE POP JUMP JUMPDEST PUSH1 0x0 PUSH2 0x1CAE PUSH1 0x36 DUP4 PUSH2 0x1A7B JUMP JUMPDEST SWAP2 POP PUSH2 0x1CB9 DUP3 PUSH2 0x1C52 JUMP JUMPDEST PUSH1 0x40 DUP3 ADD SWAP1 POP SWAP2 SWAP1 POP JUMP JUMPDEST PUSH1 0x0 PUSH1 0x20 DUP3 ADD SWAP1 POP DUP2 DUP2 SUB PUSH1 0x0 DUP4 ADD MSTORE PUSH2 0x1CDD DUP2 PUSH2 0x1CA1 JUMP JUMPDEST SWAP1 POP SWAP2 SWAP1 POP JUMP JUMPDEST PUSH1 0x0 DUP2 ISZERO ISZERO SWAP1 POP SWAP2 SWAP1 POP JUMP JUMPDEST PUSH2 0x1CF9 DUP2 PUSH2 0x1CE4 JUMP JUMPDEST DUP2 EQ PUSH2 0x1D04 JUMPI PUSH1 0x0 DUP1 REVERT JUMPDEST POP JUMP JUMPDEST PUSH1 0x0 DUP2 MLOAD SWAP1 POP PUSH2 0x1D16 DUP2 PUSH2 0x1CF0 JUMP JUMPDEST SWAP3 SWAP2 POP POP JUMP JUMPDEST PUSH1 0x0 PUSH1 0x20 DUP3 DUP5 SUB SLT ISZERO PUSH2 0x1D32 JUMPI PUSH2 0x1D31 PUSH2 0x12DA JUMP JUMPDEST JUMPDEST PUSH1 0x0 PUSH2 0x1D40 DUP5 DUP3 DUP6 ADD PUSH2 0x1D07 JUMP JUMPDEST SWAP2 POP POP SWAP3 SWAP2 POP POP JUMP JUMPDEST PUSH32 0x5361666545524332303A204552433230206F7065726174696F6E20646964206E PUSH1 0x0 DUP3 ADD MSTORE PUSH32 0x6F74207375636365656400000000000000000000000000000000000000000000 PUSH1 0x20 DUP3 ADD MSTORE POP JUMP JUMPDEST PUSH1 0x0 PUSH2 0x1DA5 PUSH1 0x2A DUP4 PUSH2 0x1A7B JUMP JUMPDEST SWAP2 POP PUSH2 0x1DB0 DUP3 PUSH2 0x1D49 JUMP JUMPDEST PUSH1 0x40 DUP3 ADD SWAP1 POP SWAP2 SWAP1 POP JUMP JUMPDEST PUSH1 0x0 PUSH1 0x20 DUP3 ADD SWAP1 POP DUP2 DUP2 SUB PUSH1 0x0 DUP4 ADD MSTORE PUSH2 0x1DD4 DUP2 PUSH2 0x1D98 JUMP JUMPDEST SWAP1 POP SWAP2 SWAP1 POP JUMP JUMPDEST PUSH32 0x416464726573733A20696E73756666696369656E742062616C616E636520666F PUSH1 0x0 DUP3 ADD MSTORE PUSH32 0x722063616C6C0000000000000000000000000000000000000000000000000000 PUSH1 0x20 DUP3 ADD MSTORE POP JUMP JUMPDEST PUSH1 0x0 PUSH2 0x1E37 PUSH1 0x26 DUP4 PUSH2 0x1A7B JUMP JUMPDEST SWAP2 POP PUSH2 0x1E42 DUP3 PUSH2 0x1DDB JUMP JUMPDEST PUSH1 0x40 DUP3 ADD SWAP1 POP SWAP2 SWAP1 POP JUMP JUMPDEST PUSH1 0x0 PUSH1 0x20 DUP3 ADD SWAP1 POP DUP2 DUP2 SUB PUSH1 0x0 DUP4 ADD MSTORE PUSH2 0x1E66 DUP2 PUSH2 0x1E2A JUMP JUMPDEST SWAP1 POP SWAP2 SWAP1 POP JUMP JUMPDEST PUSH32 0x416464726573733A2063616C6C20746F206E6F6E2D636F6E7472616374000000 PUSH1 0x0 DUP3 ADD MSTORE POP JUMP JUMPDEST PUSH1 0x0 PUSH2 0x1EA3 PUSH1 0x1D DUP4 PUSH2 0x1A7B JUMP JUMPDEST SWAP2 POP PUSH2 0x1EAE DUP3 PUSH2 0x1E6D JUMP JUMPDEST PUSH1 0x20 DUP3 ADD SWAP1 POP SWAP2 SWAP1 POP JUMP JUMPDEST PUSH1 0x0 PUSH1 0x20 DUP3 ADD SWAP1 POP DUP2 DUP2 SUB PUSH1 0x0 DUP4 ADD MSTORE PUSH2 0x1ED2 DUP2 PUSH2 0x1E96 JUMP JUMPDEST SWAP1 POP SWAP2 SWAP1 POP JUMP JUMPDEST PUSH1 0x0 DUP2 MLOAD SWAP1 POP SWAP2 SWAP1 POP JUMP JUMPDEST PUSH1 0x0 DUP2 SWAP1 POP SWAP3 SWAP2 POP POP JUMP JUMPDEST PUSH1 0x0 JUMPDEST DUP4 DUP2 LT ISZERO PUSH2 0x1F0D JUMPI DUP1 DUP3 ADD MLOAD DUP2 DUP5 ADD MSTORE PUSH1 0x20 DUP2 ADD SWAP1 POP PUSH2 0x1EF2 JUMP JUMPDEST DUP4 DUP2 GT ISZERO PUSH2 0x1F1C JUMPI PUSH1 0x0 DUP5 DUP5 ADD MSTORE JUMPDEST POP POP POP POP JUMP JUMPDEST PUSH1 0x0 PUSH2 0x1F2D DUP3 PUSH2 0x1ED9 JUMP JUMPDEST PUSH2 0x1F37 DUP2 DUP6 PUSH2 0x1EE4 JUMP JUMPDEST SWAP4 POP PUSH2 0x1F47 DUP2 DUP6 PUSH1 0x20 DUP7 ADD PUSH2 0x1EEF JUMP JUMPDEST DUP1 DUP5 ADD SWAP2 POP POP SWAP3 SWAP2 POP POP JUMP JUMPDEST PUSH1 0x0 PUSH2 0x1F5F DUP3 DUP5 PUSH2 0x1F22 JUMP JUMPDEST SWAP2 POP DUP2 SWAP1 POP SWAP3 SWAP2 POP POP JUMP JUMPDEST PUSH1 0x0 DUP2 MLOAD SWAP1 POP SWAP2 SWAP1 POP JUMP JUMPDEST PUSH1 0x0 PUSH2 0x1F80 DUP3 PUSH2 0x1F6A JUMP JUMPDEST PUSH2 0x1F8A DUP2 DUP6 PUSH2 0x1A7B JUMP JUMPDEST SWAP4 POP PUSH2 0x1F9A DUP2 DUP6 PUSH1 0x20 DUP7 ADD PUSH2 0x1EEF JUMP JUMPDEST PUSH2 0x1FA3 DUP2 PUSH2 0x177F JUMP JUMPDEST DUP5 ADD SWAP2 POP POP SWAP3 SWAP2 POP POP JUMP JUMPDEST PUSH1 0x0 PUSH1 0x20 DUP3 ADD SWAP1 POP DUP2 DUP2 SUB PUSH1 0x0 DUP4 ADD MSTORE PUSH2 0x1FC8 DUP2 DUP5 PUSH2 0x1F75 JUMP JUMPDEST SWAP1 POP SWAP3 SWAP2 POP POP JUMP INVALID LOG2 PUSH5 0x6970667358 0x22 SLT KECCAK256 0xF7 LOG1 PUSH13 0x48EA61E16D39792EE5B1BDD46 0xD8 0xA7 0xA6 0xBC 0x25 0x2E SWAP3 PUSH18 0x9FD9C6EE58E2F1564736F6C634300080D00 CALLER "
				},
				"gasEstimates": {
					"creation": {
						"codeDepositCost": "1639600",
						"executionCost": "infinite",
						"totalCost": "infinite"
					},
					"external": {
						"pool()": "2489",
						"swapETHForExactTokens(address,uint256,uint256,address[],uint256)": "infinite",
						"swapExactETHForTokens(address,uint256,uint256,address[],uint256)": "infinite",
						"swapExactTokensForETH(address,uint256,uint256,uint256,address[],uint256)": "infinite",
						"swapTokensForExactETH(address,uint256,uint256,uint256,address[],uint256)": "infinite"
					}
				},
				"methodIdentifiers": {
					"pool()": "16f0115b",
					"swapETHForExactTokens(address,uint256,uint256,address[],uint256)": "fe78a2e2",
					"swapExactETHForTokens(address,uint256,uint256,address[],uint256)": "651b100c",
					"swapExactTokensForETH(address,uint256,uint256,uint256,address[],uint256)": "4daa13db",
					"swapTokensForExactETH(address,uint256,uint256,uint256,address[],uint256)": "648c2273"
				}
			},
			"storageLayout": {
				"storage": [
					{
						"astId": 606,
						"contract": "contracts/DonateOnDEX.sol:DonateOnDEX",
						"label": "pool",
						"offset": 0,
						"slot": "0",
						"type": "t_address_payable"
					}
				],
				"types": {
					"t_address_payable": {
						"encoding": "inplace",
						"label": "address payable",
						"numberOfBytes": "20"
					}
				}
			},
			"userdoc": {
				"kind": "user",
				"methods": {},
				"version": 1
			}
		}
	}
}