{
  "_format": "hh-sol-artifact-1",
  "contractName": "DonateOnDEX",
  "sourceName": "contracts/DonateOnDEX.sol",
  "abi": [
    {
      "inputs": [
        {
          "internalType": "address",
          "name": "poolAddress",
          "type": "address"
        }
      ],
      "stateMutability": "nonpayable",
      "type": "constructor"
    },
    {
      "inputs": [
        {
          "internalType": "address",
          "name": "router",
          "type": "address"
        },
        {
          "internalType": "uint256",
          "name": "amountOut",
          "type": "uint256"
        },
        {
          "internalType": "address[]",
          "name": "path",
          "type": "address[]"
        }
      ],
      "name": "getAmountsIn",
      "outputs": [
        {
          "internalType": "uint256[]",
          "name": "amounts",
          "type": "uint256[]"
        }
      ],
      "stateMutability": "view",
      "type": "function"
    },
    {
      "inputs": [
        {
          "internalType": "address",
          "name": "router",
          "type": "address"
        },
        {
          "internalType": "uint256",
          "name": "amountIn",
          "type": "uint256"
        },
        {
          "internalType": "address[]",
          "name": "path",
          "type": "address[]"
        }
      ],
      "name": "getAmountsOut",
      "outputs": [
        {
          "internalType": "uint256[]",
          "name": "amounts",
          "type": "uint256[]"
        }
      ],
      "stateMutability": "view",
      "type": "function"
    },
    {
      "inputs": [],
      "name": "pool",
      "outputs": [
        {
          "internalType": "address payable",
          "name": "",
          "type": "address"
        }
      ],
      "stateMutability": "view",
      "type": "function"
    },
    {
      "inputs": [
        {
          "internalType": "address",
          "name": "router",
          "type": "address"
        },
        {
          "internalType": "uint256",
          "name": "percent",
          "type": "uint256"
        },
        {
          "internalType": "uint256",
          "name": "amountOut",
          "type": "uint256"
        },
        {
          "internalType": "address[]",
          "name": "path",
          "type": "address[]"
        },
        {
          "internalType": "uint256",
          "name": "deadline",
          "type": "uint256"
        }
      ],
      "name": "swapETHForExactTokens",
      "outputs": [
        {
          "internalType": "uint256[]",
          "name": "amounts",
          "type": "uint256[]"
        }
      ],
      "stateMutability": "payable",
      "type": "function"
    },
    {
      "inputs": [
        {
          "internalType": "address",
          "name": "router",
          "type": "address"
        },
        {
          "internalType": "uint256",
          "name": "percent",
          "type": "uint256"
        },
        {
          "internalType": "uint256",
          "name": "amountOutMin",
          "type": "uint256"
        },
        {
          "internalType": "address[]",
          "name": "path",
          "type": "address[]"
        },
        {
          "internalType": "uint256",
          "name": "deadline",
          "type": "uint256"
        }
      ],
      "name": "swapExactETHForTokens",
      "outputs": [
        {
          "internalType": "uint256[]",
          "name": "amounts",
          "type": "uint256[]"
        }
      ],
      "stateMutability": "payable",
      "type": "function"
    },
    {
      "inputs": [
        {
          "internalType": "address",
          "name": "router",
          "type": "address"
        },
        {
          "internalType": "uint256",
          "name": "percent",
          "type": "uint256"
        },
        {
          "internalType": "uint256",
          "name": "amountIn",
          "type": "uint256"
        },
        {
          "internalType": "uint256",
          "name": "amountOutMin",
          "type": "uint256"
        },
        {
          "internalType": "address[]",
          "name": "path",
          "type": "address[]"
        },
        {
          "internalType": "uint256",
          "name": "deadline",
          "type": "uint256"
        }
      ],
      "name": "swapExactTokensForETH",
      "outputs": [
        {
          "internalType": "uint256[]",
          "name": "amounts",
          "type": "uint256[]"
        }
      ],
      "stateMutability": "nonpayable",
      "type": "function"
    },
    {
      "inputs": [
        {
          "internalType": "address",
          "name": "router",
          "type": "address"
        },
        {
          "internalType": "uint256",
          "name": "percent",
          "type": "uint256"
        },
        {
          "internalType": "uint256",
          "name": "amountOut",
          "type": "uint256"
        },
        {
          "internalType": "uint256",
          "name": "amountInMax",
          "type": "uint256"
        },
        {
          "internalType": "address[]",
          "name": "path",
          "type": "address[]"
        },
        {
          "internalType": "uint256",
          "name": "deadline",
          "type": "uint256"
        }
      ],
      "name": "swapTokensForExactETH",
      "outputs": [
        {
          "internalType": "uint256[]",
          "name": "amounts",
          "type": "uint256[]"
        }
      ],
      "stateMutability": "nonpayable",
      "type": "function"
    }
  ],
  "bytecode": "0x60806040523480156200001157600080fd5b5060405162002506380380620025068339818101604052810190620000379190620000e8565b806000806101000a81548173ffffffffffffffffffffffffffffffffffffffff021916908373ffffffffffffffffffffffffffffffffffffffff160217905550506200011a565b600080fd5b600073ffffffffffffffffffffffffffffffffffffffff82169050919050565b6000620000b08262000083565b9050919050565b620000c281620000a3565b8114620000ce57600080fd5b50565b600081519050620000e281620000b7565b92915050565b6000602082840312156200010157620001006200007e565b5b60006200011184828501620000d1565b91505092915050565b6123dc806200012a6000396000f3fe6080604052600436106100705760003560e01c8063648c22731161004e578063648c22731461011a578063651b100c14610157578063bb7b9c7614610187578063fe78a2e2146101c457610070565b806316f0115b14610075578063192128b2146100a05780634daa13db146100dd575b600080fd5b34801561008157600080fd5b5061008a6101f4565b60405161009791906115ab565b60405180910390f35b3480156100ac57600080fd5b506100c760048036038101906100c291906116b3565b610218565b6040516100d491906117e5565b60405180910390f35b3480156100e957600080fd5b5061010460048036038101906100ff9190611807565b6102a7565b60405161011191906117e5565b60405180910390f35b34801561012657600080fd5b50610141600480360381019061013c9190611807565b6105a6565b60405161014e91906117e5565b60405180910390f35b610171600480360381019061016c91906118b6565b610996565b60405161017e91906117e5565b60405180910390f35b34801561019357600080fd5b506101ae60048036038101906101a991906116b3565b610bf7565b6040516101bb91906117e5565b60405180910390f35b6101de60048036038101906101d991906118b6565b610c86565b6040516101eb91906117e5565b60405180910390f35b60008054906101000a900473ffffffffffffffffffffffffffffffffffffffff1681565b60608473ffffffffffffffffffffffffffffffffffffffff16631f00ca748585856040518463ffffffff1660e01b815260040161025793929190611a22565b600060405180830381865afa158015610274573d6000803e3d6000fd5b505050506040513d6000823e3d601f19601f8201168201806040525081019061029d9190611bb8565b9050949350505050565b606086612710116102ed576040517f08c379a00000000000000000000000000000000000000000000000000000000081526004016102e490611c5e565b60405180910390fd5b6103423330888787600081811061030757610306611c7e565b5b905060200201602081019061031c9190611cad565b73ffffffffffffffffffffffffffffffffffffffff16610f7d909392919063ffffffff16565b61039588878686600081811061035b5761035a611c7e565b5b90506020020160208101906103709190611cad565b73ffffffffffffffffffffffffffffffffffffffff166110069092919063ffffffff16565b8773ffffffffffffffffffffffffffffffffffffffff166318cbafe58787878730886040518763ffffffff1660e01b81526004016103d896959493929190611ce9565b6000604051808303816000875af11580156103f7573d6000803e3d6000fd5b505050506040513d6000823e3d601f19601f820116820180604052508101906104209190611bb8565b905060006127108883600185516104379190611d74565b8151811061044857610447611c7e565b5b602002602001015161045a9190611da8565b6104649190611e31565b90508082600184516104769190611d74565b8151811061048757610486611c7e565b5b60200260200101516104999190611d74565b82600184516104a89190611d74565b815181106104b9576104b8611c7e565b5b6020026020010181815250503373ffffffffffffffffffffffffffffffffffffffff166108fc83600185516104ee9190611d74565b815181106104ff576104fe611c7e565b5b60200260200101519081150290604051600060405180830381858888f19350505050158015610532573d6000803e3d6000fd5b5060008054906101000a900473ffffffffffffffffffffffffffffffffffffffff1673ffffffffffffffffffffffffffffffffffffffff166108fc829081150290604051600060405180830381858888f19350505050158015610599573d6000803e3d6000fd5b5050979650505050505050565b606086612710116105ec576040517f08c379a00000000000000000000000000000000000000000000000000000000081526004016105e390611c5e565b60405180910390fd5b6106de33308a73ffffffffffffffffffffffffffffffffffffffff16631f00ca748a89896040518463ffffffff1660e01b815260040161062e93929190611a22565b600060405180830381865afa15801561064b573d6000803e3d6000fd5b505050506040513d6000823e3d601f19601f820116820180604052508101906106749190611bb8565b60008151811061068757610686611c7e565b5b6020026020010151878760008181106106a3576106a2611c7e565b5b90506020020160208101906106b89190611cad565b73ffffffffffffffffffffffffffffffffffffffff16610f7d909392919063ffffffff16565b6107318886868660008181106106f7576106f6611c7e565b5b905060200201602081019061070c9190611cad565b73ffffffffffffffffffffffffffffffffffffffff166110069092919063ffffffff16565b8773ffffffffffffffffffffffffffffffffffffffff16634a25d94a8787878730886040518763ffffffff1660e01b815260040161077496959493929190611ce9565b6000604051808303816000875af1158015610793573d6000803e3d6000fd5b505050506040513d6000823e3d601f19601f820116820180604052508101906107bc9190611bb8565b9050610812886000868660008181106107d8576107d7611c7e565b5b90506020020160208101906107ed9190611cad565b73ffffffffffffffffffffffffffffffffffffffff166111189092919063ffffffff16565b60006127108883600185516108279190611d74565b8151811061083857610837611c7e565b5b602002602001015161084a9190611da8565b6108549190611e31565b90508082600184516108669190611d74565b8151811061087757610876611c7e565b5b60200260200101516108899190611d74565b82600184516108989190611d74565b815181106108a9576108a8611c7e565b5b6020026020010181815250503373ffffffffffffffffffffffffffffffffffffffff166108fc83600185516108de9190611d74565b815181106108ef576108ee611c7e565b5b60200260200101519081150290604051600060405180830381858888f19350505050158015610922573d6000803e3d6000fd5b5060008054906101000a900473ffffffffffffffffffffffffffffffffffffffff1673ffffffffffffffffffffffffffffffffffffffff166108fc829081150290604051600060405180830381858888f19350505050158015610989573d6000803e3d6000fd5b5050979650505050505050565b6060600034116109db576040517f08c379a00000000000000000000000000000000000000000000000000000000081526004016109d290611eae565b60405180910390fd5b8561271011610a1f576040517f08c379a0000000000000000000000000000000000000000000000000000000008152600401610a1690611c5e565b60405180910390fd5b60006127108734610a309190611da8565b610a3a9190611e31565b905061271087612710610a4d9190611d74565b87610a589190611da8565b610a629190611e31565b95508773ffffffffffffffffffffffffffffffffffffffff16637ff36ab58234610a8c9190611d74565b88888830896040518763ffffffff1660e01b8152600401610ab1959493929190611ece565b60006040518083038185885af1158015610acf573d6000803e3d6000fd5b50505050506040513d6000823e3d601f19601f82011682018060405250810190610af99190611bb8565b9150610b853383600188889050610b109190611d74565b81518110610b2157610b20611c7e565b5b6020026020010151878760018a8a9050610b3b9190611d74565b818110610b4b57610b4a611c7e565b5b9050602002016020810190610b609190611cad565b73ffffffffffffffffffffffffffffffffffffffff166112679092919063ffffffff16565b60008054906101000a900473ffffffffffffffffffffffffffffffffffffffff1673ffffffffffffffffffffffffffffffffffffffff166108fc829081150290604051600060405180830381858888f19350505050158015610beb573d6000803e3d6000fd5b50509695505050505050565b60608473ffffffffffffffffffffffffffffffffffffffff1663d06ca61f8585856040518463ffffffff1660e01b8152600401610c3693929190611a22565b600060405180830381865afa158015610c53573d6000803e3d6000fd5b505050506040513d6000823e3d601f19601f82011682018060405250810190610c7c9190611bb8565b9050949350505050565b606060003411610ccb576040517f08c379a0000000000000000000000000000000000000000000000000000000008152600401610cc290611eae565b60405180910390fd5b8561271011610d0f576040517f08c379a0000000000000000000000000000000000000000000000000000000008152600401610d0690611c5e565b60405180910390fd5b60008773ffffffffffffffffffffffffffffffffffffffff16631f00ca748787876040518463ffffffff1660e01b8152600401610d4e93929190611a22565b600060405180830381865afa158015610d6b573d6000803e3d6000fd5b505050506040513d6000823e3d601f19601f82011682018060405250810190610d949190611bb8565b600181518110610da757610da6611c7e565b5b6020026020010151905060006127108883610dc29190611da8565b610dcc9190611e31565b90506127108888610ddd9190611da8565b610de79190611e31565b96508873ffffffffffffffffffffffffffffffffffffffff1663fb3bdb418234610e119190611d74565b898989308a6040518763ffffffff1660e01b8152600401610e36959493929190611ece565b60006040518083038185885af1158015610e54573d6000803e3d6000fd5b50505050506040513d6000823e3d601f19601f82011682018060405250810190610e7e9190611bb8565b9250610f0a3384600189899050610e959190611d74565b81518110610ea657610ea5611c7e565b5b6020026020010151888860018b8b9050610ec09190611d74565b818110610ed057610ecf611c7e565b5b9050602002016020810190610ee59190611cad565b73ffffffffffffffffffffffffffffffffffffffff166112679092919063ffffffff16565b60008054906101000a900473ffffffffffffffffffffffffffffffffffffffff1673ffffffffffffffffffffffffffffffffffffffff166108fc829081150290604051600060405180830381858888f19350505050158015610f70573d6000803e3d6000fd5b5050509695505050505050565b611000846323b872dd60e01b858585604051602401610f9e93929190611f1c565b604051602081830303815290604052907bffffffffffffffffffffffffffffffffffffffffffffffffffffffff19166020820180517bffffffffffffffffffffffffffffffffffffffffffffffffffffffff83818316178352505050506112ed565b50505050565b6000818473ffffffffffffffffffffffffffffffffffffffff1663dd62ed3e30866040518363ffffffff1660e01b8152600401611044929190611f53565b602060405180830381865afa158015611061573d6000803e3d6000fd5b505050506040513d601f19601f820116820180604052508101906110859190611f7c565b61108f9190611fa9565b90506111128463095ea7b360e01b85846040516024016110b0929190611fff565b604051602081830303815290604052907bffffffffffffffffffffffffffffffffffffffffffffffffffffffff19166020820180517bffffffffffffffffffffffffffffffffffffffffffffffffffffffff83818316178352505050506112ed565b50505050565b60008114806111a2575060008373ffffffffffffffffffffffffffffffffffffffff1663dd62ed3e30856040518363ffffffff1660e01b815260040161115f929190611f53565b602060405180830381865afa15801561117c573d6000803e3d6000fd5b505050506040513d601f19601f820116820180604052508101906111a09190611f7c565b145b6111e1576040517f08c379a00000000000000000000000000000000000000000000000000000000081526004016111d89061209a565b60405180910390fd5b6112628363095ea7b360e01b8484604051602401611200929190611fff565b604051602081830303815290604052907bffffffffffffffffffffffffffffffffffffffffffffffffffffffff19166020820180517bffffffffffffffffffffffffffffffffffffffffffffffffffffffff83818316178352505050506112ed565b505050565b6112e88363a9059cbb60e01b8484604051602401611286929190611fff565b604051602081830303815290604052907bffffffffffffffffffffffffffffffffffffffffffffffffffffffff19166020820180517bffffffffffffffffffffffffffffffffffffffffffffffffffffffff83818316178352505050506112ed565b505050565b600061134f826040518060400160405280602081526020017f5361666545524332303a206c6f772d6c6576656c2063616c6c206661696c65648152508573ffffffffffffffffffffffffffffffffffffffff166113b49092919063ffffffff16565b90506000815111156113af578080602001905181019061136f91906120f2565b6113ae576040517f08c379a00000000000000000000000000000000000000000000000000000000081526004016113a590612191565b60405180910390fd5b5b505050565b60606113c384846000856113cc565b90509392505050565b606082471015611411576040517f08c379a000000000000000000000000000000000000000000000000000000000815260040161140890612223565b60405180910390fd5b61141a856114e0565b611459576040517f08c379a00000000000000000000000000000000000000000000000000000000081526004016114509061228f565b60405180910390fd5b6000808673ffffffffffffffffffffffffffffffffffffffff1685876040516114829190612329565b60006040518083038185875af1925050503d80600081146114bf576040519150601f19603f3d011682016040523d82523d6000602084013e6114c4565b606091505b50915091506114d4828286611503565b92505050949350505050565b6000808273ffffffffffffffffffffffffffffffffffffffff163b119050919050565b6060831561151357829050611563565b6000835111156115265782518084602001fd5b816040517f08c379a000000000000000000000000000000000000000000000000000000000815260040161155a9190612384565b60405180910390fd5b9392505050565b600073ffffffffffffffffffffffffffffffffffffffff82169050919050565b60006115958261156a565b9050919050565b6115a58161158a565b82525050565b60006020820190506115c0600083018461159c565b92915050565b6000604051905090565b600080fd5b600080fd5b60006115e58261156a565b9050919050565b6115f5816115da565b811461160057600080fd5b50565b600081359050611612816115ec565b92915050565b6000819050919050565b61162b81611618565b811461163657600080fd5b50565b60008135905061164881611622565b92915050565b600080fd5b600080fd5b600080fd5b60008083601f8401126116735761167261164e565b5b8235905067ffffffffffffffff8111156116905761168f611653565b5b6020830191508360208202830111156116ac576116ab611658565b5b9250929050565b600080600080606085870312156116cd576116cc6115d0565b5b60006116db87828801611603565b94505060206116ec87828801611639565b935050604085013567ffffffffffffffff81111561170d5761170c6115d5565b5b6117198782880161165d565b925092505092959194509250565b600081519050919050565b600082825260208201905092915050565b6000819050602082019050919050565b61175c81611618565b82525050565b600061176e8383611753565b60208301905092915050565b6000602082019050919050565b600061179282611727565b61179c8185611732565b93506117a783611743565b8060005b838110156117d85781516117bf8882611762565b97506117ca8361177a565b9250506001810190506117ab565b5085935050505092915050565b600060208201905081810360008301526117ff8184611787565b905092915050565b600080600080600080600060c0888a031215611826576118256115d0565b5b60006118348a828b01611603565b97505060206118458a828b01611639565b96505060406118568a828b01611639565b95505060606118678a828b01611639565b945050608088013567ffffffffffffffff811115611888576118876115d5565b5b6118948a828b0161165d565b935093505060a06118a78a828b01611639565b91505092959891949750929550565b60008060008060008060a087890312156118d3576118d26115d0565b5b60006118e189828a01611603565b96505060206118f289828a01611639565b955050604061190389828a01611639565b945050606087013567ffffffffffffffff811115611924576119236115d5565b5b61193089828a0161165d565b9350935050608061194389828a01611639565b9150509295509295509295565b61195981611618565b82525050565b600082825260208201905092915050565b6000819050919050565b611983816115da565b82525050565b6000611995838361197a565b60208301905092915050565b60006119b06020840184611603565b905092915050565b6000602082019050919050565b60006119d1838561195f565b93506119dc82611970565b8060005b85811015611a15576119f282846119a1565b6119fc8882611989565b9750611a07836119b8565b9250506001810190506119e0565b5085925050509392505050565b6000604082019050611a376000830186611950565b8181036020830152611a4a8184866119c5565b9050949350505050565b6000601f19601f8301169050919050565b7f4e487b7100000000000000000000000000000000000000000000000000000000600052604160045260246000fd5b611a9d82611a54565b810181811067ffffffffffffffff82111715611abc57611abb611a65565b5b80604052505050565b6000611acf6115c6565b9050611adb8282611a94565b919050565b600067ffffffffffffffff821115611afb57611afa611a65565b5b602082029050602081019050919050565b600081519050611b1b81611622565b92915050565b6000611b34611b2f84611ae0565b611ac5565b90508083825260208201905060208402830185811115611b5757611b56611658565b5b835b81811015611b805780611b6c8882611b0c565b845260208401935050602081019050611b59565b5050509392505050565b600082601f830112611b9f57611b9e61164e565b5b8151611baf848260208601611b21565b91505092915050565b600060208284031215611bce57611bcd6115d0565b5b600082015167ffffffffffffffff811115611bec57611beb6115d5565b5b611bf884828501611b8a565b91505092915050565b600082825260208201905092915050565b7f496e76616c69642070657263656e742e00000000000000000000000000000000600082015250565b6000611c48601083611c01565b9150611c5382611c12565b602082019050919050565b60006020820190508181036000830152611c7781611c3b565b9050919050565b7f4e487b7100000000000000000000000000000000000000000000000000000000600052603260045260246000fd5b600060208284031215611cc357611cc26115d0565b5b6000611cd184828501611603565b91505092915050565b611ce3816115da565b82525050565b600060a082019050611cfe6000830189611950565b611d0b6020830188611950565b8181036040830152611d1e8186886119c5565b9050611d2d6060830185611cda565b611d3a6080830184611950565b979650505050505050565b7f4e487b7100000000000000000000000000000000000000000000000000000000600052601160045260246000fd5b6000611d7f82611618565b9150611d8a83611618565b925082821015611d9d57611d9c611d45565b5b828203905092915050565b6000611db382611618565b9150611dbe83611618565b9250817fffffffffffffffffffffffffffffffffffffffffffffffffffffffffffffffff0483118215151615611df757611df6611d45565b5b828202905092915050565b7f4e487b7100000000000000000000000000000000000000000000000000000000600052601260045260246000fd5b6000611e3c82611618565b9150611e4783611618565b925082611e5757611e56611e02565b5b828204905092915050565b7f4e6f206d73672e76616c75652100000000000000000000000000000000000000600082015250565b6000611e98600d83611c01565b9150611ea382611e62565b602082019050919050565b60006020820190508181036000830152611ec781611e8b565b9050919050565b6000608082019050611ee36000830188611950565b8181036020830152611ef68186886119c5565b9050611f056040830185611cda565b611f126060830184611950565b9695505050505050565b6000606082019050611f316000830186611cda565b611f3e6020830185611cda565b611f4b6040830184611950565b949350505050565b6000604082019050611f686000830185611cda565b611f756020830184611cda565b9392505050565b600060208284031215611f9257611f916115d0565b5b6000611fa084828501611b0c565b91505092915050565b6000611fb482611618565b9150611fbf83611618565b9250827fffffffffffffffffffffffffffffffffffffffffffffffffffffffffffffffff03821115611ff457611ff3611d45565b5b828201905092915050565b60006040820190506120146000830185611cda565b6120216020830184611950565b9392505050565b7f5361666545524332303a20617070726f76652066726f6d206e6f6e2d7a65726f60008201527f20746f206e6f6e2d7a65726f20616c6c6f77616e636500000000000000000000602082015250565b6000612084603683611c01565b915061208f82612028565b604082019050919050565b600060208201905081810360008301526120b381612077565b9050919050565b60008115159050919050565b6120cf816120ba565b81146120da57600080fd5b50565b6000815190506120ec816120c6565b92915050565b600060208284031215612108576121076115d0565b5b6000612116848285016120dd565b91505092915050565b7f5361666545524332303a204552433230206f7065726174696f6e20646964206e60008201527f6f74207375636365656400000000000000000000000000000000000000000000602082015250565b600061217b602a83611c01565b91506121868261211f565b604082019050919050565b600060208201905081810360008301526121aa8161216e565b9050919050565b7f416464726573733a20696e73756666696369656e742062616c616e636520666f60008201527f722063616c6c0000000000000000000000000000000000000000000000000000602082015250565b600061220d602683611c01565b9150612218826121b1565b604082019050919050565b6000602082019050818103600083015261223c81612200565b9050919050565b7f416464726573733a2063616c6c20746f206e6f6e2d636f6e7472616374000000600082015250565b6000612279601d83611c01565b915061228482612243565b602082019050919050565b600060208201905081810360008301526122a88161226c565b9050919050565b600081519050919050565b600081905092915050565b60005b838110156122e35780820151818401526020810190506122c8565b838111156122f2576000848401525b50505050565b6000612303826122af565b61230d81856122ba565b935061231d8185602086016122c5565b80840191505092915050565b600061233582846122f8565b915081905092915050565b600081519050919050565b600061235682612340565b6123608185611c01565b93506123708185602086016122c5565b61237981611a54565b840191505092915050565b6000602082019050818103600083015261239e818461234b565b90509291505056fea2646970667358221220bc566027a376c18971d697e58f2a7e76148443cf6900907010b6bbb46114dafe64736f6c634300080d0033",
  "linkReferences": {},
  "deployedLinkReferences": {}
}