{
  "_format": "hh-sol-artifact-1",
  "contractName": "DonateOnDEX",
  "sourceName": "contracts/DonateOnDEX.sol",
  "abi": [
    {
      "inputs": [
        {
          "internalType": "address",
          "name": "poolAddress",
          "type": "address"
        }
      ],
      "stateMutability": "nonpayable",
      "type": "constructor"
    },
    {
      "inputs": [],
      "name": "pool",
      "outputs": [
        {
          "internalType": "address payable",
          "name": "",
          "type": "address"
        }
      ],
      "stateMutability": "view",
      "type": "function"
    },
    {
      "inputs": [
        {
          "internalType": "address",
          "name": "router",
          "type": "address"
        },
        {
          "internalType": "uint256",
          "name": "percent",
          "type": "uint256"
        },
        {
          "internalType": "uint256",
          "name": "amountOut",
          "type": "uint256"
        },
        {
          "internalType": "address[]",
          "name": "path",
          "type": "address[]"
        },
        {
          "internalType": "uint256",
          "name": "deadline",
          "type": "uint256"
        }
      ],
      "name": "swapETHForExactTokens",
      "outputs": [
        {
          "internalType": "uint256[]",
          "name": "amounts",
          "type": "uint256[]"
        }
      ],
      "stateMutability": "payable",
      "type": "function"
    },
    {
      "inputs": [
        {
          "internalType": "address",
          "name": "router",
          "type": "address"
        },
        {
          "internalType": "uint256",
          "name": "percent",
          "type": "uint256"
        },
        {
          "internalType": "uint256",
          "name": "amountOutMin",
          "type": "uint256"
        },
        {
          "internalType": "address[]",
          "name": "path",
          "type": "address[]"
        },
        {
          "internalType": "uint256",
          "name": "deadline",
          "type": "uint256"
        }
      ],
      "name": "swapExactETHForTokens",
      "outputs": [
        {
          "internalType": "uint256[]",
          "name": "amounts",
          "type": "uint256[]"
        }
      ],
      "stateMutability": "payable",
      "type": "function"
    },
    {
      "inputs": [
        {
          "internalType": "address",
          "name": "router",
          "type": "address"
        },
        {
          "internalType": "uint256",
          "name": "percent",
          "type": "uint256"
        },
        {
          "internalType": "uint256",
          "name": "amountIn",
          "type": "uint256"
        },
        {
          "internalType": "uint256",
          "name": "amountOutMin",
          "type": "uint256"
        },
        {
          "internalType": "address[]",
          "name": "path",
          "type": "address[]"
        },
        {
          "internalType": "uint256",
          "name": "deadline",
          "type": "uint256"
        }
      ],
      "name": "swapExactTokensForETH",
      "outputs": [
        {
          "internalType": "uint256[]",
          "name": "amounts",
          "type": "uint256[]"
        }
      ],
      "stateMutability": "nonpayable",
      "type": "function"
    },
    {
      "inputs": [
        {
          "internalType": "address",
          "name": "router",
          "type": "address"
        },
        {
          "internalType": "uint256",
          "name": "percent",
          "type": "uint256"
        },
        {
          "internalType": "uint256",
          "name": "amountOut",
          "type": "uint256"
        },
        {
          "internalType": "uint256",
          "name": "amountInMax",
          "type": "uint256"
        },
        {
          "internalType": "address[]",
          "name": "path",
          "type": "address[]"
        },
        {
          "internalType": "uint256",
          "name": "deadline",
          "type": "uint256"
        }
      ],
      "name": "swapTokensForExactETH",
      "outputs": [
        {
          "internalType": "uint256[]",
          "name": "amounts",
          "type": "uint256[]"
        }
      ],
      "stateMutability": "nonpayable",
      "type": "function"
    }
  ],
  "bytecode": "0x60806040523480156200001157600080fd5b5060405162002130380380620021308339818101604052810190620000379190620000e8565b806000806101000a81548173ffffffffffffffffffffffffffffffffffffffff021916908373ffffffffffffffffffffffffffffffffffffffff160217905550506200011a565b600080fd5b600073ffffffffffffffffffffffffffffffffffffffff82169050919050565b6000620000b08262000083565b9050919050565b620000c281620000a3565b8114620000ce57600080fd5b50565b600081519050620000e281620000b7565b92915050565b6000602082840312156200010157620001006200007e565b5b60006200011184828501620000d1565b91505092915050565b612006806200012a6000396000f3fe60806040526004361061004a5760003560e01c806316f0115b1461004f5780634daa13db1461007a578063648c2273146100b7578063651b100c146100f4578063fe78a2e214610124575b600080fd5b34801561005b57600080fd5b50610064610154565b60405161007191906112b5565b60405180910390f35b34801561008657600080fd5b506100a1600480360381019061009c91906113bd565b610178565b6040516100ae919061152a565b60405180910390f35b3480156100c357600080fd5b506100de60048036038101906100d991906113bd565b610433565b6040516100eb919061152a565b60405180910390f35b61010e6004803603810190610109919061154c565b6107df565b60405161011b919061152a565b60405180910390f35b61013e6004803603810190610139919061154c565b6109d4565b60405161014b919061152a565b60405180910390f35b60008054906101000a900473ffffffffffffffffffffffffffffffffffffffff1681565b60606101cf33308887876000818110610194576101936115e6565b5b90506020020160208101906101a99190611615565b73ffffffffffffffffffffffffffffffffffffffff16610c87909392919063ffffffff16565b6102228887868660008181106101e8576101e76115e6565b5b90506020020160208101906101fd9190611615565b73ffffffffffffffffffffffffffffffffffffffff16610d109092919063ffffffff16565b8773ffffffffffffffffffffffffffffffffffffffff166318cbafe58787878730886040518763ffffffff1660e01b815260040161026596959493929190611723565b6000604051808303816000875af1158015610284573d6000803e3d6000fd5b505050506040513d6000823e3d601f19601f820116820180604052508101906102ad91906118e3565b905060006127108883600185516102c4919061195b565b815181106102d5576102d46115e6565b5b60200260200101516102e7919061198f565b6102f19190611a18565b9050808260018451610303919061195b565b81518110610314576103136115e6565b5b6020026020010151610326919061195b565b8260018451610335919061195b565b81518110610346576103456115e6565b5b6020026020010181815250503373ffffffffffffffffffffffffffffffffffffffff166108fc836001855161037b919061195b565b8151811061038c5761038b6115e6565b5b60200260200101519081150290604051600060405180830381858888f193505050501580156103bf573d6000803e3d6000fd5b5060008054906101000a900473ffffffffffffffffffffffffffffffffffffffff1673ffffffffffffffffffffffffffffffffffffffff166108fc829081150290604051600060405180830381858888f19350505050158015610426573d6000803e3d6000fd5b5050979650505050505050565b606061052733308a73ffffffffffffffffffffffffffffffffffffffff16631f00ca748a89896040518463ffffffff1660e01b815260040161047793929190611a49565b600060405180830381865afa158015610494573d6000803e3d6000fd5b505050506040513d6000823e3d601f19601f820116820180604052508101906104bd91906118e3565b6000815181106104d0576104cf6115e6565b5b6020026020010151878760008181106104ec576104eb6115e6565b5b90506020020160208101906105019190611615565b73ffffffffffffffffffffffffffffffffffffffff16610c87909392919063ffffffff16565b61057a8886868660008181106105405761053f6115e6565b5b90506020020160208101906105559190611615565b73ffffffffffffffffffffffffffffffffffffffff16610d109092919063ffffffff16565b8773ffffffffffffffffffffffffffffffffffffffff16634a25d94a8787878730886040518763ffffffff1660e01b81526004016105bd96959493929190611723565b6000604051808303816000875af11580156105dc573d6000803e3d6000fd5b505050506040513d6000823e3d601f19601f8201168201806040525081019061060591906118e3565b905061065b88600086866000818110610621576106206115e6565b5b90506020020160208101906106369190611615565b73ffffffffffffffffffffffffffffffffffffffff16610e229092919063ffffffff16565b6000612710888360018551610670919061195b565b81518110610681576106806115e6565b5b6020026020010151610693919061198f565b61069d9190611a18565b90508082600184516106af919061195b565b815181106106c0576106bf6115e6565b5b60200260200101516106d2919061195b565b82600184516106e1919061195b565b815181106106f2576106f16115e6565b5b6020026020010181815250503373ffffffffffffffffffffffffffffffffffffffff166108fc8360018551610727919061195b565b81518110610738576107376115e6565b5b60200260200101519081150290604051600060405180830381858888f1935050505015801561076b573d6000803e3d6000fd5b5060008054906101000a900473ffffffffffffffffffffffffffffffffffffffff1673ffffffffffffffffffffffffffffffffffffffff166108fc829081150290604051600060405180830381858888f193505050501580156107d2573d6000803e3d6000fd5b5050979650505050505050565b606060003411610824576040517f08c379a000000000000000000000000000000000000000000000000000000000815260040161081b90611ad8565b60405180910390fd5b60006127108734610835919061198f565b61083f9190611a18565b90508773ffffffffffffffffffffffffffffffffffffffff16637ff36ab58234610869919061195b565b88888830896040518763ffffffff1660e01b815260040161088e959493929190611af8565b60006040518083038185885af11580156108ac573d6000803e3d6000fd5b50505050506040513d6000823e3d601f19601f820116820180604052508101906108d691906118e3565b915061096233836001888890506108ed919061195b565b815181106108fe576108fd6115e6565b5b6020026020010151878760018a8a9050610918919061195b565b818110610928576109276115e6565b5b905060200201602081019061093d9190611615565b73ffffffffffffffffffffffffffffffffffffffff16610f719092919063ffffffff16565b60008054906101000a900473ffffffffffffffffffffffffffffffffffffffff1673ffffffffffffffffffffffffffffffffffffffff166108fc829081150290604051600060405180830381858888f193505050501580156109c8573d6000803e3d6000fd5b50509695505050505050565b606060003411610a19576040517f08c379a0000000000000000000000000000000000000000000000000000000008152600401610a1090611ad8565b60405180910390fd5b60008773ffffffffffffffffffffffffffffffffffffffff16631f00ca748787876040518463ffffffff1660e01b8152600401610a5893929190611a49565b600060405180830381865afa158015610a75573d6000803e3d6000fd5b505050506040513d6000823e3d601f19601f82011682018060405250810190610a9e91906118e3565b600181518110610ab157610ab06115e6565b5b6020026020010151905060006127108883610acc919061198f565b610ad69190611a18565b90506127108888610ae7919061198f565b610af19190611a18565b96508873ffffffffffffffffffffffffffffffffffffffff1663fb3bdb418234610b1b919061195b565b898989308a6040518763ffffffff1660e01b8152600401610b40959493929190611af8565b60006040518083038185885af1158015610b5e573d6000803e3d6000fd5b50505050506040513d6000823e3d601f19601f82011682018060405250810190610b8891906118e3565b9250610c143384600189899050610b9f919061195b565b81518110610bb057610baf6115e6565b5b6020026020010151888860018b8b9050610bca919061195b565b818110610bda57610bd96115e6565b5b9050602002016020810190610bef9190611615565b73ffffffffffffffffffffffffffffffffffffffff16610f719092919063ffffffff16565b60008054906101000a900473ffffffffffffffffffffffffffffffffffffffff1673ffffffffffffffffffffffffffffffffffffffff166108fc829081150290604051600060405180830381858888f19350505050158015610c7a573d6000803e3d6000fd5b5050509695505050505050565b610d0a846323b872dd60e01b858585604051602401610ca893929190611b46565b604051602081830303815290604052907bffffffffffffffffffffffffffffffffffffffffffffffffffffffff19166020820180517bffffffffffffffffffffffffffffffffffffffffffffffffffffffff8381831617835250505050610ff7565b50505050565b6000818473ffffffffffffffffffffffffffffffffffffffff1663dd62ed3e30866040518363ffffffff1660e01b8152600401610d4e929190611b7d565b602060405180830381865afa158015610d6b573d6000803e3d6000fd5b505050506040513d601f19601f82011682018060405250810190610d8f9190611ba6565b610d999190611bd3565b9050610e1c8463095ea7b360e01b8584604051602401610dba929190611c29565b604051602081830303815290604052907bffffffffffffffffffffffffffffffffffffffffffffffffffffffff19166020820180517bffffffffffffffffffffffffffffffffffffffffffffffffffffffff8381831617835250505050610ff7565b50505050565b6000811480610eac575060008373ffffffffffffffffffffffffffffffffffffffff1663dd62ed3e30856040518363ffffffff1660e01b8152600401610e69929190611b7d565b602060405180830381865afa158015610e86573d6000803e3d6000fd5b505050506040513d601f19601f82011682018060405250810190610eaa9190611ba6565b145b610eeb576040517f08c379a0000000000000000000000000000000000000000000000000000000008152600401610ee290611cc4565b60405180910390fd5b610f6c8363095ea7b360e01b8484604051602401610f0a929190611c29565b604051602081830303815290604052907bffffffffffffffffffffffffffffffffffffffffffffffffffffffff19166020820180517bffffffffffffffffffffffffffffffffffffffffffffffffffffffff8381831617835250505050610ff7565b505050565b610ff28363a9059cbb60e01b8484604051602401610f90929190611c29565b604051602081830303815290604052907bffffffffffffffffffffffffffffffffffffffffffffffffffffffff19166020820180517bffffffffffffffffffffffffffffffffffffffffffffffffffffffff8381831617835250505050610ff7565b505050565b6000611059826040518060400160405280602081526020017f5361666545524332303a206c6f772d6c6576656c2063616c6c206661696c65648152508573ffffffffffffffffffffffffffffffffffffffff166110be9092919063ffffffff16565b90506000815111156110b957808060200190518101906110799190611d1c565b6110b8576040517f08c379a00000000000000000000000000000000000000000000000000000000081526004016110af90611dbb565b60405180910390fd5b5b505050565b60606110cd84846000856110d6565b90509392505050565b60608247101561111b576040517f08c379a000000000000000000000000000000000000000000000000000000000815260040161111290611e4d565b60405180910390fd5b611124856111ea565b611163576040517f08c379a000000000000000000000000000000000000000000000000000000000815260040161115a90611eb9565b60405180910390fd5b6000808673ffffffffffffffffffffffffffffffffffffffff16858760405161118c9190611f53565b60006040518083038185875af1925050503d80600081146111c9576040519150601f19603f3d011682016040523d82523d6000602084013e6111ce565b606091505b50915091506111de82828661120d565b92505050949350505050565b6000808273ffffffffffffffffffffffffffffffffffffffff163b119050919050565b6060831561121d5782905061126d565b6000835111156112305782518084602001fd5b816040517f08c379a00000000000000000000000000000000000000000000000000000000081526004016112649190611fae565b60405180910390fd5b9392505050565b600073ffffffffffffffffffffffffffffffffffffffff82169050919050565b600061129f82611274565b9050919050565b6112af81611294565b82525050565b60006020820190506112ca60008301846112a6565b92915050565b6000604051905090565b600080fd5b600080fd5b60006112ef82611274565b9050919050565b6112ff816112e4565b811461130a57600080fd5b50565b60008135905061131c816112f6565b92915050565b6000819050919050565b61133581611322565b811461134057600080fd5b50565b6000813590506113528161132c565b92915050565b600080fd5b600080fd5b600080fd5b60008083601f84011261137d5761137c611358565b5b8235905067ffffffffffffffff81111561139a5761139961135d565b5b6020830191508360208202830111156113b6576113b5611362565b5b9250929050565b600080600080600080600060c0888a0312156113dc576113db6112da565b5b60006113ea8a828b0161130d565b97505060206113fb8a828b01611343565b965050604061140c8a828b01611343565b955050606061141d8a828b01611343565b945050608088013567ffffffffffffffff81111561143e5761143d6112df565b5b61144a8a828b01611367565b935093505060a061145d8a828b01611343565b91505092959891949750929550565b600081519050919050565b600082825260208201905092915050565b6000819050602082019050919050565b6114a181611322565b82525050565b60006114b38383611498565b60208301905092915050565b6000602082019050919050565b60006114d78261146c565b6114e18185611477565b93506114ec83611488565b8060005b8381101561151d57815161150488826114a7565b975061150f836114bf565b9250506001810190506114f0565b5085935050505092915050565b6000602082019050818103600083015261154481846114cc565b905092915050565b60008060008060008060a08789031215611569576115686112da565b5b600061157789828a0161130d565b965050602061158889828a01611343565b955050604061159989828a01611343565b945050606087013567ffffffffffffffff8111156115ba576115b96112df565b5b6115c689828a01611367565b935093505060806115d989828a01611343565b9150509295509295509295565b7f4e487b7100000000000000000000000000000000000000000000000000000000600052603260045260246000fd5b60006020828403121561162b5761162a6112da565b5b60006116398482850161130d565b91505092915050565b61164b81611322565b82525050565b600082825260208201905092915050565b6000819050919050565b611675816112e4565b82525050565b6000611687838361166c565b60208301905092915050565b60006116a2602084018461130d565b905092915050565b6000602082019050919050565b60006116c38385611651565b93506116ce82611662565b8060005b85811015611707576116e48284611693565b6116ee888261167b565b97506116f9836116aa565b9250506001810190506116d2565b5085925050509392505050565b61171d816112e4565b82525050565b600060a0820190506117386000830189611642565b6117456020830188611642565b81810360408301526117588186886116b7565b90506117676060830185611714565b6117746080830184611642565b979650505050505050565b6000601f19601f8301169050919050565b7f4e487b7100000000000000000000000000000000000000000000000000000000600052604160045260246000fd5b6117c88261177f565b810181811067ffffffffffffffff821117156117e7576117e6611790565b5b80604052505050565b60006117fa6112d0565b905061180682826117bf565b919050565b600067ffffffffffffffff82111561182657611825611790565b5b602082029050602081019050919050565b6000815190506118468161132c565b92915050565b600061185f61185a8461180b565b6117f0565b9050808382526020820190506020840283018581111561188257611881611362565b5b835b818110156118ab57806118978882611837565b845260208401935050602081019050611884565b5050509392505050565b600082601f8301126118ca576118c9611358565b5b81516118da84826020860161184c565b91505092915050565b6000602082840312156118f9576118f86112da565b5b600082015167ffffffffffffffff811115611917576119166112df565b5b611923848285016118b5565b91505092915050565b7f4e487b7100000000000000000000000000000000000000000000000000000000600052601160045260246000fd5b600061196682611322565b915061197183611322565b9250828210156119845761198361192c565b5b828203905092915050565b600061199a82611322565b91506119a583611322565b9250817fffffffffffffffffffffffffffffffffffffffffffffffffffffffffffffffff04831182151516156119de576119dd61192c565b5b828202905092915050565b7f4e487b7100000000000000000000000000000000000000000000000000000000600052601260045260246000fd5b6000611a2382611322565b9150611a2e83611322565b925082611a3e57611a3d6119e9565b5b828204905092915050565b6000604082019050611a5e6000830186611642565b8181036020830152611a718184866116b7565b9050949350505050565b600082825260208201905092915050565b7f4e6f206d73672e76616c75652100000000000000000000000000000000000000600082015250565b6000611ac2600d83611a7b565b9150611acd82611a8c565b602082019050919050565b60006020820190508181036000830152611af181611ab5565b9050919050565b6000608082019050611b0d6000830188611642565b8181036020830152611b208186886116b7565b9050611b2f6040830185611714565b611b3c6060830184611642565b9695505050505050565b6000606082019050611b5b6000830186611714565b611b686020830185611714565b611b756040830184611642565b949350505050565b6000604082019050611b926000830185611714565b611b9f6020830184611714565b9392505050565b600060208284031215611bbc57611bbb6112da565b5b6000611bca84828501611837565b91505092915050565b6000611bde82611322565b9150611be983611322565b9250827fffffffffffffffffffffffffffffffffffffffffffffffffffffffffffffffff03821115611c1e57611c1d61192c565b5b828201905092915050565b6000604082019050611c3e6000830185611714565b611c4b6020830184611642565b9392505050565b7f5361666545524332303a20617070726f76652066726f6d206e6f6e2d7a65726f60008201527f20746f206e6f6e2d7a65726f20616c6c6f77616e636500000000000000000000602082015250565b6000611cae603683611a7b565b9150611cb982611c52565b604082019050919050565b60006020820190508181036000830152611cdd81611ca1565b9050919050565b60008115159050919050565b611cf981611ce4565b8114611d0457600080fd5b50565b600081519050611d1681611cf0565b92915050565b600060208284031215611d3257611d316112da565b5b6000611d4084828501611d07565b91505092915050565b7f5361666545524332303a204552433230206f7065726174696f6e20646964206e60008201527f6f74207375636365656400000000000000000000000000000000000000000000602082015250565b6000611da5602a83611a7b565b9150611db082611d49565b604082019050919050565b60006020820190508181036000830152611dd481611d98565b9050919050565b7f416464726573733a20696e73756666696369656e742062616c616e636520666f60008201527f722063616c6c0000000000000000000000000000000000000000000000000000602082015250565b6000611e37602683611a7b565b9150611e4282611ddb565b604082019050919050565b60006020820190508181036000830152611e6681611e2a565b9050919050565b7f416464726573733a2063616c6c20746f206e6f6e2d636f6e7472616374000000600082015250565b6000611ea3601d83611a7b565b9150611eae82611e6d565b602082019050919050565b60006020820190508181036000830152611ed281611e96565b9050919050565b600081519050919050565b600081905092915050565b60005b83811015611f0d578082015181840152602081019050611ef2565b83811115611f1c576000848401525b50505050565b6000611f2d82611ed9565b611f378185611ee4565b9350611f47818560208601611eef565b80840191505092915050565b6000611f5f8284611f22565b915081905092915050565b600081519050919050565b6000611f8082611f6a565b611f8a8185611a7b565b9350611f9a818560208601611eef565b611fa38161177f565b840191505092915050565b60006020820190508181036000830152611fc88184611f75565b90509291505056fea2646970667358221220364fa1ee26bf1186e4ef8b6d85900dc7583f76d947878ccf520a5c39f3b0384c64736f6c634300080d0033",
  "linkReferences": {},
  "deployedLinkReferences": {}
}