{
  "_format": "hh-sol-artifact-1",
  "contractName": "Marketplace",
  "sourceName": "contracts/Marketplace.sol",
  "abi": [
    {
      "inputs": [
        {
          "internalType": "address",
          "name": "_starknetCoreAddress",
          "type": "address"
        }
      ],
      "stateMutability": "nonpayable",
      "type": "constructor"
    },
    {
      "anonymous": false,
      "inputs": [
        {
          "indexed": true,
          "internalType": "address",
          "name": "seller",
          "type": "address"
        },
        {
          "indexed": true,
          "internalType": "address",
          "name": "nftAddress",
          "type": "address"
        },
        {
          "indexed": true,
          "internalType": "uint256",
          "name": "tokenId",
          "type": "uint256"
        },
        {
          "indexed": false,
          "internalType": "uint256",
          "name": "startingPrice",
          "type": "uint256"
        },
        {
          "indexed": false,
          "internalType": "uint256",
          "name": "endTime",
          "type": "uint256"
        }
      ],
      "name": "AuctionListed",
      "type": "event"
    },
    {
      "anonymous": false,
      "inputs": [
        {
          "indexed": true,
          "internalType": "address",
          "name": "seller",
          "type": "address"
        },
        {
          "indexed": true,
          "internalType": "address",
          "name": "nftAddress",
          "type": "address"
        },
        {
          "indexed": true,
          "internalType": "uint256",
          "name": "tokenId",
          "type": "uint256"
        }
      ],
      "name": "AuctionUnlisted",
      "type": "event"
    },
    {
      "anonymous": false,
      "inputs": [
        {
          "indexed": true,
          "internalType": "address",
          "name": "seller",
          "type": "address"
        },
        {
          "indexed": true,
          "internalType": "address",
          "name": "nftAddress",
          "type": "address"
        },
        {
          "indexed": true,
          "internalType": "uint256",
          "name": "tokenId",
          "type": "uint256"
        },
        {
          "indexed": false,
          "internalType": "uint256",
          "name": "price",
          "type": "uint256"
        }
      ],
      "name": "NFTListed",
      "type": "event"
    },
    {
      "anonymous": false,
      "inputs": [
        {
          "indexed": true,
          "internalType": "address",
          "name": "seller",
          "type": "address"
        },
        {
          "indexed": true,
          "internalType": "address",
          "name": "nftAddress",
          "type": "address"
        },
        {
          "indexed": true,
          "internalType": "uint256",
          "name": "tokenId",
          "type": "uint256"
        },
        {
          "indexed": false,
          "internalType": "uint256",
          "name": "price",
          "type": "uint256"
        }
      ],
      "name": "NFTUnlisted",
      "type": "event"
    },
    {
      "inputs": [
        {
          "internalType": "address",
          "name": "nftAddress",
          "type": "address"
        },
        {
          "internalType": "uint256",
          "name": "tokenId",
          "type": "uint256"
        }
      ],
      "name": "buyNow",
      "outputs": [],
      "stateMutability": "payable",
      "type": "function"
    },
    {
      "inputs": [
        {
          "internalType": "address",
          "name": "nftAddress",
          "type": "address"
        },
        {
          "internalType": "uint256",
          "name": "tokenId",
          "type": "uint256"
        }
      ],
      "name": "claimAsset",
      "outputs": [],
      "stateMutability": "nonpayable",
      "type": "function"
    },
    {
      "inputs": [
        {
          "internalType": "address",
          "name": "",
          "type": "address"
        },
        {
          "internalType": "address",
          "name": "",
          "type": "address"
        },
        {
          "internalType": "uint256",
          "name": "",
          "type": "uint256"
        },
        {
          "internalType": "bytes",
          "name": "",
          "type": "bytes"
        }
      ],
      "name": "onERC721Received",
      "outputs": [
        {
          "internalType": "bytes4",
          "name": "",
          "type": "bytes4"
        }
      ],
      "stateMutability": "nonpayable",
      "type": "function"
    },
    {
      "inputs": [
        {
          "internalType": "address",
          "name": "nftAddress",
          "type": "address"
        },
        {
          "internalType": "uint256",
          "name": "tokenId",
          "type": "uint256"
        },
        {
          "internalType": "uint256",
          "name": "startingPrice",
          "type": "uint256"
        },
        {
          "internalType": "uint256",
          "name": "duration",
          "type": "uint256"
        }
      ],
      "name": "putOnAuction",
      "outputs": [],
      "stateMutability": "nonpayable",
      "type": "function"
    },
    {
      "inputs": [
        {
          "internalType": "address",
          "name": "nftAddress",
          "type": "address"
        },
        {
          "internalType": "uint256",
          "name": "tokenId",
          "type": "uint256"
        },
        {
          "internalType": "uint256",
          "name": "price",
          "type": "uint256"
        }
      ],
      "name": "putOnBuyNow",
      "outputs": [],
      "stateMutability": "nonpayable",
      "type": "function"
    },
    {
      "inputs": [
        {
          "internalType": "address",
          "name": "nftAddress",
          "type": "address"
        },
        {
          "internalType": "uint256",
          "name": "tokenId",
          "type": "uint256"
        }
      ],
      "name": "removeFromAuction",
      "outputs": [],
      "stateMutability": "nonpayable",
      "type": "function"
    },
    {
      "inputs": [
        {
          "internalType": "address",
          "name": "nftAddress",
          "type": "address"
        },
        {
          "internalType": "uint256",
          "name": "tokenId",
          "type": "uint256"
        }
      ],
      "name": "removeFromBuyNow",
      "outputs": [],
      "stateMutability": "nonpayable",
      "type": "function"
    }
  ],
  "bytecode": "0x60a06040523480156200001157600080fd5b50604051620018ed380380620018ed8339818101604052810190620000379190620000dc565b8073ffffffffffffffffffffffffffffffffffffffff1660808173ffffffffffffffffffffffffffffffffffffffff1681525050506200010e565b600080fd5b600073ffffffffffffffffffffffffffffffffffffffff82169050919050565b6000620000a48262000077565b9050919050565b620000b68162000097565b8114620000c257600080fd5b50565b600081519050620000d681620000ab565b92915050565b600060208284031215620000f557620000f462000072565b5b60006200010584828501620000c5565b91505092915050565b6080516117b562000138600039600081816109a201528181610c2d0152610faa01526117b56000f3fe6080604052600436106100705760003560e01c80635d40ae111161004e5780635d40ae11146100f75780636aba80e914610120578063ba4917b314610149578063f55ae8411461017257610070565b80630e4bdc9014610075578063150b7a02146100915780634acf3307146100ce575b600080fd5b61008f600480360381019061008a919061118a565b61019b565b005b34801561009d57600080fd5b506100b860048036038101906100b39190611310565b61040f565b6040516100c591906113ce565b60405180910390f35b3480156100da57600080fd5b506100f560048036038101906100f0919061118a565b610423565b005b34801561010357600080fd5b5061011e600480360381019061011991906113e9565b61061e565b005b34801561012c57600080fd5b506101476004803603810190610142919061118a565b6107c7565b005b34801561015557600080fd5b50610170600480360381019061016b919061118a565b610b4e565b005b34801561017e57600080fd5b506101996004803603810190610194919061143c565b610d5d565b005b34600160008473ffffffffffffffffffffffffffffffffffffffff1673ffffffffffffffffffffffffffffffffffffffff168152602001908152602001600020600083815260200190815260200160002060010154146101fa57600080fd5b600160008373ffffffffffffffffffffffffffffffffffffffff1673ffffffffffffffffffffffffffffffffffffffff1681526020019081526020016000206000828152602001908152602001600020600080820160006101000a81549073ffffffffffffffffffffffffffffffffffffffff0219169055600182016000905550508173ffffffffffffffffffffffffffffffffffffffff166342842e0e3033846040518463ffffffff1660e01b81526004016102b9939291906114c1565b600060405180830381600087803b1580156102d357600080fd5b505af11580156102e7573d6000803e3d6000fd5b50505050600160008373ffffffffffffffffffffffffffffffffffffffff1673ffffffffffffffffffffffffffffffffffffffff168152602001908152602001600020600082815260200190815260200160002060000160009054906101000a900473ffffffffffffffffffffffffffffffffffffffff1673ffffffffffffffffffffffffffffffffffffffff166108fc349081150290604051600060405180830381858888f193505050501580156103a4573d6000803e3d6000fd5b50808273ffffffffffffffffffffffffffffffffffffffff163373ffffffffffffffffffffffffffffffffffffffff167f6d7362d1e96e1739a576062b58d2055c5f8f9b50bf703c53b1c26cd3a82548c63460405161040391906114f8565b60405180910390a45050565b600063150b7a0260e01b9050949350505050565b3373ffffffffffffffffffffffffffffffffffffffff16600160008473ffffffffffffffffffffffffffffffffffffffff1673ffffffffffffffffffffffffffffffffffffffff168152602001908152602001600020600083815260200190815260200160002060000160009054906101000a900473ffffffffffffffffffffffffffffffffffffffff1673ffffffffffffffffffffffffffffffffffffffff16146104ce57600080fd5b600160008373ffffffffffffffffffffffffffffffffffffffff1673ffffffffffffffffffffffffffffffffffffffff1681526020019081526020016000206000828152602001908152602001600020600080820160006101000a81549073ffffffffffffffffffffffffffffffffffffffff0219169055600182016000905550508173ffffffffffffffffffffffffffffffffffffffff166342842e0e3033846040518463ffffffff1660e01b815260040161058d939291906114c1565b600060405180830381600087803b1580156105a757600080fd5b505af11580156105bb573d6000803e3d6000fd5b50505050808273ffffffffffffffffffffffffffffffffffffffff163373ffffffffffffffffffffffffffffffffffffffff167fa130d695d3c78b7ebd8c715d98e24f0fee0132e95966f28775f35cb8d738ad8460405160405180910390a45050565b8273ffffffffffffffffffffffffffffffffffffffff166342842e0e3330856040518463ffffffff1660e01b815260040161065b939291906114c1565b600060405180830381600087803b15801561067557600080fd5b505af1158015610689573d6000803e3d6000fd5b5050505060405180604001604052803373ffffffffffffffffffffffffffffffffffffffff16815260200182815250600160008573ffffffffffffffffffffffffffffffffffffffff1673ffffffffffffffffffffffffffffffffffffffff168152602001908152602001600020600084815260200190815260200160002060008201518160000160006101000a81548173ffffffffffffffffffffffffffffffffffffffff021916908373ffffffffffffffffffffffffffffffffffffffff16021790555060208201518160010155905050818373ffffffffffffffffffffffffffffffffffffffff163373ffffffffffffffffffffffffffffffffffffffff167fbeab3a2bb824b124a8a1eb465eec003338d61b414db132d37e9b3a984fdcf010846040516107ba91906114f8565b60405180910390a4505050565b3373ffffffffffffffffffffffffffffffffffffffff166000808473ffffffffffffffffffffffffffffffffffffffff1673ffffffffffffffffffffffffffffffffffffffff168152602001908152602001600020600083815260200190815260200160002060000160009054906101000a900473ffffffffffffffffffffffffffffffffffffffff1673ffffffffffffffffffffffffffffffffffffffff161461087157600080fd5b6000808373ffffffffffffffffffffffffffffffffffffffff1673ffffffffffffffffffffffffffffffffffffffff1681526020019081526020016000206000828152602001908152602001600020600080820160006101000a81549073ffffffffffffffffffffffffffffffffffffffff02191690556001820160009055600282016000905550506000600267ffffffffffffffff811115610917576109166111e5565b5b6040519080825280602002602001820160405280156109455781602001602082028036833780820191505090505b5090508273ffffffffffffffffffffffffffffffffffffffff168160008151811061097357610972611513565b5b602002602001018181525050818160018151811061099457610993611513565b5b6020026020010181815250507f000000000000000000000000000000000000000000000000000000000000000073ffffffffffffffffffffffffffffffffffffffff16633e3aa6c57e79dc0da7c54b95f10aa182ad0a46400db63156920adb65eca2654c0945a4637e79dc0da7c54b95f10aa182ad0a46400db63156920adb65eca2654c0945a464846040518463ffffffff1660e01b8152600401610a3b93929190611600565b6020604051808303816000875af1158015610a5a573d6000803e3d6000fd5b505050506040513d601f19601f82011682018060405250810190610a7e9190611674565b508273ffffffffffffffffffffffffffffffffffffffff166342842e0e3033856040518463ffffffff1660e01b8152600401610abc939291906114c1565b600060405180830381600087803b158015610ad657600080fd5b505af1158015610aea573d6000803e3d6000fd5b50505050818373ffffffffffffffffffffffffffffffffffffffff163373ffffffffffffffffffffffffffffffffffffffff167fa130d695d3c78b7ebd8c715d98e24f0fee0132e95966f28775f35cb8d738ad8460405160405180910390a4505050565b6000600367ffffffffffffffff811115610b6b57610b6a6111e5565b5b604051908082528060200260200182016040528015610b995781602001602082028036833780820191505090505b5090503373ffffffffffffffffffffffffffffffffffffffff1681600081518110610bc757610bc6611513565b5b6020026020010181815250508273ffffffffffffffffffffffffffffffffffffffff1681600181518110610bfe57610bfd611513565b5b6020026020010181815250508181600281518110610c1f57610c1e611513565b5b6020026020010181815250507f000000000000000000000000000000000000000000000000000000000000000073ffffffffffffffffffffffffffffffffffffffff16632c9dd5c07e79dc0da7c54b95f10aa182ad0a46400db63156920adb65eca2654c0945a463836040518363ffffffff1660e01b8152600401610ca59291906116a1565b6020604051808303816000875af1158015610cc4573d6000803e3d6000fd5b505050506040513d601f19601f82011682018060405250810190610ce89190611674565b508273ffffffffffffffffffffffffffffffffffffffff166342842e0e3033856040518463ffffffff1660e01b8152600401610d26939291906114c1565b600060405180830381600087803b158015610d4057600080fd5b505af1158015610d54573d6000803e3d6000fd5b50505050505050565b8373ffffffffffffffffffffffffffffffffffffffff166342842e0e3330866040518463ffffffff1660e01b8152600401610d9a939291906114c1565b600060405180830381600087803b158015610db457600080fd5b505af1158015610dc8573d6000803e3d6000fd5b5050505060405180606001604052803373ffffffffffffffffffffffffffffffffffffffff1681526020018381526020018242610e059190611700565b8152506000808673ffffffffffffffffffffffffffffffffffffffff1673ffffffffffffffffffffffffffffffffffffffff168152602001908152602001600020600085815260200190815260200160002060008201518160000160006101000a81548173ffffffffffffffffffffffffffffffffffffffff021916908373ffffffffffffffffffffffffffffffffffffffff16021790555060208201518160010155604082015181600201559050506000600467ffffffffffffffff811115610ed257610ed16111e5565b5b604051908082528060200260200182016040528015610f005781602001602082028036833780820191505090505b5090508473ffffffffffffffffffffffffffffffffffffffff1681600081518110610f2e57610f2d611513565b5b6020026020010181815250508381600181518110610f4f57610f4e611513565b5b6020026020010181815250508281600281518110610f7057610f6f611513565b5b6020026020010181815250508142610f889190611700565b81600381518110610f9c57610f9b611513565b5b6020026020010181815250507f000000000000000000000000000000000000000000000000000000000000000073ffffffffffffffffffffffffffffffffffffffff16633e3aa6c57e79dc0da7c54b95f10aa182ad0a46400db63156920adb65eca2654c0945a46380846040518463ffffffff1660e01b815260040161102493929190611600565b6020604051808303816000875af1158015611043573d6000803e3d6000fd5b505050506040513d601f19601f820116820180604052508101906110679190611674565b50838573ffffffffffffffffffffffffffffffffffffffff163373ffffffffffffffffffffffffffffffffffffffff167f2909fbb92243f1967e783742305e1b9596b8b9b241f0b26fd8563b5b045e64838686426110c59190611700565b6040516110d3929190611756565b60405180910390a45050505050565b6000604051905090565b600080fd5b600080fd5b600073ffffffffffffffffffffffffffffffffffffffff82169050919050565b6000611121826110f6565b9050919050565b61113181611116565b811461113c57600080fd5b50565b60008135905061114e81611128565b92915050565b6000819050919050565b61116781611154565b811461117257600080fd5b50565b6000813590506111848161115e565b92915050565b600080604083850312156111a1576111a06110ec565b5b60006111af8582860161113f565b92505060206111c085828601611175565b9150509250929050565b600080fd5b600080fd5b6000601f19601f8301169050919050565b7f4e487b7100000000000000000000000000000000000000000000000000000000600052604160045260246000fd5b61121d826111d4565b810181811067ffffffffffffffff8211171561123c5761123b6111e5565b5b80604052505050565b600061124f6110e2565b905061125b8282611214565b919050565b600067ffffffffffffffff82111561127b5761127a6111e5565b5b611284826111d4565b9050602081019050919050565b82818337600083830152505050565b60006112b36112ae84611260565b611245565b9050828152602081018484840111156112cf576112ce6111cf565b5b6112da848285611291565b509392505050565b600082601f8301126112f7576112f66111ca565b5b81356113078482602086016112a0565b91505092915050565b6000806000806080858703121561132a576113296110ec565b5b60006113388782880161113f565b94505060206113498782880161113f565b935050604061135a87828801611175565b925050606085013567ffffffffffffffff81111561137b5761137a6110f1565b5b611387878288016112e2565b91505092959194509250565b60007fffffffff0000000000000000000000000000000000000000000000000000000082169050919050565b6113c881611393565b82525050565b60006020820190506113e360008301846113bf565b92915050565b600080600060608486031215611402576114016110ec565b5b60006114108682870161113f565b935050602061142186828701611175565b925050604061143286828701611175565b9150509250925092565b60008060008060808587031215611456576114556110ec565b5b60006114648782880161113f565b945050602061147587828801611175565b935050604061148687828801611175565b925050606061149787828801611175565b91505092959194509250565b6114ac81611116565b82525050565b6114bb81611154565b82525050565b60006060820190506114d660008301866114a3565b6114e360208301856114a3565b6114f060408301846114b2565b949350505050565b600060208201905061150d60008301846114b2565b92915050565b7f4e487b7100000000000000000000000000000000000000000000000000000000600052603260045260246000fd5b600081519050919050565b600082825260208201905092915050565b6000819050602082019050919050565b61157781611154565b82525050565b6000611589838361156e565b60208301905092915050565b6000602082019050919050565b60006115ad82611542565b6115b7818561154d565b93506115c28361155e565b8060005b838110156115f35781516115da888261157d565b97506115e583611595565b9250506001810190506115c6565b5085935050505092915050565b600060608201905061161560008301866114b2565b61162260208301856114b2565b818103604083015261163481846115a2565b9050949350505050565b6000819050919050565b6116518161163e565b811461165c57600080fd5b50565b60008151905061166e81611648565b92915050565b60006020828403121561168a576116896110ec565b5b60006116988482850161165f565b91505092915050565b60006040820190506116b660008301856114b2565b81810360208301526116c881846115a2565b90509392505050565b7f4e487b7100000000000000000000000000000000000000000000000000000000600052601160045260246000fd5b600061170b82611154565b915061171683611154565b9250827fffffffffffffffffffffffffffffffffffffffffffffffffffffffffffffffff0382111561174b5761174a6116d1565b5b828201905092915050565b600060408201905061176b60008301856114b2565b61177860208301846114b2565b939250505056fea26469706673582212201ae9f94e6306a21cc06d64adfe7d09647eec37caa879585722e72f9508a2da8464736f6c634300080d0033",
  "linkReferences": {},
  "deployedLinkReferences": {}
}