{
  "_format": "hh-sol-artifact-1",
  "contractName": "Marketplace",
  "sourceName": "contracts/Marketplace.sol",
  "abi": [
    {
      "inputs": [
        {
          "internalType": "address",
          "name": "_starknetCoreAddress",
          "type": "address"
        }
      ],
      "stateMutability": "nonpayable",
      "type": "constructor"
    },
    {
      "anonymous": false,
      "inputs": [
        {
          "indexed": true,
          "internalType": "address",
          "name": "seller",
          "type": "address"
        },
        {
          "indexed": true,
          "internalType": "address",
          "name": "nftAddress",
          "type": "address"
        },
        {
          "indexed": true,
          "internalType": "uint256",
          "name": "tokenId",
          "type": "uint256"
        },
        {
          "indexed": false,
          "internalType": "uint256",
          "name": "startingPrice",
          "type": "uint256"
        },
        {
          "indexed": false,
          "internalType": "uint256",
          "name": "endTime",
          "type": "uint256"
        }
      ],
      "name": "AuctionListed",
      "type": "event"
    },
    {
      "anonymous": false,
      "inputs": [
        {
          "indexed": true,
          "internalType": "address",
          "name": "seller",
          "type": "address"
        },
        {
          "indexed": true,
          "internalType": "address",
          "name": "nftAddress",
          "type": "address"
        },
        {
          "indexed": true,
          "internalType": "uint256",
          "name": "tokenId",
          "type": "uint256"
        }
      ],
      "name": "AuctionUnlisted",
      "type": "event"
    },
    {
      "anonymous": false,
      "inputs": [
        {
          "indexed": true,
          "internalType": "address",
          "name": "seller",
          "type": "address"
        },
        {
          "indexed": true,
          "internalType": "address",
          "name": "nftAddress",
          "type": "address"
        },
        {
          "indexed": true,
          "internalType": "uint256",
          "name": "tokenId",
          "type": "uint256"
        },
        {
          "indexed": false,
          "internalType": "uint256",
          "name": "price",
          "type": "uint256"
        }
      ],
      "name": "NFTListed",
      "type": "event"
    },
    {
      "anonymous": false,
      "inputs": [
        {
          "indexed": true,
          "internalType": "address",
          "name": "seller",
          "type": "address"
        },
        {
          "indexed": true,
          "internalType": "address",
          "name": "nftAddress",
          "type": "address"
        },
        {
          "indexed": true,
          "internalType": "uint256",
          "name": "tokenId",
          "type": "uint256"
        },
        {
          "indexed": false,
          "internalType": "uint256",
          "name": "price",
          "type": "uint256"
        }
      ],
      "name": "NFTUnlisted",
      "type": "event"
    },
    {
      "inputs": [
        {
          "internalType": "address",
          "name": "nftAddress",
          "type": "address"
        },
        {
          "internalType": "uint256",
          "name": "tokenId",
          "type": "uint256"
        }
      ],
      "name": "buyNow",
      "outputs": [],
      "stateMutability": "payable",
      "type": "function"
    },
    {
      "inputs": [
        {
          "internalType": "address",
          "name": "nftAddress",
          "type": "address"
        },
        {
          "internalType": "uint256",
          "name": "tokenId",
          "type": "uint256"
        }
      ],
      "name": "claimAsset",
      "outputs": [],
      "stateMutability": "payable",
      "type": "function"
    },
    {
      "inputs": [
        {
          "internalType": "address",
          "name": "",
          "type": "address"
        },
        {
          "internalType": "address",
          "name": "",
          "type": "address"
        },
        {
          "internalType": "uint256",
          "name": "",
          "type": "uint256"
        },
        {
          "internalType": "bytes",
          "name": "",
          "type": "bytes"
        }
      ],
      "name": "onERC721Received",
      "outputs": [
        {
          "internalType": "bytes4",
          "name": "",
          "type": "bytes4"
        }
      ],
      "stateMutability": "nonpayable",
      "type": "function"
    },
    {
      "inputs": [
        {
          "internalType": "address",
          "name": "nftAddress",
          "type": "address"
        },
        {
          "internalType": "uint256",
          "name": "tokenId",
          "type": "uint256"
        },
        {
          "internalType": "uint256",
          "name": "startingPrice",
          "type": "uint256"
        },
        {
          "internalType": "uint256",
          "name": "duration",
          "type": "uint256"
        }
      ],
      "name": "putOnAuction",
      "outputs": [],
      "stateMutability": "nonpayable",
      "type": "function"
    },
    {
      "inputs": [
        {
          "internalType": "address",
          "name": "nftAddress",
          "type": "address"
        },
        {
          "internalType": "uint256",
          "name": "tokenId",
          "type": "uint256"
        },
        {
          "internalType": "uint256",
          "name": "price",
          "type": "uint256"
        }
      ],
      "name": "putOnBuyNow",
      "outputs": [],
      "stateMutability": "nonpayable",
      "type": "function"
    },
    {
      "inputs": [
        {
          "internalType": "address",
          "name": "nftAddress",
          "type": "address"
        },
        {
          "internalType": "uint256",
          "name": "tokenId",
          "type": "uint256"
        }
      ],
      "name": "removeFromAuction",
      "outputs": [],
      "stateMutability": "nonpayable",
      "type": "function"
    },
    {
      "inputs": [
        {
          "internalType": "address",
          "name": "nftAddress",
          "type": "address"
        },
        {
          "internalType": "uint256",
          "name": "tokenId",
          "type": "uint256"
        }
      ],
      "name": "removeFromBuyNow",
      "outputs": [],
      "stateMutability": "nonpayable",
      "type": "function"
    },
    {
      "inputs": [
        {
          "internalType": "uint256",
          "name": "_L2Address",
          "type": "uint256"
        }
      ],
      "name": "setL2Address",
      "outputs": [],
      "stateMutability": "nonpayable",
      "type": "function"
    }
  ],
  "bytecode": "0x60a06040527e32363f055c683f30a5efded800ab95e8e3dbf2cf882de2e7bdd63a871780946002553480156200003457600080fd5b50604051620019583803806200195883398181016040528101906200005a9190620000ff565b8073ffffffffffffffffffffffffffffffffffffffff1660808173ffffffffffffffffffffffffffffffffffffffff16815250505062000131565b600080fd5b600073ffffffffffffffffffffffffffffffffffffffff82169050919050565b6000620000c7826200009a565b9050919050565b620000d981620000ba565b8114620000e557600080fd5b50565b600081519050620000f981620000ce565b92915050565b60006020828403121562000118576200011762000095565b5b60006200012884828501620000e8565b91505092915050565b6080516117fd6200015b600039600081816109c901528181610c620152610fc201526117fd6000f3fe60806040526004361061007b5760003560e01c80636aba80e91161004e5780636aba80e91461012b5780637eec55b414610154578063ba4917b31461017d578063f55ae841146101995761007b565b80630e4bdc9014610080578063150b7a021461009c5780634acf3307146100d95780635d40ae1114610102575b600080fd5b61009a600480360381019061009591906111a5565b6101c2565b005b3480156100a857600080fd5b506100c360048036038101906100be919061132b565b610436565b6040516100d091906113e9565b60405180910390f35b3480156100e557600080fd5b5061010060048036038101906100fb91906111a5565b61044a565b005b34801561010e57600080fd5b5061012960048036038101906101249190611404565b610645565b005b34801561013757600080fd5b50610152600480360381019061014d91906111a5565b6107ee565b005b34801561016057600080fd5b5061017b60048036038101906101769190611457565b610b58565b005b610197600480360381019061019291906111a5565b610b62565b005b3480156101a557600080fd5b506101c060048036038101906101bb9190611484565b610d75565b005b34600160008473ffffffffffffffffffffffffffffffffffffffff1673ffffffffffffffffffffffffffffffffffffffff1681526020019081526020016000206000838152602001908152602001600020600101541461022157600080fd5b600160008373ffffffffffffffffffffffffffffffffffffffff1673ffffffffffffffffffffffffffffffffffffffff1681526020019081526020016000206000828152602001908152602001600020600080820160006101000a81549073ffffffffffffffffffffffffffffffffffffffff0219169055600182016000905550508173ffffffffffffffffffffffffffffffffffffffff166342842e0e3033846040518463ffffffff1660e01b81526004016102e093929190611509565b600060405180830381600087803b1580156102fa57600080fd5b505af115801561030e573d6000803e3d6000fd5b50505050600160008373ffffffffffffffffffffffffffffffffffffffff1673ffffffffffffffffffffffffffffffffffffffff168152602001908152602001600020600082815260200190815260200160002060000160009054906101000a900473ffffffffffffffffffffffffffffffffffffffff1673ffffffffffffffffffffffffffffffffffffffff166108fc349081150290604051600060405180830381858888f193505050501580156103cb573d6000803e3d6000fd5b50808273ffffffffffffffffffffffffffffffffffffffff163373ffffffffffffffffffffffffffffffffffffffff167f6d7362d1e96e1739a576062b58d2055c5f8f9b50bf703c53b1c26cd3a82548c63460405161042a9190611540565b60405180910390a45050565b600063150b7a0260e01b9050949350505050565b3373ffffffffffffffffffffffffffffffffffffffff16600160008473ffffffffffffffffffffffffffffffffffffffff1673ffffffffffffffffffffffffffffffffffffffff168152602001908152602001600020600083815260200190815260200160002060000160009054906101000a900473ffffffffffffffffffffffffffffffffffffffff1673ffffffffffffffffffffffffffffffffffffffff16146104f557600080fd5b600160008373ffffffffffffffffffffffffffffffffffffffff1673ffffffffffffffffffffffffffffffffffffffff1681526020019081526020016000206000828152602001908152602001600020600080820160006101000a81549073ffffffffffffffffffffffffffffffffffffffff0219169055600182016000905550508173ffffffffffffffffffffffffffffffffffffffff166342842e0e3033846040518463ffffffff1660e01b81526004016105b493929190611509565b600060405180830381600087803b1580156105ce57600080fd5b505af11580156105e2573d6000803e3d6000fd5b50505050808273ffffffffffffffffffffffffffffffffffffffff163373ffffffffffffffffffffffffffffffffffffffff167fa130d695d3c78b7ebd8c715d98e24f0fee0132e95966f28775f35cb8d738ad8460405160405180910390a45050565b8273ffffffffffffffffffffffffffffffffffffffff166342842e0e3330856040518463ffffffff1660e01b815260040161068293929190611509565b600060405180830381600087803b15801561069c57600080fd5b505af11580156106b0573d6000803e3d6000fd5b5050505060405180604001604052803373ffffffffffffffffffffffffffffffffffffffff16815260200182815250600160008573ffffffffffffffffffffffffffffffffffffffff1673ffffffffffffffffffffffffffffffffffffffff168152602001908152602001600020600084815260200190815260200160002060008201518160000160006101000a81548173ffffffffffffffffffffffffffffffffffffffff021916908373ffffffffffffffffffffffffffffffffffffffff16021790555060208201518160010155905050818373ffffffffffffffffffffffffffffffffffffffff163373ffffffffffffffffffffffffffffffffffffffff167fbeab3a2bb824b124a8a1eb465eec003338d61b414db132d37e9b3a984fdcf010846040516107e19190611540565b60405180910390a4505050565b3373ffffffffffffffffffffffffffffffffffffffff166000808473ffffffffffffffffffffffffffffffffffffffff1673ffffffffffffffffffffffffffffffffffffffff168152602001908152602001600020600083815260200190815260200160002060000160009054906101000a900473ffffffffffffffffffffffffffffffffffffffff1673ffffffffffffffffffffffffffffffffffffffff161461089857600080fd5b6000808373ffffffffffffffffffffffffffffffffffffffff1673ffffffffffffffffffffffffffffffffffffffff1681526020019081526020016000206000828152602001908152602001600020600080820160006101000a81549073ffffffffffffffffffffffffffffffffffffffff02191690556001820160009055600282016000905550506000600267ffffffffffffffff81111561093e5761093d611200565b5b60405190808252806020026020018201604052801561096c5781602001602082028036833780820191505090505b5090508273ffffffffffffffffffffffffffffffffffffffff168160008151811061099a5761099961155b565b5b60200260200101818152505081816001815181106109bb576109ba61155b565b5b6020026020010181815250507f000000000000000000000000000000000000000000000000000000000000000073ffffffffffffffffffffffffffffffffffffffff16633e3aa6c56002547e12212658c2e5c20f44261d6b55af20d1f269c4271759ee8a4aaf63eb3ec5d7846040518463ffffffff1660e01b8152600401610a4593929190611648565b6020604051808303816000875af1158015610a64573d6000803e3d6000fd5b505050506040513d601f19601f82011682018060405250810190610a8891906116bc565b508273ffffffffffffffffffffffffffffffffffffffff166342842e0e3033856040518463ffffffff1660e01b8152600401610ac693929190611509565b600060405180830381600087803b158015610ae057600080fd5b505af1158015610af4573d6000803e3d6000fd5b50505050818373ffffffffffffffffffffffffffffffffffffffff163373ffffffffffffffffffffffffffffffffffffffff167fa130d695d3c78b7ebd8c715d98e24f0fee0132e95966f28775f35cb8d738ad8460405160405180910390a4505050565b8060028190555050565b6000600467ffffffffffffffff811115610b7f57610b7e611200565b5b604051908082528060200260200182016040528015610bad5781602001602082028036833780820191505090505b5090503373ffffffffffffffffffffffffffffffffffffffff1681600081518110610bdb57610bda61155b565b5b6020026020010181815250508273ffffffffffffffffffffffffffffffffffffffff1681600181518110610c1257610c1161155b565b5b6020026020010181815250508181600281518110610c3357610c3261155b565b5b6020026020010181815250503481600381518110610c5457610c5361155b565b5b6020026020010181815250507f000000000000000000000000000000000000000000000000000000000000000073ffffffffffffffffffffffffffffffffffffffff16632c9dd5c0600254836040518363ffffffff1660e01b8152600401610cbd9291906116e9565b6020604051808303816000875af1158015610cdc573d6000803e3d6000fd5b505050506040513d601f19601f82011682018060405250810190610d0091906116bc565b508273ffffffffffffffffffffffffffffffffffffffff166342842e0e3033856040518463ffffffff1660e01b8152600401610d3e93929190611509565b600060405180830381600087803b158015610d5857600080fd5b505af1158015610d6c573d6000803e3d6000fd5b50505050505050565b8373ffffffffffffffffffffffffffffffffffffffff166342842e0e3330866040518463ffffffff1660e01b8152600401610db293929190611509565b600060405180830381600087803b158015610dcc57600080fd5b505af1158015610de0573d6000803e3d6000fd5b5050505060405180606001604052803373ffffffffffffffffffffffffffffffffffffffff1681526020018381526020018242610e1d9190611748565b8152506000808673ffffffffffffffffffffffffffffffffffffffff1673ffffffffffffffffffffffffffffffffffffffff168152602001908152602001600020600085815260200190815260200160002060008201518160000160006101000a81548173ffffffffffffffffffffffffffffffffffffffff021916908373ffffffffffffffffffffffffffffffffffffffff16021790555060208201518160010155604082015181600201559050506000600467ffffffffffffffff811115610eea57610ee9611200565b5b604051908082528060200260200182016040528015610f185781602001602082028036833780820191505090505b5090508473ffffffffffffffffffffffffffffffffffffffff1681600081518110610f4657610f4561155b565b5b6020026020010181815250508381600181518110610f6757610f6661155b565b5b6020026020010181815250508281600281518110610f8857610f8761155b565b5b6020026020010181815250508142610fa09190611748565b81600381518110610fb457610fb361155b565b5b6020026020010181815250507f000000000000000000000000000000000000000000000000000000000000000073ffffffffffffffffffffffffffffffffffffffff16633e3aa6c56002547f039049ed03a77641f442e50fc9872dd5e1cfdffd325278f658cab0beefdf0d4a846040518463ffffffff1660e01b815260040161103f93929190611648565b6020604051808303816000875af115801561105e573d6000803e3d6000fd5b505050506040513d601f19601f8201168201806040525081019061108291906116bc565b50838573ffffffffffffffffffffffffffffffffffffffff163373ffffffffffffffffffffffffffffffffffffffff167f2909fbb92243f1967e783742305e1b9596b8b9b241f0b26fd8563b5b045e64838686426110e09190611748565b6040516110ee92919061179e565b60405180910390a45050505050565b6000604051905090565b600080fd5b600080fd5b600073ffffffffffffffffffffffffffffffffffffffff82169050919050565b600061113c82611111565b9050919050565b61114c81611131565b811461115757600080fd5b50565b60008135905061116981611143565b92915050565b6000819050919050565b6111828161116f565b811461118d57600080fd5b50565b60008135905061119f81611179565b92915050565b600080604083850312156111bc576111bb611107565b5b60006111ca8582860161115a565b92505060206111db85828601611190565b9150509250929050565b600080fd5b600080fd5b6000601f19601f8301169050919050565b7f4e487b7100000000000000000000000000000000000000000000000000000000600052604160045260246000fd5b611238826111ef565b810181811067ffffffffffffffff8211171561125757611256611200565b5b80604052505050565b600061126a6110fd565b9050611276828261122f565b919050565b600067ffffffffffffffff82111561129657611295611200565b5b61129f826111ef565b9050602081019050919050565b82818337600083830152505050565b60006112ce6112c98461127b565b611260565b9050828152602081018484840111156112ea576112e96111ea565b5b6112f58482856112ac565b509392505050565b600082601f830112611312576113116111e5565b5b81356113228482602086016112bb565b91505092915050565b6000806000806080858703121561134557611344611107565b5b60006113538782880161115a565b94505060206113648782880161115a565b935050604061137587828801611190565b925050606085013567ffffffffffffffff8111156113965761139561110c565b5b6113a2878288016112fd565b91505092959194509250565b60007fffffffff0000000000000000000000000000000000000000000000000000000082169050919050565b6113e3816113ae565b82525050565b60006020820190506113fe60008301846113da565b92915050565b60008060006060848603121561141d5761141c611107565b5b600061142b8682870161115a565b935050602061143c86828701611190565b925050604061144d86828701611190565b9150509250925092565b60006020828403121561146d5761146c611107565b5b600061147b84828501611190565b91505092915050565b6000806000806080858703121561149e5761149d611107565b5b60006114ac8782880161115a565b94505060206114bd87828801611190565b93505060406114ce87828801611190565b92505060606114df87828801611190565b91505092959194509250565b6114f481611131565b82525050565b6115038161116f565b82525050565b600060608201905061151e60008301866114eb565b61152b60208301856114eb565b61153860408301846114fa565b949350505050565b600060208201905061155560008301846114fa565b92915050565b7f4e487b7100000000000000000000000000000000000000000000000000000000600052603260045260246000fd5b600081519050919050565b600082825260208201905092915050565b6000819050602082019050919050565b6115bf8161116f565b82525050565b60006115d183836115b6565b60208301905092915050565b6000602082019050919050565b60006115f58261158a565b6115ff8185611595565b935061160a836115a6565b8060005b8381101561163b57815161162288826115c5565b975061162d836115dd565b92505060018101905061160e565b5085935050505092915050565b600060608201905061165d60008301866114fa565b61166a60208301856114fa565b818103604083015261167c81846115ea565b9050949350505050565b6000819050919050565b61169981611686565b81146116a457600080fd5b50565b6000815190506116b681611690565b92915050565b6000602082840312156116d2576116d1611107565b5b60006116e0848285016116a7565b91505092915050565b60006040820190506116fe60008301856114fa565b818103602083015261171081846115ea565b90509392505050565b7f4e487b7100000000000000000000000000000000000000000000000000000000600052601160045260246000fd5b60006117538261116f565b915061175e8361116f565b9250827fffffffffffffffffffffffffffffffffffffffffffffffffffffffffffffffff0382111561179357611792611719565b5b828201905092915050565b60006040820190506117b360008301856114fa565b6117c060208301846114fa565b939250505056fea264697066735822122015a77ecc25fef2e77b92c77734686fc9ca2f42e5f7a9a58b0fafa24d898cc78464736f6c634300080d0033",
  "linkReferences": {},
  "deployedLinkReferences": {}
}